:020000040800F2
:10000000484A002059020008152C0008052900085C
:10001000CD2B000813090008C133000800000000C0
:100020000000000000000000000000009D0100082A
:100030009D0D000800000000F1010008852C00085B
:1000400073020008730200087302000873020008BC
:1000500073020008730200087302000873020008AC
:10006000730200087302000873020008730200089C
:10007000730200087302000873020008730200088C
:10008000ED0C000873020008730200082109000843
:1000900015090008730200087302000873020008C3
:1000A000730200087302000873020008730200085C
:1000B000730200087302000873020008730200084C
:1000C000730200087302000873020008730200083C
:1000D0007302000873020008393300087302000835
:1000E000730200087302000873020008730200081C
:1000F000730200087302000873020008730200080C
:1001000073020008730200087302000873020008FB
:1001100073020008730200087302000873020008EB
:1001200073020008730200087302000873020008DB
:1001300073020008730200087302000839090008FE
:100140002D090008730200087302000873020008FA
:1001500073020008730200087302000873020008AB
:10016000730200087302000873020008730200089B
:100170007302000873020008730200080000000008
:100180007302000873020008DFF80CD000F058FB7F
:10019000004800477D420008484A00202B4B196860
:1001A0000868B0E8F04F80F30988BFF36F8F4FF015
:1001B000000080F3118870470000000006480068C6
:1001C000006880F3088862B661B6BFF34F8FBFF353
:1001D0006F8F00DF00BF00BF08ED00E0DFF80C000C
:1001E000016841F470010160704700BF88ED00E0D4
:1001F000EFF30980BFF36F8F144B1A681EF0100FD6
:1002000008BF20ED108A20E9F04F106008B44FF0CD
:10021000500080F31188BFF34F8FBFF36F8F05F04D
:100220004BF94FF0000080F3118808BC196808688A
:10023000B0E8F04F1EF0100F08BFB0EC108A80F34A
:100240000988BFF36F8F704700BF00BF54000020C4
:10025000EFF30580704700000648804706480047D6
:10026000FEE7FEE7FEE7FEE7FEE7FEE7FEE7FEE766
:10027000FEE7FEE7352D0008890100082DE9F05F53
:100280000546002092469B46884606468146402405
:100290001BE0284641464746224600F01BFA5346DB
:1002A0005A46C01A914110D311461846224600F012
:1002B00002FA2D1A67EB01084F4622460120002161
:1002C00000F0F9F917EB00094E41201EA4F10104DA
:1002D000DFDC484631462A464346BDE8F09F40EA07
:1002E00001039B0703D009E008C9121F08C0042AB4
:1002F000FAD203E011F8013B00F8013B521EF9D29B
:100300007047D2B201E000F8012B491EFBD27047C2
:100310000022F6E710B513460A4604461946FFF7D1
:10032000F0FF204610BD2DE9FE4F804681EA030014
:10033000C00F0C46009021F0004123F00045B8EBBF
:100340000200A94105D24046214690461C460B4674
:10035000024623F00040104347D0270DC7F30A00A0
:10036000C3F30A510290401A019040286BDAC3F39C
:10037000130040F4801B0098924620B10023D2EB7A
:10038000030A63EB0B0B01985946C0F1400250463B
:1003900000F091F906460D4650465946019A00F084
:1003A000A9F910EB08006141002487EA115284EAA0
:1003B000E7731A4340D0009A62B3019A012A4FEAC8
:1003C000075215DC001B61EB02014FF0004202EA0C
:1003D0000752CDE90042001C41F5801132462B4600
:1003E00000F0E0F903B0BDE8F08F40462146F9E7A0
:1003F000001B61EB0201001C41F5801300185B41FA
:100400002018A2F5001747EB030140EAD570B61992
:100410006D4111E06D084FEA360645EAC0754FEAB6
:100420000752001B61EB0201001C41F580114908D5
:100430004FEA30000019514132462B4603B0BDE867
:10044000F04F00F0A0B90098012240000023D0EB4B
:10045000020263EBE073009821464FEAE074B8EBC8
:10046000000061EB0401E9E783F000435BE781F002
:10047000004158E72DE9FE4F81EA030404F00044EF
:1004800021F0004100944FF0000B23F0004350EAAC
:1004900001045ED052EA03045BD0C3F30A54C1F3F3
:1004A0000A552C44A4F2F3340194A0FB0254C1F386
:1004B000130141F48011C3F3130343F4801301FBD0
:1004C000024400FB034E840A970A44EA815447EA37
:1004D0008357A4FB076802958D0A05FB07854FEA41
:1004E000932C04FB0C542705029D4FEA065847EA5B
:1004F0001637B5EB08056EEB070C870E920E47EA30
:10050000811742EA8312A7FB0201B6EB0B0164EBF1
:1005100000042B0D43EA0C335E1844EB1C50DA4602
:100520005146E7FB0201C5F313044FEA0B3343EADC
:1005300014534FEA0432019C43EA0603A4F10C046D
:100540000294009CCDE900B400F02CF903B0BDE8A2
:10055000F08F00200146F9E72DE9F04D81EA030410
:1005600004F0004B21F0004514464FF0000A23F040
:10057000004150EA050220D054EA01021DD0C5F323
:100580000A570246C5F31303C1F31300C1F30A5619
:1005900040F4801543F48013A7EB0608101BD646E1
:1005A00008F2FD3873EB050002D308F1010801E001
:1005B00092185B41B8F1000F03DA00200146BDE854
:1005C000F08D00204FF48011064684460EE0171B84
:1005D00073EB050705D3121B63EB050306434CEAD7
:1005E000010C49084FEA300092185B4150EA0107BC
:1005F000EDD152EA030012D082EA040083EA050139
:10060000084305D0101BAB4106D20122002306E0AF
:1006100000224FF0004302E06FF0010253101AEB8A
:1006200006004CEB085110EB0A0041EB0B01BDE852
:10063000F04D00F0A8B80EB5C10F80EAE070084494
:10064000CA07002140F233438DE80E000A460B46EC
:1006500000F0A8F803B000BD00F0004230F0004008
:100660000AD0C10D01F56071C0F3160042EA0151D4
:10067000C20840071143704700200146704701F04F
:10068000004330B421F0004150EA010206D00A0DC7
:10069000A2F56072C1F31301002A02DC30BC002015
:1006A0007047440F44EAC104C100E01830BC00EBBD
:1006B000C25000F031B8202A04DB203A00FA02F1DF
:1006C000002070479140C2F1200320FA03F3194340
:1006D00090407047202A04DB203A21FA02F00021E2
:1006E000704721FA02F3D040C2F120029140084342
:1006F00019467047202A06DBCB17203A41FA02F050
:1007000043EAE07306E041FA02F3D040C2F120026E
:1007100091400843194670470029A8BF7047401C04
:10072000490008BF20F00100704710B4B0FA80FC07
:1007300000FA0CF050EA010404BF10BC704749B144
:10074000CCF1200421FA04F411FA0CF118BF0121B4
:1007500021430843A3EB0C01CB1D4FEA00614FEA94
:10076000102042BF002010BC704700EBC350104463
:100770000029A4BF10BC7047401C490008BF20F0EE
:10078000010010BC704710B5141E73F1000408DAA4
:10079000401C41F1000192185B411A4301D120F045
:1007A000010010BD2DE9F04D92469B4611B1B1FA02
:1007B00081F202E0B0FA80F220329046FFF77BFF30
:1007C00004460F4640EA0A0041EA0B0153465A46E6
:1007D000084313D0114653EA010019D0C8F1400272
:1007E0005046FFF777FF05460E46504659464246AB
:1007F000FFF761FF084305D0012004E02046394699
:10080000BDE8F08D0020054346EAE0762C433743EF
:100810000A986305E40AA0EB08000022FD0A44EAF6
:1008200047540A3002D500200146E9E701051019B6
:100830006941DDE9084500196941BDE8F04DA2E7CD
:10084000064C074D06E0E06840F0010394E807001D
:1008500098471034AC42F6D3FFF79AFC6464000862
:10086000846400080EB540F2334102910021CDE9C5
:1008700000110A460B46FFF795FF03B000BD70B5A7
:10088000C1F30A5201F000450024C1F3130140F204
:10089000FF3341F480119A4201DA002070BD40F22A
:1008A00033439A42A2F2334203DC5242FFF712FF73
:1008B00000E090402C43F1D0404270BD70B58C18E0
:1008C00010F8015B15F0070301D110F8013B2A1164
:1008D00006D110F8012B03E010F8016B01F8016B51
:1008E0005B1EF9D12B0705D40023521E0DD401F84D
:1008F000013BFAE710F8013BCB1A921C03E013F816
:10090000015B01F8015B521EF9D5A142D8D300204A
:1009100070BDFEE7014800F0F5BD0000AC3F0020CF
:10092000014800F0EFBD0000AC3F0020014800F09E
:10093000E9BD0000D43F0020014800F0E3BD000005
:10094000D43F00200EB50C4C4FF0FF352A46D02185
:10095000684603F01DFDDDE900010828F6D1080610
:1009600004D50548083804F01BFBEFE74806EDD531
:10097000204604F047FBE9E7A03F002070B56C215A
:100980002DED028B1C48FFF7C3FC1B48BFEE000A8D
:10099000642180ED070A194804F042FA64211848DE
:1009A00004F03EFA9FED178A9FED170A0023F0EE40
:1009B000480A2822B0EE601A0321144802F03CF9DC
:1009C000134DDFED148A00244FF4FA5604EB0410A3
:1009D00005EB8000B0EE481AF0EE000AB0EE680AAF
:1009E00000233246032102F027F9641C042CEDDBBE
:1009F000BDEC028B70BD0000C43E0020E000002072
:100A0000CC000020000000009A99D93FF444002057
:100A1000384500200000C84370B59DA02DED068B21
:100A200002F0D0FC9CA002F0CDFC01F04DFA9C4DF0
:100A30006968401AA86001F047FA9A4E68603078F9
:100A40009FED998A994CE8B3012806D0022807D077
:100A500003283BD004283ED03FE094ED060A2DE069
:100A600094ED031AB7EE000AFFEE000AB5EEC01AC5
:100A7000F1EE10FA0CD194ED041AB5EEC01AF1EEB5
:100A800010FA05D18A49A069884205DC894907E046
:100A90008949A069884202DD84ED070A04E087499C
:100AA000884201D9C4ED070A94ED070AF3EE0E0A55
:100AB00060EE200A9FED821A80EE810AF0EE480A6D
:100AC000804800E007E003F0EFFC01E094ED050A48
:100AD00084ED020A01E084ED028A94ED060AB5EE87
:100AE000C00AF1EE10FA04D310EE100A76498842DB
:100AF00002DC85ED000A09E010EE100A7349884215
:100B000004DCDFED730A30EEC00AF2E72868FFF775
:100B1000A3FD9FED701B53EC112BFFF71DFDFFF79D
:100B2000AEFD2860FFF798FD41EC100B02F0D0FC01
:100B3000B0EE409AF0EE609A2069FFF78DFD53EC1D
:100B4000192BFFF797FC41EC190B2868FFF784FD80
:100B500041EC100B02F058FCB0EE40AAF0EE60AA97
:100B6000E068FFF779FD53EC1A2BFFF783FC53EC99
:100B7000192BFFF779FCFFF782FD20602868FFF74B
:100B80006BFD41EC100B02F03FFCB0EE409AF0EE32
:100B9000609A2069FFF760FD53EC192BFFF76AFCA0
:100BA00041EC190B2868FFF757FD41EC100B02F0E0
:100BB0008FFCB0EE40AAF0EE60AAE068FFF74CFDB3
:100BC00053EC1A2BFFF756FC53EC192BFFF7ABFB3A
:100BD000FFF755FD00EE100A84ED010AD4ED000A7E
:100BE00094ED021A70EE601A71EE811AC4ED141AB7
:100BF00070EE801A71EE811AC4ED151AF1EE601ACA
:100C000071EEC01A30EEC00A71EE811A30EE010AA0
:100C1000C4ED161A84ED170A96F85C00012808D175
:100C20005FF0000004EB8001401C81ED148A042871
:100C3000F8DB2A4E002500BF04EB8500D0ED140A36
:100C400090ED100A05EB051006EB800003F0F4F8B8
:100C5000BDEEC00A04EB45016D1C10EE100A042D18
:100C6000A1F86000E8DB1E48216E0160616E416002
:100C70001C488021006803F05DFB1B484FF40071A5
:100C80000068BDEC068BBDE8704003F053BB00006C
:100C900032323232000000002D2D2D2D00000000D8
:100CA00004010020303F002000000000C43E00206E
:100CB00000004842000048C20000C8410000C8C10E
:100CC0006666A63FF4440020000034430000B443AD
:100CD0000000B443F6285C8FC2A54CC03845002004
:100CE000983F00200400002018000020014800F078
:100CF0009DBE00008443002001681823CAB2103A48
:100D0000B2FBF3F2054B6FF30901032A9B5CC36549
:100D100000D9091D8165084670470000D8620008A7
:100D200010B5014600208B698A6A4FF0C07453B138
:100D3000B3F5005F15D072B1012A0CD0022A0AD097
:100D4000032A09D104E01AB1012A06D0022A03D1EC
:100D5000C96AC90100D5012010BDC96AA142FAD0F3
:100D600010BD002AF7D0012AF2D0022AF3D0032ABC
:100D7000F3D010BD30B50468256825F480252560C2
:100D8000046863608368402B036803D0996000683F
:100D9000C26030BD9A600068C16030BD704700001D
:100DA00030B59BB004F07CF9214D00220121286868
:100DB000199019A803F038FB1E4C00220121E060B5
:100DC00068681A901AA803F02FFB2061142205F11D
:100DD00008016846FFF783FA0021684603F00DFB1F
:100DE0002060142205F11C0105A8FFF778FA002104
:100DF00005A803F002FB6060142205F130010AA887
:100E0000FFF76DFA00210AA803F0F7FAA060142298
:100E100005F144010FA8FFF762FA142205F1580109
:100E200014A8FFF75CFA04F05BF91BB030BD0000BA
:100E30006C620008000000202DED028B84B0214D73
:100E4000214E4FF0FF374FF400783A46414668464E
:100E500003F09EFA01988005F7D51C4890ED040A2E
:100E6000002085ED060AB3EE030A00BF00EB001177
:100E700006EB8101D1ED040A05EB8001401C80EEF8
:100E8000801AC0B2042881ED081AEFD300249FED28
:100E9000108B00BF04EB041006EB8000C06BFFF763
:100EA000CAFB53EC182BFFF757FBFFF7E8FB05EBEA
:100EB0008401641CE4B20864042CEBD303F0B4FF97
:100EC000C3E70000C43E002024410020E040002091
:100ED00000000000000033400EB54FF0FF34224602
:100EE0000821684603F054FADDE900100829F6D11C
:100EF0000007F4D504F0D4F803F09EF870B50A8822
:100F0000C2F30A05A5F5806505804A788B78D2087A
:100F100042EA4312C2F30A04A4F5806444808A784A
:100F2000CB78920942EA83020B790A3542EA83229E
:100F3000C2F30A03A3F5806383800A794E795208CD
:100F400042EAC612C2F30A02A2F580620026C280FB
:100F5000142D00D806800A34142C00D846800A3399
:100F6000142B00D886800A32142A00D8C6804A7909
:100F7000920902724A79C2F301124272CA8842810E
:100F80000A8982814A89C2810A7B82744A7BC2743F
:100F9000C989818270BD00002048214ADFED210A05
:100FA00003782148B3EE0E0A012BC16B07D0022B48
:100FB0000DD01E4A914212D3DFED1D0A14E091427A
:100FC00012D21C4A914211D8F9EE040A0CE0914267
:100FD0000AD2194A914209DB80ED0F0A06E0174A4E
:100FE000914203DBF2EE080AC0ED0F0A90ED021AFF
:100FF000D0ED0E1A71EE400AF4EEE01AF1EE10FA9E
:1010000002D8C0ED0E0A704731EE000AF4EEC01AA5
:10101000F1EE10FAF7DB80ED0E0A7047F5000020C4
:10102000000048C2000048C2303F0020000020C23B
:10103000000020C20000A0C00000F04100004041BC
:1010400070B568212DED028B2448FFF761F9234923
:10105000002008704870C821214803F0E1FE4FF4D9
:101060007A7421461F4803F0DBFE9FED1F8A23465A
:10107000B3EE0E0AB0EE481AF0EE480A1A46032103
:101080001A4801F0D9FD6500B0EE481AF0EE480AA2
:101090009FED170A2B4641F658320321154801F0FF
:1010A000CBFD2346B0EE481AF0EE480AB1EE0C0A2A
:1010B0001A460321104801F0BFFDB0EE481ABDECFE
:1010C000028B2B46BDE87040F0EE000A9FED0B0A44
:1010D00041F2707203210A4801F0AEBD303F00209A
:1010E000A4000020B80000200000000028440020D8
:1010F00000007042B0440020E44300200000A04201
:101100006C44002010B534A002F05CF934A002F069
:1011100059F9354C2068401C206000F0D5FE61680C
:10112000401AA06000F0D0FE6060304C207820B102
:10113000012805D0022805D102E003F089F801E07A
:1011400003F0CCF8D4ED0E0A94ED100A284803F011
:10115000ABF9D4ED0F0A94ED110A264803F0A4F977
:101160002348D0ED0B0A2348C4ED120A90ED0B0A78
:10117000214884ED130A94ED040A84ED140A94EDD9
:10118000051A84ED151A03F08FF9D4ED130A94EDC6
:10119000150A1A4803F088F9174890ED0B0A184809
:1011A000BDEEC00A10EE101A0181144991ED0B0A30
:1011B000BDEEC00A10EE101A418100218181114854
:1011C0004021006803F0B6F80F4808210068BDE828
:1011D000104003F0AFB800003131313100000000A1
:1011E0002D2D2D2D0000000010010020303F00208B
:1011F000E4430020284400206C440020B044002038
:10120000983F0020040000201400002090F82020C7
:10121000012A09D090F82020022A05D0416A41F421
:101220008021416201207047006842690A4342619F
:1012300000207047F0B590F82040012C07D090F8BE
:101240002040022C03D0416A41F4802153E004681D
:10125000A5686D0105D4A5682D0102D4A568ED002F
:1012600046D5A4680125C4F30164A5401D608D68BE
:101270004FF4C0739DB1CE6835434E6845EAC6054C
:10128000066803EB0417F5514FF4C275076805EBC8
:1012900004150E697E51097D012905D009E00E88EB
:1012A000CD6845EA4655EBE701684E5946F480762D
:1012B0004E511179D2F805504FF4C67641EA052116
:1012C000056806EB0416A9511178D2F801204FF4F5
:1012D000C47541EA0221026805EB0415515100680A
:1012E00003EB0411425842F0010242500020F0BDCD
:1012F000416A41F4001141620120F0BD10B590F83F
:101300002020012A09D090F82020022A05D0416A25
:1013100041F480214162012010BD3A48D0F80022FA
:1013200042F00102C0F80022D0F8002222F47C52E0
:10133000C0F80022D0F800224B6A42EA0322C0F82B
:1013400000220B7D01229A40D0F81C329343C0F852
:101350001C32CB69B3B9D0F80C329343C0F80C32CD
:101360008C894B6864F31F434C6900EBC404C4F8D8
:1013700040320C890B6864F31F434C6900EBC404D2
:10138000C4F84432CB69012B16D1D0F80C32134388
:10139000C0F80C320C884B6864F31F434C6900EBB7
:1013A000C404C4F840320C89CB6864F31F434C6911
:1013B00000EBC404C4F844328B69002BD0F804322B
:1013C0000ED01343C0F804320B69002BD0F814324E
:1013D00008D01343C0F81432096A012904D008E088
:1013E0009343EFE79343F5E7D0F81C121143C0F89D
:1013F0001C12D0F8001221F00101C0F800120020E8
:1014000010BD000000640040704730B590F82040E7
:10141000012C07D090F82040022C03D0416A41F4FF
:10142000802109E011B1012909D00CE00468E468C9
:1014300007E0416A41F400114162012030BD0468B7
:101440002469A407F5D04FF4D874056804EB01149F
:101450002D5915F00405956005682D5942D0ED0809
:10146000556005682C59C4F34004D4604FF4DA7415
:10147000056804EB01142D5905F00F051561056889
:101480002D59C5F30725956105682C59240C546125
:101490004FF4DC72046802EB0112A4581C7004685B
:1014A000A458240A5C700468A458240C9C70046836
:1014B000A258120EDA704FF4DE72046802EB0112C9
:1014C000A4581C710468A458240A5C710468A458C8
:1014D000240C9C710468A258120EDA7129B10129FA
:1014E00009D00DE06D0D1560BBE70068C16841F0E3
:1014F0002001C16004E00068016941F02001016140
:10150000002030BD2DE9F05F0546006800244669E3
:10151000D0F804908768D0F80CB0D0F810A0D0F8BC
:101520001880F10748D0F90714D001218160B8076D
:1015300003D5284600F073FA0CE0780702D54FF483
:10154000006407E0380702D54FF4805402E02846D3
:1015500000F064FAF80516D529684FF480708860A9
:10156000B80503D5284600F05CFA0CE0780502D5F2
:1015700044F4005407E0380502D544F4804402E006
:10158000284600F04DFAF80316D529684FF480304C
:101590008860B80303D5284600F045FA0CE07803CC
:1015A00002D544F4004407E0380302D544F4803403
:1015B00002E0284600F036FA300707D55FEACB6034
:1015C00004D52968102044F40074C86070074FF0F7
:1015D000080707D55FEA0B7004D52868C76028465E
:1015E00000F08CF9B00706D52868C068800702D0E3
:1015F000284600F085F9700607D55FEACA6004D571
:101600002968102044F480640861B00607D55FEAB9
:101610000A7004D528680761284600F0CFF9F00663
:1016200006D528680069800702D0284600F0C7F96F
:10163000B00308D55FEAC96005D529681020486065
:10164000284600F0BDF9F00307D55FEA097004D51C
:1016500028684760284600F0E7F9300446D55FEA7D
:10166000497040D5F00504D55FEAC87001D044F058
:101670000104B00504D55FEA887001D544F0020486
:10168000700504D55FEA487001D544F004043005C4
:1016900029D518F0700F26D008F07000402815D01A
:1016A00006DC102809D020280AD0302816D10AE0FC
:1016B00050280ED0602811D10EE044F008040DE04F
:1016C00044F010040AE044F0200407E044F0400431
:1016D00004E044F0800401E044F4807428688169E7
:1016E00021F070018161296804204860002C05D038
:1016F000686A204368622846FFF786FEBDE8F09FCF
:1017000070B5040003D094F8200010B104E001206B
:1017100070BD204600F082F82068016821F00201C7
:10172000016000F0D1FB0546052604E000F0CCFB8B
:10173000401B0A2811D8206840688007F6D420682A
:10174000016841F00101016000F0BEFB05460BE0BD
:1017500000F0BAFB401B0A2806D9606A40F400304A
:10176000606284F82060D2E720684068C007EFD04C
:10177000207E0128206801683DD021F080010160B1
:10178000607E01282068016838D021F040010160A6
:10179000A07E01282068016833D021F0200101607B
:1017A000E07E0128206801682ED041F01001016020
:1017B000207F01282068016829D021F008010160FC
:1017C000607F01282068016824D021F004010160B5
:1017D000D4E902010843D4E90412114308436168C3
:1017E000491E08432168C86100206062012084F816
:1017F0002000002070BD41F08001C0E741F04001B1
:10180000C5E741F02001CAE721F01001CFE741F020
:101810000801D4E741F00401D9E70000F0B5324BEC
:101820000768DFF8C0C018680322022409252F4981
:101830000026401C87B0674521D11860012807D1D8
:10184000086840F000700860086800F000700590BB
:101850008DE85400CDE903256946254800F05CFA7F
:1018600000220521132000F0C5FB132000F0B6FB79
:1018700000220521142000F0BDFB14202EE0DFF82B
:1018800074C067452CD10F6847F080670F600F6800
:10189000012807F080670597186007D1086840F0B5
:1018A00000700860086800F0007005904FF4405028
:1018B0008DE85100CDE9032569460F4800F02CFA68
:1018C000002205213F2000F095FB3F2000F086FB21
:1018D00000220521402000F08DFB402000F07EFB1F
:1018E00007B0F0BD006400401C00002040380240FA
:1018F000000C0240006800400004024070470000F5
:101900001CB52A496B4688423AD101F16802002190
:10191000FFF77BFD254868300068A0F2012006280B
:1019200016D2DFE800F00303030319242049C0B2F4
:10193000087000EB00111F4800EB8100016E4A1C8B
:1019400002663229694600F1440002D802F04AFCDE
:101950001CBD02F0F1FA1CBD164940F6E9304439CD
:10196000088314486946443802F01AFB1CBD11492B
:1019700040F24F30883908830E4869468838E8E7D6
:101980000A4A00218432FFF740FD0848843000688D
:10199000642806D06528E9D16946074804F0DCFBD5
:1019A0001CBD6946044802F023FC1CBDAC3F00206E
:1019B0001C01002024410020344200207047704761
:1019C0007047000070B5044690F82000012804D04C
:1019D000606A40F40020606218E0022084F8200071
:1019E0002068016821F00101016000F06DFA0546F0
:1019F0000EE000BF00F068FA401B0A2808D9606AB0
:101A000040F400306062052084F82000012070BDA1
:101A100020684068C007EDD1606270BD70477047B4
:101A20007047704770477047704700002DE9F843D2
:101A300004464FF00009CDF8009063484FF416516A
:101A4000A56D0068B0FBF1F72E6894F85C100820D3
:101A500000FA01F131420FD021680A6852070BD514
:101A60000A6822F004020A6094F85C108840A860BA
:101A7000606D40F00100606594F85C104FF0010863
:101A800008FA01F0304208D021684969090604D5F6
:101A9000A860606D40F00200606594F85C1004205E
:101AA0008840304208D021680968890704D5A860B9
:101AB000606D40F00400606594F85C101020884070
:101AC000304218D021680968090714D5A860206839
:101AD0000168490304D50068000308D5A16C07E03C
:101AE0000168C90503D4016821F008010160216C77
:101AF00009B12046884794F85C1020208840304285
:101B000031D021680968C9062DD5A86094F8350040
:101B100005282068016806D0490347D500680003FE
:101B20001DD4616C1CE021F0160101602068416940
:101B300021F080014161206C08B9A06C20B12068BF
:101B4000016821F00801016094F85C103F20884092
:101B5000A86084F8349084F83580216D1FE0E16B33
:101B600009B120468847606D00282BD0606DC00702
:101B700014D0052084F835002068016821F00101A7
:101B800001600098401C0090B84203D820680068AB
:101B9000C007F6D184F8349084F83580E16C0029D0
:101BA00010D001B02046BDE8F04308470168C905E0
:101BB000D5D4016821F01001016084F8349084F8D4
:101BC0003580CCE7BDE8F8832C0000202DE9F041FA
:101BD000044600F079F906465CB1002584F83450DB
:101BE000022084F835002068016821F001010160BD
:101BF0000DE00120BDE8F08100F066F9801B0528AA
:101C000005D920206065032084F83500F2E72068BC
:101C10000068C007F0D12268116820480140D4E96B
:101C200001031843D4E90336334318436369184367
:101C3000A3691843E3691843236A18430843616A98
:101C4000042903D1D4E90B13194308431060206819
:101C50004069666A20F0070130460E4301270428D8
:101C60000CD1A06A0643E06A40B12046FFF758F85D
:101C700020B14020606584F83570BAE7206846617D
:101C80002046FFF739F894F85C203F2191408160AD
:101C9000656584F835700020ACE700003F8010F0E7
:101CA0002DE9F0410446866D90F8340000250128A6
:101CB0000DD0012084F8340094F835700020012FF5
:101CC00007D084F8340002252846BDE8F0810220C0
:101CD000FBE7022784F8357060652046FFF74AF875
:101CE00094F85C103F208840B0602068016841F0A3
:101CF000160101602068416941F080014161206C5A
:101D000020B12068016841F0080101602068016885
:101D100041F001010160D7E72DE9F84FDFF87CB110
:101D200000224FF001084FF0030A4FF00F090BF1AA
:101D3000040E00BF0B6808FA02F42340A3426ED1E0
:101D40004D68022D01D0122D0ED1D50800EB850C67
:101D5000DCF820505607F70E09FA07F6B5430E696E
:101D6000BE402E43CCF82060066855000F790AFA71
:101D700005FC07F0030726EA0C06AF40374307606F
:101D80004E68012E05D0022E03D0112E01D0122E46
:101D90000ED18668CF6826EA0C06AF4037438760CD
:101DA0004668A6430C79C4F300149440344344605D
:101DB000C6688C6826EA0C06AC403443C4604C68A4
:101DC000E40065D5364C256845F4804525602468D7
:101DD00022F0030504F480440094324C2E19D6F806
:101DE000084895072F0F09FA07F5AC432E4DA84276
:101DF00001D1002524E02D4DA84201D101251FE08D
:101E00002B4DA84201D102251AE02A4DA84201D14A
:101E1000032515E0284DA84202D1042510E037E043
:101E2000264DA84201D105250AE0254DA84201D141
:101E3000062505E0234DA84201D1072500E008252D
:101E4000BD402543C6F80858DBF800405D464E68A3
:101E50009C43F60300D51C432C60DEF80040754619
:101E60004E689C43B60300D51C432C600B4D0835CF
:101E70002C684E689C43F60200D51C432C60074D2D
:101E80000C352C684E689C43B60200D51C432C6070
:101E9000521C102AFFF44EAFBDE8F88F003C014001
:101EA000443802400030014000000240000402407B
:101EB00000080240000C02400010024000140240E2
:101EC00000180240001C0240014880687047000072
:101ED0002000002002488168027811448160704728
:101EE000200000200B4810B5016841F4007101602A
:101EF000016841F480610160016841F48071016012
:101F0000032000F097F80F2000F006F800F024F806
:101F1000002010BD003C024070B50D4D04464FF44A
:101F20007A712878B1FBF0F00A490968B1FBF0F04A
:101F300000F01AFB48B9102C07D200222146501E8F
:101F400000F058F800206C6070BD012070BD0000EA
:101F5000200000202C0000201F4808B5016841F433
:101F600080410160006800F4804000901A48001F22
:101F7000016841F080510160006800F080500090DD
:101F8000032000F057F8002211466FF00B0000F01C
:101F900031F8002211466FF00A0000F02BF8002201
:101FA00011466FF0090000F025F800221146501F7D
:101FB00000F020F800221146101F00F01BF800224C
:101FC0000F21901E00F016F800220F21BDE80840F6
:101FD000501E00F00FB800004438024000F01F020D
:101FE000012191404009800000F1E020C0F800117B
:101FF00070470000F0B40E4B1B680C46C3F302237D
:10200000C3F10705042D00D90425191D072901D2A4
:10201000002300E0DB1E012606FA05F1491E2140DF
:1020200099409E40761E16403143F0BC00F0F3BD4F
:102030000CED00E0064900F0070208684FF6FF03C8
:10204000184040EA0220034A10430860704700002D
:102050000CED00E00000FA052DE9F0470E46050002
:1020600065D0DFF81481D8F80000F7B200F00F0057
:10207000B04207D288F80070D8F8000000F00F00D6
:10208000B04254D128683D4C810712D5400703D592
:10209000206840F4E05020602878000703D52068CD
:1020A00040F4604020602068A96820F0F0000843F8
:1020B00020602878C0072DD0304968680839012889
:1020C00012D0022813D0032811D0096889070029EB
:1020D0002DDA216821F0030101432160FFF7F4FEAE
:1020E000814641F2883A0EE009688903EFE7096802
:1020F0008901ECE7FFF7E8FEA0EB0901514502D9A1
:102100000320BDE8F0872068696800F00C00B0EBA0
:10211000810FEFD1D8F80010404601F00F01B14215
:1021200007D90770006800F00F00B04201D001200D
:10213000E7E72878400705D52068E96820F4E050F3
:10214000084320602878000706D52068296920F414
:10215000604040EAC100206000F03CF82168084A75
:10216000C1F30311515CC840064908600F20FFF716
:10217000D3FE0020C5E70000003C024008380240C2
:10218000E06200082C000020014800687047000051
:102190002C0000200448054900680968044AC1F37E
:1021A0008221515CC84070472C0000200838024052
:1021B000F06200080448054900680968044AC1F350
:1021C0004231515CC84070472C0000200838024062
:1021D000F0620008154810B5006810F00C021448B1
:1021E00013D04110042A0FD0082A0ED10F4C241FFF
:1021F0002268236802F03F025B0207D52068C0F323
:102200008810A0FB010106E0084610BD2168C1F35B
:102210008811A1FB00010023FEF730F82168C1F30B
:102220000141491C4900B0FBF1F010BD08380240E3
:102230000024F4002DE9F84F050076D02878DFF867
:10224000F8B2BE4CC00749D0DBF800105846C1F3C5
:102250008101012908D00068C0F3810002280AD159
:10226000201D0068400206D52068800336D56868C6
:102270000028E2D032E06868B0F5803F10D0B0F5B9
:10228000A02F206810D020F480302060206820F437
:10229000802020606868A0B1FFF716FE06460CE0BB
:1022A000206840F48030F4E740F480202060F7E7B5
:1022B000FFF70AFE801B642873D820688003F7D5D7
:1022C0000CE0FFF701FE064605E000BFFFF7FCFD4E
:1022D000801B6428F0D820688003F7D42878DFF8C2
:1022E000608280074FF000093ED5DBF800105846A9
:1022F00011F00C0F09D00068C0F3810002280BD147
:102300008D48001F0068400206D42068800715D55C
:10231000E868012809D111E0E868B8B10120C8F8DF
:102320000000FFF7D1FD064605E002E1FFF7CCFD16
:10233000801B0228C0D820688007F7D5206829694B
:1023400020F0F80040EAC10020600DE0C8F80090DD
:10235000FFF7BAFD064604E0FFF7B6FD801B022832
:102360001FD820688007F7D42878000722D5724E3E
:10237000744869696C3671B101210160FFF7A4FDF1
:10238000074604E0FFF7A0FDC01B022809D830680B
:102390008007F7D50EE0C0F80090FFF795FD0746DF
:1023A00005E083E0FFF790FDC01B02287ED830686F
:1023B0008007F7D42878400768D5DFF87CA100278C
:1023C0000AF1380ADAF80000C0000BD4DAF800107D
:1023D00041F08051CAF80010DAF80000012700F03F
:1023E00080500090584E3068C00510D4306840F4DA
:1023F00080703060FFF768FD009005E0FFF764FD36
:102400000099401A022851D83068C005F6D54A4EC6
:10241000A868683601280FD00528306810D020F051
:1024200001003060306820F004003060A868B8B166
:10243000FFF74AFD00900FE0306840F00100F4E73C
:1024400040F004003060F7E7FFF73EFD0099411AC5
:1024500041F28830814264D830688007F4D50EE0BC
:10246000FFF732FD009007E0FFF72EFD0099411ABB
:1024700041F28830814254D830688007F4D42FB1BB
:10248000DAF8001021F08051CAF80010A869C0B332
:10249000DBF80010C1F3810102294AD00228484626
:1024A00007D0C8F86000FFF70FFD00E039E00546EF
:1024B0003AE04746C8F86000FFF706FD064604E02C
:1024C000FFF702FD801B02282BD820688001F7D47B
:1024D000D5E907010843A96A1C4A490802EB0141F2
:1024E0006A6A41EA8211084395F82C1040EA0161BA
:1024F0001148001F016001203866FFF7E5FC054622
:1025000005E014E0FFF7E0FC401B022809D8206832
:102510008001F7D50BE000BFFFF7D6FC401B022877
:1025200002D90320BDE8F88F20688001F4D4002090
:10253000F8E70120F6E700000838024000380240C2
:1025400000004742800E4742007000400000FFFF3D
:102550004FF0E0210428086903D020F0040008614E
:10256000704740F00400FAE710B5401EB0F1807FDC
:1025700001D3012010BD4FF0E02460610F216017EE
:1025800000F049FB0020A06107202061002010BD61
:1025900000B50068094985B088420CD160200090E0
:1025A00002200190002002900390032004906946CD
:1025B0000348FFF7B1FB05B000BD0000004001403B
:1025C0000010024070B5044690F838000D4601280E
:1025D0000DD0012684F83860022084F8390042B119
:1025E000042A18D0082A2AD00C2A4DD139E002201A
:1025F00070BD206800F034FC2068816941F008015A
:1026000081612068816921F004018161206881690C
:102610002A69114311E0206800F04EFC20688169AE
:1026200041F4006181612068816921F480618161E8
:10263000206881692A6941EA0221816124E02068D9
:1026400000F06CFC2068C16941F00801C16120689C
:10265000C16921F00401C1612068C1692A6911437F
:1026600011E0206800F08AFC2068C16941F4006133
:10267000C1612068C16921F48061C1612068C169BC
:102680002A6941EA0221C16184F83960002084F896
:10269000380070BD10B5040003D094F8390010B1B3
:1026A00007E0012010BD002084F83800204600F02B
:1026B0000DF8022084F83900211D206800F064FB29
:1026C000012084F83900002010BD000008B5006822
:1026D0000649884208D10648016841F4803101600A
:1026E000006800F48030009008BD00000040014008
:1026F0004438024010B504460068012200F0A4FBF3
:1027000008492068884202D00749884203D1416CB9
:1027100041F4004141642068016841F00101016019
:10272000002010BD0000014000040140704770B55A
:10273000040004D094F83900002510B106E001200F
:1027400070BD84F83850204600F022F8242084F828
:1027500039002068C16821F40051C160204600F0B2
:1027600095FC2068016921F490410161206841696C
:1027700021F02A0141612068C16841F40051C16023
:10278000E563202084F8390084F83A00002070BD09
:10279000F0B506460068264F0025022101220323DA
:1027A000072487B0B84211D12248056845F01005CA
:1027B0000560006800F01000059058028DE81F00C9
:1027C00069461D48FFF7A8FA07B0F0BD1B4FB84295
:1027D000FAD11848001F076847F4003707600068FF
:1027E00000F40030059060208DE81F006946144811
:1027F000FFF792FA144C134820604FF00060C4E9D0
:1028000001054014C4E9035080106561C4E9065015
:102810004002C4E908052046FFF7D8F920B140F28C
:1028200025110AA000F0CDFD7463A663CCE700007B
:1028300000100140443802400000024000440040C3
:10284000000C024088600240844300202E2E2F534B
:1028500072632F73746D3332663478785F68616C9D
:102860005F6D73702E630000F8B5044690F83A006F
:1028700020283CD1C1B3BAB394F83800012836D02F
:10288000012084F83800A162A2850025E56322209A
:1028900084F83A00636B1748D863636B1648186472
:1028A000636B1648D864606B134605650846666B13
:1028B000216802463046091DFFF7F2F920680168D9
:1028C0004168009184F83850C16841F48071C1605A
:1028D0002068416941F0010141612068416941F08E
:1028E000400141610020F8BDFFE70120FBE7022025
:1028F000F9E700001730000853300008CD2F00081A
:1029000070477047FEE7000010B51B4819490024C6
:1029100001600321C0E901144FF43021C0E90341F3
:102920004461047644768476C47604774477FEF76F
:10293000E7FE18B1232111A000F043FD0E4801214C
:10294000A030046044608460C46004614461C0E9F4
:10295000064101620E2141620146A038FEF7CEFC1D
:102960000548FFF72FF8BDE8104002210248FEF7A6
:102970004DBC000000640040AC3F00202E2E5C5394
:1029800072635C43616E2E630000000010B51B484B
:102990001949002401600321C0E901144FF43021DA
:1029A000C0E903414461047644768476C4760477B2
:1029B0004477FEF7A5FE18B1462111A000F001FDF5
:1029C0000E480E21A0300122046044608460C4607F
:1029D000C0E90441C0E90642C0E908210146A03827
:1029E000FEF78CFC0548FEF7EDFFBDE81040022124
:1029F0000248FEF70BBC000000680040D43F0020F6
:102A00002E2E5C5372635C43616E2E6300000000E7
:102A1000094808B5016841F400110160006800220E
:102A200000F40010009005211020FFF7E3FABDE844
:102A300008401020FFF7D2BA30380240154808B5D8
:102A4000016841F010010160016801F0100100917E
:102A5000016841F080010160016801F0800100918E
:102A6000016841F002010160016801F0020100917A
:102A7000016841F001010160016801F0010100916C
:102A8000016841F008010160006800F00800009052
:102A900008BD00003038024010B5194888B0174909
:102AA0000160A7210024C0E901144FF47A71C0E944
:102AB0000314FFF7EFFD00B1FEE76020CDE900044D
:102AC0000294002269460E480494FFF77BFD00B192
:102AD000FEE7042269460A48FFF774FD00B1FEE7ED
:102AE0000748FFF755FD00210548FFF703FE0421C5
:102AF0000348FFF7FFFD08B010BD00000040014093
:102B0000300100200D4810B50B4901604FF4E13150
:102B10004160002181600C22C160C0E90412816122
:102B2000C161FFF704FE002805D0BDE810403D213B
:102B300003A000F046BC10BD00100140044300207B
:102B40002E2E5C5372635C55736172742E630000A9
:102B500010B5184C16484FF480612060164860602C
:102B60000020A060C4E903010C21C4E90510E06164
:102B70002046FFF7DCFD18B1502110A000F021FC29
:102B80002068C16841F02001C1602068C16841F03F
:102B90001001C1602068C16841F01001C1600549A1
:102BA0008022BDE81040C2390248FFF75DBE000038
:102BB0000044004044430020A08601002E2E5C53B8
:102BC00072635C55736172742E630000FEE700004F
:102BD00008B540F2DC5001F08DFB01F09EFB0B4C80
:102BE0000B4D4FF400760090E068401CE06002F06E
:102BF00057FA01F093FA02F073FA3146286801F0AF
:102C000099FB0521684601F07CFBEDE7F40000200C
:102C10001400002070470907090E002806DA00F0AA
:102C20000F0000F1E02080F8141D704700F1E02053
:102C300080F800147047000010B504462DED048B99
:102C4000B0EE418AF0EE608A0A48E0630A482064E8
:102C5000B0EE409A204601F09AFC216CB0EE481A82
:102C6000F0EE680AB0EE490ABDEC048B2046BDE8E0
:102C7000104008478F4500089D450008012001F0DD
:102C800039FBFBE710B5FFF725F9BDE8104001F06F
:102C9000AABB000030B5254893B00025016841F07B
:102CA00080510160006800F0805011902048016858
:102CB00041F4804101600068022400F480401190DA
:102CC000012000904FF4A02001906005CDE906405E
:102CD00008AA0420A82182E813000B906846FFF799
:102CE000A9FA00B1FEE70CA90F2081E831004FF4EA
:102CF000A0500F904FF48050109005210CA8FFF7C2
:102D0000ABF900B1FEE7FFF73FFA4FF47A71B0FB81
:102D1000F1F0FFF729FC0420FFF71AFC00220F2135
:102D2000501EFFF767F913B030BD00004038024075
:102D3000007000401048016841F4700101600F48C4
:102D4000016841F0010101600C4A00210832116064
:102D500002680B4B1A400260031D0A4A1A6002689F
:102D600022F48022026005480C30016002495806B6
:102D7000803908607047000088ED00E000380240AC
:102D8000FFFFF6FE10300024F0B50268234B244DFF
:102D9000244E254F254C4FF0804C984209D0604579
:102DA00007D0A84205D0B04203D0B84201D0A0421B
:102DB00004D122F0700E4A6842EA0E0298421BD0FB
:102DC000604519D0A84217D0B04215D0B84213D0F0
:102DD000A04211D0164DA8420ED0164DA8420BD0DD
:102DE000154DA84208D0154DA84205D0144DA84253
:102DF00002D0144DA84203D122F44075CA682A4378
:102E000002608A68C2620A688262984201D0A04267
:102E100001D10969016301214161F0BD0000014058
:102E20000004004000080040000C00400004014085
:102E300000400140004401400048014000180040AB
:102E4000001C00400020004010B50123046A8B40A4
:102E50009C430462036A8A401343036210BD00006E
:102E600030B5026A22F001020262026A4368846994
:102E70000D6824F07304254322F002048A6822437B
:102E80000B4CA04202D00B4CA0420BD122F0080404
:102E9000CA6823F4407322434C6922F004021C43A5
:102EA0008B6923434360856149684163026230BD99
:102EB000000001400004014030B5026A22F0100217
:102EC0000262026A436884690D6824F4E64444EAB5
:102ED00005248D6822F0200242EA05120D4DA84219
:102EE00002D00D4DA8420ED1CD6822F0800242EAF8
:102EF00005124D6923F4406343EA85038D6922F08E
:102F0000400243EA85034360846149688163026249
:102F100030BD0000000001400004014030B5026AED
:102F200022F480720262036A4268C46923F4007367
:102F300024F073050C682C438D6843EA05230D4D7E
:102F4000A84202D00C4DA8420ED1CD6823F40063F4
:102F500043EA05234D6922F4405242EA05128D6985
:102F600023F4806342EA05124260C4614968C16388
:102F7000036230BD000001400004014030B5026A28
:102F800022F480520262046A4268C3690D6823F425
:102F9000E64343EA05238D6824F4005444EA0534EB
:102FA000084DA84202D0084DA84204D14D6922F430
:102FB000804242EA85124260C3614968016404624A
:102FC00030BD0000000001400004014070B5846B7A
:102FD0002068406994F83910C0F3C01000252129F9
:102FE00004D118B1E584204600F046F82068406915
:102FF00094F83A10C0F38010222904D118B1E58565
:10300000204600F02BF8E06B40F01000E063204613
:10301000FFF78CFB70BD10B50146806B096809682D
:10302000C90513D40021C1850168CA6822F48072E1
:10303000CA6001684A6922F001024A6101684A696E
:1030400022F040024A61202180F83A10FFF758FC34
:1030500010BD10B5806BFFF754FC10BD0168CA6845
:1030600022F49072CA6001684A6922F001024A6142
:10307000202180F83A1070470168CA6822F0C00227
:10308000CA60202180F83910704700002DE9F04116
:1030900004460068016921F44052E168114301616E
:1030A0002168C86849F20C6290432369A268E56907
:1030B0001A4363692B431A430243CA602168486973
:1030C00020F44072A06910434861E1696425B1F5BC
:1030D000004F9748974A21684FF032083FD09142FD
:1030E00001D081427CD1FFF765F800EBC00101EB14
:1030F000001061688900B0FBF1F6FFF75BF800EBA8
:10310000C00101EB001061688900B0FBF1F0B0FB79
:10311000F5F06FF01801484306EB800108EB011051
:10312000B0FBF5F000F0F006FFF744F800EBC0014B
:1031300001EB001061688900B0FBF1F0B0FBF5F025
:1031400006EB0016FFF736F800EBC00101EB0010AC
:1031500061688900B0FBF1F7FFF72CF8D2E09142EB
:1031600001D081423DD1FFF725F800EBC00101EB12
:10317000001061684900B0FBF1F0B0FBF5F006010A
:10318000FFF718F800EBC00101EB0010616849007F
:10319000B0FBF1F7FFF70EF800EBC00101EB0010F8
:1031A00061684900B0FBF1F0B0FBF5F06FF0180179
:1031B000484307EB800108EBC100B0FBF5F000F0DD
:1031C000F80006EB4006FEF7F5FF00EBC00101EB4F
:1031D000001061684900B0FBF1F7FEF7EBFF3CE03F
:1031E00055E0FEF7D7FF00EBC00101EB001061686E
:1031F0004900B0FBF1F0B0FBF5F00601FEF7CAFFA5
:1032000000EBC00101EB001061684900B0FBF1F771
:10321000FEF7C0FF00EBC00101EB00106168490040
:10322000B0FBF1F0B0FBF5F06FF01801484307EB8D
:10323000800108EBC100B0FBF5F000F0F80006EBF0
:103240004006FEF7A7FF00EBC00101EB001061682C
:103250004900B0FBF1F7FEF79DFF00EBC00101EB69
:10326000001061684900B0FBF1F0B0FBF5F06FF0C1
:103270001801484307EB800108EBC100B0FBF5F0F3
:1032800000F00700216830448860BDE8F081FEF757
:1032900081FF00EBC00101EB001061688900B0FB09
:1032A000F1F6FEF777FF00EBC00101EB001061685B
:1032B0008900B0FBF1F0B0FBF5F06FF01801484366
:1032C00006EB800108EB0110B0FBF5F000F0F00612
:1032D000FEF760FF00EBC00101EB001061688900A0
:1032E000B0FBF1F0B0FBF5F006EB0016FEF752FF75
:1032F00000EBC00101EB001061688900B0FBF1F741
:10330000FEF748FF00EBC00101EB00106168890087
:10331000B0FBF1F0B0FBF5F06FF01801484307EB9C
:10332000800108EB0110B0FBF5F000F00F00A9E7F9
:10333000001401400010014010B51E4C20680168C7
:10334000C90635D5C168C90632D54168016801682A
:1033500021F010010160606B0068016821F001013B
:103360000160606B00684068134980B26E28088075
:1033700005D1A4F1C201A1F11600FDF7BFFD0D4971
:103380008022C2390B48FFF76FFA2068C16841F00C
:103390001001C16009494FF47460C860616B8020FE
:1033A00009684860606B0068016841F001010160D4
:1033B00010BD0000444300202801002000600240AE
:1033C000FEE7FEE7014A024900F010BD2540000873
:1033D0002401002003B401984100009850EAC12064
:1033E00018BF04204A0D18BF40F0010040F2FF72E0
:1033F000B2EB515F08BF40F00200012808BF052072
:1034000002B070470000000010B52F499FED2C1B43
:103410002DED020B84B0059820F000408842D8BF03
:103420009DED040B2DDD2949884209D1049840B94E
:103430004FF0010000F0D4FC00F0A2FC06B010BD7B
:1034400005DB9DED040B00F08FFC06B010BD684657
:103450009DED040B00F0A0F810F0030004BF9DEDFB
:10346000021B9DED000B0CD001280ED09DED021B20
:103470009DED000B022817D0012000F0DDFB06B007
:1034800010BD00F0A5FA06B010BD9DED021B9DED2C
:10349000000B012000F0D0FB51EC100B81F000413B
:1034A00006B041EC100B10BD00F092FA51EC100B7D
:1034B00081F0004106B041EC100B10BD000000008F
:1034C0000000000000000000FB21E93F0000F07F49
:1034D00010B52F499FED2C1B2DED020B84B00598E4
:1034E00020F000408842DCBF00209DED040B32DD5F
:1034F0002849884209D1049840B94FF0010000F0F2
:103500006FFC00F03DFC06B010BD05DB9DED040B2B
:1035100000F02AFC06B010BD68469DED040B00F0DB
:103520003BF810F0030011D0012818D09DED021BCC
:103530009DED000B02281AD000F04AFA51EC100B56
:1035400081F0004106B041EC100B10BD9DED021B57
:103550009DED000B012000F06FFB06B010BD9DED4E
:10356000021B9DED000B00F033FA06B010BD0120E8
:1035700000F062FB51EC100B81F0004106B041EC11
:10358000100B10BD00000000000000000000000053
:10359000FB21E93F0000F07F2DE9F14F04462DEDBE
:1035A000020B2DED088B8AB09FEDE70B80ED020B2F
:1035B000139EE74826F0004585420ADC9DED120B7C
:1035C000002084ED000B0AB0BDEC088B03B0BDE811
:1035D000F08FE0489FEDE0AB9FEDE1BBA84247DDF7
:1035E000E14F9FEDE39B9FEDE48B9DED120B53ECC0
:1035F0001A2B51EC100B002E1CDDFCF735FF41ECB3
:10360000100BBD4208D053EC1B2B51EC100BFCF7F8
:103610002BFFC4E900010BE053EC192B51EC100B0C
:10362000FCF722FF53EC182BFCF71EFFC4E9000146
:103630000120C8E7FCF777FE41EC100BBD4208D033
:1036400053EC1B2B51EC100BFCF76DFEC4E9000191
:103650000BE053EC192B51EC100BFCF764FE53EC10
:10366000182BFCF760FEC4E900014FF0FF30AAE719
:10367000C348A84279DB9DED120B51EC100B00F012
:10368000C5FC41EC180B9FEDC00B53EC102BFCF765
:10369000F1FE9FEDBF1B53EC112BFCF744FEFDF731
:1036A000EEF80746FCF7C7FF41EC190B53EC1A2B59
:1036B000FCF7E0FE53EC182BFCF7D9FE41EC180B9D
:1036C00053EC1B2B51EC190BFCF7D4FEDFF8C8A20E
:1036D00041EC100B4FEA15580125FA4453EC102B1E
:1036E00051EC180BFCF7C0FE032DC4E900013DD0DE
:1036F000C1F30A5005EB4511A8EB000011398142D6
:1037000034DA0AEB051BB0EE48AA9BED000BF0EE95
:1037100068AA53EC102B51EC190BFCF7ABFE41ECF3
:103720001B0B51EC1A0B53EC1B2BFCF79DFE41ECD1
:10373000180B51EC1A0B53EC182BFCF795FE53ECBD
:103740001B2BFCF791FE9BED020B41EC1A0B53EC8B
:10375000102B51EC190BFCF78DFE53EC1A2BFCF7D8
:1037600083FE41EC100B6D1CB8E70EE0002EA8BFE5
:103770003846BFF628AF94ED000B51EC100B81F0EA
:103780000041C4E9000178421DE7C6F3130040F48C
:10379000801EC6F30A50A0F2F530471100F01F0555
:1037A000C5F12000DDF848B0089000200690079091
:1037B0000520EC467949002D07EB0002794408BF4B
:1037C00051F8221009D051F8223001EB8201AB40B0
:1037D0004A68089922FA01F11943A1FB0E26A1FBC0
:1037E0000B131A449A4234BF0123002303EB06084B
:1037F0000CEB8003D3E901A60E448E4234BF0121B5
:10380000002192448A4411B1924502D903E09245C5
:1038100001D2012100E00021C3E901A641444CF896
:103820002010011EA0F10100C4DC029800F100503C
:10383000850F0298DDE903678000DDF81480FCF74E
:10384000FAFE41EC1A0B3046FDF70CF89FED541BC5
:1038500053EC112BFCF70EFE41EC1B0B3846FDF729
:1038600001F89FED511B53EC112BFCF703FE41ECCB
:10387000180B4046FCF7F6FF9FED4D1B53EC112B48
:10388000FCF7F8FD41EC190B51EC180B53EC192B1C
:10389000FCF749FD53EC1B2BFCF745FD53EC1A2BB1
:1038A000FCF741FDCDE90801002008909DED080BD3
:1038B00053EC1A2B51EC100BFCF7D6FD53EC1B2BE1
:1038C000FCF7D2FD53EC182BFCF7CEFD53EC192B73
:1038D000FCF7CDFD9FED381B53EC112BFCF7CAFD17
:1038E0009FED370B41EC180B53EC102B9DED080BA3
:1038F00051EC100BFCF7BEFD53EC182BFCF713FD3D
:103900009FED310B41EC180B53EC102B9DED080B88
:1039100051EC100BFCF7AEFD53EC182BFCF703FD3C
:1039200041EC100B139810F0004F06D06D4251EC93
:10393000100B81F0004141EC100B284684ED000B88
:1039400041E6000000000000000000000000000050
:10395000FB21E93F7CD9024000004054FB21F93FA4
:103960003163621A61B4D03DFB21F93F00000000D1
:103970000000601A61B4D03D7370032E8A19A33B16
:10398000FB2139410000000083C8C96D305FE43F6E
:10399000000000000000E03F4A2C0000982B0000CF
:1039A000000000000000103E000000000000103C7D
:1039B000000000000000103A182D4454FB21F93D8E
:1039C0003326A611460B113C00000054FB21F93DA3
:1039D00010B52DED040B2DED088B82B0B0EE419AA1
:1039E000F0EE619A0B9820F000449FED4BABB4F1E0
:1039F000795F11DA9DED0A0B51EC100BFCF73FFFDC
:103A0000002801BFB0EE4A0AF0EE6A0A02B0BDEC2F
:103A1000088B04BF04B010BD9DED0A0B53EC102BB6
:103A200051EC100BFCF726FD41EC180B3C4806212D
:103A3000B0EE480AF0EE680A784400F081F853ECE2
:103A4000182B51EC100BFCF715FD9DED0A0B41EC0A
:103A50001B0B53EC192B51EC100BFCF70BFD41EC3D
:103A6000190B53EC1B2B51EC180BFCF703FD53EC1B
:103A7000192BFCF7F9FC9FED2C0B41EC190B53ECC7
:103A8000102B51EC180BFCF7F5FC41EC100B2848FF
:103A9000844210DA53EC192B51EC100BFCF7E4FCC8
:103AA00053EC1A2BFCF7E3FC41EC100B02B0BDEC1D
:103AB000088B04B010BD1F48A042BCBF9FED1E1B69
:103AC0008DED001B06DBA4F5001001900020009096
:103AD0009DED001B51EC100B53EC112BFCF7C4FCBB
:103AE0009DED000B41EC180B53EC102B51EC1A0B15
:103AF000FCF7BAFC41EC1A0B53EC192B51EC180BE8
:103B0000FCF7B2FC53EC1A2BFCF7B1FC41EC100BA8
:103B1000CCE7000000000000000000000000F03FC3
:103B2000BC28000000000000000000000000E03F92
:103B30003333D33F0000E93F000000000000D23FD4
:103B400070B504462DED028B4D1E00EBC500B0EEA6
:103B5000408AF0EE608A90ED000B35F0060017D039
:103B600053EC182B51EC100BFCF784FC41EC100BC0
:103B70006D1E04EBC50090ED001B51EC100B53ECD7
:103B8000112BFCF7D0FB41EC100B35F00600E7D110
:103B9000022D36D0042D1CD0062D1CBFBDEC028B8F
:103BA00070BD53EC182B51EC100BFCF763FC94ED3B
:103BB0000A1B53EC112BFCF7B6FB53EC182BFCF74C
:103BC00059FC94ED081B53EC112BFCF7ACFB41ECBA
:103BD000100B53EC182B51EC100BFCF74BFC94ED35
:103BE000061B53EC112BFCF79EFB53EC182BFCF738
:103BF00041FC94ED040B53EC102BFCF794FB41ECCF
:103C0000100B53EC182B51EC100BFCF733FC94ED1C
:103C1000021B53EC112BFCF786FB53EC182BFCF723
:103C200029FC94ED001B53EC112BFCF77CFBBDEC45
:103C3000028B41EC100B70BD31B504462DED040B29
:103C40002DED0A8BB0EE41BAF0EE61BA0B989DED06
:103C50000A0B20F00040B0F1795F0DDA51EC100B47
:103C6000FFF7B8FB042808BF00F09AF89DED0A0B97
:103C7000BDEC0A8B05B030BD53EC102B51EC100B92
:103C8000FCF7F8FB41EC180B9DED0A0B53EC182BDD
:103C900051EC100BFCF7EEFB41EC190B2C48B0EE8D
:103CA000480AF0EE680A05217844FFF749FF9FEDC6
:103CB0002ACBB0EE40AAF0EE60AA9CB353EC1C2BCA
:103CC00051EC190BFCF7D6FB41EC1C0B53EC1A2BF7
:103CD00051EC190BFCF7CEFB9FED210B41EC190BBE
:103CE00053EC102B51EC1B0BFCF7C4FB53EC192BC2
:103CF000FCF7BAFB53EC182BFCF7BCFB53EC1B2B6B
:103D0000FCF7B2FB53EC1C2BFCF7AEFB9DED0A1B42
:103D100053EC112BFCF7ABFBBDEC0A8B05B041EC6F
:103D2000100B30BDFFE753EC1A2B51EC180BFCF7CE
:103D3000A1FB53EC1C2BFCF7F6FA53EC192BFCF708
:103D400099FB9DED0A1B53EC112BFCF7ECFAE3E712
:103D50004427000000000000495555555555C5BF82
:103D6000000000000000E03F10B553EC102B51ECB8
:103D7000100BFCF7D8FA41EC100B10BD000000004E
:103D80009FED050B10B553EC102B51EC100BFCF70D
:103D9000E3FB41EC100B10BD000000000000000030
:103DA0009FED050B10B553EC102B51EC100BFCF7ED
:103DB00061FB41EC100B10BD000000000000001082
:103DC00002E008C8121F08C1002AFAD170477047E4
:103DD000002001E001C1121F002AFBD17047000042
:103DE00001490860704700002C0100202DE9F041D6
:103DF00016460F460446002503E03946B047641CCA
:103E00006D1C20780028F8D12846BDE8F081D0ED5F
:103E1000000AF4EEC00AF1EE10FA01DD80ED000AAE
:103E2000D0ED000AB1EE400AF4EEC00AF1EE10FA4D
:103E300001D280ED000A704700B580ED040A30EE33
:103E4000C00AC0ED030A014680ED070AF0EEE00A61
:103E500010EE900AB0F17E5F03DADFED360AC1EDB5
:103E6000090A086BD1ED060A01F12C02032802D0E1
:103E7000042827D053E091ED001A01F1240021EE2F
:103E8000001A81ED081A91ED091AD1ED011A01EE1F
:103E9000801A30EE600A81ED091AD1ED020A20EE97
:103EA000200A81ED0A0A91ED0E0AB8EE400AFFF7EA
:103EB000AEFF91ED080AD1ED090A30EE200AD1EDEE
:103EC0000A0A21E030EE601AD1ED001AB0EE002AA5
:103ED00021EE211A81ED081AD1ED011A61EE801A46
:103EE00000EEC20AC1ED091AD1ED050A30EE200A32
:103EF000D1ED020A20EE200A71EE210A81ED0A0AB4
:103F000030EE800AD1ED0B0A104630EE200A81ED2A
:103F10000B0A91ED0D0AB8EE400AFFF778FF91ED1C
:103F2000060A81ED050A91ED070A81ED060A91ED79
:103F30000B0A00BD0000000010B5028842800B880B
:103F40005CBA0480A21A8368B2F5805F04DD5B1E50
:103F5000A2F50052836006E012F5805F03DA5B1C75
:103F600002F500528360026204EB4332038BDFED03
:103F70000B0AD21AC26090ED040A80ED050A00EE29
:103F8000102AB8EEC00A80EE201A80ED041A4A8882
:103F900052BA8280898849BAC18010BD610BB6418E
:103FA00030B5028842800B8841F664155CBA048003
:103FB000A21A8368AA4204DD5B1EA2F50052836048
:103FC00007E041F66415EA4203DA5B1C02F5005291
:103FD0008360026204EB4332038BDFED0B0AD21ADB
:103FE000C26090ED040A80ED050A00EE102AB8EEDA
:103FF000C00A80EE201A80ED041A4A8852BA8280E4
:10400000898849BAC18030BD610BB64182B0CDE923
:10401000000121F0004001909DED000B02B051EC39
:10402000100B704703490A685206FCD5C2B24A60B9
:104030007047000000100140324E334C334D207861
:1040400030B1012816D0022814D003283AD049E014
:104050002F4800F0C9FED6ED040A2D4820EE200AB4
:10406000143884ED020A00F0BFFED5ED030A20EEFD
:10407000200A31E095ED050AD4ED070A2548C8214C
:1040800030EE600A84ED020A95ED030AD4ED060ACB
:1040900030EE600A84ED010AB1EE040A80ED000AF8
:1040A00096ED040A1A4884ED090A9FED1B0A14389C
:1040B00084ED0A0A00F0B4FE4FF47A71144800F05F
:1040C000AFFE0FE096ED040AD4ED090A30EE600A67
:1040D00084ED020A95ED030A84ED010A95ED050AC7
:1040E00084ED070A95ED0D0A84ED040A95ED0B0A9F
:1040F00084ED050A00F0FCFEFCF74EFF012000F005
:10410000F9F89CE7E0400020303F002034420020D6
:10411000B8000020E443002000000000F0B52C4867
:10412000012490F909102B48012904D0022902D05A
:10413000032902D003E0047001E003210170C1688B
:104140004FF4C875B1FBF5F205FB1216224A0023A5
:1041500046B9D0E90167BE4202D182F85C4001E075
:1041600082F85C30C826B1FBF6F706FB171636B9A5
:10417000B1FBF5F605FB161109B1416881601749DD
:1041800091ED040A1649D1ED030A134930EE200AD5
:10419000B1F85A1010EE105A491C09B2B5F1414F4E
:1041A00005D9A2F85A10642900DD4470F0BD10EE64
:1041B000104AB4F1824F06DDA2F85A106429F5DDE9
:1041C00002214170F0BDA2F85A304370F0BD0000EA
:1041D0006C420020F4000020303F00209C40002072
:1041E00034420020098849BA0180018370470000E9
:1041F0000A8852BA13B2C3804A8800EE103A52BA03
:1042000012B2F8EEC00A02819FED0D0A898849BA00
:1042100060EE800A09B24181C0ED0B0A00EE902ADF
:10422000F8EEE00A60EE800AC0ED0C0A00EE901A8B
:10423000F8EEE00A20EE800A80ED0D0A70470000DB
:1042400029AE6A3DEFF30580002800D001207047B9
:104250000848094990ED010A80ED110A90ED020A23
:1042600080ED100A0968B1F5FA6F01D901210170DA
:1042700070470000303F002010010020FDF732FEA3
:10428000FEF708FDFEF7DAFBFEF7C2FBFEF73AFC8D
:10429000FEF75EFCFEF738FBFEF778FBFEF7FCFB53
:1042A000FCF7CEFEFCF76AFBFCF77AFD064804211A
:1042B000006800F0CBF805480121006800F0C6F85E
:1042C00000F026F8FEE700000C000020100000209F
:1042D00001460020842900D0C81C7047044890ED96
:1042E000010A80ED110A90ED020A80ED100A704774
:1042F000303F002010B500B9012000F0A3FF0020DE
:1043000010BD10B501B9012100F0C2FF002010BDA1
:1043100010B501F091F8002010BD10B5FFF792FF25
:1043200018B1BDE8104001F001BDBDE8104001F03A
:10433000F7BC0000FEB5064600200D460290019035
:10434000FFF780FF4FF0004498B102A8009001AB46
:1043500001222946304601F05DFC012811D1029866
:1043600088B10A49E0080860BFF34F8FBFF36F8F31
:1043700009E001AB01222946304601F0E5FB0128A6
:1043800001D02046FEBD0198FEBD000004ED00E016
:10439000FEB5002506460F462C460195501C06D05A
:1043A00002B11446FFF74EFF20B1822015E04FF016
:1043B000FF34F7E723463946002001AA01F022FD29
:1043C000012804D00CB1402007E0009506E00198D8
:1043D000002801DA862000E0082000909DE8070010
:1043E00086E80700FEBD10B501F08CFC012803D063
:1043F000BDE8104001F0FEB810BD3EB504460D46C4
:10440000B0F90800FFF764FF02A9CDE90001208A96
:104410002B4682B2D4E9001001F06AFB012801D0DA
:1044200000203EBD02983EBD08B5006800900129FD
:1044300007D0002013460246012103A001F010FE20
:1044400008BD0120F6E70000000000002DE9FC4156
:10445000002507462E4601950C0000D10124FFF7E8
:10446000F1FE009690B101AB22460921384601F0D9
:1044700043FE012812D1019888B10A494FF08050BB
:104480000860BFF34F8FBFF36F8F08E00023224611
:104490000421384601F030FE012800D0FF252846CF
:1044A000BDE8FC8104ED00E000B580ED040A30EECB
:1044B000C00A0146C0ED030A80ED070A006BD1ED8A
:1044C000060A01F12C02032802D0042827D053E069
:1044D00091ED001A01F1240021EE001A81ED081A75
:1044E00091ED091AD1ED011A01EE801A30EE600A41
:1044F00081ED091AD1ED020A20EE200A81ED0A0AA7
:1045000091ED0E0AB8EE400AFFF781FC91ED080A22
:10451000D1ED090A30EE200AD1ED0A0A21E030EE91
:10452000601AD1ED001AB0EE002A21EE211A81EDB9
:10453000081AD1ED011A61EE801A00EEC20AC1ED2F
:10454000091AD1ED050A30EE200AD1ED020A20EE5B
:10455000200A71EE210A81ED0A0A30EE800AD1EDBF
:104560000B0A104630EE200A81ED0B0A91ED0D0A80
:10457000B8EE400AFFF74BFC91ED060A81ED050A03
:1045800091ED070A81ED060A91ED0B0A00BD00F1DD
:10459000300C8CE80E0080EC030A704780EC030AB4
:1045A0009FED050A80ED080A80ED090A80ED0A0AF0
:1045B00080ED0B0A70470000000000002DE9F0417B
:1045C000184C0F460546E6682068001D00F023FDE4
:1045D00038B9206890F82C10012088402169814367
:1045E0002161681C07D137B12168BDE8F0410E4850
:1045F000091D00F048BD20683544B542456021687A
:1046000005D2A06BBDE8F041091D00F024BD606B30
:10461000091D00F020FDA06A854200D2A562BDE818
:10462000F081000054000020883E00202DE9F04178
:10463000054600F035FD2E4CA068401CA0602068A7
:104640002C4F10B1606940B32DE02560A0680128AF
:1046500029D1002606EB860007EB800000F0EDFC78
:10466000761C072EF6D323488C3000F0E6FC214858
:10467000A03000F0E2FC1F48B43000F0DEFC1D4822
:10468000C83000F0DAFC1B48DC3000F0D6FC1948DA
:104690008C3060631430A06305E02068E96AC06A6A
:1046A000884200D82560606A401C60626864E96ADC
:1046B0000120226988401043206101EB810007EB53
:1046C0008000291D00F0DFFC00F00AFD6069002871
:1046D0000CD02068E96AC06A884207D206494FF0C8
:1046E00080500860BFF34F8FBFF36F8FBDE8F0813C
:1046F00054000020AC3D002004ED00E010B500F0B7
:10470000CFFC0E4C2068A0B90D4800F096FC0C4878
:10471000143000F092FC0A48E0601430206100225E
:104720000C210A2000F07CFF206010B105A100F0F0
:1047300053FDBDE8104000F0D3BC00009000002005
:104740009C3E0020546D72510000000070B5114E67
:10475000114C17E000F0A8FE3068B8B101F01EFC63
:1047600000F09EFCF068C568281D00F054FCA068AD
:10477000401EA0606068401E606000F0B1FC2846EA
:1047800000F055F860680028E4D170BD01F006FC27
:10479000F8E70000743E00205400002030B4026CA2
:1047A0000B46002A0BD0C1681144C1604468A14285
:1047B00001D30168C16030BC1846FBF790BD30BC26
:1047C00070472DE9F041856B174604460026026CC0
:1047D00082B1C7B1E068FBF782FDE168206C091A7D
:1047E000E1602268914202D26168081AE060022FFB
:1047F00016D017E02068A8B9606801F049FB0646AA
:10480000002060600EE0A068FBF769FD216CA068E5
:104810000844A0606168884204D32068A06001E079
:1048200005B16D1E6D1CA5633046BDE8F08110B565
:104830000446006B00F068FC2046BDE8104000F024
:1048400063BC000010484FF47051420706D0C01DF1
:104850000D4920F00700411AC1F570510B4A0023A1
:104860000144C2E900030839103A21F00701116040
:104870004B600B600B1AC0E9001393604FF00040CF
:104880005360D060704700006C01002040000020A1
:10489000074C4FF08056074DFFF758FF206801285E
:1048A000FAD92E60BFF34F8FBFF36F8FF4E700008C
:1048B000AC3D002004ED00E02DE9F0470E46DDE9B7
:1048C00009841746824691009946089DA522206BCF
:1048D000FBF717FD6FF00301206B01EB8701084424
:1048E00020F00707780707D0502080F31188BFF326
:1048F0004F8FBFF36F8FFEE72218315C82F83410C0
:10490000315C11B1401C1028F6D3002684F84360B6
:10491000072D00D30625E562C4E91356201D00F0DB
:1049200097FB04F1180000F093FB2461C5F1070028
:104930006462A061666584F858604A46514638460C
:1049400000F03CFA2060B8F1000F01D0C8F8004038
:10495000BDE8F08730B5114900E011460A6882428F
:10496000FBD34B685C18844203D14068184448600C
:10497000084643681C18944209D1084C103C24682E
:10498000A24209D052681A4442600A681268026062
:10499000814200D0086030BD0460F9E7400000208B
:1049A00070B5002441600B4D0061914206D8D11AC8
:1049B0008269914206D2011D286907E09A4203D21A
:1049C000994201D3012403E0011DE86800F043FB94
:1049D000204670BD9000002010B5044600F060FB3A
:1049E000A06B28B15FF0000400F07AFB204610BDF8
:1049F0000124F9E730B587B02B4D4BE0049800282F
:104A000048DB069C606910B1201D00F004FB02A881
:104A100000F0B6F8024604980A283BD2DFE800F01E
:104A20000505053A263705053A260598A169034686
:104A300001442046FFF7B4FF00B3616A204688476F
:104A4000E069012826D1002000900598A169002383
:104A500042181946204601F04FFB78B9502080F3E8
:104A60001188BFF34F8FBFF36F8FFEE70598A061EA
:104A700028B1811813462046FFF792FF0AE0502024
:104A800080F31188BFF34F8FBFF36F8FFEE720468F
:104A900000F03AFB00231A4604A9286800F0EAFD5A
:104AA0000028ABD107B030BD900000202DE9FC41BB
:104AB0000F46054600F0F8FC01A800F061F8044636
:104AC000019818B101F06AFABDE8FC81224EAFB13D
:104AD00030690068A8B30027291B3A46306800F007
:104AE0008FFB01F05BFA0028EED11C494FF080509B
:104AF0000860BFF34F8FBFF36F8FE5E7A542EBD898
:104B000001F04CFAF0682746C068C468201D00F028
:104B100082FAE069012810D1A0692B4641193A4672
:104B20002046FFF73DFF40B10020034601460090BC
:104B30002A46204601F0E0FA20B1616A2046884703
:104B4000C2E707E0502080F31188BFF34F8FBFF317
:104B50006F8FFEE70127BFE79000002004ED00E023
:104B60000648416B096829B1416BC968C968496841
:104B7000816270474FF0FF31FAE7000054000020D7
:104B800070B5054601F0CCF8064E0446B068844284
:104B900003D200F009F8012000E000202860204640
:104BA000B46070BD90000020F8B5194D1FE0C068DA
:104BB000C4680668201D00F02EFA616A2046884706
:104BC000E069012813D1A0693044B04206D92461BC
:104BD0006060211DE86800F03EFA08E0002003460E
:104BE000014600903246204601F086FA38B1E86866
:104BF00001680029DBD12969C5E90310F8BD5020FF
:104C000080F31188BFF34F8FBFF36F8FFEE7000073
:104C10009000002008484068401C4FF0500080F38E
:104C2000118804D0BFF34F8FBFF36F8FFEE7BFF340
:104C30004F8FBFF36F8FFEE748000020074CE068FE
:104C4000016841B1C0680021D0F80000FFF72EFFD5
:104C5000FFF7D0FEF3E701210020F7E790000020E6
:104C60002DE9F041044600F01BFA94F9455004F197
:104C7000240609E0606A48B1304601F055F908B1F0
:104C800000F04CFB6D1E6DB2002DF3DC4FF0FF36D3
:104C900084F8456000F024FA00F002FA94F94450D8
:104CA00004F1100709E0206948B1384601F03CF9E9
:104CB00008B100F033FB6D1E6DB2002DF3DC84F8FB
:104CC0004460BDE8F04100F00BBA00002DE9F0416E
:104CD0000546002700F0E8FB314E306808B9FFF7C1
:104CE000B1FDF06805424BD1C5B3083568070ED059
:104CF00005F00700C0F108000544680707D0502000
:104D000080F31188BFF34F8FBFF36F8FFEE72DB392
:104D10007068854234D82248103001460C6801E0A2
:104D200020460C466168A94202D221680029F7D1C9
:104D300031688C4224D007682168016060680837B8
:104D4000411B10290FD96019420708D0502080F369
:104D50001188BFF34F8FBFF36F8FFEE710E0416004
:104D60006560FFF7F7FD61687068401A7060B268AF
:104D7000904200D2B060F06801430020C4E9000115
:104D800001F00CF9780707D0502080F31188BFF3A9
:104D90004F8FBFF36F8FFEE73846BDE8F08100000C
:104DA000300000200449086818B10868026D521CE0
:104DB00002650868704700005400002010B5031F0A
:104DC0004FF080741C601B1F21F001011960191F36
:104DD000044B0B6014390A60091F6FF0020244385B
:104DE0000A6010BD154C00084168002902DC9FEDE7
:104DF0000B0A70470268531C03608A4200DB0160A3
:104E000090ED000AF8EEC00A00EE101AB8EEC01AD3
:104E100080EE810A80ED020A704700000000000069
:104E20000022C0E90021704770B527482DED048BA2
:104E3000007800282CD025480078012828D1244863
:104E40002449254D0278B1F90200B1F90040012A48
:104E500021D0FBF7F0FB9FED218B53EC182BFBF7D8
:104E600009FB9FED209B53EC192BFBF775FBFBF720
:104E700006FCE8602046FBF7DEFB53EC182BFBF743
:104E8000F9FA53EC192BFBF767FBFBF7F8FB2861EA
:104E9000BDEC048B70BD00EE100AB3EE0E1ADFED10
:104EA000130AB8EEC00A20EE010AC0EE201A00EE86
:104EB000104AB8EEC00A20EE010A80EE201AC5EDB5
:104EC000031A85ED041AE3E7303F0020F4000020C8
:104ED000F50000206C420020C43E002000000000CD
:104EE00000004E400000000000A084400000254467
:104EF00012480178002920D01149097801291CD1D4
:104F0000104990ED0E0A9FED101AB1F9042000EE41
:104F1000902AF8EEE00A00EEC10A9FED0C1A80ED2F
:104F20000E0AB1F9061090ED0F0A00EE901AF8EE95
:104F3000E00A00EEC10A80ED0F0A7047303F002002
:104F4000F40000206C4200206F12833A17B7D1386A
:104F50007CB5124C0025E560A5604FF40075256016
:104F600008252561040A8DF800408DF80100080A23
:104F70008DF80200100A8DF804008DF80520180A3B
:104F80008DF803108DF8060004498DF807300123D1
:104F90006A46A1F15000FCF74DF97CBDFC3F0020B2
:104FA000B0F90630B0F90420B0F90210B0F90000F1
:104FB000FFF7CEBF7CB5124C002340F2FF15E36033
:104FC0002560A36008252561040A8DF800408DF84E
:104FD0000100080A8DF80200100A8DF804008DF80F
:104FE00005208DF803108DF8063005498DF807303F
:104FF00001236A46A1F15000FCF71CF97CBD0000BA
:10500000FC3F0020B0F90420B0F9021000884042B3
:1050100000B2FFF7CFBFD0E9013201699A60D0E951
:1050200001235A604A68824201D182684A600022A4
:1050300002610868401E0860704700F108014FF0E7
:10504000FF32C0E90112C1600161002101607047B7
:1050500000210161704730B50B685A1C02D000F185
:10506000080202E0026904E02246546825689D4275
:10507000FAD953684B6099608A6051600861016891
:10508000491C016030BD42684A6093688B60936838
:105090005960916008610168491C01607047000017
:1050A000502080F31188BFF34F8FBFF36F8F0A49F1
:1050B0004868401C486001280CD10848006810F07E
:1050C000FF0F07D0502080F31188BFF34F8FBFF33D
:1050D0006F8FFEE7704700004800002004ED00E0FD
:1050E0000849486828B1401E486001D180F3118802
:1050F0007047502080F31188BFF34F8FBFF36F8F3D
:10510000FEE700004800002070B5002827D0144DAD
:10511000A0F108046168E868014207D1502080F3DB
:105120001188BFF34F8FBFF36F8FFEE722683AB14C
:10513000502080F31188BFF34F8FBFF36F8FFEE7CE
:105140008143616000F0B0F9606869680844686094
:105150002046FFF7FFFBBDE8704000F01FBF70BDA9
:105160003000002006484FF47A710068B0FBF1F17E
:105170004FF0E020491E41610721016170470000A6
:105180002C00002010B5FBF763F8114910280ED34E
:1051900000F1E02090F8F0030A78904207D2502006
:1051A00080F31188BFF34F8FBFF36F8FFEE709487D
:1051B0000068896800F4E060884207D9502080F3D5
:1051C0001188BFF34F8FBFF36F8FFEE710BD000054
:1051D000480000200CED00E010B5084B002200BF95
:1051E00053F832401CB1521C082AF9D310BD43F8C1
:1051F000321003EBC201486010BD00006C3D00207E
:1052000070B515460E460446FFF74AFF94F9441060
:105210000020491C01D184F8440094F94510491C30
:1052200001D184F84500FFF75BFFA06B28B92A463F
:10523000314604F1240000F08FF82046BDE87040AC
:10524000FFF70EBD10B5020014D00F48006B38B147
:10525000502080F31188BFF34F8FBFF36F8FFEE7AD
:1052600000F022F900211046FFF7A8F900F096FEA1
:10527000002807D105494FF080500860BFF34F8FD9
:10528000BFF36F8F10BD00005400002004ED00E05C
:1052900070B50D4604000BD095B11E4A106BB8B125
:1052A000502080F31188BFF34F8FBFF36F8FFEE75D
:1052B000502080F31188BFF34F8FBFF36F8FFEE74D
:1052C000502080F31188BFF34F8FBFF36F8FFEE73D
:1052D00000F0EAF8D26823685919934204D98B4246
:1052E0000AD9914202D807E08B42FAD9881A216084
:1052F0000021FFF763F900E0216000F04FFE002875
:1053000007D105494FF080500860BFF34F8FBFF3BE
:105310006F8F70BD5400002004ED00E001490120B2
:10532000C86170475400002010B50C4650B10949BF
:1053300009681831FFF78FFE2046BDE810400121B3
:10534000FFF73CB9502080F31188BFF34F8FBFF3B4
:105350006F8FFEE75400002070B514460D4668B10B
:105360000A4909681831FFF78EFE0CB14FF0FF357E
:1053700021462846BDE87040FFF720B9502080F351
:105380001188BFF34F8FBFF36F8FFEE754000020EB
:1053900070B5040039D01D4DE06A2968C96A884299
:1053A00033D2A069002804DB2868C06AC0F1070076
:1053B000A061E16A164E01EB8101606906EB810193
:1053C00088421FD1201DFFF726FE012150B9E06A57
:1053D00000EB800256F8222022B92A6901FA00F077
:1053E00082432A612868C06AE0622A6981401143C9
:1053F000296100EB800006EB8000211DBDE87040B4
:10540000FFF741BE2868C06AE06270BD540000200A
:10541000AC3D002028B107490A6A0260C9684160B2
:105420007047502080F31188BFF34F8FBFF36F8F09
:10543000FEE70000540000201CB517480024CDE909
:1054400000402346802215A1164800F051FB012898
:1054500003D100F02DFE012809D0401C1AD15020A4
:1054600080F31188BFF34F8FBFF36F8FFEE750209B
:1054700080F31188BFF34F8FBFF36F8F06484FF053
:10548000FF312C38816201214161C460BDE81C40BC
:1054900000F040B81CBD00008000002049444C458D
:1054A00000000000914800080248016B491C01639C
:1054B00070470000540000201448016B11B1012115
:1054C000C16170470021C1610169B1FA81F1C1F187
:1054D0001F0101EB81020E4951F822306BB101EB43
:1054E000820101F108034A6852684A609A4201D178
:1054F00052684A60D16801607047502080F311887B
:10550000BFF34F8FBFF36F8FFEE700005400002002
:10551000AC3D00201CB532480168324A914207D1A7
:10552000502080F31188BFF34F8FBFF36F8FFEE7DA
:1055300000682C49491E884207D1502080F3118809
:10554000BFF34F8FBFF36F8FFEE7274908780190B5
:10555000FF20087008788DF800009DF800009DF885
:10556000002000F0F000904207D0502080F3118816
:10557000BFF34F8FBFF36F8FFEE79DF800001B4A0C
:1055800000F0500010700720906005E09DF800309A
:105590005B008DF80030401E9DF800301B06F5D4EE
:1055A000000200F4E0609060019808700C48203020
:1055B000016841F470010160016841F070410160CF
:1055C000FFF7D0FD00205060FAF708FE0848016898
:1055D00041F040410160FAF7F1FD00201CBD0000E0
:1055E00000ED00E071C20F4100E400E0480000203F
:1055F00034EF00E010B5502080F31188BFF34F8FD7
:10560000BFF36F8F00F09AFB18B104494FF0805040
:105610000860002080F3118810BD000004ED00E058
:105620002DE9F04117460E46050016D0EEB105FBF8
:1056300006F05030FFF74AFB04000CD004F1500094
:10564000AEB12060C4E90F562046012100F0C8F831
:10565000204684F84C70BDE8F081502080F311881A
:10566000BFF34F8FBFF36F8FFEE70020E1E72460A9
:10567000E8E700002DE9FF4F002683B09B468A46ED
:10568000040003D0BAF1000F08D011E0502080F3DD
:105690001188BFF34F8FBFF36F8FFEE7206C38B1D7
:1056A000502080F31188BFF34F8FBFF36F8FFEE759
:1056B00000F028FBDFF824814FF000094FF08057FD
:1056C00048B9059838B1502080F31188BFF34F8F47
:1056D000BFF36F8FFEE7FFF7E3FCA56B45B35146C1
:1056E0002046E668FFF75AF8BBF1000F13D0E660DA
:1056F000606A50B104F1240000F016FC28B1C8F82B
:105700000070BFF34F8FBFF36F8FFFF7E9FC0120ED
:1057100007B0BDE8F08F6D1EA563206810B9FFF7D4
:1057200041FB606020690028EFD004F11000E3E73E
:10573000059808B11EB106E0FFF7D2FC27E06846E5
:10574000FFF768FE0126FFF7CBFCFFF7ADFEFFF782
:10575000A7FC94F94400401C01D184F8449094F9CA
:105760004500401C01D184F84590FFF7B9FC05A91C
:10577000684600F087F9002820460AD0FFF770FA43
:1057800000F00CFC2046FFF727F90028A3D00020EA
:10579000BEE7FFF721F9D8B1206830B9FFF780FCE8
:1057A0006068FFF7F5FDFFF79BFC04F12400059905
:1057B000FFF7BAFD2046FFF753FA00F0EFFB002891
:1057C00089D1C8F80070BFF34F8FBFF36F8F82E7A6
:1057D0002046FFF745FA00F0E1FB7CE704ED00E02E
:1057E00070B50D46040025D0FFF75AFCD4E90F2010
:1057F000216802FB001161600021A1632168A160A2
:105800000A46D4E90F01401E00FB0121E160214658
:105810004FF0FF3001F8440F487004F110008DB1D3
:10582000FFF70BFC04F12400FFF707FCFFF758FC1F
:10583000012070BD502080F31188BFF34F8FBFF35C
:105840006F8FFEE721690029F0D000F06DFB002882
:10585000ECD004494FF080500860BFF34F8FBFF386
:105860006F8FE3E704ED00E02DE9FF4782B01D46AE
:105870008A464FF00008040003D0BAF1000F08D0A8
:1058800011E0502080F31188BFF34F8FBFF36F8F6B
:10589000FEE7206C38B1502080F31188BFF34F8FA2
:1058A000BFF36F8FFEE7022D0AD1E06B012807D00E
:1058B000502080F31188BFF34F8FBFF36F8FFEE747
:1058C00000F020FA3F4F4FF000094FF0805648B9E2
:1058D000049838B1502080F31188BFF34F8FBFF385
:1058E0006F8FFEE7FFF7DCFBA06BE16B884207D30D
:1058F000022D05D00498D0B1B8F1000F1AD01EE0E7
:105900002A4651462046FEF75CFF616A19B104F150
:10591000240000F009FB20B13E60BFF34F8FBFF3BE
:105920006F8FFFF7DDFB012006B0BDE8F087FFF7C2
:10593000D7FB22E06846FFF76DFD4FF00108FFF747
:10594000CFFBFFF7B1FDFFF7ABFB94F94400401C20
:1059500001D184F8449094F94500401C01D184F8A9
:105960004590FFF7BDFB04A9684600F08BF830B105
:105970002046FFF775F900F011FB0020D4E7FFF790
:105980008FFBA06BE16B884213D1FFF7A9FB04F1F9
:1059900010000499FFF7C8FC2046FFF761F900F0FA
:1059A000FDFA00289ED13E60BFF34F8FBFF36F8F8B
:1059B00098E7FFF795FB2046FFF752F900F0EEFA63
:1059C00090E7000004ED00E02DE9F0471F46904607
:1059D0008946040003D0B9F1000F08D011E050202F
:1059E00080F31188BFF34F8FBFF36F8FFEE7206CFA
:1059F00038B1502080F31188BFF34F8FBFF36F8F02
:105A0000FEE7022F0AD1E06B012807D0502080F377
:105A10001188BFF34F8FBFF36F8FFEE7FFF7B2FB25
:105A20005020EFF3118680F31188BFF34F8FBFF33F
:105A30006F8FA06BE16B884206D3022F04D0002049
:105A400086F31188BDE8F08794F945503A464946F7
:105A50002046FEF7B6FE681C04D06D1C84F8455045
:105A60000120EDE7606A0028FAD004F1240000F07C
:105A70005BFA0028F4D0B8F1000FF1D00121C8F88A
:105A80000010EDE770B50D46040019D005B3FFF71F
:105A900007FB164AD1682868431C0FD02368126A96
:105AA000934202D062688A421AD96268891A814296
:105AB00016D2401A28602046FFF7ACFC002410E004
:105AC000502080F31188BFF34F8FBFF36F8FFEE735
:105AD000502080F31188BFF34F8FBFF36F8FFEE725
