:020000040800F2
:10000000E05C002059020008712F000889250008D3
:100010000D2F0008CF080008C936000800000000B6
:100020000000000000000000000000009D0100082A
:10003000950C000800000000F10100087530000870
:1000400073020008730200087302000873020008BC
:1000500073020008730200087302000873020008AC
:10006000730200087302000873020008730200089C
:10007000730200087302000873020008730200088C
:10008000E50B00087302000873020008DD08000891
:10009000D108000873020008730200087302000808
:1000A000730200087302000873020008730200085C
:1000B000730200087302000873020008730200084C
:1000C000730200087302000873020008730200083C
:1000D0007302000873020008E5340008693500085F
:1000E000730200087302000873020008730200081C
:1000F000730200087302000873020008730200080C
:1001000073020008730200087302000873020008FB
:1001100073020008730200087302000873020008EB
:1001200073020008730200087302000873020008DB
:10013000730200087302000873020008F508000843
:10014000E90800087302000873020008730200083F
:10015000730200087302000873020008D535000816
:10016000730200087302000873020008730200089B
:100170007302000873020008730200080000000008
:100180007302000873020008DFF80CD000F062FB75
:1001900000480047413B0008E05C00202B4B1968F9
:1001A0000868B0E8F04F80F30988BFF36F8F4FF015
:1001B000000080F3118870470000000006480068C6
:1001C000006880F3088862B661B6BFF34F8FBFF353
:1001D0006F8F00DF00BF00BF08ED00E0DFF80C000C
:1001E000016841F470010160704700BF88ED00E0D4
:1001F000EFF30980BFF36F8F144B1A681EF0100FD6
:1002000008BF20ED108A20E9F04F106008B44FF0CD
:10021000500080F31188BFF34F8FBFF36F8F05F04D
:10022000D1FA4FF0000080F3118808BC1968086803
:10023000B0E8F04F1EF0100F08BFB0EC108A80F34A
:100240000988BFF36F8F704700BF00BF30000020E8
:10025000EFF30580704700000648804706480047D6
:10026000FEE7FEE7FEE7FEE7FEE7FEE7FEE7FEE766
:10027000FEE7FEE725310008890100082DE9F05F5F
:100280000546002092469B46884606468146402405
:100290001BE0284641464746224600F024FA5346D2
:1002A0005A46C01A914110D311461846224600F012
:1002B0000BFA2D1A67EB01084F4622460120002158
:1002C00000F002FA17EB00094E41201EA4F10104D0
:1002D000DFDC484631462A464346BDE8F09F40EA07
:1002E00001039B0703D009E008C9121F08C0042AB4
:1002F000FAD203E011F8013B00F8013B521EF9D29B
:100300007047D2B201E000F8012B491EFBD27047C2
:100310000022F6E710B513460A4604461946FFF7D1
:10032000F0FF204610BD034611F8012B00F8012B09
:10033000002AF9D1184670472DE9FE4F804681EA20
:100340000300C00F0C46009021F0004123F000454F
:10035000B8EB0200A94105D24046214690461C4612
:100360000B46024623F00040104347D0270DC7F349
:100370000A00C3F30A510290401A019040286BDA38
:10038000C3F3130040F4801B0098924620B1002371
:10039000D2EB030A63EB0B0B01985946C0F1400204
:1003A000504600F091F906460D4650465946019ACE
:1003B00000F0A9F910EB08006141002487EA11520E
:1003C00084EAE7731A4340D0009A62B3019A012A83
:1003D0004FEA075215DC001B61EB02014FF00042AF
:1003E00002EA0752CDE90042001C41F58011324675
:1003F0002B4600F0E0F903B0BDE8F08F40462146FF
:10040000F9E7001B61EB0201001C41F580130018A5
:100410005B412018A2F5001747EB030140EAD570B5
:10042000B6196D4111E06D084FEA360645EAC07510
:100430004FEA0752001B61EB0201001C41F58011DD
:1004400049084FEA30000019514132462B4603B0AB
:10045000BDE8F04F00F0A0B9009801224000002351
:10046000D0EB020263EBE073009821464FEAE074A0
:10047000B8EB000061EB0401E9E783F000435BE7C0
:1004800081F0004158E72DE9FE4F81EA030404F0B2
:10049000004421F0004100944FF0000B23F0004392
:1004A00050EA01045ED052EA03045BD0C3F30A545D
:1004B000C1F30A552C44A4F2F3340194A0FB025476
:1004C000C1F3130141F48011C3F3130343F4801308
:1004D00001FB024400FB034E840A970A44EA81545C
:1004E00047EA8357A4FB076802958D0A05FB078539
:1004F0004FEA932C04FB0C542705029D4FEA065843
:1005000047EA1637B5EB08056EEB070C870E920E1F
:1005100047EA811742EA8312A7FB0201B6EB0B01FF
:1005200064EB00042B0D43EA0C335E1844EB1C50C3
:10053000DA465146E7FB0201C5F313044FEA0B33D9
:1005400043EA14534FEA0432019C43EA0603A4F140
:100550000C040294009CCDE900B400F02CF903B027
:10056000BDE8F08F00200146F9E72DE9F04D81EA62
:10057000030404F0004B21F0004514464FF0000A3C
:1005800023F0004150EA050220D054EA01021DD0B8
:10059000C5F30A570246C5F31303C1F31300C1F3B1
:1005A0000A5640F4801543F48013A7EB0608101B8D
:1005B000D64608F2FD3873EB050002D308F10108B6
:1005C00001E092185B41B8F1000F03DA0020014608
:1005D000BDE8F08D00204FF48011064684460EE001
:1005E000171B73EB050705D3121B63EB05030643CB
:1005F0004CEA010C49084FEA300092185B4150EA7E
:100600000107EDD152EA030012D082EA040083EA26
:100610000501084305D0101BAB4106D2012200237F
:1006200006E000224FF0004302E06FF00102531099
:100630001AEB06004CEB085110EB0A0041EB0B01E2
:10064000BDE8F04D00F0A8B80EB5C10F80EAE0702B
:100650000844CA07002140F233438DE80E000A46E1
:100660000B4600F0A8F803B000BD00F0004230F0E7
:1006700000400AD0C10D01F56071C0F3160042EAD6
:100680000151C208400711437047002001467047DE
:1006900001F0004330B421F0004150EA010206D0DD
:1006A0000A0DA2F56072C1F31301002A02DC30BC0E
:1006B00000207047440F44EAC104C100E01830BC78
:1006C00000EBC25000F031B8202A04DB203A00FAD7
:1006D00002F1002070479140C2F1200320FA03F399
:1006E000194390407047202A04DB203A21FA02F097
:1006F0000021704721FA02F3D040C2F1200291405C
:10070000084319467047202A06DBCB17203A41FAE6
:1007100002F043EAE07306E041FA02F3D040C2F18E
:10072000200291400843194670470029A8BF70472E
:10073000401C490008BF20F00100704710B4B0FA17
:1007400080FC00FA0CF050EA010404BF10BC7047B2
:1007500049B1CCF1200421FA04F411FA0CF118BFCC
:10076000012121430843A3EB0C01CB1D4FEA00619B
:100770004FEA102042BF002010BC704700EBC3506E
:1007800010440029A4BF10BC7047401C490008BF9A
:1007900020F0010010BC704710B5141E73F1000466
:1007A00008DA401C41F1000192185B411A4301D163
:1007B00020F0010010BD2DE9F04D92469B4611B18D
:1007C000B1FA81F202E0B0FA80F220329046FFF7EF
:1007D0007BFF04460F4640EA0A0041EA0B015346FC
:1007E0005A46084313D0114653EA010019D0C8F104
:1007F00040025046FFF777FF05460E4650465946E1
:100800004246FFF761FF084305D0012004E020467F
:100810003946BDE8F08D0020054346EAE0762C43DA
:1008200037430A986305E40AA0EB08000022FD0A9A
:1008300044EA47540A3002D500200146E9E70105A1
:1008400010196941DDE9084500196941BDE8F04D1D
:10085000A2E70000064C074D06E0E06840F0010307
:1008600094E8070098471034AC42F6D3FFF790FCA9
:10087000687500088875000870B58C1810F8015B61
:1008800015F0070301D110F8013B2A1106D110F829
:10089000012B03E010F8016B01F8016B5B1EF9D12D
:1008A0002B0705D40023521E0DD401F8013BFAE7B3
:1008B00010F8013BCB1A921C03E013F8015B01F81E
:1008C000015B521EF9D5A142D8D3002070BDFEE7CE
:1008D000014800F0AFBC0000D83F0020014800F004
:1008E000A9BC0000D83F0020014800F0A3BC0000D4
:1008F00000400020014800F09DBC000000400020A6
:100900000EB50F4C4FF0FF3632469021684603F08B
:100910009BF9DDE900050828F6D1280602D509482B
:1009200004F0B2FCE806EFD5B4F96630B4F96420FF
:10093000B4F96210B4F9600004F0B0FCE4E7000020
:10094000643F0020DC3E00202DE9F04774212DEDAE
:10095000028B3048FFF7DCFC2E48BFEE000A642112
:1009600080ED070A2C4804F0B3FB2B4864211438AF
:1009700004F0AEFB9FED298A9FED290A0023F0EEDB
:10098000480A2122B0EE601A0321264802F002FB39
:10099000254E264FDFED268A002440F6B8384FF466
:1009A000FA5900BF04EB041506EB8500B0EE481AB7
:1009B000F0EE480AB0EE480A00234246032102F056
:1009C000E9FA07EB8500B0EE481AF0EE480AB0EEFF
:1009D000680A00234A46032102F0DCFA641C042C56
:1009E000E0DB144D9FED148A002400BFC4EBC4006B
:1009F00005EB8000B0EE481AF7EE000AB7EE000AE9
:100A000001F091FE641C042CF0DBBDEC028BBDE810
:100A1000F0870000F03E0020D00000200000000021
:100A2000333313407C490020C0490020D04A0020C5
:100A300000007A43F84B0020000020422DE9F041ED
:100A40005A4C5B4D2DED028B94ED060AB5EEC00AB3
:100A5000F1EE10FA04D310EE100A5649884202DC77
:100A600085ED000A09E010EE100A5349884204DCC3
:100A7000DFED520A30EEC00AF2E72868FFF7F5FD15
:100A80009FED4F1B53EC112BFFF76FFDFFF700FE9F
:100A900000EE100A85ED000A02F0E8FED4ED030A2C
:100AA00020EE208A95ED000A02F01CFFD4ED040A26
:100AB00000EEC08A84ED008A95ED000A02F012FF74
:100AC000D4ED030A20EE208A95ED000A02F0CEFE56
:100AD000D4ED040A00EE808A84ED018AD4ED000A88
:100AE00094ED020A30EEC81A31EE001A84ED141AA1
:100AF000B1EE601A31EE481A31EE001A84ED151A83
:100B000038EE601A70EE880A31EE001A30EE800A74
:100B100084ED161A84ED170A94F86C00012802D0AF
:100B20002948007848B99FED290A002004EB80018C
:100B3000401C81ED140A0428F8DB254FDFF894806F
:100B4000002500BF04EB8506C5EBC50096ED100A35
:100B500007EB800001F0C8FD86ED100A05EB0511DA
:100B6000D6ED140A08EB810002F0FEFEBDEEC00ACD
:100B700004EB45016D1C10EE100A042DA1F8600075
:100B8000E0DB1548216E0160616E416013488021F1
:100B9000006803F02BF812484FF400710068BDECB8
:100BA000028BBDE8F04103F021B80000F03E0020C8
:100BB000B8000020000034430000B4430000B443F8
:100BC000F6285C8FC2A54CC0E400002000000000A5
:100BD000F84B0020C0490020DC3E002088000020A7
:100BE00090000020014800F091BD00005C4800200A
:100BF00001681823CAB2103AB2FBF3F2054B6FF347
:100C00000901032A9B5CC36500D9091D816508465B
:100C1000704700009069000810B5014600208B69FC
:100C20008A6A4FF0C07453B1B3F5005F15D072B14A
:100C3000012A0CD0022A0AD0032A09D104E01AB1F1
:100C4000012A06D0022A03D1C96AC90100D50120B0
:100C500010BDC96AA142FAD010BD002AF7D0012AFE
:100C6000F2D0022AF3D0032AF3D010BD30B50468C5
:100C7000256825F480252560046863608368402B1F
:100C8000036803D099600068C26030BD9A60006854
:100C9000C16030BD7047000030B59BB004F070FB00
:100CA000264D002201212868199019A803F018F890
:100CB000234C00220121606168681A901AA803F091
:100CC0000FF8A061142205F108016846FFF707FB41
:100CD0000021684602F0EDFF2060142205F11C019E
:100CE00005A8FFF7FCFA002105A802F0E2FF206149
:100CF000142205F130010AA8FFF7F1FA00210AA831
:100D000002F0D7FF6060142205F144010FA8FFF73D
:100D1000E6FA00210FA802F0CCFFA060142205F132
:100D2000580114A8FFF7DBFA002114A802F0C1FF54
:100D3000E06004F045FB1BB030BD0000B069000866
:100D40008400002010B558B1084C491E0BD310F890
:100D5000013B5340DBB234F8133083EA1222F4E74C
:100D60004FF6FF7010BD104610BD00002073000844
:100D70002DED048B84B04FF0FF389FED238A234D77
:100D8000234E4FF4007942464946684602F05CFF24
:100D900001988005F7D504F0F3FA1E4F9FED1E9BD6
:100DA00085ED068A002400BF04EB041007EB8000E9
:100DB000B0F91401FFF748FC53EC192BFFF763FB64
:100DC000FFF766FC05EB8401641CE4B20864042CA4
:100DD000EAD396ED020A124910EE100A884204DCAA
:100DE000B5EEC00AF1EE10FA01D286ED028A96ED58
:100DF000020ADFED0C0A80EE201A85ED1A1A04F0C3
:100E00006BF904F0DDFABEE700000000F03E0020C0
:100E1000384D0020E04000203A67FADB5493763FDB
:100E200000007042000070420EB5154C154E164F72
:100E30004FF0FF381B2542460821684602F004FFA8
:100E400001980007F7D504F09BFA002000EB001191
:100E500004EB8101C96B91FBF5F100EE101A06EB72
:100E60008001401CB8EEC00AC0B2042881ED100A0F
:100E7000ECD3387808B104F09DF904F0A1FADAE770
:100E8000E0400020643F0020E400002070B52A4AC2
:100E900013685B1C13600A88C2F30A05A5F5806518
:100EA00005804A788B78D20842EA4312C2F30A04DA
:100EB000A4F5806444808A78CB78920942EA830260
:100EC0000B790A3542EA8322C2F30A03A3F5806351
:100ED00083800A794E79520842EAC612C2F30A02A6
:100EE000A2F580620026C280142D00D806800A3444
:100EF000142C00D846800A33142B00D886800A327E
:100F0000142A00D8C6804A79920902724A79C2F33B
:100F100001124272CA8842810A8982814A89C28149
:100F20000A7B82744A7BC274CA898282098AA1F5CB
:100F30008061C18270BD0000A800002090F82020D0
:100F4000012A09D090F82020022A05D0416A41F4F4
:100F50008021416201207047006842690A43426172
:100F600000207047F0B590F82040012C07D090F891
:100F70002040022C03D0416A41F4802153E00468F0
:100F8000A5686D0105D4A5682D0102D4A568ED0002
:100F900046D5A4680125C4F30164A5401D608D6891
:100FA0004FF4C0739DB1CE6835434E6845EAC6051F
:100FB000066803EB0417F5514FF4C275076805EB9B
:100FC00004150E697E51097D012905D009E00E88BE
:100FD000CD6845EA4655EBE701684E5946F4807600
:100FE0004E511179D2F805504FF4C67641EA0521E9
:100FF000056806EB0416A9511178D2F801204FF4C8
:10100000C47541EA0221026805EB041551510068DC
:1010100003EB0411425842F0010242500020F0BD9F
:10102000416A41F4001141620120F0BD10B590F811
:101030002020012A09D090F82020022A05D0416AF8
:1010400041F480214162012010BD3A48D0F80022CD
:1010500042F00102C0F80022D0F8002222F47C52B3
:10106000C0F80022D0F800224B6A42EA0322C0F8FE
:1010700000220B7D01229A40D0F81C329343C0F825
:101080001C32CB69B3B9D0F80C329343C0F80C32A0
:101090008C894B6864F31F434C6900EBC404C4F8AB
:1010A00040320C890B6864F31F434C6900EBC404A5
:1010B000C4F84432CB69012B16D1D0F80C3213435B
:1010C000C0F80C320C884B6864F31F434C6900EB8A
:1010D000C404C4F840320C89CB6864F31F434C69E4
:1010E00000EBC404C4F844328B69002BD0F80432FE
:1010F0000ED01343C0F804320B69002BD0F8143221
:1011000008D01343C0F81432096A012904D008E05A
:101110009343EFE79343F5E7D0F81C121143C0F86F
:101120001C12D0F8001221F00101C0F800120020BA
:1011300010BD000000640040704730B590F82040BA
:10114000012C07D090F82040022C03D0416A41F4D2
:10115000802109E011B1012909D00CE00468E4689C
:1011600007E0416A41F400114162012030BD04688A
:101170002469A407F5D04FF4D874056804EB011472
:101180002D5915F00405956005682D5942D0ED08DC
:10119000556005682C59C4F34004D4604FF4DA74E8
:1011A000056804EB01142D5905F00F05156105685C
:1011B0002D59C5F30725956105682C59240C5461F8
:1011C0004FF4DC72046802EB0112A4581C7004682E
:1011D000A458240A5C700468A458240C9C70046809
:1011E000A258120EDA704FF4DE72046802EB01129C
:1011F000A4581C710468A458240A5C710468A4589B
:10120000240C9C710468A258120EDA7129B10129CC
:1012100009D00DE06D0D1560BBE70068C16841F0B5
:101220002001C16004E00068016941F02001016112
:10123000002030BD2DE9F05F0546006800244669B6
:10124000D0F804908768D0F80CB0D0F810A0D0F88F
:101250001880F10748D0F90714D001218160B80740
:1012600003D5284600F04BFA0CE0780702D54FF47E
:10127000006407E0380702D54FF4805402E02846A6
:1012800000F03CFAF80516D529684FF480708860A4
:10129000B80503D5284600F034FA0CE0780502D5ED
:1012A00044F4005407E0380502D544F4804402E0D9
:1012B000284600F025FAF80316D529684FF4803047
:1012C0008860B80303D5284600F01DFA0CE07803C7
:1012D00002D544F4004407E0380302D544F48034D6
:1012E00002E0284600F00EFA300707D55FEACB602F
:1012F00004D52968102044F40074C86070074FF0CA
:10130000080707D55FEA0B7004D52868C760284630
:1013100000F07CF9B00706D52868C068800702D0C5
:10132000284600F075F9700607D55FEACA6004D553
:101330002968102044F480640861B00607D55FEA8C
:101340000A7004D528680761284600F0A7F9F0065E
:1013500006D528680069800702D0284600F09FF96A
:10136000B00308D55FEAC96005D529681020486038
:10137000284600F095F9F00307D55FEA097004D517
:1013800028684760284600F0BFF9300446D55FEA78
:10139000497040D5F00504D55FEAC87001D044F02B
:1013A0000104B00504D55FEA887001D544F0020459
:1013B000700504D55FEA487001D544F00404300597
:1013C00029D518F0700F26D008F07000402815D0ED
:1013D00006DC102809D020280AD0302816D10AE0CF
:1013E00050280ED0602811D10EE044F008040DE022
:1013F00044F010040AE044F0200407E044F0400404
:1014000004E044F0800401E044F4807428688169B9
:1014100021F070018161296804204860002C05D00A
:10142000686A204368622846FFF786FEBDE8F09FA1
:1014300070B5040003D094F8200010B104E001203E
:1014400070BD204600F082F82068016821F002019A
:10145000016000F0C1FB0546052604E000F0BCFB7E
:10146000401B0A2811D8206840688007F6D42068FD
:10147000016841F00101016000F0AEFB05460BE0A0
:1014800000F0AAFB401B0A2806D9606A40F400302D
:10149000606284F82060D2E720684068C007EFD01F
:1014A000207E0128206801683DD021F08001016084
:1014B000607E01282068016838D021F04001016079
:1014C000A07E01282068016833D021F0200101604E
:1014D000E07E0128206801682ED041F010010160F3
:1014E000207F01282068016829D021F008010160CF
:1014F000607F01282068016824D021F00401016088
:10150000D4E902010843D4E9041211430843616895
:10151000491E08432168C86100206062012084F8E8
:101520002000002070BD41F08001C0E741F0400183
:10153000C5E741F02001CAE721F01001CFE741F0F3
:101540000801D4E741F00401D9E70000F0B52A4BC7
:101550000768DFF8A0C0186803220224092527497C
:101560000026401C87B0674519D11860012807D1B3
:10157000086840F000700860086800F0007005908E
:101580008DE85400CDE9032569461D4800F046FA70
:1015900000220521142000F0B5FB142026E0DFF81E
:1015A00064C0674524D10F6847F080670F600F68FB
:1015B000012807F080670597186007D1086840F098
:1015C00000700860086800F0007005904FF48250C9
:1015D0008DE85100CDE9032569460B4800F01EFA5D
:1015E00000220521402000F08DFB402000F07EFB12
:1015F00007B0F0BD00640040A00000204038024069
:10160000000C0240006800400004024070470000E7
:101610001E4910B5884224D101F1B8021C4B0021AB
:101620001A48FFF78AFD1948B8300068A0F2012077
:10163000072811D81649C0B2091F087000EB001125
:10164000144800EB8100C1694A1C32291049C2616B
:1016500003D8098849BA018310BDBDE8104002F0E3
:1016600003BA0C4A0A4B1C3A08330021A2F1C40009
:10167000FFF763FD07481C3800686528ECD1044972
:10168000BDE810400831044805F002B9D83F0020F9
:1016900004010020E0400020004300207047704714
:1016A0007047000070B5044690F82000012804D06F
:1016B000606A40F40020606218E0022084F8200094
:1016C0002068016821F00101016000F085FA0546FB
:1016D0000EE000BF00F080FA401B0A2808D9606ABB
:1016E00040F400306062052084F82000012070BDC5
:1016F00020684068C007EDD1606270BD70477047D8
:101700007047704770477047704700002DE9F843F5
:1017100004464FF00009CDF8009063484FF416518D
:10172000A56D0068B0FBF1F72E6894F85C100820F6
:1017300000FA01F131420FD021680A6852070BD537
:101740000A6822F004020A6094F85C108840A860DD
:10175000606D40F00100606594F85C104FF0010886
:1017600008FA01F0304208D021684969090604D519
:10177000A860606D40F00200606594F85C10042081
:101780008840304208D021680968890704D5A860DC
:10179000606D40F00400606594F85C101020884093
:1017A000304218D021680968090714D5A86020685C
:1017B0000168490304D50068000308D5A16C07E05F
:1017C0000168C90503D4016821F008010160216C9A
:1017D00009B12046884794F85C10202088403042A8
:1017E00031D021680968C9062DD5A86094F8350064
:1017F00005282068016806D0490347D50068000322
:101800001DD4616C1CE021F0160101602068416963
:1018100021F080014161206C08B9A06C20B12068E2
:10182000016821F00801016094F85C103F208840B5
:10183000A86084F8349084F83580216D1FE0E16B56
:1018400009B120468847606D00282BD0606DC00725
:1018500014D0052084F835002068016821F00101CA
:1018600001600098401C0090B84203D820680068CE
:10187000C007F6D184F8349084F83580E16C0029F3
:1018800010D001B02046BDE8F04308470168C90503
:10189000D5D4016821F01001016084F8349084F8F7
:1018A0003580CCE7BDE8F883800000202DE9F041C9
:1018B000044600F091F906465CB1002584F83450E6
:1018C000022084F835002068016821F001010160E0
:1018D0000DE00120BDE8F08100F07EF9801B0528B5
:1018E00005D920206065032084F83500F2E72068E0
:1018F0000068C007F0D12268116820480140D4E98F
:1019000001031843D4E9033633431843636918438A
:10191000A3691843E3691843236A18430843616ABB
:10192000042903D1D4E90B1319430843106020683C
:101930004069666A20F0070130460E4301270428FB
:101940000CD1A06A0643E06A40B12046FFF764F973
:1019500020B14020606584F83570BAE720684661A0
:101960002046FFF745F994F85C203F2191408160C3
:10197000656584F835700020ACE700003F8010F00A
:101980002DE9F0410446866D90F8340000250128C9
:101990000DD0012084F8340094F835700020012F18
:1019A00007D084F8340002252846BDE8F0810220E3
:1019B000FBE7022784F8357060652046FFF756F98B
:1019C00094F85C103F208840B0602068016841F0C6
:1019D000160101602068416941F080014161206C7D
:1019E00020B12068016841F00801016020680168A9
:1019F00041F001010160D7E770B5044600F0ECF852
:101A00000546601C02D004480078044400F0E4F865
:101A1000401BA042FAD370BD000000202DE9F84F12
:101A2000DFF87CB100224FF001084FF0030A4FF0BD
:101A30000F090BF1040E00BF0B6808FA02F42340F3
:101A4000A3426ED14D68022D01D0122D0ED1D508C2
:101A500000EB850CDCF820505607F70E09FA07F664
:101A6000B5430E69BE402E43CCF820600668550091
:101A70000F790AFA05FC07F0030726EA0C06AF40C7
:101A8000374307604E68012E05D0022E03D0112E79
:101A900001D0122E0ED18668CF6826EA0C06AF4020
:101AA000374387604668A6430C79C4F3001494401A
:101AB00034434460C6688C6826EA0C06AC40344364
:101AC000C4604C68E40065D5364C256845F4804513
:101AD0002560246822F0030504F480440094324C0D
:101AE0002E19D6F8084895072F0F09FA07F5AC43C9
:101AF0002E4DA84201D1002524E02D4DA84201D150
:101B000001251FE02B4DA84201D102251AE02A4DE4
:101B1000A84201D1032515E0284DA84202D1042591
:101B200010E037E0264DA84201D105250AE0254DF9
:101B3000A84201D1062505E0234DA84201D1072581
:101B400000E00825BD402543C6F80858DBF80040F2
:101B50005D464E689C43F60300D51C432C60DEF8BE
:101B6000004075464E689C43B60300D51C432C606C
:101B70000B4D08352C684E689C43F60200D51C437B
:101B80002C60074D0C352C684E689C43B60200D57E
:101B90001C432C60521C102AFFF44EAFBDE8F88F96
:101BA000003C014044380240003001400000024047
:101BB0000004024000080240000C024000100240F5
:101BC0000014024000180240001C02400AB181616A
:101BD00070470904FBE70000014880687047000077
:101BE000000000200248816802781144816070473B
:101BF000000000200B4810B5016841F4007101603D
:101C0000016841F480610160016841F48071016004
:101C1000032000F097F80F2000F006F800F024F8F9
:101C2000002010BD003C024070B50D4D04464FF43D
:101C30007A712878B1FBF0F00A490968B1FBF0F03D
:101C400000F01AFB48B9102C07D200222146501E82
:101C500000F058F800206C6070BD012070BD0000DD
:101C600000000020800000201F4808B5016841F4F2
:101C700080410160006800F4804000901A48001F15
:101C8000016841F080510160006800F080500090D0
:101C9000032000F057F8002211466FF00B0000F00F
:101CA00031F8002211466FF00A0000F02BF80022F4
:101CB00011466FF0090000F025F800221146501F70
:101CC00000F020F800221146101F00F01BF800223F
:101CD0000F21901E00F016F800220F21BDE80840E9
:101CE000501E00F00FB800004438024000F01F0200
:101CF000012191404009800000F1E020C0F800116E
:101D000070470000F0B40E4B1B680C46C3F302236F
:101D1000C3F10705042D00D90425191D072901D297
:101D2000002300E0DB1E012606FA05F1491E2140D2
:101D300099409E40761E16403143F0BC01F019B91F
:101D40000CED00E0064900F0070208684FF6FF03BB
:101D5000184040EA0220034A104308607047000020
:101D60000CED00E00000FA052DE9F0470E460500F5
:101D700065D0DFF81481D8F80000F7B200F00F004A
:101D8000B04207D288F80070D8F8000000F00F00C9
:101D9000B04254D128683D4C810712D5400703D585
:101DA000206840F4E05020602878000703D52068C0
:101DB00040F4604020602068A96820F0F0000843EB
:101DC00020602878C0072DD030496868083901287C
:101DD00012D0022813D0032811D0096889070029DE
:101DE0002DDA216821F0030101432160FFF7F4FEA1
:101DF000814641F2883A0EE009688903EFE70968F5
:101E00008901ECE7FFF7E8FEA0EB0901514502D993
:101E10000320BDE8F0872068696800F00C00B0EB93
:101E2000810FEFD1D8F80010404601F00F01B14208
:101E300007D90770006800F00F00B04201D0012000
:101E4000E7E72878400705D52068E96820F4E050E6
:101E5000084320602878000706D52068296920F407
:101E6000604040EAC100206000F03CF82168084A68
:101E7000C1F30311515CC840064908600F20FFF709
:101E8000D3FE0020C5E70000003C024008380240B5
:101E90009869000880000020014800687047000031
:101EA000800000200448054900680968044AC1F31D
:101EB0008221515CC84070478000002008380240F1
:101EC000A86900080448054900680968044AC1F384
:101ED0004231515CC8407047800000200838024001
:101EE000A8690008154810B5006810F00C021448E5
:101EF00013D04110042A0FD0082A0ED10F4C241FF2
:101F00002268236802F03F025B0207D52068C0F315
:101F10008810A0FB010106E0084610BD2168C1F34E
:101F20008811A1FB00010023FEF7A8F92168C1F385
:101F30000141491C4900B0FBF1F010BD08380240D6
:101F40000024F4002DE9F84F050076D02878DFF85A
:101F5000F8B2BE4CC00749D0DBF800105846C1F3B8
:101F60008101012908D00068C0F3810002280AD14C
:101F7000201D0068400206D52068800336D56868B9
:101F80000028E2D032E06868B0F5803F10D0B0F5AC
:101F9000A02F206810D020F480302060206820F42A
:101FA000802020606868A0B1FFF716FE06460CE0AE
:101FB000206840F48030F4E740F480202060F7E7A8
:101FC000FFF70AFE801B642873D820688003F7D5CA
:101FD0000CE0FFF701FE064605E000BFFFF7FCFD41
:101FE000801B6428F0D820688003F7D42878DFF8B5
:101FF000608280074FF000093ED5DBF8001058469C
:1020000011F00C0F09D00068C0F3810002280BD139
:102010008D48001F0068400206D42068800715D54F
:10202000E868012809D111E0E868B8B10120C8F8D2
:102030000000FFF7D1FD064605E002E1FFF7CCFD09
:10204000801B0228C0D820688007F7D5206829693E
:1020500020F0F80040EAC10020600DE0C8F80090D0
:10206000FFF7BAFD064604E0FFF7B6FD801B022825
:102070001FD820688007F7D42878000722D5724E31
:10208000744869696C3671B101210160FFF7A4FDE4
:10209000074604E0FFF7A0FDC01B022809D83068FE
:1020A0008007F7D50EE0C0F80090FFF795FD0746D2
:1020B00005E083E0FFF790FDC01B02287ED8306862
:1020C0008007F7D42878400768D5DFF87CA100277F
:1020D0000AF1380ADAF80000C0000BD4DAF8001070
:1020E00041F08051CAF80010DAF80000012700F032
:1020F00080500090584E3068C00510D4306840F4CD
:1021000080703060FFF768FD009005E0FFF764FD28
:102110000099401A022851D83068C005F6D54A4EB9
:10212000A868683601280FD00528306810D020F044
:1021300001003060306820F004003060A868B8B159
:10214000FFF74AFD00900FE0306840F00100F4E72F
:1021500040F004003060F7E7FFF73EFD0099411AB8
:1021600041F28830814264D830688007F4D50EE0AF
:10217000FFF732FD009007E0FFF72EFD0099411AAE
:1021800041F28830814254D830688007F4D42FB1AE
:10219000DAF8001021F08051CAF80010A869C0B325
:1021A000DBF80010C1F3810102294AD00228484619
:1021B00007D0C8F86000FFF70FFD00E039E00546E2
:1021C0003AE04746C8F86000FFF706FD064604E01F
:1021D000FFF702FD801B02282BD820688001F7D46E
:1021E000D5E907010843A96A1C4A490802EB0141E5
:1021F0006A6A41EA8211084395F82C1040EA0161AD
:102200001148001F016001203866FFF7E5FC054614
:1022100005E014E0FFF7E0FC401B022809D8206825
:102220008001F7D50BE000BFFFF7D6FC401B02286A
:1022300002D90320BDE8F88F20688001F4D4002083
:10224000F8E70120F6E700000838024000380240B5
:1022500000004742800E4742007000400000FFFF30
:102260004FF0E0210428086903D020F00400086141
:10227000704740F00400FAE710B5401EB0F1807FCF
:1022800001D3012010BD4FF0E02460610F216017E1
:1022900000F06FFE0020A06107202061002010BD2B
:1022A000704770B5040004D094F83900002510B1CF
:1022B00006E0012070BD84F83850204600F022F876
:1022C000242084F839002068C16821F40051C160DD
:1022D000204600F0B1FF2068016921F490410161BE
:1022E0002068416921F02A0141612068C16841F4F8
:1022F0000051C160E563202084F8390084F83A0079
:10230000002070BD2DE9F04F0546036863480024A6
:10231000DFF88CA102210122032787B04FF0070CC0
:10232000834214D1DAF8003043F01003CAF80030C9
:10233000DAF8000000F01000059078028DE88710B0
:1023400069465848FFF76AFB07B0BDE8F08F54486C
:10235000DFF85481001FDFF854E106154FF0006BE1
:102360004FF4807943452CD1036843F40033036074
:10237000006800F40030059060208DE88710694601
:102380007046FFF74BFB4B4F49483860C7E901B433
:10239000C7E903467C61C7E906493C6238467C626E
:1023A000FFF784FA20B140F21F1143A001F0E0F9D9
:1023B0006F63002205212620BD63FFF7A3FC2620C2
:1023C00037E0DFF81081434536D1036843F48023BA
:1023D0000360006800F480200590314814380368D9
:1023E00043F400130360006800F4001005904FF4FC
:1023F00040708DE80700CDE9031C69467046FFF781
:102400000DFB2B48344F60383860C7E901B4C7E989
:1024100003467C61C7E906493C6238467C62FFF7A7
:1024200045FA6F63002205212720BD63FFF76AFC90
:102430002720FFF75BFC87E72848834284D1DAF83E
:10244000003043F02003CAF80030DAF8000000F052
:1024500020000590C0208DE8870008200490694680
:102460001F48FFF7DBFA204F1E4838608005C7E998
:102470000104C7E903467C61C7E906493C62384666
:102480007C62FFF713FA6F634720BD63FFF72EFCF2
:10249000002205214720FFF735FC55E700100140D9
:1024A000443802400000024000440040000C02405A
:1024B000886002405C4800202E2E2F5372632F73D9
:1024C000746D3332663478785F68616C5F6D7370F9
:1024D0002E630000004800401C4900200014014009
:1024E0000008024028640240BC480020F8B50446B9
:1024F00090F83A0020283CD1C1B3BAB394F8380020
:10250000012836D0012084F83800A162A285002578
:10251000E563222084F83A00636B1748D863636B45
:1025200016481864636B1648D864606B13460565DB
:102530000846666B216802463046091DFFF720FAFF
:10254000206801684168009184F83850C16841F4FE
:102550008071C1602068416941F0010141612068DA
:10256000416941F0400141610020F8BDFFE70120D1
:10257000FBE70220F9E70000C3310008FF31000843
:102580007931000870477047FEE700002DE9F041FF
:10259000534E0546DFF84C8196F8370008280FD1D6
:1025A00096F83B0001280BD1B5F83D10A8F80010B3
:1025B00095F8401088F80310B5F84110A8F80410F9
:1025C000474FB837D7F80200C7F8060070790328DC
:1025D00017D10F21424801F079F8012811D1E8798B
:1025E0003870287A7870287B60F31F64E87A60F38B
:1025F0001744A87A60F30F24687A60F30704C7F8D9
:1026000002407079042843D11D21354801F05EF85D
:1026100001283DD1A87A60F31F64687A60F31744FB
:10262000287A60F30F24E87960F307042C4800EE61
:10263000104A983080ED000AA97B61F31F64697B22
:1026400061F31744297B61F30F24E97A61F30704EE
:1026500000EE904AC0ED010AA97D20EE800A61F3E8
:102660001F64697D61F31744297D61F30F24E97CC0
:1026700061F307048460B5F81710018390ED041A24
:1026800080ED031A80ED040A30EE410A80ED050A60
:102690007079072809D10B21114801F017F801289A
:1026A00003D1B5F80710A8F806107079082814D1DE
:1026B00019210B4801F00AF801280ED1A87D60F31A
:1026C0001F64687D60F31744287D60F30F24E87C65
:1026D00060F307040248C230C460BDE8F081000026
:1026E000A04C002034010020F0EE401AD0ED030A87
:1026F00090ED060AB7EE002A30EE800A80EE801ACE
:1027000080ED041A90ED020A71EEC01A01EE210A62
:1027100032EE411A80ED020AD0ED051A41EE201A80
:10272000C0ED031A7047F7EE001AC0ED001AC0EDB5
:10273000011A80ED030AC0ED050A80ED061A704704
:1027400070B52348017841B100F03CF92149224D90
:1027500091F86C00012806D013E04168491C4160E3
:1027600000F07CF8F2E79FED1D0A002001EB8002EB
:1027700082ED140A05EB8002401C82ED140A042845
:10278000F4DB174E002400BF05EB8400D0ED140AE3
:1027900090ED100A04EB041006EB800001F0E4F861
:1027A000BDEEC00A05EB4401641C10EE100A042CB7
:1027B000A1F86000E8DB0B481021006801F016FA70
:1027C000094808210068BDE8704001F00FBA000018
:1027D000E4000020F03E0020643F002000000000E4
:1027E000D04A0020880000209400002070B51649CF
:1027F00000202DED028B087013484FF47A710830D9
:1028000002F066FC74211148FDF782FD104DDFEDEA
:10281000118A9FED118A00244FF4FA56F0EE680AEF
:1028200004EB041005EB8000B0EE601AB0EE480A2D
:1028300000233246032100F0ADFB641C042CEDDBC9
:10284000BDEC028B70BD0000E4000020643F00205E
:10285000D04A00200000000000007A432DE9F0413A
:10286000514D40F6B8312DED028B012668684F4C72
:10287000884222D805F1080002F00EFCBAEE0C8A5C
:1028800005F1080020EE080A84ED140A02F004FCA9
:1028900020EE080A05F1080084ED150A02F0FCFBA1
:1028A00020EE080A05F1080084ED160A02F0F4FB98
:1028B00020EE080A84ED170A00E0AE706878DFF8B1
:1028C000F08070B9A87801280BD1002707EB071119
:1028D00008EB81004421FDF71BFD7F1C042FF5DB75
:1028E0006E7034489FED348A90F9091003290CD199
:1028F000324A002002EB800383ED148A04EB80034C
:10290000401C83ED148A0428F4DBA87818B303294B
:1029100021D02548083002F0BFFBF3EE0E8A224892
:1029200020EE280A083084ED140A02F0B5FB20EEF0
:10293000280A1D4884ED150A083002F0ADFB20EE90
:10294000280A194884ED160A083002F0A5FB20EE8B
:10295000280A84ED170A1A49D8F8102040468A42FE
:102960000ADA426D8A4207DAD0F898208A4203DAFE
:10297000D8F8DC00884212DB84ED148A84ED158AD5
:1029800084ED168A84ED178A2E70074840F2DC51D8
:10299000BDEC028B0830BDE8F04102F099BBBDEC04
:1029A000028BBDE8F0810000E4000020643F0020BD
:1029B000E04000202C43002000000000F03E0020FA
:1029C0000060EA4670B5454D45482DED048B9FEDFE
:1029D000458B29466E680C68864239DD2046FDF736
:1029E00044FE53EC182BFDF74EFDFDF751FE286514
:1029F0002046FDF73AFE53EC182BFDF744FDFDF79A
:102A000047FE68653046FDF730FE41EC190B204665
:102A1000FDF72BFE53EC182BFDF735FD53EC192B6E
:102A2000FDF78AFCFDF734FEA8653046FDF71DFE74
:102A300041EC190B2046FDF718FE53EC182BFDF75F
:102A400022FD53EC192BFDF777FCFDF721FEE8651D
:102A5000264886423CD93046FDF707FE41EC190B6B
:102A60002046FDF702FE53EC182BFDF70CFD53EC4E
:102A7000192BFDF702FDFDF70BFE28653046FDF72B
:102A8000F4FD41EC190B2046FDF7EFFD53EC182B3C
:102A9000FDF7F9FC53EC192BFDF7EFFCFDF7F8FD02
:102AA00068652046FDF7E1FD53EC182BFDF7EBFCC4
:102AB000FDF7EEFDA8652046FDF7D7FD53EC182B7A
:102AC000FDF7E1FCFDF7E4FDE865BDEC048B70BDAE
:102AD0002C656C65AC65EC65F7E70000643F002091
:102AE000000020419A9999999999E93F000020C1E5
:102AF00010B51C481A49002401600321C0E90114E3
:102B00004FF40021C0E903414FF4401141610476C4
:102B100044768476C47604774477FEF789FC18B14E
:102B2000232111A000F024FE0E4801215030046042
:102B300044608460C46004614461C0E9064101628C
:102B40000E21416201465038FEF770FA0548FEF743
:102B5000A9FDBDE8104002210248FEF7EFB90000D0
:102B600000640040D83F00202E2E5C5372635C430B
:102B7000616E2E630000000010B51B481949002447
:102B800001600321C0E901144FF43021C0E9034181
:102B90004461047644768476C47604774477FEF7FD
:102BA00047FC18B1462111A000F0E2FD0E480E21AD
:102BB00050300122046044608460C460C0E9044174
:102BC000C0E90642C0E9082101465038FEF72EFA56
:102BD0000548FEF767FDBDE8104002210248FEF7F8
:102BE000ADB9000000680040004000202E2E5C536C
:102BF00072635C43616E2E63000000000D4808B5EF
:102C0000016841F400110160016801F400110091B4
:102C1000016841F4800101600068002200F4800036
:102C2000009005211020FFF76DF8BDE80840102046
:102C3000FFF75CB83038024030B5234887B00168F0
:102C400041F004010160016801F00401059101688F
:102C500041F010010160016801F010010591016867
:102C600041F080010160016801F080010591016877
:102C700041F002010160016801F002010591016863
:102C800041F001010160016801F001010591016855
:102C900041F00801016000684FF4004400F00800B2
:102CA00005900120CDE9004002900320074D0390DC
:102CB00069462846FEF7B2FE012221462846FEF765
:102CC00085FF07B030BD00003038024000000240F0
:102CD0000D4810B50B4901604FF4E131416000210E
:102CE00081600C22C160C0E904128161C161FFF7FB
:102CF000D8FA002805D0BDE81040422103A000F01A
:102D000037BD10BD001001405C4700202E2E5C53E3
:102D100072635C55736172742E63000010B5134CBE
:102D200011484FF480612060114860600020A0606D
:102D3000C4E903010421C4E90510E0612046FFF75E
:102D4000B0FA18B154210BA000F012FD2068C16840
:102D500041F01001C16005498022BDE81040C03932
:102D60000248FFF7C3BB0000004400409C4700201E
:102D7000A08601002E2E5C5372635C5573617274E1
:102D80002E63000010B5104C0E480C2120604FF44B
:102D9000E13060600020A060E060C4E90401A0614F
:102DA000E0612046FFF77DFA2068C16841F010011C
:102DB000C1602046BDE810404FF480620349FFF730
:102DC00095BB000000480040DC470020A04C0020DC
:102DD00010B5124C10480C2120604FF4E1306060B7
:102DE0000020A060E060C4E90401A061E061204629
:102DF000FFF757FA18B1782109A000F0B9FC206854
:102E0000C16841F01001C160BDE81040802208494E
:102E10000248FFF76BBB0000001401401C48002073
:102E20002E2E5C5372635C55736172742E630000C6
:102E300020010020F0B5324C324D059FA04203D94D
:102E40002E6846F4800603E02F4C2E6846F40016E8
:102E50002E600568ED07FCD1051B1826103DB5FB5B
:102E6000F6F5EDB23D26062D08D3D4F80CC005EBDF
:102E700045054FF0EC0E0EEB450507E0042D0BD396
:102E8000D4F80CC02D1F05EB45056D00AE404CEA93
:102E9000060CC4F80CC010E0D4F808C0022D05EBF5
:102EA000450504D34FF0040E0EEB450500E06D0020
:102EB000AE404CEA060CC4F808C08260C3604760AC
:102EC00000220260026842F0400202600268026072
:102ED00002680260026842F4806202600268026076
:102EE00002680260026842F4803202600268026096
:102EF00002680260026842EA41610160F0BD0000C0
:102F0000006402403038024000600240FEE70000EA
:102F100008B540F2DC5000F049FE1148022100687B
:102F200000F0F0FE0F480221006800F0EBFE00F018
:102F300050FE0D4C0D4D4FF400760090E068401CA3
:102F4000E06002F01DFA00F0BFFD02F039FA3146F0
:102F5000286800F04BFE0521684600F02EFEEDE7E4
:102F6000980000209C000020A40000209000002079
:102F700070470907090E002806DA00F00F0000F17B
:102F8000E02080F8141D704700F1E02080F8001464
:102F90007047000010B504462DED048BB0EE418A59
:102FA000F0EE608A0A48E0630A482064B0EE409A76
:102FB000204600F0D5FE216CB0EE481AF0EE680A0B
:102FC000B0EE490ABDEC048B2046BDE8104008472E
:102FD000613D0008713D00082DE9F04107460B48AE
:102FE00015460E46007808B900F08EFBEFF3118409
:102FF000202080F311882A463146384600F008F830
:10300000E1B281F31188BDE8F08100002454002072
:1030100070B50E46144900EB400001EBC0051446A4
:10302000E86A183520B101280FD0022805D113E035
:10303000284600F09EFBA04201D2002411E0224667
:103040003146284600F0CDFB0BE0284600F091FB0E
:10305000A042F4D20446F2E73146284600F094FB41
:103060000446204670BD000024540020012000F0DA
:103070009DFDFBE710B5FEF7B5FDBDE8104000F083
:103080000EBE000030B5254893B00025016841F020
:1030900080510160006800F0805011902048016864
:1030A00041F4804101600068022400F480401190E6
:1030B000012000904FF4A02001906005CDE906406A
:1030C00008AA0420A82182E813000B906846FEF7A6
:1030D00039FF00B1FEE70CA90F2081E831004FF461
:1030E000A0500F904FF48050109005210CA8FEF7CF
:1030F0003BFE00B1FEE7FEF7CFFE4FF47A71B0FB66
:10310000F1F0FFF7B9F80420FFF7AAF800220F2129
:10311000501EFEF7F7FD13B030BD000040380240EE
:10312000007000401048016841F4700101600F48D0
:10313000016841F0010101600C4A00210832116070
:1031400002680B4B1A400260031D0A4A1A600268AB
:1031500022F48022026005480C30016002495806C2
:10316000803908607047000088ED00E000380240B8
:10317000FFFFF6FE1030002470B5846B20684069B4
:1031800094F83910C0F3C0100025212904D118B1DA
:10319000E584204600F046F82068406994F83A102B
:1031A000C0F38010222904D118B1E585204600F033
:1031B0002BF8E06B40F01000E0632046FFF770F85A
:1031C00070BD10B50146806B09680968C90513D444
:1031D0000021C1850168CA6822F48072CA60016852
:1031E0004A6922F001024A6101684A6922F04002FC
:1031F0004A61202180F83A10FFF7C4F910BD10B5DC
:10320000806BFFF7C0F910BD0168CA6822F49072A4
:10321000CA6001684A6922F001024A61202180F8EF
:103220003A1070470168CA6822F0C002CA602021C3
:1032300080F83910704700002DE9F041044600681D
:10324000016921F44052E168114301612168C868B5
:1032500049F20C6290432369A268E5691A436369E5
:103260002B431A430243CA602168486920F4407224
:10327000A06910434861E1696425B1F5004F9748A2
:10328000974A21684FF032083FD0914201D08142E5
:103290007CD1FEF717FE00EBC00101EB0010616866
:1032A0008900B0FBF1F6FEF70DFE00EBC00101EB6B
:1032B000001061688900B0FBF1F0B0FBF5F06FF031
:1032C0001801484306EB800108EB0110B0FBF5F054
:1032D00000F0F006FEF7F6FD00EBC00101EB001078
:1032E00061688900B0FBF1F0B0FBF5F006EB001669
:1032F000FEF7E8FD00EBC00101EB001061688900FA
:10330000B0FBF1F7FEF7DEFDD2E0914201D0814241
:103310003DD1FEF7D7FD00EBC00101EB0010616865
:103320004900B0FBF1F0B0FBF5F00601FEF7CAFD75
:1033300000EBC00101EB001061684900B0FBF1F740
:10334000FEF7C0FD00EBC00101EB00106168490011
:10335000B0FBF1F0B0FBF5F06FF01801484307EB5C
:10336000800108EBC100B0FBF5F000F0F80006EBBF
:103370004006FEF7A7FD00EBC00101EB00106168FD
:103380004900B0FBF1F7FEF79DFD3CE055E0FEF78C
:1033900089FD00EBC00101EB001061684900B0FB42
:1033A000F1F0B0FBF5F00601FEF77CFD00EBC0018B
:1033B00001EB001061684900B0FBF1F7FEF772FD08
:1033C00000EBC00101EB001061684900B0FBF1F0B7
:1033D000B0FBF5F06FF01801484307EB800108EBF4
:1033E000C100B0FBF5F000F0F80006EB4006FEF778
:1033F00059FD00EBC00101EB001061684900B0FB12
:10340000F1F7FEF74FFD00EBC00101EB0010616822
:103410004900B0FBF1F0B0FBF5F06FF01801484344
:1034200007EB800108EBC100B0FBF5F000F00700EE
:10343000216830448860BDE8F081FEF733FD00EB81
:10344000C00101EB001061688900B0FBF1F6FEF7E6
:1034500029FD00EBC00101EB001061688900B0FBA1
:10346000F1F0B0FBF5F06FF01801484306EB800176
:1034700008EB0110B0FBF5F000F0F006FEF712FDCE
:1034800000EBC00101EB001061688900B0FBF1F0B6
:10349000B0FBF5F006EB0016FEF704FD00EBC001F3
:1034A00001EB001061688900B0FBF1F7FEF7FAFC50
:1034B00000EBC00101EB001061688900B0FBF1F086
:1034C000B0FBF5F06FF01801484307EB800108EB03
:1034D0000110B0FBF5F000F00F00A9E70014014067
:1034E0000010014010B51D4C20680168C90634D594
:1034F000C168C90631D541680168016821F0100131
:103500000160606B0068016821F001010160606B7F
:1035100000684068124980B26E28088005D1A4F185
:10352000C001A1F56C70FDF7B1FC0C498022C039D7
:103530000A48FEF7DBFF2068C16841F01001C16056
:1035400008493D20C860616B802009684860606B55
:103550000068016841F00101016010BD9C47002036
:10356000140100200060024010B5164C206801686C
:10357000C90618D5C168C90615D541680068606BD1
:103580000068016821F001010160606B006840681B
:103590000D4980B20880A0F2FF304042DD2802D8F9
:1035A0000A48FEF7F3FF0A493D2088600815616B61
:1035B00009684860606B0068016841F001010160C2
:1035C00010BD0000DC47002014010020A04C0020AA
:1035D0000060024070B5374D28680168C90667D59C
:1035E000C168C90664D541680068686B00680168F5
:1035F00021F001010160686B006840682E4E80B2C6
:103600007928308046D106F10C000178AA2941D1F1
:103610008179BB293ED130F9011FDFED280A00EE88
:10362000101AA5F59B64B8EEC00A6180B0F90220BB
:10363000228080EE201A00EE102A84ED041AB8EEE3
:10364000C01A81EE200A84ED030AA18AE182007982
:10365000A0821B48FFF748F8194886ED010A94ED4F
:10366000040A1C30FFF740F886ED020A94ED170AB1
:1036700084ED160A00F0ADFA00EE100AB8EE400A2A
:1036800084ED170A94ED040A84ED090A94ED030A07
:1036900084ED080A0B494FF474600860696B802060
:1036A00009684860686B0068016841F001010160C9
:1036B00070BD00001C480020140100200000C8421A
:1036C000684C002008640240FEE7000030B50C465C
:1036D000050014D0022C12D90A48A11E02882846DF
:1036E000FDF730FB2919C2B211F8023C9A4206D10B
:1036F00011F8011CB1EB102F01D1012030BD0020C9
:1037000030BD00002801002010B5124C03202061BC
:10371000606111A0A06104F1A800E0614FF4806035
:1037200020620020A06260620BA12166E06204F5C5
:103730009561616610212067C4E91A10606709A1CC
:10374000E01DFCF7F0FD08A12046FCF7ECFD202071
:10375000A07110BD245400205465726D696E616CB7
:1037600000000000525454005345474745520000A2
:10377000FEE70269C1688A4203D88068401A104493
:1037800000E0501A401E70472DE9F047C468174604
:10379000894606464FF000083069A04201D9051B52
:1037A00002E0B168201A0D1AB0686D1E001BA84215
:1037B00000D80546BD4200D33D4670682A462044E5
:1037C0004946FCF78CFDB0687F1B2C44A844A944F3
:1037D000A04200D10024F460002FDDD14046BDE8B6
:1037E000F0872DE9F04104468846D4E90207C51B5D
:1037F000E168606816460844B54206D94146FCF7C0
:103800006EFDB819E060BDE8F0812A464146FCF73C
:1038100066FD761B08EB050132466068FCF75FFD2C
:10382000E660F0E702E008C8121F08C1002AFAD1DA
:1038300070477047002001E001C1121F002AFBD130
:103840007047D0ED000AF4EEC00AF1EE10FA01DD87
:1038500080ED000AD0ED000AB1EE400AF4EEC00A95
:10386000F1EE10FA01D280ED000A70479FED1A1AAE
:10387000F5EE000A40EE010ABDEEE00AF5EEC00AE0
:1038800010EE100AF1EE10FA00D2401E00EE100AFF
:103890001349F7EE001AB8EEC00A30EEC00ADFEDA9
:1038A0000F0A20EE200AFCEEC00A10EE900AC0F3C8
:1038B000080000EE900A01EB8000F8EE600A90ED3F
:1038C000011A70EE600A90ED000A71EEE01A21EE26
:1038D000800A00EE810A704783F9223E000000440E
:1038E0001C6A0008DFED1D0AB5EEC00A60EE200A72
:1038F000BDEEE01A11EE100AF1EE10FA00D2401EF1
:1039000000EE100AB8EEC00A30EEC00ADFED140A6D
:1039100020EE200A10EE100AB0F1884F01DB30EEE5
:10392000600A1049F7EE001AFCEEC00A10EE900A89
:10393000C0F3080000EE900A01EB8000F8EE600A88
:1039400090ED011A70EE600A90ED000A71EEE01A37
:1039500021EE800A00EE810A7047000083F9223EC2
:10396000000000441C6A000800B580ED040A30EE37
:10397000C00AC0ED030A014680ED070AF0EEE00A36
:1039800010EE900AB0F17E5F03DADFED360AC1ED8A
:10399000090A086BD1ED060A01F12C02032802D0B6
:1039A000042827D053E091ED001A01F1240021EE04
:1039B000001A81ED081A91ED091AD1ED011A01EEF4
:1039C000801A30EE600A81ED091AD1ED020A20EE6C
:1039D000200A81ED0A0A91ED0E0AB8EE400AFFF7BF
:1039E00030FF91ED080AD1ED090A30EE200AD1ED41
:1039F0000A0A21E030EE601AD1ED001AB0EE002A7A
:103A000021EE211A81ED081AD1ED011A61EE801A1A
:103A100000EEC20AC1ED091AD1ED050A30EE200A06
:103A2000D1ED020A20EE200A71EE210A81ED0A0A88
:103A300030EE800AD1ED0B0A104630EE200A81EDFF
:103A40000B0A91ED0D0AB8EE400AFFF7FAFE91ED70
:103A5000060A81ED050A91ED070A81ED060A91ED4E
:103A60000B0A00BD0000000010B54A8841F664143E
:103A700052BA82800288428009884BBA0380991A20
:103A80008268A14204DD521EA1F50051826007E068
:103A900041F66414E14203DA521C01F500518260E0
:103AA000016203EB4231028BDFED060A891A00EE58
:103AB000101AC160B8EEC00A80EE201A80ED041A18
:103AC00010BD0000610BB64170B51748012290F996
:103AD00009101648012904D0022902D0032902D076
:103AE00003E0027001E003210170C168C823B1FB4B
:103AF000F3F403FB14143CB9D0E901560C4CB54265
:103B000000D0002284F86C206422B1FBF2F402FBA6
:103B10001412002A07D1B1FBF3F203FB12110029A2
:103B200001D04168816070BD2C430020A4000020BA
:103B3000F03E0020EFF30580002800D00120704700
:103B400008B5FEF757F840F2DC50FDF755FFFFF7D8
:103B500099FAFFF771F8FFF751F8FFF7B9F8FEF798
:103B6000C7FFFFF709F8FFF7D9F8FFF70BF9FFF7E1
:103B70002FF9FCF7E9FEFEF739FE15200090054B02
:103B8000054A04210548FFF755F9FDF785F800F0CF
:103B90001BF8FEE7E04B002004100140B86402402F
:103BA00001460020842900D0C81C704710B500B918
:103BB000012001F0DDFC002010BD10B501B901218C
:103BC00001F00AFD002010BD10B501F0BBFD002082
:103BD00010BD10B5FFF7AEFF18B1BDE8104002F000
:103BE0002DBCBDE8104002F023BC0000FEB5064627
:103BF00000200D4602900190FFF79CFF4FF000441B
:103C000098B102A8009001AB01222946304602F08B
:103C100069FB012811D1029888B10A49E0080860BF
:103C2000BFF34F8FBFF36F8F09E001AB012229462D
:103C3000304602F0D1FA012801D02046FEBD01989D
:103C4000FEBD000004ED00E0FEB5002506460F466F
:103C50002C460195501C06D002B11446FFF76AFFAE
:103C600020B1822015E04FF0FF34F7E723463946B4
:103C7000002001AA02F06EFC012804D00CB1402003
:103C800007E0009506E00198002801DA862000E0B0
:103C9000082000909DE8070086E80700FEBD10B5EB
:103CA00002F0B8FB012803D0BDE8104001F054BE7B
:103CB00010BD3EB504460D46B0F90800FFF770FF91
:103CC00002A9CDE90001208A2B4682B2D4E9001076
:103CD00002F056FA012801D000203EBD02983EBDF8
:103CE00008B500680090012907D00020134602465D
:103CF000012103A002F050FD08BD0120F6E70000FD
:103D0000000000002DE9FC41002507462E460195E4
:103D10000C0000D10124FFF70DFF009690B101AB1C
:103D200022460921384602F083FD012812D101986C
:103D300088B10A494FF080500860BFF34F8FBFF33E
:103D40006F8F08E0002322460421384602F070FD00
:103D5000012800D0FF252846BDE8FC8104ED00E0E5
:103D600000F1300C8CE80E0080EC030A7047000074
:103D700080EC030A9FED050A80ED080A80ED090A30
:103D800080ED0A0A80ED0B0A704700000000000079
:103D90002DE9F041184C0F460546E6682068001DE5
:103DA00001F0A4FA38B9206890F82C10012088405E
:103DB000216981432161681C07D137B12168BDE8C1
:103DC000F0410E48091D01F0CFBA20683544B542D4
:103DD0004560216805D2A06BBDE8F041091D01F0E6
:103DE000ABBA606B091D01F0A7FAA06A854200D248
:103DF000A562BDE8F081000030000020A03E002058
:103E00002DE9F041054601F0BBFA484CA068401C82
:103E1000A0602068464F10B1606940B32DE0256076
:103E2000A068012829D1002606EB860007EB800058
:103E300001F074FA761C042EF6D33D48503001F0A0
:103E40006DFA3B48643001F069FA3948783001F086
:103E500065FA37488C3001F061FA3548A03001F03E
:103E60005DFA3348503060631430A06305E0206889
:103E7000E96AC06A884200D82560606A2D4E401CFD
:103E80006062686435B305F134018846284600F065
:103E9000BDFD2846E96A00F08BFD2B464246032112
:103EA000012000F089FF24480188284600F0FBFD2E
:103EB00000F028FC00F077FD318808420AD028463F
:103EC00000F071FD3188084204D029461020EA6ACA
:103ED00000F06AFE284600F066FD3188084203D0F3
:103EE0002946302000F02EFEE96A01202269884030
:103EF0001043206101EB810007EB8000291D01F0D8
:103F000033FA01F05DFA606900280CD02068E96A94
:103F1000C06A884207D209494FF080500860BFF359
:103F20004F8FBFF36F8FBDE8F0810000300000209D
:103F3000003E00205C0100205E01002004ED00E056
:103F400010B501F01DFA0E4C2068A0B90D4801F023
:103F5000E5F90C48143001F0E1F90A48E06014304A
:103F6000206100220C210A2001F00CFD206010B11C
:103F700005A101F0B7FABDE8104001F021BA000038
:103F80006C000020B43E0020546D7251000000000F
:103F900070B5114E114C17E001F00CFC3068B8B14F
:103FA00002F088FB01F0ECF9F068C568281D01F00B
:103FB0009DF9A068401EA0606068401E606001F02E
:103FC000FFF9284600F04CF860680028E4D170BD85
:103FD00002F070FBF8E700008C3E0020300000206B
:103FE00030B4026C0B46002A0BD0C1681144C1608A
:103FF0004468A14201D30168C16030BC1846FCF797
:104000006EB930BC70472DE9F041856B1646044609
:104010000027026CFAB17EB1E068FCF760F9E16854
:10402000206C091AE1602268914202D26168081A84
:10403000E060022E0DD00EE0A068FCF750F9216C74
:10404000A0680844A0606168884204D32068A0602A
:1040500001E005B16D1E6D1CA5633846BDE8F08119
:1040600010B50446006B01F0BFF92046BDE81040D2
:1040700001F0BAB910484FF47051420706D0C01D84
:104080000D4920F00700411AC1F570510B4A002379
:104090000144C2E900030839103A21F00701116018
:1040A0004B600B600B1AC0E9001393604FF00040A7
:1040B0005360D06070470000C00100201C00002049
:1040C000074C4FF08056074DFFF762FF206801282C
:1040D000FAD92E60BFF34F8FBFF36F8FF4E7000064
:1040E000003E002004ED00E070B51E46049C05462D
:1040F00051B32260C4E90F510121204601F0E0FDD7
:10410000194884F84C600188204600F0BFFC00F09C
:10411000F9FA00F048FC154E3188084223D02046B9
:1041200000F03CFC318808421DD094F84C0068B186
:10413000012815D0032810D0042814D121461720B7
:10414000BDE8704000F0FEBC2460D3E72A4621465B
:10415000BDE87040112000F027BD21461220EFE796
:1041600021461320ECE770BD5E0100205C010020B9
:104170002DE9F0470E46DDE9098417468246910095
:104180009946089DA522206BFCF7BBF86FF0030150
:10419000206B01EB8701084420F00707780707D060
:1041A000502080F31188BFF34F8FBFF36F8FFEE76E
:1041B0002218315C82F83410315C11B1401C102897
:1041C000F6D3002684F84360042D00D30325201D78
:1041D000E56201F0AEF804F1180001F0AAF82461DC
:1041E000C5F104006462A061E66484F850604A4648
:1041F0005146384600F03AFF2060B8F1000F01D078
:10420000C8F80040BDE8F08730B5114900E011461C
:104210000A688242FBD34B685C18844203D1406831
:1042200018444860084643681C18944209D1084C59
:10423000103C2468A24209D052681A4442600A68BD
:1042400012680260814200D0086030BD0460F9E766
:104250001C00002070B5002441600B4D00619142AC
:1042600006D8D11A8269914206D2011D286907E059
:104270009A4203D2994201D3012403E0011DE86868
:1042800001F05AF8204670BD6C00002004490A680D
:10429000824202D008600120704700207047000071
:1042A0003C01002010B5044601F06AF8A06B28B16B
:1042B0005FF0000401F084F8204610BD0124F9E706
:1042C00030B587B02B4D4BE00498002848DB069CA6
:1042D000606910B1201D01F009F802A800F0B6F8DD
:1042E000024604980A283BD2DFE800F00505053AAB
:1042F000263705053A260598A1690346014420465C
:10430000FFF7A8FF00B3616A20468847E0690128EB
:1043100026D1002000900598A16900234218194673
:10432000204602F085FA78B9502080F31188BFF357
:104330004F8FBFF36F8FFEE70598A06128B18118FA
:1043400013462046FFF786FF0AE0502080F31188CD
:10435000BFF34F8FBFF36F8FFEE7204601F044F8A5
:1043600000231A4604A9286801F02EFB0028ABD1CF
:1043700007B030BD6C0000202DE9FC410F4605461A
:1043800001F018FA01A800F061F80446019818B18C
:1043900002F090F9BDE8FC81224EAFB130690068AF
:1043A000A8B30027291B3A46306801F0BFF802F095
:1043B00081F90028EED11C494FF080500860BFF30E
:1043C0004F8FBFF36F8FE5E7A542EBD802F072F98C
:1043D000F0682746C068C468201D00F087FFE069C8
:1043E000012810D1A0692B4641193A462046FFF713
:1043F00031FF40B100200346014600902A46204686
:1044000002F016FA20B1616A20468847C2E707E049
:10441000502080F31188BFF34F8FBFF36F8FFEE7FB
:104420000127BFE76C00002004ED00E00648416B67
:10443000096829B1416BC968C968496881627047D8
:104440004FF0FF31FAE700003000002070B505465C
:1044500001F0EEFF064E0446B068844203D200F03D
:10446000BFF8012000E0002028602046B46070BD45
:104470006C0000202DE9F04F554D044689B0286AA4
:10448000A04277D0E86D40B300F03CF98246EFF3EC
:104490001089012080F310882C62002C6BD000243E
:1044A000FF20AC62AB462E46287000F0E5FB0025ED
:1044B000EFF31088012080F31088306A00B345497B
:1044C0006F4600202A1851F8222047F82020401C6F
:1044D0000828F7D30026089402E00220D6E7761CCD
:1044E00008AA2021384601F0B5F90028F7D1002E9E
:1044F00002DD0C2000F0E6FC0835B5F5A07FDED328
:1045000088F310880025EFF31088012080F31088CD
:10451000DBF82000E8B1304901AF00202A1851F83B
:10452000222047F82020401C0228F7D300260094C0
:1045300000E0761C6A460821384601F08BF9002815
:10454000F7D1002E02DD0C2000F0BCFCAD1C502D7C
:10455000E1D388F31088EFF31086012080F31088F0
:10456000DBF820005D46A0B1A86CCDE90004E84668
:10457000002702E028E025E07F1C01AA0421404634
:1045800001F068F90028F7D1002F02DD0C2000F0BF
:1045900099FC86F31088EB695246581CE8610120AB
:1045A000296B00F035FB686B10B90C480068686334
:1045B0000120CDE900044FF47A73022104206A6BD4
:1045C00000F07EFA89F3108809B0BDE8F08F000092
:1045D00058010020744D00207452002080000020FB
:1045E000F8B5194D1FE0C068C4680668201D00F0CA
:1045F0007DFE616A20468847E069012813D1A069E1
:104600003044B04206D924616060211DE86800F0A2
:1046100093FE08E000200346014600903246204603
:1046200002F006F938B1E86801680029DBD1296990
:10463000C5E90310F8BD502080F31188BFF34F8FF8
:10464000BFF36F8FFEE700006C0000200848406851
:10465000401C4FF0500080F3118804D0BFF34F8FFF
:10466000BFF36F8FFEE7BFF34F8FBFF36F8FFEE790
:1046700024000020074CE068016841B1C0680021B7
:10468000D0F80000FFF778FEFFF71AFEF3E70121EC
:104690000020F7E76C0000200F4910B58A69002A56
:1046A00018D1431E01229A408861CB681A43CA6020
:1046B00000F02AF8094C02469020216800F016FB11
:1046C00007A29020216800F011FBBDE810400020F7
:1046D000FFF7D0BE10BD000058010020540100209B
:1046E0005265636F726465722073746F7070656475
:1046F00020696E2070727654726163654572726FC4
:104700007228290001F080BE0D2820D2DFE800F0D9
:104710001F1517191B1D07090B0D0F1113000DA0F5
:10472000704719A0704725A0704731A070473AA084
:10473000704746A0704752A070475EA0704768A0BF
:10474000704772A070477CA0704787A07047002018
:104750007047000045786365656465642053594D72
:10476000424F4C5F5441424C455F534C4F54532091
:10477000287365652070727654726163654765744D
:104780004572726F722900004578636565646564DF
:104790002053594D424F4C5F4D41585F4C454E4759
:1047A0005448202873656520707276547261636581
:1047B0004765744572726F72290000004578636521
:1047C00065646564204F424A4543545F4441544107
:1047D0005F534C4F54532028736565207072765494
:1047E000726163654765744572726F7229000000DB
:1047F000537472696E6720746F6F206C6F6E6720E0
:1048000028736565207072765472616365476574BC
:104810004572726F722900005452435F53545245DF
:10482000414D5F504F52545F524541445F444154A3
:10483000412072657475726E6564206572726F7264
:104840002028213D2030292E000000005452435FD3
:1048500053545245414D5F504F52545F5752495443
:10486000455F444154412072657475726E656420E1
:104870006572726F722028213D2030292E000000C1
:10488000426C6F636B696E6720696E20765472614B
:104890006365456E61626C65202873656520785498
:1048A000726163654765744C6173744572726F72AF
:1048B00029000000496E76616C6964206576656E3A
:1048C0007420636F64652028736565207072765468
:1048D000726163654765744572726F7229000000EA
:1048E000457863656564656420495352206E65733D
:1048F00074696E67202873656520707276547261E2
:1049000063654765744572726F722900445754207D
:104910006E6F7420737570706F7274656420287385
:10492000656520707276547261636547657445727F
:10493000726F7229000000004457545F435943438B
:104940004E54206E6F7420737570706F727465644E
:1049500020287365652070727654726163654765BF
:10496000744572726F722900436F756C64206E6FAC
:10497000742063726561746520547A4374726C208C
:10498000287365652070727654726163654765743B
:104990004572726F7229000000F0BABC10B500F0C9
:1049A000B7FC000C10BD10B500F0B4FC000C10BD3D
:1049B000F0B5EFF31086012282F31088114C002528
:1049C000114F63691A4608E025F0030C5CF807C034
:1049D000844501D12A4602E008359542F4D3B2F568
:1049E000A07F09D222F003057851E8199A4241606C
:1049F00005D10833636102E0206D401C206586F319
:104A00001088F0BD5801002074520020F0B5EFF37B
:104A10001085012282F310881A4E00241A4F336940
:104A20001A4608E024F0030C5CF807C0844501D165
:104A3000224602E020349442F4D3B2F5A06F1BD298
:104A400022F003043851BC180020241D0F5C2754A9
:104A50000F5C47B1401C1928F8D300E0401C0C5CE7
:104A60000CB18028FAD3716D884200D970659A42E2
:104A700005D12033336102E0F06C401CF06485F313
:104A80001088F0BD58010020744D002070B5044618
:104A90000D46FFF781FF65F31F4001462046BDE844
:104AA000704000F041BD70B504460D4600F032FC88
:104AB00065F31F4001462046BDE8704000F02CBE63
:104AC0000FB4F0B597B0BDF87460B6F5805F06D34B
:104AD0000120FFF7E1FD17B0F0BC5DF814FBEFF328
:104AE0001084012181F31088144A116A19B3936A62
:104AF00008215B1C936246EA0032ADF80C20104A94
:104B0000ADF80E3001EB8001526803AD04921EAA8D
:104B1000002304E005EB830680CA5B1CB760834278
:104B2000F8DB0020019001AA284600F093FE10B1A6
:104B30000B2000F0C7F984F31088CCE7580100205F
:104B4000001000E07FB5B0F5805F05D304B0012010
:104B5000BDE87040FFF7A0BDEFF31084012282F39F
:104B600010880F4A136ABBB1936A40F480505B1CF3
:104B70009362ADF800000B48ADF802304068CDE913
:104B800001010020039003AA0C21684600F062FE98
:104B900010B10B2000F096F984F310887FBD00005F
:104BA00058010020001000E030B585B0B0F5805FFE
:104BB00005D305B00120BDE83040FFF76DBDEFF330
:104BC0001084012383F310880F4B1D6AC5B19D6AC1
:104BD00040F400506D1C9D62ADF800000B48ADF82C
:104BE0000250406801AD85E807000020049004AA47
:104BF0001021684600F02EFE10B10B2000F062F983
:104C000084F3108805B030BD58010020001000E08A
:104C100070B586B0B0F5805F05D306B00120BDE861
:104C20007040FFF739BDEFF31084012585F310883C
:104C30000F4D2E6AC6B1AE6A40F44050761CAE628B
:104C4000ADF800000B48ADF80260406801AE86E8A0
:104C50000F000020059005AA1421684600F0FAFD17
:104C600010B10B2000F02EF984F3108806B070BD4F
:104C700058010020001000E070B588B0EFF31084F8
:104C8000012080F310881849086A40B3486A0090F0
:104C90004888ADF8040041F6A120ADF806000020D8
:104CA0000290896803912021ADF810102821082274
:104CB000ADF814206E46ADF81210ADF8161005468A
:104CC000069000E06D1C06AA1821304600F0C2FDD7
:104CD0000028F7D1002D02DD0C2000F0F3F884F35A
:104CE000108808B070BD000058010020F0B50746DC
:104CF000002099B0034600E05B1CD45C0CB1342B5F
:104D0000FADB1C1DE51704EB9574A41011B17F1C90
:104D1000BFB2401C8600044425480F2C08DDA300C8
:104D2000846D3C3BA34200D983650F24C6F13C034C
:104D3000EFF310854FF0010C8CF31088D0F820C0F1
:104D4000BCF1000F30D0D0F828E04FF0080C0CEB8D
:104D5000840C0EF1010EC0F828E047EA0434ADF8E7
:104D60001040144CADF812E004A86468059406AC39
:104D700001B10691002105E0575C06EB010E491CCC
:104D800004F80E709942F7DBC6F13C0200219A420A
:104D900001DDF218A15400916A46614600F05AFD07
:104DA00010B10B2000F08EF885F3108819B0F0BD1B
:104DB00058010020001000E00FB43EB50023089A0F
:104DC00000E05B1CD45C0CB1342BFADB09AC029420
:104DD00002ACCDE90024002200F004F83EBC5DF8EE
:104DE00014FB00002DE9F04F06469246181DC2172D
:104DF00099B000EB9270DDE922B806EBA007B20093
:104E00002E480F2F08DD846DBB003C3BA34200D928
:104E100083650F27C2F13C03EFF31085012484F36F
:104E20001088046AF4B3D0F828C041EA07310CF1C5
:104E3000010CC0F828C0ADF814102149ADF816C017
:104E40000824496804EB870905A8069107AC0021EE
:104E50000FE000BFBAF1000F00D071B1D8F80070B8
:104E600007F1040CC8F800C0D7F800C044F821C00E
:104E7000491CB142EEDB002107E0C4F800A0F7E7CF
:104E80001BF801605718491CE6559942F8DBC2F13E
:104E90003C0600219E4201DD1A44A15400916A465D
:104EA000494600E005E000F0D5FC10B10B2000F011
:104EB00009F885F3108819B0BDE8F08F580100207B
:104EC000001000E0421E01219140094A10B5D3684C
:104ED00019420BD11943D160FFF716FC0246054871
:104EE0000168BDE810409020FFF700BF10BD000032
:104EF00058010020540100202DE9F041044600F043
:104F00003FFA94F9455004F1240609E0606A48B17B
:104F1000304601F087FB08B100F0B4FB6D1E6DB2A6
:104F2000002DF3DC4FF0FF3684F8456000F048FABE
:104F300000F026FA94F9445004F1100709E02069C2
:104F400048B1384601F06EFB08B100F09BFB6D1EC6
:104F50006DB2002DF3DC84F84460BDE8F04100F050
:104F60002FBA00002DE9F0410446002700F022FC92
:104F70003B4E306808B9FFF77DF8F068044250D125
:104F8000C4B3083460070ED004F00700C0F1080075
:104F90000444600707D0502080F31188BFF34F8F7F
:104FA000BFF36F8FFEE72CB37068844239D82C486A
:104FB000103001460D6801E028460D466968A1429F
:104FC00002D229680029F7D131688D4229D00768BB
:104FD0002968016068680837011B10290FD9281952
:104FE000420708D0502080F31188BFF34F8FBFF3E2
:104FF0006F8FFEE715E041606C60FFF705F96968A7
:105000007068401A7060B268904200D2B060F06878
:1050100001430020C5E900011FB112480168214485
:105020000160FFF76FFBFFF7BEFC0F4909880842DC
:1050300007D0224639460FB1382000E0E920FFF7BB
:10504000B3FD01F037FB780707D0502080F31188BB
:10505000BFF34F8FBFF36F8FFEE73846BDE8F08197
:105060000C000020600100205C01002010B5031F2F
:105070004FF080741C601B1F21F001011960191F83
:10508000044B0B6014390A60091F6FF002024438A8
:105090000A6010BD4D4600084168002902DC9FED02
:1050A0000B0A70470268531C03608A4200DB0160F0
:1050B00090ED000AF8EEC00A00EE101AB8EEC01A21
:1050C00080EE810A80ED020A7047000000000000B7
:1050D0000022C0E90021704770B52D482DED048BEA
:1050E0000078012837D12B482B4E2C4C0178B6F98B
:1050F0000200B6F90050012930D0FBF7A5FA9FED68
:10510000288B53EC182BFBF7BEF99FED279B53EC34
:10511000192BFBF72AFAFBF7BBFAE0602846FBF7EE
:1051200093FA53EC182BFBF7AEF953EC192BFBF762
:105130001CFAFBF7ADFA2061B6F90400FBF784FA1C
:1051400053EC182BFBF79FF953EC192BFBF70DFAD7
:10515000FBF79EFAA060BDEC048B70BD00EE100A58
:10516000F3EE0E0A9FED121AB8EEC00A20EE200AE6
:10517000C0EE011A00EE105AB8EEC00A20EE200A66
:10518000C0EE010AC4ED031AC4ED040AE3E700000F
:10519000A4000020B40000202C430020F03E00209A
:1051A0000000000000004E400000000000A084400D
:1051B0000000254470B518482DED048B00780128B7
:1051C00027D116480078012823D1154CB4F90600E0
:1051D000FBF73AFA9FED138B53EC182BFBF753F9BF
:1051E0009FED129B53EC192BFBF7BFF9FBF750FA1D
:1051F000104D2860B4F90400FBF726FA53EC182B85
:10520000FBF741F953EC192BFBF7AFF9FBF740FA29
:105210006860BDEC048B70BDA4000020E400002099
:105220002C4300200000000000004E400000000061
:1052300000A08440643F00207CB5124C0025E5604E
:10524000A56040F2FF15256008252561040A8DF848
:1052500000408DF80100080A8DF80200100A8DF850
:1052600004008DF80520180A8DF803108DF806004B
:1052700004498DF8073001236A46A1F1A000FBF72D
:1052800071FE7CBD78400020B0F90630B0F90420F2
:10529000B0F90210B0F90000FFF7CEBF7CB5124C98
:1052A0000025E560A5604FF400752560082525619F
:1052B000040A8DF800408DF80100080A8DF80200FC
:1052C000100A8DF804008DF80520180A8DF80310D7
:1052D0008DF8060004498DF8073001236A46A1F1D4
:1052E000A000FBF73FFE7CBD78400020D0E90132F2
:1052F00001699A60D0E901235A604A68824201D16B
:1053000082684A60002202610868401E0860704797
:10531000806C7047002800D0806C704700F1080155
:105320004FF0FF32C0E90112C1600161002101604C
:10533000704700210161704730B50B685A1C02D0DC
:1053400000F1080202E0026904E022465468256880
:105350009D42FAD953684B6099608A605160086138
:105360000168491C016030BD42684A6093688B60E7
:1053700093685960916008610168491C0160704739
:10538000502080F31188BFF34F8FBFF36F8F0A490E
:105390004868401C486001280CD10848006810F09B
:1053A000FF0F07D0502080F31188BFF34F8FBFF35A
:1053B0006F8FFEE7704700002400002004ED00E03E
:1053C0000849486828B1401E486001D180F311881F
:1053D0007047502080F31188BFF34F8FBFF36F8F5A
:1053E000FEE700002400002070B5051E39D01D4ED8
:1053F000A5F108046168F068014207D1502080F3EC
:105400001188BFF34F8FBFF36F8FFEE722683AB169
:10541000502080F31188BFF34F8FBFF36F8FFEE7EB
:105420008143616000F0C6F9606871680144716091
:105430000D490A68101A0860FFF764F9FFF7B3FA1C
:105440000A490988084205D0606829464242392045
:10545000FFF7AAFB2046FEF7D7FEBDE8704001F03B
:1054600029B970BD0C000020600100205C01002003
:1054700006484FF47A710068B0FBF1F14FF0E0207C
:10548000491E416107210161704700008000002032
:1054900010B5FAF7DDFE114910280ED300F1E02017
:1054A00090F8F0030A78904207D2502080F31188D8
:1054B000BFF34F8FBFF36F8FFEE70948006889681D
:1054C00000F4E060884207D9502080F31188BFF3D0
:1054D0004F8FBFF36F8FFEE710BD00002400002048
:1054E0000CED00E02DE9F0410E4D0E46074600247C
:1054F00055F8340020B1641C082CF9D3BDE8F081C4
:1055000005EBC40045F83460476031463846FFF784
:105510007DFA3B463246BDE8F04103210120FFF70A
:105520004BBC0000C03D00208164704770B515463B
:105530000E460446FFF724FF94F944100020491C4E
:1055400001D184F8440094F94510491C01D184F834
:105550004500FFF735FFA06B28B92A46314604F114
:10556000240000F0ADF82046BDE87040FFF7C4BC51
:1055700010B5040020D01548006B38B1502080F3DE
:105580001188BFF34F8FBFF36F8FFEE700F012F962
:10559000FFF7B8F8FFF707FA0D490988084203D06A
:1055A00021467A20FFF7CEFA00212046FEF7F0FBD5
:1055B00001F080F8002807D106494FF080500860BC
:1055C000BFF34F8FBFF36F8F10BD0000300000207E
:1055D0005C01002004ED00E070B50C4603000BD028
:1055E00094B1254A106BB8B1502080F31188BFF3F5
:1055F0004F8FBFF36F8FFEE7502080F31188BFF30A
:105600004F8FBFF36F8FFEE7502080F31188BFF3F9
:105610004F8FBFF36F8FFEE700F0CCF8D5681A68A4
:105620001444AA4204D9A24223D9AC4202D820E0B1
:10563000A242FAD91C60FFF765F8FFF7B4F90F49E9
:105640000988084203D021467920FFF77BFA601BC6
:105650000021FEF79DFB00BF01F02CF8002807D1C8
:1056600007494FF080500860BFF34F8FBFF36F8F33
:1056700070BD1C60F0E70000300000205C010020DD
:1056800004ED00E001490120C861704730000020AE
:1056900010B50C4650B1094909681831FFF74CFEA6
:1056A0002046BDE810400121FEF772BB502080F378
:1056B0001188BFF34F8FBFF36F8FFEE730000020DC
:1056C00070B515460C46D0B1114E31681831FFF750
:1056D0004BFE0DB14FF0FF34FFF714F8FFF763F9FD
:1056E0000C490988084204D0F06801197920FFF7B5
:1056F00029FA29462046BDE87040FEF749BB5020F4
:1057000080F31188BFF34F8FBFF36F8FFEE7000068
:10571000300000205C010020002800D08164704728
:1057200028B107490A6A0260C96841607047502081
:1057300080F31188BFF34F8FBFF36F8FFEE7000038
:10574000300000201CB517480024CDE90040234656
:10575000802215A1164800F013FD012803D101F0A5
:1057600043F8012809D0401C1AD1502080F3118839
:10577000BFF34F8FBFF36F8FFEE7502080F3118888
:10578000BFF34F8FBFF36F8F06484FF0FF312C38B8
:10579000816201214161C460BDE81C4000F06CB829
:1057A0001CBD00005C00002049444C450000000086
:1057B000C14000080248016B491C016370470000AA
:1057C0003000002010B51F4C206B012208B1E261AF
:1057D00010BD0020E06120691B49B0FA80F0C0F1E3
:1057E0001F0000EB800051F820301BB301EB80005C
:1057F00000F10803416849684160994201D1496854
:105800004160C868206011480260FEF77BFFFFF727
:10581000CAF80F4909880842DAD02068FEF736FD39
:105820000028D5D020682168C26ABDE81040372022
:10583000FFF7BAB9502080F31188BFF34F8FBFF341
:105840006F8FFEE730000020003E0020B4010020F2
:105850005C01002070B514460D460A460146012041
:10586000FDF7BAFB04B12060A84202D04FF0FF3030
:1058700070BD002070BD00001CB532480168324A7E
:10588000914207D1502080F31188BFF34F8FBFF3AF
:105890006F8FFEE700682C49491E884207D15020CF
:1058A00080F31188BFF34F8FBFF36F8FFEE7274957
:1058B00008780190FF20087008788DF800009DF8A6
:1058C00000009DF8002000F0F000904207D050202A
:1058D00080F31188BFF34F8FBFF36F8FFEE79DF802
:1058E00000001B4A00F0500010700720906005E097
:1058F0009DF800305B008DF80030401E9DF80030B0
:105900001B06F5D4000200F4E06090600198087076
:105910000C482030016841F470010160016841F0D9
:1059200070410160FFF7A4FD00205060FAF756FCBB
:105930000848016841F040410160FAF73FFC00204F
:105940001CBD000000ED00E071C20F4100E400E06A
:105950002400002034EF00E010B5502080F31188BF
:10596000BFF34F8FBFF36F8F00F070FD18B1044984
:105970004FF080500860002080F3118810BD0000B7
:1059800004ED00E0F8B517460E46050011D0C6B18B
:1059900005FB06F05030FFF7E5FA040007D004F1EC
:1059A00050023B46314628460094FEF79DFB2046B8
:1059B000F8BD502080F31188BFF34F8FBFF36F8F76
:1059C000FEE70020E6E700002DE9FF4F83B01E460A
:1059D0004FF00008040002D0049840B111E05020BC
:1059E00080F31188BFF34F8FBFF36F8FFEE7206CFA
:1059F00038B1502080F31188BFF34F8FBFF36F8F02
:105A0000FEE700F007FDDFF8B0A2AC4D4FF0000B51
:105A10004FF0805948B9059838B1502080F311886B
:105A2000BFF34F8FBFF36F8FFEE7FFF7A9FCA76BA4
:105A3000002F71D0D4F80C8020460499FEF7D0FADC
:105A4000AEB1FEF75FFEFEF7AEFF298808424DD0EB
:105A50002046FEF7A3FF2988084247D094F84C005F
:105A6000052843D2DFE800F0323E37373E00FEF72C
:105A700049FEFEF798FF2988084220D02046FEF70D
:105A80008DFF298808421AD094F84C00052816D2B8
:105A9000DFE800F0031008081000A36B2146602027
:105AA000059A03E0A36B059A214661205B1EFFF770
:105AB000AFF804E021466220059AFFF775F87F1ED3
:105AC000A763206908B304F1100015E0A36B214619
:105AD0007020059A03E0A36B21467120059AFFF719
