:020000040800F2
:10000000005D002059020008C92E00089D25000847
:10001000652E00080B0900082D36000800000000BE
:100020000000000000000000000000009D0100082A
:100030008D0C000800000000F1010008D92F000815
:1000400073020008730200087302000873020008BC
:1000500073020008730200087302000873020008AC
:10006000730200087302000873020008730200089C
:10007000730200087302000873020008730200088C
:10008000DD0B00087302000873020008190900085C
:100090000D090008730200087302000873020008CB
:1000A000730200087302000873020008730200085C
:1000B000730200087302000873020008730200084C
:1000C000730200087302000873020008730200083C
:1000D000730200087302000849340008CD34000898
:1000E000730200087302000873020008730200081C
:1000F000730200087302000873020008730200080C
:1001000073020008730200087302000873020008FB
:1001100073020008730200087302000873020008EB
:1001200073020008730200087302000873020008DB
:100130007302000873020008730200083109000806
:100140002509000873020008730200087302000802
:1001500073020008730200087302000839350008B2
:10016000730200087302000873020008730200089B
:100170007302000873020008730200080000000008
:100180007302000873020008DFF80CD000F080FB57
:10019000004800475D3C0008005D00202B4B1968BB
:1001A0000868B0E8F04F80F30988BFF36F8F4FF015
:1001B000000080F3118870470000000006480068C6
:1001C000006880F3088862B661B6BFF34F8FBFF353
:1001D0006F8F00DF00BF00BF08ED00E0DFF80C000C
:1001E000016841F470010160704700BF88ED00E0D4
:1001F000EFF30980BFF36F8F144B1A681EF0100FD6
:1002000008BF20ED108A20E9F04F106008B44FF0CD
:10021000500080F31188BFF34F8FBFF36F8F05F04D
:100220005DFB4FF0000080F3118808BC1968086876
:10023000B0E8F04F1EF0100F08BFB0EC108A80F34A
:100240000988BFF36F8F704700BF00BF30000020E8
:10025000EFF30580704700000648804706480047D6
:10026000FEE7FEE7FEE7FEE7FEE7FEE7FEE7FEE766
:10027000FEE7FEE789300008890100082DE9F05FFC
:100280000546002092469B46884606468146402405
:100290001BE0284641464746224600F043FA5346B3
:1002A0005A46C01A914110D311461846224600F012
:1002B0002AFA2D1A67EB01084F4622460120002139
:1002C00000F021FA17EB00094E41201EA4F10104B1
:1002D000DFDC484631462A464346BDE8F09F40EA07
:1002E00001039B0703D009E008C9121F08C0042AB4
:1002F000FAD203E011F8013B00F8013B521EF9D29B
:100300007047D2B201E000F8012B491EFBD27047C2
:100310000022F6E710B513460A4604461946FFF7D1
:10032000F0FF204610BD034611F8012B00F8012B09
:10033000002AF9D1184670472DE9FE4F804681EA20
:100340000300C00F0C46009021F0004123F000454F
:10035000B8EB0200A94105D24046214690461C4612
:100360000B46024623F00040104347D0270DC7F349
:100370000A00C3F30A510290401A019040286BDA38
:10038000C3F3130040F4801B0098924620B1002371
:10039000D2EB030A63EB0B0B01985946C0F1400204
:1003A000504600F0B0F906460D4650465946019AAF
:1003B00000F0C8F910EB08006141002487EA1152EF
:1003C00084EAE7731A4340D0009A62B3019A012A83
:1003D0004FEA075215DC001B61EB02014FF00042AF
:1003E00002EA0752CDE90042001C41F58011324675
:1003F0002B4600F0FFF903B0BDE8F08F40462146E0
:10040000F9E7001B61EB0201001C41F580130018A5
:100410005B412018A2F5001747EB030140EAD570B5
:10042000B6196D4111E06D084FEA360645EAC07510
:100430004FEA0752001B61EB0201001C41F58011DD
:1004400049084FEA30000019514132462B4603B0AB
:10045000BDE8F04F00F0BFB9009801224000002332
:10046000D0EB020263EBE073009821464FEAE074A0
:10047000B8EB000061EB0401E9E783F000435BE7C0
:1004800081F0004158E72DE9FE4F81EA030404F0B2
:10049000004421F0004100944FF0000B23F0004392
:1004A00050EA01045ED052EA03045BD0C3F30A545D
:1004B000C1F30A552C44A4F2F3340194A0FB025476
:1004C000C1F3130141F48011C3F3130343F4801308
:1004D00001FB024400FB034E840A970A44EA81545C
:1004E00047EA8357A4FB076802958D0A05FB078539
:1004F0004FEA932C04FB0C542705029D4FEA065843
:1005000047EA1637B5EB08056EEB070C870E920E1F
:1005100047EA811742EA8312A7FB0201B6EB0B01FF
:1005200064EB00042B0D43EA0C335E1844EB1C50C3
:10053000DA465146E7FB0201C5F313044FEA0B33D9
:1005400043EA14534FEA0432019C43EA0603A4F140
:100550000C040294009CCDE900B400F04BF903B008
:10056000BDE8F08F00200146F9E72DE9F04D81EA62
:10057000030404F0004B21F0004514464FF0000A3C
:1005800023F0004150EA050220D054EA01021DD0B8
:10059000C5F30A570246C5F31303C1F31300C1F3B1
:1005A0000A5640F4801543F48013A7EB0608101B8D
:1005B000D64608F2FD3873EB050002D308F10108B6
:1005C00001E092185B41B8F1000F03DA0020014608
:1005D000BDE8F08D00204FF48011064684460EE001
:1005E000171B73EB050705D3121B63EB05030643CB
:1005F0004CEA010C49084FEA300092185B4150EA7E
:100600000107EDD152EA030012D082EA040083EA26
:100610000501084305D0101BAB4106D2012200237F
:1006200006E000224FF0004302E06FF00102531099
:100630001AEB06004CEB085110EB0A0041EB0B01E2
:10064000BDE8F04D00F0C7B80EB5C10F80EAE0700C
:100650000844CA07002140F233438DE80E000A46E1
:100660000B4600F0C7F803B000BD70B5C1F30A52E5
:1006700001F000450024C1F3130140F2FF3341F4BF
:1006800080119A4201DA002070BD40F233439A4251
:10069000A2F2334203DC524200F044F800E0904002
:1006A0002C43F1D0404270BD00F0004230F00040D9
:1006B0000AD0C10D01F56071C0F3160042EA015184
:1006C000C20840071143704700200146704701F0FF
:1006D000004330B421F0004150EA010206D00A0D77
:1006E000A2F56072C1F31301002A02DC30BC0020C5
:1006F0007047440F44EAC104C100E01830BC00EB6D
:10070000C25000F031B8202A04DB203A00FA02F18E
:10071000002070479140C2F1200320FA03F31943EF
:1007200090407047202A04DB203A21FA02F0002191
:10073000704721FA02F3D040C2F1200291400843F1
:1007400019467047202A06DBCB17203A41FA02F0FF
:1007500043EAE07306E041FA02F3D040C2F120021E
:1007600091400843194670470029A8BF7047401CB4
:10077000490008BF20F00100704710B4B0FA80FCB7
:1007800000FA0CF050EA010404BF10BC704749B1F4
:10079000CCF1200421FA04F411FA0CF118BF012164
:1007A00021430843A3EB0C01CB1D4FEA00614FEA44
:1007B000102042BF002010BC704700EBC350104413
:1007C0000029A4BF10BC7047401C490008BF20F09E
:1007D000010010BC704710B5141E73F1000408DA54
:1007E000401C41F1000192185B411A4301D120F0F5
:1007F000010010BD2DE9F04D92469B4611B1B1FAB2
:1008000081F202E0B0FA80F220329046FFF77BFFDF
:1008100004460F4640EA0A0041EA0B0153465A4695
:10082000084313D0114653EA010019D0C8F1400221
:100830005046FFF777FF05460E465046594642465A
:10084000FFF761FF084305D0012004E02046394648
:10085000BDE8F08D0020054346EAE0762C4337439F
:100860000A986305E40AA0EB08000022FD0A44EAA6
:1008700047540A3002D500200146E9E70105101966
:100880006941DDE9084500196941BDE8F04DA2E77D
:10089000064C074D06E0E06840F0010394E80700CD
:1008A00098471034AC42F6D3FFF772FC906E000804
:1008B000B06E000870B58C1810F8015B15F00703D6
:1008C00001D110F8013B2A1106D110F8012B03E0E9
:1008D00010F8016B01F8016B5B1EF9D12B0705D4F1
:1008E0000023521E0DD401F8013BFAE710F8013B3A
:1008F000CB1A921C03E013F8015B01F8015B521E56
:10090000F9D5A142D8D3002070BDFEE7014800F020
:100910008DBC0000F83F0020014800F087BC0000BB
:10092000F83F0020014800F081BC0000204000207A
:10093000014800F07BBC0000204000200EB50F4DA8
:100940004FF0FF3632469021684603F00BFADDE99E
:1009500000040828F6D1200602D5094804F020FD3D
:10096000E006EFD5B5F96E30B5F96C20B5F96A102F
:10097000B5F9680004F01EFDE4E700007C3F0020AC
:10098000EC3E00200221014801F022B90010024093
:100990002DE9F0417C212DED048B2F48FFF7B8FCA9
:1009A0002D48BFEE000AC82180ED090A2B4804F04B
:1009B00027FC2A486421143804F022FC9FED288A81
:1009C0009FED280A0023F0EE480A1B22B0EE601AC1
:1009D0000321254802F08AFA244FDFED258ADFF84B
:1009E00094809FED259A00244FF4FA5604EB0415E9
:1009F00007EB8500B0EE481AF0EE480AB0EE680A40
:100A000000233246032102F071FA08EB8500B0EEB4
:100A1000481AF0EE480AB0EE490A00233246032194
:100A200002F064FA641C042CE0DB144D9FED148A80
:100A30000024C4EBC40005EB8000B0EE481AF7EECA
:100A4000000AB7EE000A01F078FE641C042CF0DB0B
:100A5000BDEC048BBDE8F081003F0020D4000020F5
:100A6000000000006666E63F9C490020E049002047
:100A70000000AF43F04A002000007A43184C0020E9
:100A8000000020422DE9F0414748464E90ED030A10
:100A9000D6ED070A454802F09BFE86ED040A96ED66
:100AA000051AD6ED060A71EE601A71EE801AC6EDCF
:100AB000161AF1EE411A71EEE01A71EE801AC6EDC7
:100AC000171A70EEC11A71EE200A71EE801A30EE1C
:100AD000800AC6ED181A86ED190A96F874000128E6
:100AE00002D03348007840BB9FED320A32490020E3
:100AF00006EB800282ED160A01EB8002401C82EDBB
:100B0000160A0428F4DB002280212C4801F064F846
:100B1000002280212A4801F05FF82A4C002201219E
:100B2000204601F059F800220221204601F054F835
:100B300000220421204601F04FF8234FDFF88C807B
:100B4000002406EB8405C4EBC40095ED120A07EB04
:100B5000800001F0D3FD85ED120A04EB0411D5ED00
:100B6000160A08EB810002F033FEBDEEC00A06EB68
:100B70004401641C10EE100A042CA1F86800E0DBAC
:100B80001348B16E0160F16E416012488021006827
:100B900003F0BAF810484FF400710068BDE8F04166
:100BA00003F0B2B8003F0020204300209C49002001
:100BB000E8000020000000007C3F0020000C024004
:100BC0000004024000100240184C0020E0490020C0
:100BD000EC3E00208800002090000020014800F03A
:100BE0008FBD00007C48002001681823CAB2103A6B
:100BF000B2FBF3F2054B6FF30901032A9B5CC3655B
:100C000000D9091D8165084670470000BC6A0008CC
:100C100010B5014600208B698A6A4FF0C07453B149
:100C2000B3F5005F15D072B1012A0CD0022A0AD0A8
:100C3000032A09D104E01AB1012A06D0022A03D1FD
:100C4000C96AC90100D5012010BDC96AA142FAD004
:100C500010BD002AF7D0012AF2D0022AF3D0032ACD
:100C6000F3D010BD30B50468256825F480252560D3
:100C7000046863608368402B036803D09960006850
:100C8000C26030BD9A600068C16030BD704700002E
:100C900030B59BB004F000FC264D002201212868ED
:100CA000199019A803F0AAF8234C002201216061D1
:100CB00068681A901AA803F0A1F8A061142205F13F
:100CC00008016846FFF70BFB0021684603F07FF838
:100CD0002060142205F11C0105A8FFF700FB00218C
:100CE00005A803F074F82061142205F130010AA868
:100CF000FFF7F5FA00210AA803F069F860601422F2
:100D000005F144010FA8FFF7EAFA00210FA803F04C
:100D10005EF8A060142205F1580114A8FFF7DFFA6D
:100D2000002114A803F053F8E06004F0D5FB1BB0D9
:100D300030BD0000DC6A00088400002010B558B106
:100D4000084C491E0BD310F8013B5340DBB234F87A
:100D5000133083EA1222F4E74FF6FF7010BD1046FD
:100D600010BD0000486C00082DED028B84B0234DAF
:100D7000234F4FF0FF384FF400794246494668460A
:100D800002F0F0FF01988005F7D504F085FB1D4EB9
:100D90009FED1D8B002404EB041006EB8000B0F9DE
:100DA0001401FFF751FC53EC182BFFF76CFBFFF716
:100DB0008EFC05EB8401641CE4B28864042CEAD345
:100DC00097ED020A124910EE100A884204DCB5EED3
:100DD000C00AF1EE10FA03D29FED0E0A87ED020A67
:100DE000DFED0D0A80EE201A85ED1C1A02F0EEFDF3
:100DF00004F00AFA04F070FBBFE70000003F002097
:100E0000584D0020004100203A67FADB5493763FAA
:100E10000000704200000000000070420EB5164C49
:100E2000164E174F4FF0FF381B25424608216846E3
:100E300002F098FF01980007F7D504F02DFB002081
:100E400000EB001104EB8101C96B91FBF5F100EEA1
:100E5000101A06EB8001401CB8EEC00AC0B204288C
:100E600081ED120AECD3387818B102F053FE04F089
:100E70003FFA04F031FBD8E7004100207C3F00201E
:100E8000E800002070B52A4A13685B1C13600A88CA
:100E9000C2F30A03A3F5806303804A788C78D208F2
:100EA00042EA4412C2F30A05A5F5806545808A78B6
:100EB000CC78920942EA84020C790A3342EA84220D
:100EC000C2F30A04A4F5806484800A794E7952083A
:100ED00042EAC612C2F30A02A2F580620026C2806C
:100EE000142B00D806800A35142D00D846800A3409
:100EF000142C00D886800A32142A00D8C6804A7979
:100F0000920902724A79C2F301124272CA8842817E
:100F10000A8982814A89C2810A7B82744A7BC274AF
:100F2000CA898282098AA1F58061C18270BD0000F0
:100F3000A800002090F82020012A09D090F8202055
:100F4000022A05D0416A41F48021416201207047A4
:100F5000006842690A43426100207047F0B590F88A
:100F60002040012C07D090F82040022C03D0416A89
:100F700041F4802153E00468A5686D0105D4A5689B
:100F80002D0102D4A568ED0046D5A4680125C4F35F
:100F90000164A5401D608B684FF4C0759BB1CE689D
:100FA00033434E6843EAC603066805EB0417F35162
:100FB0004FF4C273076803EB04130E69FE50097DFA
:100FC000012905D009E00E88CB6843EA4653EBE7D8
:100FD0000168CE5846F48076CE501179D2F80530AB
:100FE0004FF4C67641EA0321036806EB04169951D3
:100FF0001178D2F801204FF4C47341EA022102684B
:1010000003EB0413D150006805EB0411425842F081
:10101000010242500020F0BD416A41F400114162DA
:101020000120F0BD10B590F82020012A09D090F8D9
:101030002020022A05D0416A41F48021416201202A
:1010400010BD3A48D0F8002242F00102C0F8002258
:10105000D0F8002222F47C52C0F80022D0F80022FE
:101060004B6A42EA0322C0F800220B7D01229A401B
:10107000D0F81C329343C0F81C32CB69B3B9D0F816
:101080000C329343C0F80C328C894B6864F31F43D5
:101090004C6900EBC404C4F840320C890B6864F35B
:1010A0001F434C6900EBC404C4F84432CB69012BE4
:1010B00016D1D0F80C321343C0F80C320C884B68B0
:1010C00064F31F434C6900EBC404C4F840320C893C
:1010D000CB6864F31F434C6900EBC404C4F844328A
:1010E0008B69002BD0F804320ED01343C0F80432C1
:1010F0000B69002BD0F8143208D01343C0F8143217
:10110000096A012904D008E09343EFE79343F5E728
:10111000D0F81C121143C0F81C12D0F8001221F0B4
:101120000101C0F80012002010BD00000064004062
:10113000704730B590F82040012C07D090F820403F
:10114000022C03D0416A41F4802109E011B1012948
:1011500009D00CE00468E46807E0416A41F400113A
:101160004162012030BD04682469A407F5D04FF422
:10117000D874056804EB01142D5915F00405956029
:1011800005682D5942D0ED08556005682C59C4F307
:101190004004D4604FF4DA74056804EB01142D594F
:1011A00005F00F05156105682D59C5F307259561F3
:1011B00005682C59240C54614FF4DC72046802EB6E
:1011C0000112A4581C700468A458240A5C700468B6
:1011D000A458240C9C700468A258120EDA704FF4C4
:1011E000DE72046802EB0112A4581C710468A45852
:1011F000240A5C710468A458240C9C710468A258E9
:10120000120EDA7129B1012909D00DE06D0D1560BA
:10121000BBE70068C16841F02001C16004E00068DC
:10122000016941F020010161002030BD2DE9F05F2E
:101230000546006800244669D0F804908768D0F815
:101240000CB0D0F810A0D0F81880F10748D0F907FA
:1012500014D001218160B80703D5284600F049FA6F
:101260000CE0780702D54FF4006407E0380702D598
:101270004FF4805402E0284600F03AFAF80516D5FB
:1012800029684FF480708860B80503D5284600F0BF
:1012900032FA0CE0780502D544F4005407E0380532
:1012A00002D544F4804402E0284600F023FAF80313
:1012B00016D529684FF480308860B80303D52846D6
:1012C00000F01BFA0CE0780302D544F4004407E078
:1012D000380302D544F4803402E0284600F00CFACA
:1012E000300707D55FEACB6004D52968102044F4A5
:1012F0000074C86070074FF0080707D55FEA0B70ED
:1013000004D52868C760284600F07CF9B00706D5E8
:101310002868C068800702D0284600F075F970067A
:1013200007D55FEACA6004D52968102044F48064B8
:101330000861B00607D55FEA0A7004D5286807611E
:10134000284600F0A7F9F00606D52868006980074E
:1013500002D0284600F09FF9B00308D55FEAC960C3
:1013600005D5296810204860284600F095F9F0035B
:1013700007D55FEA097004D528684760284600F061
:10138000BDF9300446D55FEA497040D5F00504D573
:101390005FEAC87001D044F00104B00504D55FEAEB
:1013A000887001D544F00204700504D55FEA4870E6
:1013B00001D544F00404300529D518F0700F26D06B
:1013C00008F07000402815D006DC102809D020282D
:1013D0000AD0302816D10AE050280ED0602811D14A
:1013E0000EE044F008040DE044F010040AE044F07C
:1013F000200407E044F0400404E044F0800401E0ED
:1014000044F480742868816921F070018161296841
:1014100004204860002C05D0686A20436862284692
:10142000FFF786FEBDE8F09F70B5040003D094F886
:10143000200010B104E0012070BD204600F082F8C9
:101440002068016821F00201016000F0CBFB054635
:10145000052604E000F0C6FB401B0A2811D82068CE
:1014600040688007F6D42068016841F001010160FE
:1014700000F0B8FB05460BE000F0B4FB401B0A2867
:1014800006D9606A40F40030606284F82060D2E7D8
:1014900020684068C007EFD0207E012820680168DE
:1014A0003DD021F080010160607E01282068016844
:1014B00038D021F040010160A07E01282068016839
:1014C00033D021F020010160E07E0128206801680E
:1014D0002ED041F010010160207F012820680168B2
:1014E00029D021F008010160607F0128206801688F
:1014F00024D021F004010160D4E902010843D4E9B9
:101500000412114308436168491E08432168C861F9
:1015100000206062012084F82000002070BD41F0AE
:101520008001C0E741F04001C5E741F02001CAE772
:1015300021F01001CFE741F00801D4E741F00401A8
:10154000D9E70000F0B52A4B0168DFF8A0C01868A1
:10155000032402250926274A0027401C87B061453D
:1015600019D11860012807D1106840F00070106090
:10157000106800F0007005908DE8B000CDE90346DA
:1015800069461D4800F044FA00220521142000F0AD
:10159000BFFB142026E0DFF864C0614524D1116848
:1015A00041F0806111601168012801F080610591AE
:1015B000186007D1106840F000701060106800F0EB
:1015C000007005904FF482508DE8A100CDE90346EC
:1015D00069460B4800F01CFA00220521402000F06B
:1015E00097FB402000F088FB07B0F0BD006400408E
:1015F000A000002040380240000C0240006800407B
:1016000000040240704700001E4910B5884224D1F2
:1016100001F1B8021C4B00211A48FFF78AFD194856
:10162000B8300068A0F20120072811D81649C0B2CE
:10163000091F087000EB0011144800EB8100C1691C
:101640004A1C32291049C26103D8098849BA01836A
:1016500010BDBDE8104002F03BB90C4A0A4B1C3AE1
:1016600008330021A2F1C400FFF763FD07481C38CE
:1016700000686528ECD10449BDE8104008310448F1
:1016800005F09CB9F83F0020140100200041002023
:101690002043002070477047704770B5044690F8AB
:1016A0002000012804D0606A40F40020606217E046
:1016B000022084F820002068016821F00101016007
:1016C00000F090FA05460DE000F08CFA401B0A2865
:1016D00008D9606A40F400306062052084F8200078
:1016E000012070BD20684068C007EDD1606270BD08
:1016F00070477047704770477047704770470000E9
:101700002DE9F84304464FF00009CDF800906348F6
:101710004FF41651A56D0068B0FBF1F72E6894F8F0
:101720005C20082101FA02F030420FD020680268E4
:1017300052070BD5026822F00402026094F85C00A4
:101740008140A960606D40F00100606594F85C1014
:101750004FF0010808FA01F0304208D021684969C9
:10176000090604D5A860606D40F00200606594F839
:101770005C1004208840304208D02168096889073D
:1017800004D5A860606D40F00400606594F85C10BA
:1017900010208840304218D021680968090714D504
:1017A000A86020680168490304D50068000308D5D3
:1017B000A16C07E00168C90503D4016821F00801A4
:1017C0000160216C09B12046884794F85C10202004
:1017D0008840304231D021680968C9062DD5A860FB
:1017E00094F8350005282068016806D0490347D5DC
:1017F000006800031DD4616C1CE021F0160101603B
:101800002068416921F080014161206C08B9A06C19
:1018100020B12068016821F00801016094F85C1093
:101820003F208840A86084F8349084F83580216D8A
:101830001FE0E16B09B120468847606D00282BD07E
:10184000606DC00714D0052084F835002068016859
:1018500021F0010101600098401C0090B84203D8BB
:1018600020680068C007F6D184F8349084F8358089
:10187000E16C002910D001B02046BDE8F0430847D4
:101880000168C905D5D4016821F01001016084F810
:10189000349084F83580CCE7BDE8F88380000020E0
:1018A0002DE9F041044600F09DF905465CB10026A3
:1018B00084F83460022084F835002068016821F043
:1018C000010101600DE00120BDE8F08100F08AF91E
:1018D000401B052805D920206065032084F83500C9
:1018E000F2E720680068C007F0D121680A68204844
:1018F0000240D4E901031843D4E903352B431843CC
:1019000063691843A3691843E3691843236A1843BA
:101910001043626A042A03D1D4E90B231A4310430B
:10192000086020684069656A20F0070128460D4379
:10193000012704280CD1A06A0543E06A40B1204683
:10194000FFF766F920B14020606584F83570BAE78A
:10195000206845612046FFF747F994F85C203F2155
:1019600091408160666584F835700020ACE7000026
:101970003F8010F02DE9F0410446866D90F8340068
:10198000002501280DD0012084F8340094F835702A
:101990000020012F07D084F8340002252846BDE836
:1019A000F0810220FBE7022784F83570606520464D
:1019B000FFF758F994F85C103F208840B060206829
:1019C000016841F0160101602068416941F0800121
:1019D0004161206C20B12068016841F0080101607C
:1019E0002068016841F001010160D7E770B5044645
:1019F00000F0F8F80546601C02D004480078044462
:101A000000F0F0F8401BA042FAD370BD00000020A7
:101A10002DE9F84FDFF88C91002209F1040A0AF150
:101A2000040B4FF00F080BF1040E01260B689640D3
:101A30003340B34271D14C68022C01D0122C11D129
:101A4000D40800EB84073D6A5407E40E08FA04FC4E
:101A500025EA0C05D1F810C00CFA04FC4CEA050C80
:101A6000C7F820C007685400032591F804C0A540BA
:101A70000CF0030CAF430CFA04FC4CEA070CC0F862
:101A800000C04F68012F05D0022F03D0112F01D0C5
:101A9000122F11D18768D1F80CC0AF430CFA04FCA7
:101AA0004CEA070CC0F808C04768B7430E79C6F384
:101AB000001696403E434660C668AE438D68A5401A
:101AC0003543C5604C68E40065D5374C256845F45E
:101AD00080452560246822F0030504F480440094C6
:101AE000324C2E19D6F808789407250F08FA05F419
:101AF000A7432F4CA04201D1002424E02D4CA0424A
:101B000001D101241FE02C4CA04201D102241AE093
:101B10002A4CA04202D1032415E03CE0284CA0420C
:101B200001D104240FE0274CA04201D105240AE092
:101B3000254CA04201D1062405E0244CA04201D14D
:101B4000072400E00824AC403C43C6F80848D9F814
:101B500000404D464E689C43F60300D51C432C6064
:101B6000DAF8004055464E689C43B60300D51C4346
:101B70002C60DBF800405D464E689C43F60200D5C1
:101B80001C432C60DEF8004075464E689C43B6024C
:101B900000D51C432C60521C102AFFF446AFBDE850
:101BA000F88F0000003C0140443802400030014002
:101BB000000002400004024000080240000C024005
:101BC000001002400014024000180240001C0240B5
:101BD00042694A40426170470AB181617047090415
:101BE000FBE700000148806870470000000000200B
:101BF000024881680278114481607047000000202B
:101C00000B4810B5016841F400710160016841F4AE
:101C100080610160016841F480710160032000F07F
:101C200097F80F2000F006F800F024F8002010BD0F
:101C3000003C024070B50D4D04464FF47A7128788F
:101C4000B1FBF0F00A490968B1FBF0F000F016FBB7
:101C500048B9102C07D200222146501E00F058F837
:101C600000206C6070BD012070BD000000000020ED
:101C7000800000201F4808B5016841F480410160E0
:101C8000006800F4804000901A48001F016841F08D
:101C900080510160006800F080500090032000F047
:101CA00057F8002211466FF00B0000F031F80022C7
:101CB00011466FF00A0000F02BF8002211466FF079
:101CC000090000F025F800221146501F00F020F80E
:101CD00000221146101F00F01BF800220F21901E59
:101CE00000F016F800220F21BDE80840501E00F059
:101CF0000FB800004438024000F01F02012191405B
:101D00004009800000F1E020C0F800117047000099
:101D1000F0B40E4B1B68C3F30223C3F10704042C79
:101D200000D904241D1D072D01D2002300E0DB1E75
:101D3000012606FA04F56D1E0D409D409E40761E5C
:101D4000164045EA0601F0BC01F0BFB80CED00E01A
:101D5000064A00F0070110684FF6FF03184040EAFA
:101D60000120034908431060704700000CED00E0BB
:101D70000000FA052DE9F0470D46040065D0DFF8B4
:101D80001491D9F80000EFB200F00F00A84207D27A
:101D900089F80070D9F8000000F00F00A84254D173
:101DA00020683D4E810712D5400703D5306840F4C6
:101DB000E05030602078000703D5306840F4604080
:101DC00030603068A16820F0F0000843306020786F
:101DD000C0072DD0304960680839012812D0022888
:101DE00013D0032811D00968890700292DDA31683A
:101DF00021F0030101433160FFF7F4FE804641F218
:101E0000883A0EE009688903EFE709688901ECE781
:101E1000FFF7E8FEA0EB0801514502D90320BDE819
:101E2000F0873068616800F00C00B0EB810FEFD1F3
:101E3000D9F80010484601F00F01A94207D90770F0
:101E4000006800F00F00A84201D00120E7E72078E9
:101E5000400705D53068E16820F4E0500843306061
:101E60002078000706D53068216920F4604040EAF8
:101E7000C100306000F03CF83168084AC1F303113A
:101E8000515CC840064908600F20FFF7D3FE0020D0
:101E9000C5E70000003C024008380240C46A000860
:101EA000800000200148006870470000800000208A
:101EB0000448054900680968044AC1F38221515C5D
:101EC000C84070478000002008380240D46A0008EB
:101ED0000448054900680968044AC1F34231515C6D
:101EE000C84070478000002008380240D46A0008CB
:101EF000154810B5006810F00C01144813D04310B9
:101F000004290FD008290ED10F4C241F216801F09D
:101F10003F022168490207D52068C0F38810A0FB62
:101F2000030106E0184610BD2168C1F38811A1FB2A
:101F300000010023FEF7A2F92168C1F30141491C09
:101F40004900B0FBF1F010BD083802400024F40055
:101F50002DE9F84F040073D02078BD4DC00748D05C
:101F6000BB4808300168C1F38101012908D000682D
:101F7000C0F3810002280AD1281D0068400206D55E
:101F80002868800335D560680028E4D031E06068B7
:101F9000B0F5803F10D0B0F5A02F286810D020F405
:101FA00080302860286820F4802028606068A0B114
:101FB000FFF718FE06460CE0286840F48030F4E78E
:101FC00040F480202860F7E7FFF70CFE801B6428B0
:101FD00072D828688003F7D50BE0FFF703FE0646AA
:101FE00004E0FFF7FFFD801B6428F1D82868800318
:101FF000F7D42078DFF85C9280074FF0000A3ED5D6
:1020000093480830016811F00C0F09D00068C0F344
:10201000810002280BD18E48001D0068400206D4C2
:102020002868800715D5E068012809D111E0E0682B
:10203000B8B10120C9F80000FFF7D4FD064605E05D
:1020400003E1FFF7CFFD801B0228C1D82868800775
:10205000F7D52868216920F0F80040EAC10028601F
:102060000DE0C9F800A0FFF7BDFD064604E0FFF74C
:10207000B9FD801B02281FD828688007F7D4207874
:10208000000722D5724F74496069743770B101201E
:102090000860FFF7A7FD064604E0FFF7A3FD801BDD
:1020A000022809D838688007F7D50EE0C1F800A0EB
:1020B000FFF798FD064605E081E0FFF793FD801BE2
:1020C00002287CD838688007F7D42078400769D583
:1020D000DFF87CB14FF000080BF1400BDBF800009B
:1020E000C0000CD4DBF8001041F08051CBF8001098
:1020F000DBF800004FF0010800F080500090574FCF
:102100003868C0050FD4386840F480703860FFF735
:1021100069FD064604E0FFF765FD801B02284ED8E6
:102120003868C005F7D54A4FA068703701280FD02E
:102130000528386810D020F001003860386820F099
:1021400004003860A068B0B1FFF74CFD06460EE011
:10215000386840F00100F4E740F004003860F7E729
:10216000FFF740FD811B41F28830814265D8386815
:102170008007F5D50DE0FFF735FD064606E0FFF7D1
:1021800031FD811B41F28830814256D83868800782
:10219000F5D4B8F1000F05D0DBF8001021F0805124
:1021A000CBF80010A069C8B3294908310968C1F308
:1021B0008101022949D00228504607D000E03CE0C6
:1021C000C9F86000FFF70EFD044639E04F46C9F834
:1021D0006000FFF707FD064604E0FFF703FD801BE4
:1021E00002282AD828688001F7D4D4E907010843D7
:1021F000A16A1B4A490802EB0141626A41EA821165
:10220000084394F82C1040EA01611148001D016058
:1022100001203866FFF7E6FC044605E013E0FFF70F
:10222000E1FC001B022808D828688001F7D50AE0E5
:10223000FFF7D8FC001B022802D90320BDE8F88F65
:1022400028688001F4D40020F8E70120F6E70000B8
:102250000038024000004742800E474200700040B4
:102260000000FFFF4FF0E0210428086903D020F0B0
:1022700004000861704740F00400FAE710B5401E02
:10228000B0F1807F01D3012010BD4FF0E0246061E8
:102290000F21601700F019FE0020A06107202061C7
:1022A000002010BD704770B5040004D094F83900C8
:1022B000002510B106E0012070BD84F8385020469A
:1022C00000F022F8242084F839002068C16821F445
:1022D0000051C160204600F061FF2068016921F4CF
:1022E000904101612068416921F02A014161206823
:1022F000C16841F40051C160E563202084F83900D1
:1023000084F83A00002070BD2DE9F04F04460068C3
:10231000674E0025DFF89CA1022101220323072735
:1023200087B0B04214D1DAF8004044F01004CAF883
:102330000040DAF8000000F01000059058028DE827
:102340008F0069465C48FFF763FB07B0BDE8F08F7C
:10235000DFF86881DFF85CC1DFF864E1ACF1040C00
:102360004FF0006B4FF480664FF4807940452FD1D9
:10237000DCF8000040F40030CCF80000DCF800008D
:1023800000F40030059060208DE88F0069467046AB
:10239000FFF73EFB4C4F4B483860C7E901B5C7E932
:1023A00003567D61C7E906593D6238467D62FFF7F5
:1023B00077FA20B140F21F1144A001F08BF9676356
:1023C000002205212620BC63FFF7A2FC26203AE06C
:1023D000DFF81481404539D1DCF8000040F480205A
:1023E000CCF80000DCF8000000F4802005903148B3
:1023F0001438036843F400130360006800F400100D
:1024000005904FF440708DE80700CDE90317694649
:102410007046FFF7FDFA2B48344F60383860C7E943
:1024200001B5C7E903567D61C7E906593D623846E3
:102430007D62FFF735FA6763002205212720BC6320
:10244000FFF766FC2720FFF757FC7EE7284FB842CE
:10245000FBD1DAF8007047F02007CAF80070DAF80C
:10246000000000F020000590C0208DE80F0008203B
:10247000049069461F48FFF7CBFA204F1E4838608A
:102480008005C7E90105C7E903567D61C7E906591B
:102490003D6238467D62FFF703FA67634720BC63FD
:1024A000FFF72AFC002205214720FFF731FC4CE70B
:1024B0000010014044380240000002400044004047
:1024C000000C0240886002407C4800202E2E2F53D2
:1024D00072632F73746D3332663478785F68616C21
:1024E0005F6D73702E630000004800403C4900207F
:1024F000001401400008024028640240DC4800202B
:1025000037B5044690F83A0082B0134620283AD1F5
:10251000039AAAB3A3B394F83800012833D001205A
:1025200084F83800A262A3850025E563222084F8A0
:102530003A00616B1548C863616B15480864616BAC
:102540001448C864606B05652168606B091DFFF75E
:1025500011FA206801684168009184F83850C16818
:1025600041F48071C1602068416941F0010141611D
:102570002068416941F040014161002005B030BD53
:10258000FFE70120FAE70220F8E700002731000802
:1025900063310008DD30000870477047FEE7000037
:1025A0002DE9F041534E0446DFF84C8196F8370090
:1025B00008280FD196F83B0001280BD1B4F83D1044
:1025C000A8F8001094F8401088F80310B4F84110EF
:1025D000A8F80410474FB837D7F80200C7F806002C
:1025E0007079032817D10F21424801F021F8012802
:1025F00011D1E0793870207A7870207B60F31F6504
:10260000E07A60F31745A07A60F30F25607A60F3F3
:102610000705C7F802507079042843D11D213548B9
:1026200001F006F801283DD1A07A60F31F65607AB9
:1026300060F31745207A60F30F25E07960F3070512
:102640002C4800EE105A983080ED000AA17B61F30F
:102650001F65617B61F31745217B61F30F25E17AEB
:1026600061F3070500EE905AC0ED010AA17D20EE4E
:10267000800A61F31F65617D61F31745217D61F378
:102680000F25E17C61F307058560B4F8171001831D
:1026900090ED041A80ED031A80ED040A30EE410A31
:1026A00080ED050A7079072809D10B21114800F047
:1026B000BFFF012803D1B4F80710A8F806107079FD
:1026C000082814D119210B4800F0B2FF01280ED1BF
:1026D000A07D60F31F65607D60F31745207D60F38A
:1026E0000F25E07C60F307050248C230C560BDE8F5
:1026F000F0810000C04C00204401002090ED031A3E
:10270000D0ED060A71EE201AC1EE210AC0ED040ACE
:10271000D0ED021A30EE612AB0EE610A00EE820AB4
:10272000B7EE002A72EE600A80ED020AD0ED051ABB
:1027300040EE811AC0ED031A7047F7EE001AC0EDA3
:10274000001AC0ED011A80ED030AC0ED050A80ED04
:10275000061A704770B51A488168491C8160017873
:1027600039B300F00BF9174D174E002405EB840028
:10277000D0ED160A90ED120A04EB041006EB80006F
:1027800001F026F8BDEEC00A05EB4401641C10EE12
:10279000100A042CA1F86800E8DB0C48102100683E
:1027A00001F0B2FA0A4808210068BDE8704001F063
:1027B000ABBA4168491C416000F044F8D3E700001F
:1027C000E80000207C3F0020F04A00208800002024
:1027D0009400002070B5164900202DED028B087082
:1027E00013484FF47A710C3002F00AFD7C21114835
:1027F000FDF78EFD104D9FED118ADFED118A00244B
:1028000042F21076F0EE480A04EB041005EB80006B
:10281000B0EE601AB0EE680A00233246032100F0E1
:1028200065FB641C042CEDDBBDEC028B70BD00006D
:10283000E80000207C3F0020F04A0020000000005B
:102840000000AF432DE9F041474D01262DED028BED
:102850006868DFF81881B0F5FA6F23D805F10C002D
:1028600002F0B2FCBBEE028A444620EE080A05F1F3
:102870000C0088ED160A02F0A7FC20EE080A05F10C
:102880000C0084ED170A02F09FFC20EE080A05F107
:102890000C0084ED180A02F097FC20EE080A84ED83
:1028A000190A00E0AE706878314F70B9A878012835
:1028B0000BD1002404EB041007EB80004421FDF74A
:1028C00027FD641C042CF5DB6E70A878002846D028
:1028D00025480C3002F078FCB3EE0C8A224820EE3A
:1028E000080A44460C3088ED160A02F06DFC20EE12
:1028F000080A1D4884ED170A0C3002F065FC20EE32
:10290000080A194884ED180A0C3002F05DFC20EE2C
:10291000080A184884ED190A396981420ADA796D82
:10292000814207DAD7F89810814203DAD7F8DC1031
:10293000814214DB0C489FED100A40F2DC5184ED1B
:10294000160A84ED170A84ED180A84ED190A2E7010
:102950000C30BDEC028BBDE8F04102F051BCBDEC87
:10296000028BBDE8F0810000E80000207C3F0020E1
:102970000041002000C4064700000000094890ED17
:10298000000AD0ED020A70EE200AC0ED160AC0ED72
:10299000170AD0ED030A30EE200A80ED180A80ED08
:1029A000190A70477C3F002010B51C481A490024C2
:1029B00001600321C0E901144FF40021C0E9034183
:1029C0004FF440114161047644768476C4760477EE
:1029D0004477FEF729FD18B1232111A000F07AFEFB
:1029E0000E4801215030046044608460C46004617A
:1029F0004461C0E9064101620E214162014650383E
:102A0000FEF710FB0548FEF748FEBDE81040022126
:102A10000248FEF78FBA000000640040F83F002033
:102A20002E2E5C5372635C43616E2E6300000000C7
:102A300010B51B481949002401600321C0E90114A5
:102A40004FF43021C0E90341446104764476847632
:102A5000C47604774477FEF7E7FC18B1462111A04D
:102A600000F038FE0E480E21503001220460446010
:102A70008460C460C0E90441C0E90642C0E908219D
:102A800001465038FEF7CEFA0548FEF706FEBDE8CF
:102A9000104002210248FEF74DBA000000680040D5
:102AA000204000202E2E5C5372635C43616E2E63C7
:102AB000000000000D4808B5016841F400110160F4
:102AC000016801F400110091016841F48001016086
:102AD0000068002200F48000009005211020FFF71C
:102AE00017F9BDE808401020FFF706B9303802405A
:102AF0002DE9F041474886B0016841F004010160CA
:102B0000016801F004010591016841F010010160C4
:102B1000016801F010010591016841F08001016038
:102B2000016801F080010591016841F00201016036
:102B3000016801F002010591016841F001010160A5
:102B4000016801F001010591016841F0080101608F
:102B50000068012400F0080005904FF40046CDE91C
:102B600000642D4F032569463846CDE90245FEF73E
:102B70004FFF012231463846FFF72EF88026CDE977
:102B80000064DFF8988069464046CDE90245FEF7CB
:102B90003FFFCDE90064224E69463046CDE902454B
:102BA000FEF736FF1F4F0094694638460194CDE981
:102BB0000245FEF72DFF0220CDE9000469463846A4
:102BC000CDE90245FEF724FF0420CDE90004694663
:102BD0003846CDE90245FEF71BFF00228021404622
:102BE000FEF7FAFF002280213046FEF7F5FF0022B3
:102BF00001213846FEF7F0FF002202213846FEF799
:102C0000EBFF002204213846FEF7E6FF06B0BDE8E0
:102C1000F08100003038024000000240000C024009
:102C200000040240001002400D4810B50B4901603D
:102C30004FF4E1314160002181600C22C160C0E9A4
:102C400004128161C161FFF72EFB002805D0BDE8A9
:102C50001040422103A000F03DBD10BD0010014016
:102C60007C4700202E2E5C5372635C557361727436
:102C70002E63000010B5134C11484FF480612060A2
:102C8000114860600020A060C4E903010421C4E988
:102C90000510E0612046FFF706FB18B154210BA098
:102CA00000F018FD2068C16841F01001C1600549BD
:102CB0008022BDE81040C0390248FFF721BC000067
:102CC00000440040BC470020A08601002E2E5C532B
:102CD00072635C55736172742E63000010B5104C02
:102CE0000E480C2120604FF4E13060600020A060AD
:102CF000E060C4E90401A061E0612046FFF7D3FA77
:102D00002068C16841F01001C1602046BDE8104054
:102D10004FF480620349FFF7F3BB00000048004016
:102D2000FC470020C04C002010B5124C10480C216C
:102D300020604FF4E13060600020A060E060C4E9F2
:102D40000401A061E0612046FFF7ADFA18B17821D7
:102D500009A000F0BFFC2068C16841F01001C1600B
:102D6000BDE81040802208490248FFF7C9BB0000B7
:102D7000001401403C4800202E2E5C5372635C55C9
:102D8000736172742E63000030010020F0B5324C84
:102D9000324D059EA04203D92F6847F4800703E017
:102DA0002F4C2F6847F400172F600568ED07FCD102
:102DB000051B1827103DB5FBF7F5EDB23D27062D95
:102DC00008D3D4F80CC005EB45054FF0EC0E0EEB24
:102DD000450507E0042D0BD3D4F80CC02D1F05EBDF
:102DE00045056D00AF404CEA070CC4F80CC010E07C
:102DF000D4F808C0022D05EB450504D34FF0040EAE
:102E00000EEB450500E06D00AF404CEA070CC4F83E
:102E100008C08260C360466000220260026842F01F
:102E2000400202600268026002680260026842F4C6
:102E3000806202600268026002680260026842F416
:102E4000803202600268026002680260026842EA40
:102E500041610160F0BD0000006402403038024072
:102E600000600240FEE7000008B540F2DC5000F0D0
:102E70002BFF11480321006800F0D0FF0F4801210B
:102E8000006800F0CBFF00F032FF0D4C0D4D4FF409
:102E900000760090E068401CE06002F0FDFA00F06F
:102EA00059FD02F019FB3146286800F02DFF05217D
:102EB000684600F010FFEDE7980000209C0000201D
:102EC000A40000209000002070470907090E002888
:102ED00006DA00F00F0000F1E02080F8141D7047C2
:102EE00000F1E02080F800147047000010B504469F
:102EF0002DED048BB0EE418AF0EE608A0A48E06363
:102F00000A482064B0EE409A204600F0B7FF216CDA
:102F1000B0EE481AF0EE680AB0EE490ABDEC048B38
:102F20002046BDE8104008477D3E00088D3E000861
:102F300001210148FEF74CBE001002402DE9F0418E
:102F400007460B4815460E46007808B900F08EFB80
:102F5000EFF31184202080F311882A463146384649
:102F600000F008F8E1B281F31188BDE8F0810000BB
:102F70004454002070B50E46144900EB400001EBAC
:102F8000C0051446E86A183520B101280FD0022880
:102F900005D113E0284600F09EFBA04201D2002498
:102FA00011E022463146284600F0CDFB0BE02846D2
:102FB00000F091FBA042F4D20446F2E731462846E5
:102FC00000F094FB0446204670BD000044540020ED
:102FD000012000F079FEFBE710B5FEF709FEBDE821
:102FE000104000F0EABE000030B5254893B000253F
:102FF000016841F080510160006800F0805011903C
:103000002048016841F4804101600068022400F416
:1030100080401190012000904FF4A02001906005A5
:10302000CDE9064008AA0420A82182E813000B90ED
:103030006846FEF78DFF00B1FEE70CA90F2081E87E
:1030400031004FF4A0500F904FF4805010900521A4
:103050000CA8FEF78FFE00B1FEE7FEF723FF4FF44A
:103060007A71B0FBF1F0FFF709F90420FFF7FAF8E5
:1030700000220F21501EFEF74BFE13B030BD0000A2
:1030800040380240007000401048016841F470016F
:1030900001600F48016841F0010101600C4A002104
:1030A0000832116002680B4B1A400260031D0A4A85
:1030B0001A60026822F48022026005480C30016028
:1030C00002495806803908607047000088ED00E02A
:1030D00000380240FFFFF6FE1030002470B5846B0C
:1030E0002068406994F83910C0F3C01000252129E8
:1030F00004D118B1E584204600F046F82068406904
:1031000094F83A10C0F38010222904D118B1E58553
:10311000204600F02BF8E06B40F01000E063204602
:10312000FFF7C0F870BD10B50146806B09680968EB
:10313000C90513D40021C1850168CA6822F48072D0
:10314000CA6001684A6922F001024A6101684A695D
:1031500022F040024A61202180F83A10FFF71CFA61
:1031600010BD10B5806BFFF718FA10BD0168CA6872
:1031700022F49072CA6001684A6922F001024A6131
:10318000202180F83A1070470168CA6822F0C00216
:10319000CA60202180F83910704700002DE9F04105
:1031A00004460068016921F44052E168114301615D
:1031B0002068C16849F20C6291432369A268E569FD
:1031C0001A4363692B431A430A43C260206841696A
:1031D000A26921F440710A434261E0696425B0F5B7
:1031E000004F974A974920684FF032083FD08842F5
:1031F00001D090427CD1FEF76BFE00EBC00101EBE9
:10320000001061688900B0FBF1F6FEF761FE00EB8B
:10321000C00101EB001061688900B0FBF1F0B0FB68
:10322000F5F06FF01801484306EB800108EB011040
:10323000B0FBF5F000F0F006FEF74AFE00EBC0012F
:1032400001EB001061688900B0FBF1F0B0FBF5F014
:1032500006EB0016FEF73CFE00EBC00101EB001090
:1032600061688900B0FBF1F7FEF732FED2E08842D8
:1032700001D090423DD1FEF72BFE00EBC00101EBE7
:10328000001061684900B0FBF1F0B0FBF5F00601F9
:10329000FEF71EFE00EBC00101EB00106168490063
:1032A000B0FBF1F7FEF714FE00EBC00101EB0010DC
:1032B00061684900B0FBF1F0B0FBF5F06FF0180168
:1032C000484307EB800108EBC100B0FBF5F000F0CC
:1032D000F80006EB4006FEF7FBFD00EBC00101EB3A
:1032E000001061684900B0FBF1F7FEF7F1FD3CE02A
:1032F00055E0FEF7DDFD00EBC00101EB0010616859
:103300004900B0FBF1F0B0FBF5F00601FEF7D0FD8F
:1033100000EBC00101EB001061684900B0FBF1F760
:10332000FEF7C6FD00EBC00101EB0010616849002B
:10333000B0FBF1F0B0FBF5F06FF01801484307EB7C
:10334000800108EBC100B0FBF5F000F0F80006EBDF
:103350004006FEF7ADFD00EBC00101EB0010616817
:103360004900B0FBF1F7FEF7A3FD00EBC00101EB54
:10337000001061684900B0FBF1F0B0FBF5F06FF0B0
:103380001801484307EB800108EBC100B0FBF5F0E2
:1033900000F00700216830448860BDE8F081FEF746
:1033A00087FD00EBC00101EB001061688900B0FBF4
:1033B000F1F6FEF77DFD00EBC00101EB0010616846
:1033C0008900B0FBF1F0B0FBF5F06FF01801484355
:1033D00006EB800108EB0110B0FBF5F000F0F00601
:1033E000FEF766FD00EBC00101EB0010616889008B
:1033F000B0FBF1F0B0FBF5F006EB0016FEF758FD60
:1034000000EBC00101EB001061688900B0FBF1F72F
:10341000FEF74EFD00EBC00101EB00106168890072
:10342000B0FBF1F0B0FBF5F06FF01801484307EB8B
:10343000800108EB0110B0FBF5F000F00F00A9E7E8
:10344000001401400010014010B51D4C20680168B7
:10345000C90634D5C168C90631D54168016801681B
:1034600021F010010160606B0068016821F001012A
:103470000160606B00684068124980B26E28088065
:1034800005D1A4F1C001A1F56C70FDF7FBFC0C495E
:103490008022C0390A48FFF733F82068C16841F03C
:1034A0001001C16008493D20C860616B8020096837
:1034B0004860606B0068016841F00101016010BD67
:1034C000BC470020240100200060024010B5164CCB
:1034D00020680168C90618D5C168C90615D54168B4
:1034E0000068606B0068016821F001010160606B99
:1034F000006840680D4980B20880A0F2FF30404269
:10350000DD2802D80A48FFF74BF80A483D218160C0
:10351000616B001509684860606B0068016841F0E4
:103520000101016010BD0000FC47002024010020C3
:10353000C04C00200060024070B5374D286801681B
:10354000C90668D5C168C90665D541680068686B59
:103550000068016821F001010160686B0068406843
:103560002E4E80B27928308047D106F10C021078B7
:10357000AA2842D19079BB283FD132F8010FDFED64
:10358000280A00B200EE100AA5F59B64B8EEC00A46
:103590006080518880EE201A09B200EE101A218056
:1035A00084ED041AB8EEC01A81EE200A84ED030AF5
:1035B000A08AE0821079A0821A48FFF79FF8194884
:1035C00086ED010A94ED040A1C30FFF797F886EDAA
:1035D000020A94ED170A84ED160A00F088FB00EE4B
:1035E000100AB8EE400A84ED170A94ED040A84ED3F
:1035F000090A94ED030A84ED080A0B484FF474613C
:103600000160696B802009684860686B0068016828
:1036100041F00101016070BD3C4800202401002000
:103620000000C842884C002008640240FEE7000009
:1036300030B50C46050014D0022C12D90A48A11E40
:1036400002882846FDF77AFB2919C2B211F8023C1C
:103650009A4206D111F8011CB1EB102F01D10120C3
:1036600030BD002030BD00003801002010B5124CE4
:10367000032000212061606110A0A06104F1A80076
:10368000E0614FF48060A162206261620BA0E162A0
:10369000206604F59560606610202167C4E91A0170
:1036A000616709A1E01DFCF73EFE08A12046FCF77A
:1036B0003AFE2020A07110BD445400205465726D64
:1036C000696E616C00000000525454005345474736
:1036D00045520000FEE70269C1688A4203D880684B
:1036E000401A104400E0501A401E70472DE9F04780
:1036F000C4681746894605464FF000082869A0426D
:1037000001D9061B02E0A968201A0E1AA868761EC5
:10371000001BB04200D80646BE4200D33E46686851
:10372000324620444946FCF7DAFDA868BF1B344402
:10373000B044B144A04200D10024EC60002FDDD1A0
:103740004046BDE8F0872DE9F04104468846D4E9BB
:103750000207C51BE168606816460844B54206D9F1
:103760004146FCF7BCFDB819E060BDE8F0812A468F
:103770004146FCF7B4FD761B08EB05013246606854
:10378000FCF7ADFDE660F0E702E008C8121F08C1D3
:10379000002AFAD170477047002001E001C1121FD2
:1037A000002AFBD17047D0ED000AF4EEC00AF1EE1A
:1037B00010FA01DD80ED000AD0ED000AB1EE400AFA
:1037C000F4EEC00AF1EE10FA01D280ED000A704763
:1037D00000B580ED040A30EEC00AC0ED030A0146D0
:1037E00080ED070AF0EEE00A10EE900AB0F17E5F7D
:1037F00003DADFED360AC1ED090A086BD1ED060ADE
:1038000001F12C02032802D0042827D053E091EDC7
:10381000001A01F1240021EE001A81ED081A91ED41
:10382000091AD1ED011A01EE801A30EE600A81ED1D
:10383000091AD1ED020A20EE200A81ED0A0A91ED63
:103840000E0AB8EE400AFFF7AEFF91ED080AD1ED7F
:10385000090A30EE200AD1ED0A0A21E030EE601AA2
:10386000D1ED001AB0EE002A21EE211A81ED081ADE
:10387000D1ED011A61EE801A00EEC20AC1ED091AFB
:10388000D1ED050A30EE200AD1ED020A20EE200A21
:1038900071EE210A81ED0A0A30EE800AD1ED0B0AA1
:1038A000104630EE200A81ED0B0A91ED0D0AB8EEBC
:1038B000400AFFF778FF91ED060A81ED050A91EDC8
:1038C000070A81ED060A91ED0B0A00BD0000000019
:1038D00070B5044648880D4640BA00B2A080FCF797
:1038E000B3FE9FED191B53EC112BFCF7CCFDFCF73D
:1038F000BCFEE06320886080298841F6641349BAE1
:103900002180081AA268984204DD521EA0F50050DA
:10391000A26007E041F66413D84203DA521C00F5B6
:103920000050A260206201EB4230218BDFED080ADB
:10393000401A00EE100AE060B8EEC00A80EE201ACD
:1039400084ED041A70BD0000E5B33C0FEECEBA3F23
:10395000610BB64170B517480122174B90F9090069
:10396000012804D0022802D0032802D003E01A70F4
:1039700001E003201870D868C821B0FBF1F401FB06
:1039800014043CB9D3E901560C4CB54200D00022D6
:1039900084F874206422B0FBF2F402FB1402002AC3
:1039A00007D1B0FBF1F201FB1200002801D05868EA
:1039B000986070BD4C430020A4000020003F002010
:1039C000EFF30580002800D00120704770B545480E
:1039D0002DED028B007800287DD043480078032825
:1039E0007DD1424E6FF07F01B6F90A00884201DCBA
:1039F000718103E0802801DB80207081B6F90C0022
:103A00006FF01101884201DCB18103E0202801DB65
:103A10002020B081B08A9FED360A364DC10604D50C
:103A2000DFED350AC5ED000A03E085ED000AB3EECF
:103A30000E0A9FED328A324C85ED010AC10705D08E
:103A4000304801F0C1FBD5ED000A08E080070BD536
:103A50002C4801F0B9FBD5ED000AF1EE600A20EE2A
:103A6000200A84ED050A05E084ED058A64212548D5
:103A700001F0C6FBB08A410707D5234801F0A4FB3B
:103A8000D5ED010AF1EE600A06E0000709D51E48EF
:103A900001F09AFBD5ED010A20EE200A84ED060A1A
:103AA00005E084ED068AC821174801F0A9FBB6F9A4
:103AB0000A00FCF7C9FD9FED151B53EC112BFCF719
:103AC000E2FC41EC180BE069FCF7EEFD53EC182B1F
:103AD000FCF7D3FC00E002E0FCF7F9FDE061BDEC8F
:103AE000028B70BDE8000020A40000204C430020A1
:103AF00000002042B80000200000704200000000DA
:103B0000003F0020C0000020D400002079E92631C9
:103B100008AC7C3F70B547480078032870D1464810
:103B2000007801286CD1454E454C307D800601D58A
:103B3000012000E000202070B07C424D01280BD114
:103B400028686168401AB0F57A7F05D3FFF7F0F96D
:103B5000FCF718FF28686060B18A3B489FED3B1A6C
:103B6000CA05BBEE040AF3EE040A02D5C0ED000A52
:103B700006E08A0502D580ED000A01E080ED001A1A
:103B800022784FEA416322B1002B07DA80ED020A66
:103B900007E0002B02DAC0ED020A01E080ED021A14
:103BA00022B10A0607D580ED030A06E00A0602D50F
:103BB000C0ED030A01E080ED031A08054FF4FA7323
:103BC00008D528686268821A9A4203D3606080210F
:103BD0001F4829E0C80408D528686268821A9A42FA
:103BE00003D3606080211B481EE01B488A0408D56F
:103BF0002A686668961B9E4203D30221626013E026
:103C000016E04A0407D52A686668961B9E4202D3CE
:103C10000121626008E009040AD5296862688A1AED
:103C20009A4205D361600421BDE87040FDF7D0BF22
:103C300070BD0000A4000020E80000204C430020DC
:103C400008010020F00000207C3F00200000000060
:103C5000000C0240000402400010024008B5FDF7CD
:103C6000CFFF40F2DC50FDF7C1FEFFF7BDF9FEF7D4
:103C70003FFFFEF71FFFFEF7D7FFFEF795FEFEF7AB
:103C8000D7FEFEF7F7FFFFF729F8FFF74DF8FCF72F
:103C90007FFEFEF79FFD15200090054B054A04218D
:103CA0000548FFF773F8FCF7F3FF00F01BF8FEE799
:103CB000004C002004100140B8640240014600207E
:103CC000842900D0C81C704710B500B9012001F04C
:103CD000DBFC002010BD10B501B9012101F008FD89
:103CE000002010BD10B501F0B9FD002010BD10B5C9
:103CF000FFF766FE18B1BDE8104002F039BCBDE820
:103D0000104002F02FBC0000FEB500220C46054614
:103D100001920292FFF754FE4FF0004698B101A8BD
:103D2000009002AB01222146284602F075FB0128D3
:103D300011D1019888B10A49F0080860BFF34F8F8C
:103D4000BFF36F8F09E002AB01222146284602F043
:103D5000DFFA012801D03046FEBD0298FEBD00000A
:103D600004ED00E0FEB5002605460F4634460196F8
:103D7000501C06D002B11446FFF722FE20B182206B
:103D800015E04FF0FF34F7E723463946002001AA3B
:103D900002F07AFC012804D00CB1402007E0009624
:103DA00006E00198002801DA862000E00820009053
:103DB0009DE8070085E80700FEBD10B502F0C4FBD2
:103DC000012803D0BDE8104001F054BE10BD3EB53F
:103DD00004460D46B0F90800FFF770FF02A9CDE9CF
:103DE0000001208A2B4682B2D4E9001002F064FA66
:103DF000012801D000203EBD02983EBD08B50068F4
:103E000013460090012905D00022012102A002F0F2
:103E10005BFD08BD0122F8E7000000002DE9FC4130
:103E20004FF000050C0007462E46019500D10124F5
:103E3000FFF7C6FD009690B101AB22460921384636
:103E400002F08EFD012812D1019888B10A494FF085
:103E500080500860BFF34F8FBFF36F8F08E00023DF
:103E600022460421384602F07BFD012800D0FF25C0
:103E70002846BDE8FC81000004ED00E000F1300CB4
:103E80008CE80E0080EC030A7047000080EC030A07
:103E90009FED050A80ED080A80ED090A80ED0A0A07
:103EA00080ED0B0A70470000000000002DE9F04192
:103EB000184E0F460446F5683068001D01F0A2FA5E
:103EC00038B9306890F82C1001208840316981435E
:103ED0003161601C07D137B13168BDE8F0410E484F
:103EE000091D01F0CDBA30682C44AC424460316801
:103EF00005D2B06BBDE8F041091D01F0A9BA706BA5
:103F0000091D01F0A5FAB06A844200D2B462BDE88E
:103F1000F081000030000020B03E00202DE9F0418B
:103F2000044601F0B9FA484EB068401CB0603068F1
:103F3000464F10B1706940B32DE03460B06801287D
:103F400029D1002505EB850007EB800001F072FA0E
:103F50006D1C042DF6D33D48503001F06BFA3B4800
:103F6000643001F067FA3948783001F063FA374875
:103F70008C3001F05FFA3548A03001F05BFA33482D
:103F8000503070631430B06305E03068E16AC06A95
:103F9000884200D83460706A2D4D401C70626064A5
:103FA00034B304F134018846204600F0C3FD2046B6
:103FB000E16A00F08DFD234642460321012000F016
:103FC00095FF24480188204600F005FE00F02AFCF9
:103FD00000F079FD298808420AD0204600F073FDE0
:103FE0002988084204D021461020E26A00F074FEBD
:103FF000204600F068FD2988084203D02146302081
:1040000000F038FEE06A01213269814011433161DC
:1040100000EB800007EB8000211D01F031FA01F078
:104020005BFA706900280CD03068E16AC06A884287
:1040300007D209494FF080500860BFF34F8FBFF39C
:104040006F8FBDE8F081000030000020103E00209E
:104050006C0100206E01002004ED00E010B501F0BD
:104060001BFA0E4C2068A0B90D4801F0E3F90C488A
:10407000143001F0DFF90A48E060143020610022BA
:104080000C210A2001F00CFD206010B105A101F007
:10409000B5FABDE8104001F01FBA00006C00002026
:1040A000C43E0020546D72510000000070B5124EE5
:1040B000124D1CE001F00AFC306820B1002402F02F
:1040C00093FBA4B901E00124F9E701F0E5F9F068F8
:1040D000C468201D01F096F9A868401EA8606868B1
:1040E000401E686001F0F8F9204600F049F8686861
:1040F0000028DFD170BD00009C3E00203000002071
:1041000030B4026C0B46002A0BD0C1681144C16068
:104110004468A14201D30168C16030BC1846FCF775
:10412000DEB830BC70472DE9F041856B1646044679
:104130000027026CFAB17EB1E068FCF7D0F8E168C4
:10414000206C091AE1602268914202D26168081A63
:10415000E060022E0DD00EE0A068FCF7C0F8216CE4
:10416000A0680844A0606168884204D32068A06009
:1041700001E005B16D1E6D1CA5633846BDE8F081F8
:1041800010B50446006B01F0BBF92046BDE81040B5
:1041900001F0B6B910484FF47051420706D0C01D67
:1041A0000D4920F00700411AC1F570510B4A002358
:1041B0000144C2E900030839103A21F007011160F7
:1041C0004B600B600B1AC0E9001393604FF0004086
:1041D0005360D06070470000D00100201C00002018
:1041E000074E4FF08054074DFFF760FF30680128FD
:1041F000FAD92C60BFF34F8FBFF36F8FF4E7000045
:10420000103E002004ED00E070B51E46049C0546FB
:1042100051B32260C4E90F510121204601F0E4FDB1
:10422000194884F84C600188204600F0C7FC00F073
:10423000F9FA00F048FC154E3188084223D0204698
:1042400000F03CFC318808421DD094F84C0068B165
:10425000012815D0032810D0042814D12146172096
:10426000BDE8704000F006BD2460D3E72A46214631
:10427000BDE87040112000F02FBD21461220EFE76D
:1042800021461320ECE770BD6E0100206C01002078
:104290002DE9F0470E46DDE9098417468246910074
:1042A0009946089DA522206BFCF72BF86FF00301BF
:1042B000206B01EB8701084420F00707780707D03F
:1042C000502080F31188BFF34F8FBFF36F8FFEE74D
:1042D0002218315C82F83410315C11B1401C102876
:1042E000F6D3002684F84360042D00D30325201D57
:1042F000E56201F0AAF804F1180001F0A6F82461C3
:10430000C5F104006462A061E66484F850604A4626
:104310005146384600F042FF2060B8F1000F01D04E
:10432000C8F80040BDE8F08730B5114900E01146FB
:104330000A688242FBD34B685C18844203D1406810
:1043400018444860084643681C18944209D1084C38
:10435000103C2468A24209D052681A4442600A689C
:1043600012680260814200D0086030BD0460F9E745
:104370001C00002070B5002441600B4D006191428B
:1043800006D8D11A8269914206D2011D286907E038
:104390009A4203D2994201D3012403E0011DE86847
:1043A00001F056F8204670BD6C00002004490A68F0
:1043B000824202D008600120704700207047000050
:1043C0004C01002010B5044601F066F8A06B20B146
:1043D000002401F081F8204610BD0124F9E7000017
:1043E00030B585B02B4D4BE00198002848DB039C8D
:1043F000606910B1201D01F005F804A800F0B6F8BE
:10440000024601980A283BD2DFE800F00505053A8C
:10441000263705053A260298A1690346014420463D
:10442000FFF7A8FF00B3616A20468847E0690128CA
:1044300026D1002000900298A16900234218194655
:10444000204602F08DFA78B9502080F31188BFF32E
:104450004F8FBFF36F8FFEE70298A06128B18118DC
:1044600013462046FFF786FF0AE0502080F31188AC
:10447000BFF34F8FBFF36F8FFEE7204601F040F888
:1044800000231A4601A9286801F02CFB0028ABD1B3
:1044900005B030BD6C0000202DE9FC410E460546FC
:1044A00001F014FA01A800F061F80446019818B16F
:1044B00002F09AF9BDE8FC81224FAEB1386900687C
:1044C000A8B30026291B3246386801F0BBF802F079
:1044D0008BF90028EED11C494FF080500860BFF3E3
:1044E0004F8FBFF36F8FE5E7A542EBD802F07CF961
:1044F000F8682646C068C468201D00F083FFE069A4
:10450000012810D1A0692B46411932462046FFF7F9
:1045100031FF40B100200346014600902A46204664
:1045200002F01EFA20B1616A20468847C2E707E020
:10453000502080F31188BFF34F8FBFF36F8FFEE7DA
:104540000126BFE76C00002004ED00E00648416B47
:10455000096829B1416BC968C968496881627047B7
:104560004FF0FF31FAE700003000002070B505463B
:1045700001F0F8FF064E0446B068844203D200F012
:10458000BDF8012000E0002028602046B46070BD26
:104590006C0000202DE9F04F544D044689B0286A84
:1045A000A04276D0E86D38B300F03CF98246EFF3D4
:1045B0001089012080F310882C62002C6AD000271B
:1045C000FF20AF62AB46287000F0EEFB0024EFF353
:1045D0001088012080F31088286A00B344496E4691
:1045E0000020221851F8222046F82020401C0828DC
:1045F000F7D30025089702E00220D7E76D1C08AA30
:104600002021304601F0B2F90028F7D1002D02DD5B
:104610000C2000F0EFFC0834B4F5A07FDED388F363
:1046200010880024EFF31088012080F31088DBF855
:104630002000E8B12F4901AE0020221851F82220B5
:1046400046F82020401C0228F7D30025009700E000
:104650006D1C6A460821304601F088F90028F7D120
:10466000002D02DD0C2000F0C5FCA41C502CE1D371
:1046700088F31088EFF31086012080F31088DBF8B0
:1046800020005D46A0B1A86CCDE90007E8460024F3
:1046900002E028E025E0641C01AA0421404601F064
:1046A00065F90028F7D1002C02DD0C2000F0A2FCF7
:1046B00086F31088EB695246581CE8610120296B8B
:1046C00000F03EFB686B10B90B480068686301207E
:1046D000CDE900074FF47A73022104206A6B00F0E1
:1046E00087FA89F3108809B0BDE8F08F68010020CF
:1046F000944D00209452002080000020F8B5194EFF
:104700001FE0C068C4680568201D00F07BFE616A78
:1047100020468847E069012813D1A0692844A842AF
:1047200006D924616060211DF06800F091FE08E068
:1047300000200346014600902A46204602F010F968
:1047400038B1F06801680029DBD13169C6E903108E
:10475000F8BD502080F31188BFF34F8FBFF36F8FE8
:10476000FEE700006C00002008484068401C4FF045
:10477000500080F3118804D0BFF34F8FBFF36F8FC9
:10478000FEE7BFF34F8FBFF36F8FFEE724000020DB
:10479000084CE068016839B1002139B10020FFF709
:1047A0007BFEFFF71DFEF4E70121F6E7C068006815
:1047B000F5E700006C0000200F4910B58A69002A57
:1047C00018D1431E01229A408861CB681A43CA60FF
:1047D00000F02AF8094C02469020216800F01EFBE8
:1047E00007A29020216800F019FBBDE810400020CE
:1047F000FFF7D0BE10BD000068010020640100205A
:104800005265636F726465722073746F7070656453
:1048100020696E2070727654726163654572726FA2
:104820007228290001F08ABE0D2820D2DFE800F0AE
:104830001F1517191B1D07090B0D0F1113000DA0D4
:10484000704719A0704725A0704731A070473AA063
:10485000704746A0704752A070475EA0704768A09E
:10486000704772A070477CA0704787A070470020F7
:104870007047000045786365656465642053594D51
:10488000424F4C5F5441424C455F534C4F54532070
:10489000287365652070727654726163654765742C
:1048A0004572726F722900004578636565646564BE
:1048B0002053594D424F4C5F4D41585F4C454E4738
:1048C0005448202873656520707276547261636560
:1048D0004765744572726F72290000004578636500
:1048E00065646564204F424A4543545F44415441E6
:1048F0005F534C4F54532028736565207072765473
:10490000726163654765744572726F7229000000B9
:10491000537472696E6720746F6F206C6F6E6720BE
:10492000287365652070727654726163654765749B
:104930004572726F722900005452435F53545245BE
:10494000414D5F504F52545F524541445F44415482
:10495000412072657475726E6564206572726F7243
:104960002028213D2030292E000000005452435FB2
:1049700053545245414D5F504F52545F5752495422
:10498000455F444154412072657475726E656420C0
:104990006572726F722028213D2030292E000000A0
:1049A000426C6F636B696E6720696E20765472612A
:1049B0006365456E61626C65202873656520785477
:1049C000726163654765744C6173744572726F728E
:1049D00029000000496E76616C6964206576656E19
:1049E0007420636F64652028736565207072765447
:1049F000726163654765744572726F7229000000C9
:104A0000457863656564656420495352206E65731B
:104A100074696E67202873656520707276547261C0
:104A200063654765744572726F722900445754205C
:104A30006E6F7420737570706F7274656420287364
:104A4000656520707276547261636547657445725E
:104A5000726F7229000000004457545F435943436A
:104A60004E54206E6F7420737570706F727465642D
:104A7000202873656520707276547261636547659E
:104A8000744572726F722900436F756C64206E6F8B
:104A9000742063726561746520547A4374726C206B
:104AA000287365652070727654726163654765741A
:104AB0004572726F7229000000F0B6BC10B5FFF7A6
:104AC000FBFF000C10BD10B500F0B0FC000C10BDD9
:104AD000F0B5EFF31087012282F31088DFF84CC0A5
:104AE0000022134EDCF814301C4607E022F00305C8
:104AF000AD59854201D1134602E00832A242F5D3F6
:104B0000B3F5A07F0AD223F00302B0509019A3425C
:104B1000416008D10834CCF8144004E0DCF85000BF
:104B2000401CCCF8500087F31088F0BD68010020CD
:104B300094520020F0B5EFF31086012282F3108822
:104B40001C4F0022DFF870C03B691C4608E022F0D1
:104B5000030555F80C50854201D1134602E020327E
:104B6000A242F4D3B3F5A06F1DD223F003024CF898
:104B700002000CEB03020020121D0D5C15540D5CAD
:104B800045B1401C1928F8D300E0401C0A5C0AB16A
:104B90008028FAD3796D884200D97865A34205D17F
:104BA00020343C6102E0F86C401CF86486F3108805
:104BB000F0BD000068010020944D002070B504464F
:104BC0000D46FFF779FF65F31F4001462046BDE81B
:104BD000704000F035BD70B504460D4600F026FC6F
:104BE00065F31F4001462046BDE8704000F020BE3E
:104BF0000FB4F0B593B0BDF86430B3F5805F06D361
:104C00000120FFF7D9FD13B0F0BC5DF814FBEFF302
:104C10001084012181F31088144D296A19B3AA6AFE
:104C20000821521CAA6243EA0033ADF80030ADF807
:104C300002200F4A01EB80016D46526801921AABC7
:104C4000002204E005EB820680CB521CB760824252
:104C5000F8DB0020119011AA284600F087FE10B161
:104C60000B2000F0C7F984F31088CCE7680100201E
:104C7000001000E01FB5B0F5805F05D304B001203F
:104C8000BDE81040FFF798BDEFF31084012282F3D6
:104C900010880F4B1A6ABAB19A6A40F48050521CBD
:104CA0009A62ADF800000B48ADF802204068CDE9EB
:104CB00001010020039003AA0C21684600F056FE73
:104CC00010B10B2000F096F984F310881FBD00008E
:104CD00068010020001000E030B585B0B0F5805FBD
:104CE00005D305B00120BDE83040FFF765BDEFF307
:104CF0001084012383F310880F4D2B6AC3B1AB6A74
:104D000040F400505B1CAB62ADF800000B48ADF8FE
:104D10000230406801AB83E807000020049004AA39
:104D20001021684600F022FE10B10B2000F062F95D
:104D300084F3108805B030BD68010020001000E049
:104D400070B586B0B0F5805F05D306B00120BDE830
:104D50007040FFF731BDEFF31085012484F3108814
:104D60000F4E346AC4B1B46A40F44050641CB4625B
:104D7000ADF800000B48ADF80240406801AC84E893
:104D80000F000020059005AA1421684600F0EEFDF2
:104D900010B10B2000F02EF985F3108806B070BD1D
:104DA00068010020001000E070B588B0EFF31085B6
:104DB000012080F310881848016A41B3416A0091CC
:104DC0004188ADF8041041F6A121ADF8061000218C
:104DD0000291806803902020ADF81000282008225E
:104DE000ADF814206E46ADF81200ADF816000C4672
:104DF000069100E0641C06AA1821304600F0B6FDBA
:104E00000028F7D1002C02DD0C2000F0F3F885F328
:104E1000108808B070BD000068010020F0B507469A
:104E2000002093B0034600E05B1CD45C0CB1342B33
:104E3000FADB1C1DE51704EB9574A41011B17F1C5F
:104E4000BFB2401C8500044426480F2C08DDA30097
:104E5000846D3C3BA34200D983650F24C5F13C031C
:104E6000EFF310864FF0010C8CF31088D0F820C0BF
:104E7000BCF1000F31D0D0F828E04FF0080C0CEB5B
:104E8000840C0EF1010EC0F828E047EA0434ADF8B6
:104E90000040154CADF802E0684664680DF1080E5C
:104EA000019401B10291002104E0545C6F18491C87
:104EB0000EF807409942F8DBC5F13C0200219A4206
:104EC00002DDEA180EF80210119111AA614600F0F5
:104ED0004DFD10B10B2000F08DF886F3108813B053
:104EE000F0BD000068010020001000E00FB43EB5E6
:104EF0000023089A00E05B1CD45C0CB1342BFADB75
:104F000009AC029402ACCDE90024002200F004F8C0
:104F10003EBC5DF814FB00002DE9F04F064693B04F
:104F2000181DC417DDE91CEC00EB9470B50006EB0E
:104F3000A0042E4F0F2C08DDBB6DA0003C3898421A
:104F400000D9B8650F24C5F13C03EFF310890120A7
:104F500080F31088386AE0B3D7F82880082000EB87
:104F6000840B08F10108C7F8288041EA0430ADF845
:104F700000001F48ADF802806F464068019002A80B
:104F8000824600210BE002B169B1DCF8004004F177
:104F90000408CCF80080246840F82140491CB14244
:104FA000F1DB002106E00260F8E71EF801206C1832
:104FB000491C02559942F8DBC5F13C0200219A4296
:104FC00002DDEA180AF80210119111AA5946384672
:104FD00000E005E000F0CAFC10B10B2000F00AF878
:104FE00089F3108813B0BDE8F08F0000680100203D
:104FF000001000E00A4B10B5421E01219140DA6812
:1050000011420BD11143D960FFF70EFC024605484F
:105010000168BDE810409020FFF700BF10BD000000
:1050200068010020640100202DE9F041044600F0F1
:1050300033FA94F9455004F1240609E0606A48B156
:10504000304601F089FB08B100F0A8FB6D1E6DB27F
:10505000002DF3DC4FF0FF3684F8456000F03CFA99
:1050600000F01AFA94F9445004F1100709E020699D
:1050700048B1384601F070FB08B100F08FFB6D1E9F
:105080006DB2002DF3DC84F84460BDE8F04100F01F
:1050900023BA00002DE9F0410546002600F016FC79
:1050A0003B4F386808B9FFF775F8F868054250D1EA
:1050B000C5B3083568070ED005F00700C0F1080039
:1050C0000544680707D0502080F31188BFF34F8F45
:1050D000BFF36F8FFEE72DB37868854239D82C492E
:1050E00010310846046801E0214604466068A84281
:1050F00002D220680028F7D13868844224D00E6894
:105100002068086060680836411B10290FD96019B3
:10511000420708D0502080F31188BFF34F8FBFF3B0
:105120006F8FFEE715E041606560FFF7FDF861688D
:105130007868401A7860BA68904200D2B860F8681F
:1051400001430020C4E900011EB11248016829444E
:105150000160FFF767FBFFF7B6FC0F4909880842BB
:1051600007D02A4631460EB1382000E0E920FFF78B
:10517000B3FD01F039FB700707D0502080F3118890
:10518000BFF34F8FBFF36F8FFEE73046BDE8F0816E
:105190000C000020700100206C01002010B5031FDE
:1051A0004FF080741C601B1F21F001011960191F52
:1051B000044B0B6014390A60091F6FF00202443877
:1051C0000A6010BD694700084168002902DC9FEDB4
:1051D0000B0A70470268531C03608A4200DB0160BF
:1051E00090ED000AF8EEC00A00EE101AB8EEC01AF0
:1051F00080EE810A80ED020A704700000000000086
:105200000022C0E90021704770B52E482DED048BB7
:10521000007800283AD02C480078012836D12B4855
:105220002B4E2C4D0178B6F90200B6F90040012949
:105230002FD0FBF709FA9FED288B53EC182BFBF7C7
:1052400022F99FED279B53EC192BFBF78EF9FBF707
:105250003EFA68612046FBF7F7F953EC182BFBF791
:1052600012F953EC192BFBF780F9FBF730FAA86120
:10527000B6F9040095ED070A00EE900A9FED1A1AA0
:10528000F8EEE00A00EEC10A85ED070ABDEC048BDA
:1052900070BD00EE100AF3EE0E0AB8EEC00A20EE62
:1052A000201A9FED120AC1EE001A01EE104AB8EE64
:1052B000C11A61EE200A80EE801AC5ED051A85ED4F
:1052C000061AE3E7E8000020A4000020B400002054
:1052D0004C430020003F00200000000000004E4032
:1052E0000000000000A0844017B7D1390000254419
:1052F0000F4810B50078012818D10E480078012811
:1053000014D10D48B0F90600FBF79EF99FED0B1B79
:1053100053EC112BFBF7B7F89FED0A1B53EC112B45
:10532000FBF723F9FBF7D3F90849086010BD00002B
:10533000A4000020E80000204C43002000000000F2
:1053400000004E400000000000A084407C3F002090
:105350007CB5124C0025E560A56040F2FF15256084
:1053600008252561040A8DF800408DF80100080A1F
:105370008DF80200100A8DF804008DF80520180A37
:105380008DF803108DF8060004498DF807300123CD
:105390006A46A1F1A000FBF7E1FD7CBD984000202A
:1053A000B0F90630B0F90420B0F90210B0F90000ED
:1053B000FFF7CEBF7CB5124C0025E560A5604FF429
:1053C0000075256008252561040A8DF800408DF8D8
:1053D0000100080A8DF80200100A8DF804008DF80B
:1053E0000520180A8DF803108DF8060004498DF881
:1053F000073001236A46A1F1A000FBF7AFFD7CBD99
:1054000098400020D0E9013201699A60D0E9012377
:105410005A604A68824201D182684A600022026171
:105420000868401E08607047806C7047002800D0F4
:10543000806C704700F108014FF0FF32C0E90112A3
:10544000C160016100210160704700210161704766
:1054500030B50C68621C02D000F1080202E002695B
:1054600004E01A4653681D68A542FAD953684B6098
:1054700099608A60516008610168491C016030BD13
:1054800042684A6093688B609368596091600861D4
:105490000168491C01607047502080F31188BFF3F8
:1054A0004F8FBFF36F8F0A494868401C486001283E
:1054B0000CD10848006810F0FF0F07D0502080F38F
:1054C0001188BFF34F8FBFF36F8FFEE77047000067
:1054D0002400002004ED00E00849486828B1401E7F
:1054E000486001D180F311887047502080F3118803
:1054F000BFF34F8FBFF36F8FFEE700002400002043
:1055000070B50546040038D01C4E083C6068F16850
:10551000084207D1502080F31188BFF34F8FBFF3AB
:105520006F8FFEE722683AB1502080F31188BFF3F5
:105530004F8FBFF36F8FFEE78843606000F0C6F9BE
:1055400060687168014471600D490A68101A08604A
:10555000FFF768F9FFF7B7FA0A490988084205D04A
:105560006068294642423920FFF7B6FB2046FEF725
:10557000DBFEBDE8704001F037B970BD0C000020C3
:10558000700100206C01002006484FF47A71006819
:10559000B0FBF1F14FF0E020491E416107210161AC
:1055A000704700008000002010B5FAF751FE114945
:1055B00010280ED300F1E02090F8F0030A78904212
:1055C00007D2502080F31188BFF34F8FBFF36F8F46
:1055D000FEE709480068896800F4E060884207D95E
:1055E000502080F31188BFF34F8FBFF36F8FFEE71A
:1055F00010BD0000240000200CED00E02DE9F0417A
:105600000E4D0E460746002455F8340020B1641CA8
:10561000082CF9D3BDE8F08105EBC40045F83460EF
:10562000476031463846FFF785FA3B463246BDE8CB
:10563000F04103210120FFF759BC0000D03D0020BC
:105640008164704770B515460E460446FFF724FF87
:1056500094F944100020491C01D184F8440094F9C5
:105660004510491C01D184F84500FFF735FFA06BB8
:1056700028B92A46314604F1240000F0ADF820464E
:10568000BDE87040FFF7D0BC10B5040020D015482D
:10569000006B38B1502080F31188BFF34F8FBFF3F8
:1056A0006F8FFEE700F012F9FFF7BCF8FFF70BFA77
:1056B0000D490988084203D021467A20FFF7DAFA1B
:1056C00000212046FEF7F2FB01F08EF8002807D1FA
:1056D00006494FF080500860BFF34F8FBFF36F8FC4
:1056E00010BD0000300000206C01002004ED00E03F
:1056F00070B50C4606004FF000020BD094B1244B5D
:10570000186BB8B1502080F31188BFF34F8FBFF3EF
:105710006F8FFEE7502080F31188BFF34F8FBFF3E8
:105720006F8FFEE7502080F31188BFF34F8FBFF3D8
:105730006F8FFEE700F0CAF8DD6833681C44AB42A7
:1057400002D9A34202D804E0A34201D8AC4200D956
:10575000012234607AB1FFF765F8FFF7B4F90D491B
:105760000988084203D021467920FFF783FA601B9D
:105770000021FEF79BFB01F037F8002807D106490E
:105780004FF080500860BFF34F8FBFF36F8F70BD35
:10579000300000206C01002004ED00E001490120F0
:1057A000C86170473000002010B50C4650B109495F
:1057B00009681831FFF74CFE2046BDE81040012172
:1057C000FEF774BB502080F31188BFF34F8FBFF3F7
:1057D0006F8FFEE73000002070B516460C46D0B142
:1057E000114D29681831FFF74BFE0EB14FF0FF3411
:1057F000FFF718F8FFF767F90C490988084204D049
:10580000E86801197920FFF735FA31462046BDE8EE
:105810007040FEF74BBB502080F31188BFF34F8FD1
:10582000BFF36F8FFEE70000300000206C01002006
:10583000002800D08164704728B107490A6A0260D5
:10584000C96841607047502080F31188BFF34F8FC3
:10585000BFF36F8FFEE70000300000201CB5174833
:105860000024CDE900402346802215A1164800F00F
:1058700023FD012803D101F04FF8012809D0401C75
:105880001AD1502080F31188BFF34F8FBFF36F8F71
:10589000FEE7502080F31188BFF34F8FBFF36F8F67
:1058A00006484FF0FF312C38816201214161C4600C
:1058B000BDE81C4000F06CB81CBD00005C0000207E
:1058C00049444C4500000000E14100080248016BDA
:1058D000491C0163704700003000002010B51F4CC8
:1058E000206B012208B1E26110BD0020E061206957
:1058F0001B49B0FA80F0C0F11F0000EB800051F8A6
:1059000020301BB301EB800000F1080341684968B7
:105910004160994201D149684160C86820601148DE
:105920000260FEF77FFFFFF7CEF80F4909880842B3
:10593000DAD02068FEF73AFD0028D5D0206821682B
:10594000C26ABDE810403720FFF7C6B9502080F387
:105950001188BFF34F8FBFF36F8FFEE73000002039
:10596000103E0020C40100206C01002070B51446D8
:105970000D460A4601460120FDF7E0FA04B1206019
:10598000A84202D04FF0FF3070BD002070BD000073
:105990001CB533480168334A914207D1502080F347
:1059A0001188BFF34F8FBFF36F8FFEE700682D495B
:1059B000491E884207D1502080F31188BFF34F8FD2
:1059C000BFF36F8FFEE7284908780190FF20087029
:1059D00008788DF800009DF800009DF8002000F088
:1059E000F000904207D0502080F31188BFF34F8F12
:1059F000BFF36F8FFEE79DF800001C4A00F05000D7
:105A000010700720906007E09068401E90609DF83D
:105A1000000040008DF800009DF800000006F3D45F
:105A2000107A000200F4E0609060019808700C4861
:105A30002030016841F470010160016841F070415B
:105A40000160FFF7A1FD00205060FAF7C7FB08488E
:105A5000016841F040410160FAF7B0FB00201CBD35
:105A600000ED00E071C20F4100E400E024000020DE
:105A700034EF00E010B5502080F31188BFF34F8F52
:105A8000BFF36F8F00F07CFD18B104494FF08050D8
:105A90000860002080F3118810BD000004ED00E0D4
:105AA000F8B517460E46050011D0C6B105FB06F045
:105AB0005030FFF7EFFA040007D004F150023B46E4
:105AC000314628460094FEF79FFB2046F8BD502043
:105AD00080F31188BFF34F8FBFF36F8FFEE7002075
