:020000040800F2
:10000000E852002059020008112F0008A928000812
:100010007D2E00084B0700089936000800000000FC
:100020000000000000000000000000009D0100082A
:100030008D0B000800000000F101000845300008A9
:1000400073020008730200087302000873020008BC
:1000500073020008730200087302000873020008AC
:10006000730200087302000873020008730200089C
:10007000730200087302000873020008730200088C
:10008000DD0A00087302000873020008590700081F
:100090004D0700087302000873020008730200088D
:1000A000730200087302000873020008730200085C
:1000B000730200087302000873020008730200084C
:1000C000730200087302000873020008730200083C
:1000D0007302000873020008B534000839350008BF
:1000E000730200087302000873020008730200081C
:1000F000730200087302000873020008730200080C
:1001000073020008730200087302000873020008FB
:1001100073020008730200087302000873020008EB
:1001200073020008730200087302000873020008DB
:1001300073020008730200087302000871070008C8
:1001400065070008730200087302000873020008C4
:10015000730200087302000873020008A535000846
:10016000730200087302000873020008730200089B
:100170007302000873020008730200080000000008
:100180007302000873020008DFF80CD000F0A0FA38
:1001900000480047D13F0008E85200202B4B196867
:1001A0000868B0E8F04F80F30988BFF36F8F4FF015
:1001B000000080F3118870470000000006480068C6
:1001C000006880F3088862B661B6BFF34F8FBFF353
:1001D0006F8F00DF00BF00BF08ED00E0DFF80C000C
:1001E000016841F470010160704700BF88ED00E0D4
:1001F000EFF30980BFF36F8F144B1A681EF0100FD6
:1002000008BF20ED108A20E9F04F106008B44FF0CD
:10021000500080F31188BFF34F8FBFF36F8F05F04D
:10022000BFF84FF0000080F3118808BC1968086817
:10023000B0E8F04F1EF0100F08BFB0EC108A80F34A
:100240000988BFF36F8F704700BF00BF30000020E8
:10025000EFF30580704700000648804706480047D6
:10026000FEE7FEE7FEE7FEE7FEE7FEE7FEE7FEE766
:10027000FEE7FEE7F5300008890100082DE9F05F90
:100280000546002092469B46884606468146402405
:100290001BE0284641464746224600F074F9534683
:1002A0005A46C01A914110D311461846224600F012
:1002B0005BF92D1A67EB01084F4622460120002109
:1002C00000F052F917EB00094E41201EA4F1010481
:1002D000DFDC484631462A464346BDE8F09F40EA07
:1002E00001039B0703D009E008C9121F08C0042AB4
:1002F000FAD203E011F8013B00F8013B521EF9D29B
:100300007047D2B201E000F8012B491EFBD27047C2
:100310000022F6E710B513460A4604461946FFF7D1
:10032000F0FF204610BD2DE9FE4F81EA030404F0E2
:10033000004421F0004100944FF0000B23F00043F3
:1003400050EA01045ED052EA03045BD0C3F30A54BE
:10035000C1F30A552C44A4F2F3340194A0FB0254D7
:10036000C1F3130141F48011C3F3130343F4801369
:1003700001FB024400FB034E840A970A44EA8154BD
:1003800047EA8357A4FB076802958D0A05FB07859A
:100390004FEA932C04FB0C542705029D4FEA0658A4
:1003A00047EA1637B5EB08056EEB070C870E920E81
:1003B00047EA811742EA8312A7FB0201B6EB0B0161
:1003C00064EB00042B0D43EA0C335E1844EB1C5025
:1003D000DA465146E7FB0201C5F313044FEA0B333B
:1003E00043EA14534FEA0432019C43EA0603A4F1A2
:1003F0000C040294009CCDE900B400F01AF903B09B
:10040000BDE8F08F00200146F9E72DE9F04D81EAC3
:10041000030404F0004B21F0004514464FF0000A9D
:1004200023F0004150EA050220D054EA01021DD019
:10043000C5F30A570246C5F31303C1F31300C1F312
:100440000A5640F4801543F48013A7EB0608101BEE
:10045000D64608F2FD3873EB050002D308F1010817
:1004600001E092185B41B8F1000F03DA0020014669
:10047000BDE8F08D00204FF48011064684460EE062
:10048000171B73EB050705D3121B63EB050306432C
:100490004CEA010C49084FEA300092185B4150EADF
:1004A0000107EDD152EA030012D082EA040083EA88
:1004B0000501084305D0101BAB4106D201220023E1
:1004C00006E000224FF0004302E06FF001025310FB
:1004D0001AEB06004CEB085110EB0A0041EB0B0144
:1004E000BDE8F04D00F096B80EB5C10F80EAE0709F
:1004F0000844CA07002140F233438DE80E000A4643
:100500000B4600F096F803B000BD00F0004230F05A
:1005100000400AD0C10D01F56071C0F3160042EA37
:100520000151C2084007114370470020014670473F
:1005300001F0004330B421F0004150EA010206D03E
:100540000A0DA2F56072C1F31301002A02DC30BC6F
:1005500000207047440F44EAC104C100E01830BCD9
:1005600000EBC25000F01FB8202A04DB203A00FA4A
:1005700002F1002070479140C2F1200320FA03F3FA
:10058000194390407047202A04DB203A21FA02F0F8
:100590000021704721FA02F3D040C2F120029140BD
:1005A0000843194670470029A8BF7047401C4900FE
:1005B00008BF20F00100704710B4B0FA80FC00FAC8
:1005C0000CF050EA010404BF10BC704749B1CCF1F3
:1005D000200421FA04F411FA0CF118BF012121437F
:1005E0000843A3EB0C01CB1D4FEA00614FEA10203A
:1005F00042BF002010BC704700EBC35010440029DC
:10060000A4BF10BC7047401C490008BF20F0010087
:1006100010BC704710B5141E73F1000408DA401CBA
:1006200041F1000192185B411A4301D120F0010011
:1006300010BD2DE9F04D92469B4611B1B1FA81F201
:1006400002E0B0FA80F220329046FFF78DFF0446B8
:100650000F4640EA0A0041EA0B0153465A46084356
:1006600013D0114653EA010019D0C8F14002504698
:10067000FFF789FF05460E46504659464246FFF7AA
:1006800073FF084305D0012004E020463946BDE849
:10069000F08D0020054346EAE0762C4337430A9864
:1006A0006305E40AA0EB08000022FD0A44EA47546F
:1006B0000A3002D500200146E9E701051019694119
:1006C000DDE9084500196941BDE8F04DA2E70000E9
:1006D000064C074D06E0E06840F0010394E807008F
:1006E00098471034AC42F6D3FFF752FD446D000832
:1006F000646D000870B58C1810F8015B15F00703E5
:1007000001D110F8013B2A1106D110F8012B03E0AA
:1007100010F8016B01F8016B5B1EF9D12B0705D4B2
:100720000023521E0DD401F8013BFAE710F8013BFB
:10073000CB1A921C03E013F8015B01F8015B521E17
:10074000F9D5A142D8D3002070BDFEE7014800F0E2
:10075000CFBE0000E43F0020014800F0C9BE000009
:10076000E43F0020014800F0C3BE00000C40002020
:10077000014800F0BDBE00000C4000200EB50C4C3E
:100780004FF0FF352A46D021684603F0B3FCDDE97F
:1007900000010828F6D1080604D50548083804F0F9
:1007A000C3FAEFE74806EDD5204604F03BFBE9E746
:1007B000C43E002070B56C212DED028B3048FFF750
:1007C000A7FD2F48BFEE000A642180ED070A2D48DF
:1007D00004F0D8F92B486421143804F0D3F99FEDC4
:1007E0002A8AB0EE040A0023F0EE480A2822B0EE6E
:1007F000601A0321254802F09DFB254DDFED258A77
:10080000002442F2107600BFF0EE480A04EB041018
:1008100005EB8000B0EE601AB0EE680A00233246A5
:10082000032102F087FB641C042CEDDB1A4D9FEDC5
:100830001B8A0024C4EBC40005EB8000B0EE481A0C
:10084000F7EE000AB7EE000A02F0FDF8641C042C73
:10085000F0DB134D9FED138A002400BFC4EBC400EE
:1008600005EB8000B0EE481AF7EE000AB7EE000A7A
:1008700002F0E9F8641C042CF0DBBDEC028B70BDC7
:10088000383F00201C01002000000000544A0020D6
:10089000984A0020000007448C4C002000002042B1
:1008A000344D00200000484270B5794E2DED028B8A
:1008B0003078DFED788A784C38B12146012891ED07
:1008C000060A05D002281AD009E0C4ED028A06E023
:1008D000F0EE680A714803F099FC84ED020A94ED89
:1008E000060A6F4DB5EEC00AF1EE10FA04D310EE11
:1008F000100A6C49884237DC85ED000A3EE0D4EDF1
:10090000031AF7EE000ABFEE001AF5EEC01AF1EE78
:1009100010FA0FD1D4ED041AF5EEC01AF1EE10FA68
:1009200008D110EE100A6049884208DC10EE100A67
:100930005E490AE010EE100A5D49884202DDC4ED0E
:10094000070A06E010EE100A5A49884201D984EDE0
:10095000071A94ED070AF3EE0E0A60EE200A9FEDE7
:10096000561A80EE810AB3E710EE100A5349884206
:1009700004DCDFED530A30EEC00ABDE72868FFF75C
:10098000C4FD9FED501B53EC112BFFF73EFDFFF70D
:10099000CFFD00EE100A85ED000A02F0C3FED4ED93
:1009A000030A20EE208A95ED000A02F0F7FED4ED4E
:1009B000040A00EEC08A84ED008A95ED000A02F078
:1009C000EDFED4ED030A20EE208A95ED000A02F038
:1009D000A9FED4ED040A00EE808A84ED018AD4EDEC
:1009E000000A94ED020A38EE601A31EE001A84ED26
:1009F000141A30EE881A31EE001A84ED151AB1EE91
:100A0000601A70EEC80A31EE481A31EE001A30EE64
:100A1000800A84ED161A84ED170A96F85C00012806
:100A200007D1002004EB8001401CC1ED148A04288A
:100A3000F8DB264E002500BF04EB8500D0ED140A3C
:100A400090ED100A05EB051006EB800002F0E8FEC1
:100A5000BDEEC00A04EB45016D1C10EE100A042D1A
:100A6000A1F86000E8DB1A48216E0160616E416008
:100A700018488021006803F00FFB17484FF40071FD
:100A80000068BDEC028BBDE8704003F005BB0000C0
:100A9000D03E002000000000383F0020544A0020D3
:100AA000040100200000344300004842000048C216
:100AB0000000C8410000C8C16666A63F0000B443FC
:100AC0000000B443F6285C8FC2A54CC0984A0020B1
:100AD000BC3E00208800002094000020014800F067
:100AE000A5BF00002448002001681823CAB2103AAC
:100AF000B2FBF3F2054B6FF30901032A9B5CC3655C
:100B000000D9091D81650846704700004061000852
:100B100010B5014600208B698A6A4FF0C07453B14A
:100B2000B3F5005F15D072B1012A0CD0022A0AD0A9
:100B3000032A09D104E01AB1012A06D0022A03D1FE
:100B4000C96AC90100D5012010BDC96AA142FAD005
:100B500010BD002AF7D0012AF2D0022AF3D0032ACE
:100B6000F3D010BD30B50468256825F480252560D4
:100B7000046863608368402B036803D09960006851
:100B8000C26030BD9A600068C16030BD704700002F
:100B900030B5A1B004F0F8F92F4D002201212868EA
:100BA0001E901EA803F0F2FA2C4C00220121A06135
:100BB00068681F901FA803F0E9FAE061A868209018
:100BC0000022012120A803F0E1FA2062142205F19D
:100BD0000C016846FFF783FB0021684603F0BFFA6B
:100BE0002060142205F1200105A8FFF778FB002101
:100BF00005A803F0B4FA6060142205F134010AA8D4
:100C0000FFF76DFB00210AA803F0A9FAA0601422E7
:100C100005F148010FA8FFF762FB00210FA803F0C0
:100C20009EFAE060142205F15C0114A8FFF757FB5F
:100C3000002114A803F093FA2061142205F1700139
:100C400019A8FFF74CFB002119A803F088FA60618E
:100C500004F0BAF921B030BD6061000884000020C2
:100C600010B558B1084C491E0BD310F8013B534046
:100C7000DBB234F8133083EA1222F4E74FF6FF7048
:100C800010BD104610BD0000E86A00082DED028B73
:100C900084B0374E374DDFF8E0904FF0FF3A4FF415
:100CA000007B52465946684603F024FA01988005B5
:100CB000F7D504F069F9314890ED040A002085ED7C
:100CC000060AB3EE030A00BF00EB001106EB810138
:100CD000D1ED040A05EB8001401C80EE801AC0B201
:100CE000042881ED081AEFD3DFF89C809FED248B58
:100CF000002400BF04EB041006EB8000C06BFFF77C
:100D0000F3FB53EC182BFFF780FBFFF711FC00EE11
:100D1000100A05EB8407C4EBC40187ED100A08EB49
:100D2000810001F071FE641CE4B287ED100A042C0E
:100D3000E0D399ED020A154A10EE101A4846914286
:100D400004DCB5EEC00AF1EE10FA03D29FED100AF2
:100D500080ED020ADFED0F0A80EE201A85ED1A1AE7
:100D600002F066FF03F012FF04F02EF999E700008D
:100D70000C410020383F0020AC4E0020C84000202D
:100D800000000000000033408C4C00200000704246
:100D900000000000000070420EB54FF0FF352A46FB
:100DA0000821684603F0A6F901980007F7D504F07A
:100DB000EBF8124C124894ED0A0A01F025FE104897
:100DC00084ED0A0A94ED030A1C3001F01DFE0C4864
:100DD00084ED030A94ED090A383001F015FE084845
:100DE00084ED090A94ED020A543001F00DFE84ED01
:100DF000020A02F053FE04F0E7F8D0E76042002058
:100E0000A44D002070B5284A13685B1C13600A8843
:100E1000C2F30A05A5F5806505804A788B78D2086B
:100E200042EA4312C2F30A04A4F5806444808A783B
:100E3000CB78920942EA83020B790A3542EA83228F
:100E4000C2F30A03A3F5806383800A794E795208BE
:100E500042EAC612C2F30A02A2F580620026C280EC
:100E6000142D00D806800A34142C00D846800A338A
:100E7000142B00D886800A32142A00D8C6804A79FA
:100E8000920902724A79C2F301124272CA884281FF
:100E90000A8982814A89C2810A7B82744A7BC27430
:100EA000C989818270BD0000B80000202DED028B41
:100EB00084B0174D174C9FED188A4FF0FF374FF451
:100EC000807824263A464146684603F013F9DDE966
:100ED00000100829F6D1C005F4D504F055F8E86BE8
:100EE00090FBF6F000EE100AB8EEC00A10EE100A01
:100EF0002063D5ED040A80EE880A10EE100A6063C4
:100F000003F0D8FE03F036F804F05EF8DAE70000EC
:100F10001C420020A43F0020000010422048214A2B
:100F2000DFED210A03782148B3EE0E0A012BC16BD5
:100F300007D0022B0DD01E4A914212D3FBEE0B0AB2
:100F400014E0914212D21B4A914211D8F9EE040AE0
:100F50000CE091420AD2184A914209DB80ED0F0A57
:100F600006E0164A914203DBF3EE0C0AC0ED0F0ACD
:100F700090ED021AD0ED0E1A71EE400AF4EEE01A6E
:100F8000F1EE10FA02D8C0ED0E0A704731EE000AF9
:100F9000F4EEC01AF1EE10FAF7DB80ED0E0A70479E
:100FA000C4000020000048C2000048C2D03E00201B
:100FB0000000D8C10000A0C00000F0410000E041E6
:100FC0002DE9F0413E4F404D00242DED028B9FED69
:100FD0003D8A00BFC4EBC40607EB8600B3EE041ADB
:100FE000F7EE000AB7EE000A01F02DFD05EB8600D2
:100FF000B0EE481AF7EE000AB7EE000A01F023FD42
:10100000641C022CE6DB0224C4EBC40005EB800068
:10101000B0EE081AF7EE000AB7EE000A01F013FD71
:10102000641C042CF0DB68212848FFF771F927497C
:10103000002008704870C821254803F0A3FD24480B
:101040004FF47A742146143003F09CFD9FED218A01
:101050002346B3EE060AB0EE481AF0EE480A1A46E6
:1010600003211D4801F066FF650041F27076B0EE85
:10107000481AF0EE480AB3EE090A2B46324603211D
:10108000164801F057FF2346B0EE481AF0EE480A22
:10109000B2EE020A1A460321114801F04BFFB0EEEE
:1010A000481AF0EE480ABDEC028B2B463246BDE8EA
:1010B000F0419FED0C0A03210B4801F03BBF0000FB
:1010C000FC4C00200000C842A44D0020D03E00206F
:1010D000CC0000200000000088490020104A0020B9
:1010E0004449002000002842CC490020374810B570
:1010F0000168374C491C0160207820B1012805D0D7
:10110000022805D102E002F075FD01E002F098FF2F
:10111000D4ED0E0A94ED100A2E4803F077F894ED02
:101120000F0A2D48F1EE400A94ED110A03F06EF813
:101130002848D0ED0B0A2848C4ED120A90ED0B0A9E
:10114000264884ED130A94ED040A84ED140A94ED04
:10115000051A84ED151A03F059F894ED150AD4ED2B
:10116000130A1F48B1EE400A03F050F81B481D4C0B
:1011700090ED0B0ABDEEC00A10EE100A208118484F
:1011800090ED0B0ABDEEC00A10EE100A6081164801
:10119000416A006B494200EE101AF8EEC00A00EEF8
:1011A000100A124802F03CFBBDEEC00A082110EE06
:1011B000100AA0810E48006802F06EFF0D48402121
:1011C0000068BDE8104002F067BF0000C8000020C2
:1011D000D03E00204449002088490020CC4900200E
:1011E000104A0020BC3E0020A43F0020EC4B002011
:1011F000900000208800002090F82020012A09D0CB
:1012000090F82020022A05D0416A41F480214162F1
:1012100001207047006842690A434261002070471C
:10122000F0B590F82040012C07D090F82040022C17
:1012300003D0416A41F4802153E00468A5686D0140
:1012400005D4A5682D0102D4A568ED0046D5A46893
:101250000125C4F30164A5401D608D684FF4C0737F
:101260009DB1CE6835434E6845EAC605066803EB76
:101270000417F5514FF4C275076805EB04150E69A4
:101280007E51097D012905D009E00E88CD6845EA27
:101290004655EBE701684E5946F480764E51117978
:1012A000D2F805504FF4C67641EA0521056806EBF1
:1012B0000416A9511178D2F801204FF4C47541EAFF
:1012C0000221026805EB04155151006803EB04117B
:1012D000425842F0010242500020F0BD416A41F400
:1012E000001141620120F0BD10B590F82020012AC4
:1012F00009D090F82020022A05D0416A41F48021CB
:101300004162012010BD3A48D0F8002242F00102AB
:10131000C0F80022D0F8002222F47C52C0F800224B
:10132000D0F800224B6A42EA0322C0F800220B7D6B
:1013300001229A40D0F81C329343C0F81C32CB698A
:10134000B3B9D0F80C329343C0F80C328C894B6897
:1013500064F31F434C6900EBC404C4F840320C89A9
:101360000B6864F31F434C6900EBC404C4F84432B7
:10137000CB69012B16D1D0F80C321343C0F80C32D4
:101380000C884B6864F31F434C6900EBC404C4F839
:1013900040320C89CB6864F31F434C6900EBC404F2
:1013A000C4F844328B69002BD0F804320ED01343BA
:1013B000C0F804320B69002BD0F8143208D0134364
:1013C000C0F81432096A012904D008E09343EFE71A
:1013D0009343F5E7D0F81C121143C0F81C12D0F863
:1013E000001221F00101C0F80012002010BD000021
:1013F00000640040704730B590F82040012C07D0C1
:1014000090F82040022C03D0416A41F4802109E089
:1014100011B1012909D00CE00468E46807E0416AD1
:1014200041F400114162012030BD04682469A40721
:10143000F5D04FF4D874056804EB01142D5915F05C
:101440000405956005682D5942D0ED085560056882
:101450002C59C4F34004D4604FF4DA74056804EBEB
:1014600001142D5905F00F05156105682D59C5F3B7
:101470000725956105682C59240C54614FF4DC72E2
:10148000046802EB0112A4581C700468A458240AD2
:101490005C700468A458240C9C700468A258120E56
:1014A000DA704FF4DE72046802EB0112A4581C716A
:1014B0000468A458240A5C710468A458240C9C7124
:1014C0000468A258120EDA7129B1012909D00DE081
:1014D0006D0D1560BBE70068C16841F02001C16077
:1014E00004E00068016941F020010161002030BD85
:1014F0002DE9F05F0546006800244669D0F80490A5
:101500008768D0F80CB0D0F810A0D0F81880F10798
:1015100048D0F90714D001218160B80703D52846C7
:1015200000F07DFA0CE0780702D54FF4006407E084
:10153000380702D54FF4805402E0284600F06EFAD6
:10154000F80516D529684FF480708860B80503D572
:10155000284600F066FA0CE0780502D544F4005401
:1015600007E0380502D544F4804402E0284600F044
:1015700057FAF80316D529684FF480308860B8030D
:1015800003D5284600F04FFA0CE0780302D544F466
:10159000004407E0380302D544F4803402E02846D2
:1015A00000F040FA300707D55FEACB6004D5296820
:1015B000102044F40074C86070074FF0080707D586
:1015C0005FEA0B7004D52868C760284600F08CF9E4
:1015D000B00706D52868C068800702D0284600F00A
:1015E00085F9700607D55FEACA6004D5296810201E
:1015F00044F480640861B00607D55FEA0A7004D538
:1016000028680761284600F0D9F9F00606D5286851
:101610000069800702D0284600F0D1F9B00308D550
:101620005FEAC96005D5296810204860284600F0A7
:10163000C7F9F00307D55FEA097004D52868476049
:10164000284600F0F1F9300446D55FEA497040D5EC
:10165000F00504D55FEAC87001D044F00104B0057C
:1016600004D55FEA887001D544F00204700504D502
:101670005FEA487001D544F00404300529D518F01C
:10168000700F26D008F07000402815D006DC102816
:1016900009D020280AD0302816D10AE050280ED0D0
:1016A000602811D10EE044F008040DE044F010046D
:1016B0000AE044F0200407E044F0400404E044F071
:1016C000800401E044F480742868816921F070018D
:1016D0008161296804204860002C05D0686A204395
:1016E00068622846FFF786FEBDE8F09F70B50400EB
:1016F00003D094F8200010B104E0012070BD204612
:1017000000F082F82068016821F00201016000F019
:10171000F3FB0546052604E000F0EEFB401B0A281B
:1017200011D8206840688007F6D42068016841F02D
:101730000101016000F0E0FB05460BE000F0DCFB7E
:10174000401B0A2806D9606A40F40030606284F8C1
:101750002060D2E720684068C007EFD0207E0128D3
:10176000206801683DD021F080010160607E012881
:101770002068016838D021F040010160A07E012876
:101780002068016833D021F020010160E07E01284B
:10179000206801682ED041F010010160207F0128EF
:1017A0002068016829D021F008010160607F0128CC
:1017B0002068016824D021F004010160D4E902010D
:1017C0000843D4E90412114308436168491E0843E1
:1017D0002168C86100206062012084F82000002098
:1017E00070BD41F08001C0E741F04001C5E741F024
:1017F0002001CAE721F01001CFE741F00801D4E74A
:1018000041F00401D9E70000F0B5324B0768DFF87A
:10181000C0C018680322022409252F490026401C55
:1018200087B0674521D11860012807D1086840F0CA
:1018300000700860086800F0007005908DE85400A2
:10184000CDE903256946254800F078FA00220521F4
:10185000132000F0E7FB132000F0D8FB0022052145
:10186000142000F0DFFB14202EE0DFF874C0674581
:101870002CD10F6847F080670F600F68012807F0D0
:1018800080670597186007D1086840F0007008600D
:10189000086800F0007005904FF482508DE8510008
:1018A000CDE9032569460F4800F048FA00220521DA
:1018B0003F2000F0B7FB3F2000F0A8FB00220521ED
:1018C000402000F0AFFB402000F0A0FB07B0F0BDCF
:1018D00000640040A800002040380240000C024094
:1018E0000068004000040240704700001FB52F4907
:1018F000884247D101F530726B4600212B48FFF733
:101900007AFD2B480068A0F20120072816D2DFE8F4
:1019100000F00404040416222B002649C0B208700B
:1019200000EB0011244800EB8100C1694A1C3229F8
:10193000C261694623D900BF01F0F2FF1FBD1E49F5
:1019400040F6A200443908831B486946B0F14400C0
:1019500002F044F81FBD18494FF4E160883908834C
:10196000154869468838E7E711498839C869421C33
:1019700032280F48CA616946A0F18800E8D802F011
:101980002DF91FBD0A4A02AB34320021A2F5337093
:10199000FFF731FD0648343000686528F1D104486E
:1019A00002A9443804F04CFB1FBD0000E43F0020B6
:1019B000A4420020300100200C41002070477047F5
:1019C0007047000070B5044690F82000012804D04C
:1019D000606A40F40020606218E0022084F8200071
:1019E0002068016821F00101016000F085FA0546D8
:1019F0000EE000BF00F080FA401B0A2808D9606A98
:101A000040F400306062052084F82000012070BDA1
:101A100020684068C007EDD1606270BD70477047B4
:101A20007047704770477047704700002DE9F843D2
:101A300004464FF00009CDF8009063484FF416516A
:101A4000A56D0068B0FBF1F72E6894F85C100820D3
:101A500000FA01F131420FD021680A6852070BD514
:101A60000A6822F004020A6094F85C108840A860BA
:101A7000606D40F00100606594F85C104FF0010863
:101A800008FA01F0304208D021684969090604D5F6
:101A9000A860606D40F00200606594F85C1004205E
:101AA0008840304208D021680968890704D5A860B9
:101AB000606D40F00400606594F85C101020884070
:101AC000304218D021680968090714D5A860206839
:101AD0000168490304D50068000308D5A16C07E03C
:101AE0000168C90503D4016821F008010160216C77
:101AF00009B12046884794F85C1020208840304285
:101B000031D021680968C9062DD5A86094F8350040
:101B100005282068016806D0490347D500680003FE
:101B20001DD4616C1CE021F0160101602068416940
:101B300021F080014161206C08B9A06C20B12068BF
:101B4000016821F00801016094F85C103F20884092
:101B5000A86084F8349084F83580216D1FE0E16B33
:101B600009B120468847606D00282BD0606DC00702
:101B700014D0052084F835002068016821F00101A7
:101B800001600098401C0090B84203D820680068AB
:101B9000C007F6D184F8349084F83580E16C0029D0
:101BA00010D001B02046BDE8F04308470168C905E0
:101BB000D5D4016821F01001016084F8349084F8D4
:101BC0003580CCE7BDE8F883800000202DE9F041A6
:101BD000044600F091F906465CB1002584F83450C3
:101BE000022084F835002068016821F001010160BD
:101BF0000DE00120BDE8F08100F07EF9801B052892
:101C000005D920206065032084F83500F2E72068BC
:101C10000068C007F0D12268116820480140D4E96B
:101C200001031843D4E90336334318436369184367
:101C3000A3691843E3691843236A18430843616A98
:101C4000042903D1D4E90B13194308431060206819
:101C50004069666A20F0070130460E4301270428D8
:101C60000CD1A06A0643E06A40B12046FEF750FF5F
:101C700020B14020606584F83570BAE7206846617D
:101C80002046FEF731FF94F85C203F2191408160AF
:101C9000656584F835700020ACE700003F8010F0E7
:101CA0002DE9F0410446866D90F8340000250128A6
:101CB0000DD0012084F8340094F835700020012FF5
:101CC00007D084F8340002252846BDE8F0810220C0
:101CD000FBE7022784F8357060652046FEF742FF77
:101CE00094F85C103F208840B0602068016841F0A3
:101CF000160101602068416941F080014161206C5A
:101D000020B12068016841F0080101602068016885
:101D100041F001010160D7E770B5044600F0ECF82E
:101D20000546601C02D004480078044400F0E4F842
:101D3000401BA042FAD370BD000000202DE9F84FEF
:101D4000DFF87CB100224FF001084FF0030A4FF09A
:101D50000F090BF1040E00BF0B6808FA02F42340D0
:101D6000A3426ED14D68022D01D0122D0ED1D5089F
:101D700000EB850CDCF820505607F70E09FA07F641
:101D8000B5430E69BE402E43CCF82060066855006E
:101D90000F790AFA05FC07F0030726EA0C06AF40A4
:101DA000374307604E68012E05D0022E03D0112E56
:101DB00001D0122E0ED18668CF6826EA0C06AF40FD
:101DC000374387604668A6430C79C4F300149440F7
:101DD00034434460C6688C6826EA0C06AC40344341
:101DE000C4604C68E40065D5364C256845F48045F0
:101DF0002560246822F0030504F480440094324CEA
:101E00002E19D6F8084895072F0F09FA07F5AC43A5
:101E10002E4DA84201D1002524E02D4DA84201D12C
:101E200001251FE02B4DA84201D102251AE02A4DC1
:101E3000A84201D1032515E0284DA84202D104256E
:101E400010E037E0264DA84201D105250AE0254DD6
:101E5000A84201D1062505E0234DA84201D107255E
:101E600000E00825BD402543C6F80858DBF80040CF
:101E70005D464E689C43F60300D51C432C60DEF89B
:101E8000004075464E689C43B60300D51C432C6049
:101E90000B4D08352C684E689C43F60200D51C4358
:101EA0002C60074D0C352C684E689C43B60200D55B
:101EB0001C432C60521C102AFFF44EAFBDE8F88F73
:101EC000003C014044380240003001400000024024
:101ED0000004024000080240000C024000100240D2
:101EE0000014024000180240001C02400AB1816147
:101EF00070470904FBE70000014880687047000054
:101F00000000002002488168027811448160704717
:101F1000000000200B4810B5016841F40071016019
:101F2000016841F480610160016841F480710160E1
:101F3000032000F097F80F2000F006F800F024F8D6
:101F4000002010BD003C024070B50D4D04464FF41A
:101F50007A712878B1FBF0F00A490968B1FBF0F01A
:101F600000F01AFB48B9102C07D200222146501E5F
:101F700000F058F800206C6070BD012070BD0000BA
:101F800000000020800000201F4808B5016841F4CF
:101F900080410160006800F4804000901A48001FF2
:101FA000016841F080510160006800F080500090AD
:101FB000032000F057F8002211466FF00B0000F0EC
:101FC00031F8002211466FF00A0000F02BF80022D1
:101FD00011466FF0090000F025F800221146501F4D
:101FE00000F020F800221146101F00F01BF800221C
:101FF0000F21901E00F016F800220F21BDE80840C6
:10200000501E00F00FB800004438024000F01F02DC
:10201000012191404009800000F1E020C0F800114A
:1020200070470000F0B40E4B1B680C46C3F302234C
:10203000C3F10705042D00D90425191D072901D274
:10204000002300E0DB1E012606FA05F1491E2140AF
:1020500099409E40761E16403143F0BC00F059BFB7
:102060000CED00E0064900F0070208684FF6FF0398
:10207000184040EA0220034A1043086070470000FD
:102080000CED00E00000FA052DE9F0470E460500D2
:1020900065D0DFF81481D8F80000F7B200F00F0027
:1020A000B04207D288F80070D8F8000000F00F00A6
:1020B000B04254D128683D4C810712D5400703D562
:1020C000206840F4E05020602878000703D520689D
:1020D00040F4604020602068A96820F0F0000843C8
:1020E00020602878C0072DD0304968680839012859
:1020F00012D0022813D0032811D0096889070029BB
:102100002DDA216821F0030101432160FFF7F4FE7D
:10211000814641F2883A0EE009688903EFE70968D1
:102120008901ECE7FFF7E8FEA0EB0901514502D970
:102130000320BDE8F0872068696800F00C00B0EB70
:10214000810FEFD1D8F80010404601F00F01B142E5
:1021500007D90770006800F00F00B04201D00120DD
:10216000E7E72878400705D52068E96820F4E050C3
:10217000084320602878000706D52068296920F4E4
:10218000604040EAC100206000F03CF82168084A45
:10219000C1F30311515CC840064908600F20FFF7E6
:1021A000D3FE0020C5E70000003C02400838024092
:1021B0004861000880000020014800687047000066
:1021C000800000200448054900680968044AC1F3FA
:1021D0008221515CC84070478000002008380240CE
:1021E000586100080448054900680968044AC1F3B9
:1021F0004231515CC84070478000002008380240DE
:1022000058610008154810B5006810F00C02144819
:1022100013D04110042A0FD0082A0ED10F4C241FCE
:102220002268236802F03F025B0207D52068C0F3F2
:102230008810A0FB010106E0084610BD2168C1F32B
:102240008811A1FB00010023FEF718F82168C1F3F3
:102250000141491C4900B0FBF1F010BD08380240B3
:102260000024F4002DE9F84F050076D02878DFF837
:10227000F8B2BE4CC00749D0DBF800105846C1F395
:102280008101012908D00068C0F3810002280AD129
:10229000201D0068400206D52068800336D5686896
:1022A0000028E2D032E06868B0F5803F10D0B0F589
:1022B000A02F206810D020F480302060206820F407
:1022C000802020606868A0B1FFF716FE06460CE08B
:1022D000206840F48030F4E740F480202060F7E785
:1022E000FFF70AFE801B642873D820688003F7D5A7
:1022F0000CE0FFF701FE064605E000BFFFF7FCFD1E
:10230000801B6428F0D820688003F7D42878DFF891
:10231000608280074FF000093ED5DBF80010584678
:1023200011F00C0F09D00068C0F3810002280BD116
:102330008D48001F0068400206D42068800715D52C
:10234000E868012809D111E0E868B8B10120C8F8AF
:102350000000FFF7D1FD064605E002E1FFF7CCFDE6
:10236000801B0228C0D820688007F7D5206829691B
:1023700020F0F80040EAC10020600DE0C8F80090AD
:10238000FFF7BAFD064604E0FFF7B6FD801B022802
:102390001FD820688007F7D42878000722D5724E0E
:1023A000744869696C3671B101210160FFF7A4FDC1
:1023B000074604E0FFF7A0FDC01B022809D83068DB
:1023C0008007F7D50EE0C0F80090FFF795FD0746AF
:1023D00005E083E0FFF790FDC01B02287ED830683F
:1023E0008007F7D42878400768D5DFF87CA100275C
:1023F0000AF1380ADAF80000C0000BD4DAF800104D
:1024000041F08051CAF80010DAF80000012700F00E
:1024100080500090584E3068C00510D4306840F4A9
:1024200080703060FFF768FD009005E0FFF764FD05
:102430000099401A022851D83068C005F6D54A4E96
:10244000A868683601280FD00528306810D020F021
:1024500001003060306820F004003060A868B8B136
:10246000FFF74AFD00900FE0306840F00100F4E70C
:1024700040F004003060F7E7FFF73EFD0099411A95
:1024800041F28830814264D830688007F4D50EE08C
:10249000FFF732FD009007E0FFF72EFD0099411A8B
:1024A00041F28830814254D830688007F4D42FB18B
:1024B000DAF8001021F08051CAF80010A869C0B302
:1024C000DBF80010C1F3810102294AD002284846F6
:1024D00007D0C8F86000FFF70FFD00E039E00546BF
:1024E0003AE04746C8F86000FFF706FD064604E0FC
:1024F000FFF702FD801B02282BD820688001F7D44B
:10250000D5E907010843A96A1C4A490802EB0141C1
:102510006A6A41EA8211084395F82C1040EA016189
:102520001148001F016001203866FFF7E5FC0546F1
:1025300005E014E0FFF7E0FC401B022809D8206802
:102540008001F7D50BE000BFFFF7D6FC401B022847
:1025500002D90320BDE8F88F20688001F4D4002060
:10256000F8E70120F6E70000083802400038024092
:1025700000004742800E4742007000400000FFFF0D
:102580004FF0E0210428086903D020F0040008611E
:10259000704740F00400FAE710B5401EB0F1807FAC
:1025A00001D3012010BD4FF0E02460610F216017BE
:1025B00000F0AFFC0020A06107202061002010BDCA
:1025C000704770B5040004D094F83900002510B1AC
:1025D00006E0012070BD84F83850204600F022F853
:1025E000242084F839002068C16821F40051C160BA
:1025F000204600F009FE2068016921F49041016144
:102600002068416921F02A0141612068C16841F4D4
:102610000051C160E563202084F8390084F83A0055
:10262000002070BD2DE9F04F054603686348002483
:10263000DFF88CA102210122032787B04FF0070C9D
:10264000834214D1DAF8003043F01003CAF80030A6
:10265000DAF8000000F01000059078028DE887108D
:1026600069465848FFF76AFB07B0BDE8F08F544849
:10267000DFF85481001FDFF854E106154FF0006BBE
:102680004FF4807943452CD1036843F40033036051
:10269000006800F40030059060208DE887106946DE
:1026A0007046FFF74BFB4B4F49483860C7E901B410
:1026B000C7E903467C61C7E906493C6238467C624B
:1026C000FFF784FA20B140F21F1143A001F004F893
:1026D0006F63002205212620BD63FFF7A3FC26209F
:1026E00037E0DFF81081434536D1036843F4802397
:1026F0000360006800F480200590314814380368B6
:1027000043F400130360006800F4001005904FF4D8
:1027100040708DE80700CDE9031C69467046FFF75D
:102720000DFB2B48344F60383860C7E901B4C7E966
:1027300003467C61C7E906493C6238467C62FFF784
:1027400045FA6F63002205212720BD63FFF76AFC6D
:102750002720FFF75BFC87E72848834284D1DAF81B
:10276000003043F02003CAF80030DAF8000000F02F
:1027700020000590C0208DE887000820049069465D
:102780001F48FFF7DBFA204F1E4838608005C7E975
:102790000104C7E903467C61C7E906493C62384643
:1027A0007C62FFF713FA6F634720BD63FFF72EFCCF
:1027B000002205214720FFF735FC55E700100140B6
:1027C000443802400000024000440040000C024037
:1027D00088600240244800202E2E2F5372632F73EE
:1027E000746D3332663478785F68616C5F6D7370D6
:1027F0002E63000000480040E4480020001401401F
:10280000000802402864024084480020F8B50446CD
:1028100090F83A0020283CD1C1B3BAB394F83800FC
:10282000012836D0012084F83800A162A285002555
:10283000E563222084F83A00636B1748D863636B22
:1028400016481864636B1648D864606B13460565B8
:102850000846666B216802463046091DFFF720FADC
:10286000206801684168009184F83850C16841F4DB
:102870008071C1602068416941F0010141612068B7
:10288000416941F0400141610020F8BDFFE70120AE
:10289000FBE70220F9E7000093310008CF31000880
:1028A0004931000870477047FEE700002DE9F0410C
:1028B000534E0546DFF84C8196F8370008280FD1B3
:1028C00096F83B0001280BD1B5F83D10A8F8001090
:1028D00095F8401088F80310B5F84110A8F80410D6
:1028E000474FB837D7F80200C7F8060070790328B9
:1028F00017D10F21424800F0D1FE012811D1E8790B
:102900003870287A7870287B60F31F64E87A60F367
:102910001744A87A60F30F24687A60F30704C7F8B5
:1029200002407079042843D11D21354800F0B6FEDD
:1029300001283DD1A87A60F31F64687A60F31744D8
:10294000287A60F30F24E87960F307042C4800EE3E
:10295000104A983080ED000AA97B61F31F64697BFF
:1029600061F31744297B61F30F24E97A61F30704CB
:1029700000EE904AC0ED010AA97D20EE800A61F3C5
:102980001F64697D61F31744297D61F30F24E97C9D
:1029900061F307048460B5F81710018390ED041A01
:1029A00080ED031A80ED040A30EE410A80ED050A3D
:1029B0007079072809D10B21114800F06FFE01281A
:1029C00003D1B5F80710A8F806107079082814D1BB
:1029D00019210B4800F062FE01280ED1A87D60F39A
:1029E0001F64687D60F31744287D60F30F24E87C42
:1029F00060F307040248C230C460BDE8F081000003
:102A0000144E00205C010020F0EE401AD0ED030AC5
:102A100090ED060AB7EE002A30EE800A80EE801AAA
:102A200080ED041A90ED020A71EEC01A01EE210A3F
:102A300032EE411A80ED020AD0ED051A41EE201A5D
:102A4000C0ED031A7047F7EE001AC0ED001AC0ED92
:102A5000011A80ED030AC0ED050A80ED061A7047E1
:102A600010B51C481A49002401600321C0E9011473
:102A70004FF40021C0E903414FF440114161047655
:102A800044768476C47604774477FEF72FFE18B137
:102A9000232111A000F020FE0E48012150300460D7
:102AA00044608460C46004614461C0E9064101621D
:102AB0000E21416201465038FEF716FC0548FEF72C
:102AC00081FFBDE8104002210248FEF795BB0000DF
:102AD00000640040E43F00202E2E5C5372635C4390
:102AE000616E2E630000000010B51B4819490024D8
:102AF00001600321C0E901144FF43021C0E9034112
:102B00004461047644768476C47604774477FEF78D
:102B1000EDFD18B1462111A000F0DEFD0E480E219A
:102B200050300122046044608460C460C0E9044104
:102B3000C0E90642C0E9082101465038FEF7D4FB3F
:102B40000548FEF73FFFBDE8104002210248FEF7AE
:102B500053BB0000006800400C4000202E2E5C5348
:102B600072635C43616E2E63000000000D4808B57F
:102B7000016841F400110160016801F40011009145
:102B8000016841F4800101600068002200F48000C7
:102B9000009005211020FFF745FABDE808401020FD
:102BA000FFF734BA3038024030B5234887B00168A7
:102BB00041F004010160016801F004010591016820
:102BC00041F010010160016801F0100105910168F8
:102BD00041F080010160016801F080010591016808
:102BE00041F002010160016801F0020105910168F4
:102BF00041F001010160016801F0010105910168E6
:102C000041F00801016000684FF4004400F0080042
:102C100005900120CDE9004002900320074D03906C
:102C200069462846FFF78AF8012221462846FFF721
:102C30005DF907B030BD00003038024000000240AE
:102C40000D4810B50B4901604FF4E131416000219E
:102C500081600C22C160C0E904128161C161FFF78B
:102C6000B0FC002805D0BDE81040422103A000F0D0
:102C700033BD10BD00100140244700202E2E5C53B0
:102C800072635C55736172742E63000010B5134C4F
:102C900011484FF480612060114860600020A060FE
:102CA000C4E903010421C4E90510E0612046FFF7EF
:102CB00088FC18B154210BA000F00EFD2068C168FB
:102CC00041F01001C16005498022BDE81040C039C3
:102CD0000248FFF79BBD000000440040644700200D
:102CE000A08601002E2E5C5372635C557361727472
:102CF0002E63000010B5104C0E480C2120604FF4DC
:102D0000E13060600020A060E060C4E90401A061DF
:102D1000E0612046FFF755FC2068C16841F01001D2
:102D2000C1602046BDE810404FF480620349FFF7C0
:102D30006DBD000000480040A4470020144E002054
:102D400010B5124C10480C2120604FF4E130606047
:102D50000020A060E060C4E90401A061E0612046B9
:102D6000FFF72FFC18B1782109A000F0B5FC20680E
:102D7000C16841F01001C160BDE8104080220849DF
:102D80000248FFF743BD000000140140E447002063
:102D90002E2E5C5372635C55736172742E63000057
:102DA00047010020F0B5324C324D059FA04203D9B7
:102DB0002E6846F4800603E02F4C2E6846F4001679
:102DC0002E600568ED07FCD1051B1826103DB5FBEC
:102DD000F6F5EDB23D26062D08D3D4F80CC005EB70
:102DE00045054FF0EC0E0EEB450507E0042D0BD327
:102DF000D4F80CC02D1F05EB45056D00AE404CEA24
:102E0000060CC4F80CC010E0D4F808C0022D05EB85
:102E1000450504D34FF0040E0EEB450500E06D00B0
:102E2000AE404CEA060CC4F808C08260C36047603C
:102E300000220260026842F0400202600268026002
:102E400002680260026842F4806202600268026006
:102E500002680260026842F4803202600268026026
:102E600002680260026842EA41610160F0BD000050
:102E7000006402403038024000600240FEE700007B
:102E800008B540F2DC5001F0E7F81A480421006868
:102E900001F08EF918480121006801F089F91748FE
:102EA0000321006801F084F901F0E9F8144C154D94
:102EB000154E164F4FF400784FF480790090E0687B
:102EC000401CE06002F060F800F052FE02F07CF876
:102ED0004146286801F0E0F84946306801F0DCF826
:102EE0000821386801F0D8F80521684601F0BBF8E0
:102EF000E5E700009C000020A0000020A4000020C6
:102F0000B4000020940000209800002090000020D1
:102F100070470907090E002806DA00F00F0000F1DB
:102F2000E02080F8141D704700F1E02080F80014C4
:102F30007047000010B504462DED048BB0EE418AB9
:102F4000F0EE608A0A48E0630A482064B0EE409AD6
:102F5000204601F0CEF9216CB0EE481AF0EE680A76
:102F6000B0EE490ABDEC048B2046BDE8104008478E
:102F7000F34200080143000870B51A4964202DEDA2
:102F8000028BB6EE000A9FED188A88624FF4FA634E
:102F9000B0EE481AF0EE480A1E2203211348FFF74C
:102FA000C9FFDFED138A41F288346500B0EE481A9C
:102FB000F0EE000AB0EE680A23462A4603210D48C7
:102FC000FFF7B8FFB0EE481AB0EE680ABDEC028B0E
:102FD00023462A46BDE87040F0EE000A0321064869
:102FE000FFF7A8BFA43F002000000000A84B00206E
:102FF0000000C842EC4B0020304C00200C4810B5BB
:103000000078002813D00B480078012802D003284C
:1030100005D102E001F052FF01E001F00DFF06488A
:103020004FF480710068BDE8104001F035B810BD64
:10303000D03E0020B400002098000020012001F0C4
:103040000BF8FBE710B5FEF75DFFBDE8104001F09F
:103050007CB8000030B5254893B00025016841F0E8
:1030600080510160006800F0805011902048016894
:1030700041F4804101600068022400F48040119016
:10308000012000904FF4A02001906005CDE906409A
:1030900008AA0420A82182E813000B906846FFF7D5
:1030A000E1F800B1FEE70CA90F2081E831004FF4F0
:1030B000A0500F904FF48050109005210CA8FEF7FF
:1030C000E3FF00B1FEE7FFF777F84FF47A71B0FB4A
:1030D000F1F0FFF761FA0420FFF752FA00220F2106
:1030E000501EFEF79FFF13B030BD00004038024075
:1030F000007000401048016841F4700101600F4801
:10310000016841F0010101600C4A002108321160A0
:1031100002680B4B1A400260031D0A4A1A600268DB
:1031200022F48022026005480C30016002495806F2
:10313000803908607047000088ED00E000380240E8
:10314000FFFFF6FE1030002470B5846B20684069E4
:1031500094F83910C0F3C0100025212904D118B10A
:10316000E584204600F046F82068406994F83A105B
:10317000C0F38010222904D118B1E585204600F063
:103180002BF8E06B40F01000E0632046FFF718FAE0
:1031900070BD10B50146806B09680968C90513D474
:1031A0000021C1850168CA6822F48072CA60016882
:1031B0004A6922F001024A6101684A6922F040022C
:1031C0004A61202180F83A10FFF76CFB10BD10B562
:1031D000806BFFF768FB10BD0168CA6822F490722B
:1031E000CA6001684A6922F001024A61202180F820
:1031F0003A1070470168CA6822F0C002CA602021F4
:1032000080F83910704700002DE9F041044600684D
:10321000016921F44052E168114301612168C868E5
:1032200049F20C6290432369A268E5691A43636915
:103230002B431A430243CA602168486920F4407254
:10324000A06910434861E1696425B1F5004F9748D2
:10325000974A21684FF032083FD0914201D0814215
:103260007CD1FEF7BFFF00EBC00101EB00106168ED
:103270008900B0FBF1F6FEF7B5FF00EBC00101EBF2
:10328000001061688900B0FBF1F0B0FBF5F06FF061
:103290001801484306EB800108EB0110B0FBF5F084
:1032A00000F0F006FEF79EFF00EBC00101EB0010FE
:1032B00061688900B0FBF1F0B0FBF5F006EB001699
:1032C000FEF790FF00EBC00101EB00106168890080
:1032D000B0FBF1F7FEF786FFD2E0914201D08142C8
:1032E0003DD1FEF77FFF00EBC00101EB00106168EC
:1032F0004900B0FBF1F0B0FBF5F00601FEF772FFFC
:1033000000EBC00101EB001061684900B0FBF1F770
:10331000FEF768FF00EBC00101EB00106168490097
:10332000B0FBF1F0B0FBF5F06FF01801484307EB8C
:10333000800108EBC100B0FBF5F000F0F80006EBEF
:103340004006FEF74FFF00EBC00101EB0010616883
:103350004900B0FBF1F7FEF745FF3CE055E0FEF712
:1033600031FF00EBC00101EB001061684900B0FBC8
:10337000F1F0B0FBF5F00601FEF724FF00EBC00111
:1033800001EB001061684900B0FBF1F7FEF71AFF8E
:1033900000EBC00101EB001061684900B0FBF1F0E7
:1033A000B0FBF5F06FF01801484307EB800108EB24
:1033B000C100B0FBF5F000F0F80006EB4006FEF7A8
:1033C00001FF00EBC00101EB001061684900B0FB98
:1033D000F1F7FEF7F7FE00EBC00101EB00106168AA
:1033E0004900B0FBF1F0B0FBF5F06FF01801484375
:1033F00007EB800108EBC100B0FBF5F000F007001F
:10340000216830448860BDE8F081FEF7DBFE00EB08
:10341000C00101EB001061688900B0FBF1F6FEF716
:10342000D1FE00EBC00101EB001061688900B0FB28
:10343000F1F0B0FBF5F06FF01801484306EB8001A6
:1034400008EB0110B0FBF5F000F0F006FEF7BAFE55
:1034500000EBC00101EB001061688900B0FBF1F0E6
:10346000B0FBF5F006EB0016FEF7ACFE00EBC0017A
:1034700001EB001061688900B0FBF1F7FEF7A2FED6
:1034800000EBC00101EB001061688900B0FBF1F0B6
:10349000B0FBF5F06FF01801484307EB800108EB33
:1034A0000110B0FBF5F000F00F00A9E70014014097
:1034B0000010014010B51D4C20680168C90634D5C4
:1034C000C168C90631D541680168016821F0100161
:1034D0000160606B0068016821F001010160606BB0
:1034E00000684068124980B26E28088005D1A4F1B6
:1034F000C001A1F56C70FDF785FC0C498022C03934
:103500000A48FFF783F92068C16841F01001C160E3
:1035100008493D20C860616B802009684860606B85
:103520000068016841F00101016010BD644700209E
:10353000340100200060024010B5164C206801687C
:10354000C90618D5C168C90615D541680068606B01
:103550000068016821F001010160606B006840684B
:103560000D4980B20880A0F2FF304042DD2802D829
:103570000A48FFF79BF90A493D2088600815616BEE
:1035800009684860606B0068016841F001010160F2
:1035900010BD0000A447002034010020144E00207C
:1035A0000060024070B5374D28680168C90667D5CC
:1035B000C168C90664D541680068686B0068016825
:1035C00021F001010160686B006840682E4E80B2F6
:1035D0007928308046D106F113000178AA2941D11B
:1035E0008179BB293ED130F9011FDFED280A00EEB9
:1035F000101AA5F59B64B8EEC00A6180B0F90220EC
:10360000228080EE201A00EE102A84ED041AB8EE13
:10361000C01A81EE200A84ED030AA18AE1820079B2
:10362000A0821B48FFF7F0F9194886ED010A94EDD6
:10363000040A1C30FFF7E8F986ED020A94ED170A38
:1036400084ED160A00F01BFD00EE100AB8EE400AE9
:1036500084ED170A94ED040A84ED090A94ED030A37
:1036600084ED080A0B494FF474600860696B802090
:1036700009684860686B0068016841F001010160F9
:1036800070BD0000E4470020340100200000C84263
:10369000FC4C002008640240FEE7000030B50C46F8
:1036A000050014D0022C12D90A48A11E028828460F
:1036B000FDF7D6FA2919C2B211F8023C9A4206D196
:1036C00011F8011CB1EB102F01D1012030BD0020F9
:1036D00030BD000050010020FEE702E008C8121FC4
:1036E00008C1002AFAD170477047002001E001C1EB
:1036F000121F002AFBD17047D0ED000AF4EEC00A79
:10370000F1EE10FA01DD80ED000AD0ED000AB1EE15
:10371000400AF4EEC00AF1EE10FA01D280ED000A80
:10372000704700009FED1A1AF5EE000A40EE010AFC
:10373000BDEEE00AF5EEC00A10EE100AF1EE10FA46
:1037400000D2401E00EE100A1349F7EE001AB8EE40
:10375000C00A30EEC00ADFED0F0A20EE200AFCEEB0
:10376000C00A10EE900AC0F3080000EE900A01EBC8
:103770008000F8EE600A90ED011A70EE600A90ED9C
:10378000000A71EEE01A21EE800A00EE810A70470D
:1037900083F9223E00000044E4610008DFED1D0AC9
:1037A000B5EEC00A60EE200ABDEEE01A11EE100A76
:1037B000F1EE10FA00D2401E00EE100AB8EEC00A78
:1037C00030EEC00ADFED140A20EE200A10EE100AD7
:1037D000B0F1884F01DB30EE600A1049F7EE001AB5
:1037E000FCEEC00A10EE900AC0F3080000EE900A4A
:1037F00001EB8000F8EE600A90ED011A70EE600AAD
:1038000090ED000A71EEE01A21EE800A00EE810AC6
:103810007047000083F9223E00000044E461000884
:1038200000B580ED040A30EEC00AC0ED030A01467F
:1038300080ED070AF0EEE00A10EE900AB0F17E5F2C
:1038400003DADFED360AC1ED090A086BD1ED060A8D
:1038500001F12C02032802D0042827D053E091ED77
:10386000001A01F1240021EE001A81ED081A91EDF1
:10387000091AD1ED011A01EE801A30EE600A81EDCD
:10388000091AD1ED020A20EE200A81ED0A0A91ED13
:103890000E0AB8EE400AFFF72FFF91ED080AD1EDAE
:1038A000090A30EE200AD1ED0A0A21E030EE601A52
:1038B000D1ED001AB0EE002A21EE211A81ED081A8E
:1038C000D1ED011A61EE801A00EEC20AC1ED091AAB
:1038D000D1ED050A30EE200AD1ED020A20EE200AD1
:1038E00071EE210A81ED0A0A30EE800AD1ED0B0A51
:1038F000104630EE200A81ED0B0A91ED0D0AB8EE6C
:10390000400AFFF7F9FE91ED060A81ED050A91EDF7
:10391000070A81ED060A91ED0B0A00BD00000000C8
:1039200010B50288428009884BBA0380991A8268D0
:10393000B1F5805F04DD521EA1F50051826006E002
:1039400011F5805F03DA521C01F5005182600162BB
:1039500003EB4231028BDFED1F0A891AC16090ED43
:10396000040A002280ED050A00EE101AB8EEC00A23
:1039700080EE201A80ED041A90F83810036A00EBEC
:103980008104491C80F83810636290F838100529CA
:1039900002D3002180F838105FF0000100EB8103B2
:1039A000491C5B6AC9B21A440529F7D3C16B01648B
:1039B000052192FBF1F100EE101ADFED070AC16359
:1039C000B8EEC00A20EE200ABDEEC00A10EE101AB2
:1039D000818010BD610BB641355EEA4010B50288AA
:1039E0004280098841F664144BBA0380991A8268B0
:1039F000A14204DD521EA1F50051826007E041F6AC
:103A00006414E14203DA521C01F500518260016244
:103A100003EB4231028BDFED1F0A891AC16090ED82
:103A2000040A002280ED050A00EE101AB8EEC00A62
:103A300080EE201A80ED041A90F83810036A00EB2B
:103A40008104491C80F83810636290F83810052909
:103A500002D3002180F838105FF0000100EB8103F1
:103A6000491C5B6AC9B21A440529F7D3C16B0164CA
:103A7000052192FBF1F100EE101ADFED070AC16398
:103A8000B8EEC00A20EE200ABDEEC00A10EE101AF1
:103A9000818010BD610BB641355EEA4070B52D4C9A
:103AA0002D4D207820B1012827D0022825D03DE0D7
:103AB0002A4E2B4996ED040A10EE100A884205DDC5
:103AC000DFED280A30EE600A86ED040A264801F090
:103AD0003DF8D6ED040A254820EE200A84ED020ABE
:103AE00001F034F8D5ED020A20EE200A84ED010A37
:103AF00095ED030A84ED070A18E095ED030AD4ED6D
:103B0000070AC821194830EE600A84ED020A95EDD3
:103B1000020AD4ED060A30EE600A84ED010A01F0D3
:103B200031F84FF47A71104801F02CF895ED0A0A3B
:103B300084ED040A95ED090A84ED050A01F08AF87E
:103B400000F030F9FDF7EAF9BDE87040012000F01F
:103B500083BA0000D03E002060420020C840002010
:103B600000007A430000B443E0000020CC000020B5
:103B700070B51748012290F909101648012904D0A0
:103B8000022902D0032902D003E0027001E00321E0
:103B90000170C168C823B1FBF3F403FB14143CB9F2
:103BA000D0E901560C4CB54200D0002284F85C20CC
:103BB0006422B1FBF2F402FB1412002A07D1B1FB1C
:103BC000F3F203FB1211002901D04168816070BD3E
:103BD000F4420020B4000020D03E0020098849BAF9
:103BE000018001837047EFF30580002800D0012099
:103BF000704700000B480D4990ED010A80ED110A55
:103C000090ED020A80ED100A9FED070A80ED0F0A81
:103C100080ED0E0A0968B1F5FA6F01D90121017032
:103C200070470000D03E002000000000C8000020C7
:103C30002DE9F0414F4D2DED028B297800296FD0F1
:103C40004D48007803286BD14C484D4F4D4C0278BD
:103C5000B88AB3EE0E8A012A0AD0C2069FED4A0A3C
:103C600009D5DFED4A0AC4ED020A84ED030A06E035
:103C700084ED028A01E084ED020A84ED038A444E59
:103C8000C107DFED448A05D0434800F05FFFD4ED63
:103C9000020A08E080070BD53F4800F057FFD4ED3B
:103CA000020AF1EE600A20EE200A86ED030A05E022
:103CB000C6ED038A6421384800F064FFB88A4107E2
:103CC00007D5364800F042FFD4ED030AF1EE600A52
:103CD00006E0000709D5314800F038FFD4ED030AAB
:103CE00020EE200A86ED040A05E0C6ED048A642170
:103CF0002A4800F047FFB88AB0EE080A410610D5FE
:103D0000217801290DD02978032904D0D5ED0E0A98
:103D100030EE800A11E0BBEE0E0A86ED050A14E0D3
:103D200022E001060FD5217801290CD0297803293A
:103D300006D0D5ED0E0A30EEC00A85ED0E0A04E07D
:103D400086ED058A01E0C6ED058A80060CD514488B
:103D500061680068411AB1F5AF7F05D960602878C5
:103D6000012805D001202870BDEC028BBDE8F08150
:103D70000220F8E7D03E0020B4000020C40000205C
:103D8000F4420020F40000200000204200007042B5
:103D9000383F002000000000080100201C01002026
:103DA000C80000202DE9F04F66486949DFF8989176
:103DB0000578664A8C8A4FF000081DB1654B1B7868
:103DC000032B2FD0A1F80A80A1F80C808B46624902
:103DD000624E270509684FF4AF7A4FF0030C4FF09D
:103DE000010307D53768CF1B574503D93160012D33
:103DF00075D00370E4050DD534680C1B544509D902
:103E0000316004785649012C6AD0037081F800C0F3
:103E100082F894839BF81300012871D089F8008000
:103E2000BDE8F08FB1F90A306FF07F06B34201DCD4
:103E30004E8103E0802B01DB80234B81B1F90C30F4
:103E40006FF01106B34201DC8E8103E0202B01DB11
:103E500020238B81434B5E68761C3227B6FBF7FC30
:103E600007FB1C6C5E6002EB8C0C90ED022A8CED63
:103E70001B2AB6FBF7FC07FB1C6602EB8606D0ED9F
:103E8000011AC6ED801A99F800609FED370A9FED80
:103E9000371A012E03D1364E7679012E21D0294BC7
:103EA000032DD3ED0F0A0DD0042D8FD082ED1A1AF9
:103EB000B1F90A3090ED0E1A01EE903AF8EEE11ADF
:103EC00001EEC01A80ED0E1AB1F90C3001EE103A75
:103ED000B8EEC11A41EE000AC0ED0F0A76E723E002
:103EE00025E0204F6606D7ED000A02D530EE800AA5
:103EF00003E0260605D530EEC00A83ED000A02E095
:103F00001CE083ED001A92ED040A31EE800A80ED88
:103F10000F0A92ED030AD3ED000A32EE000A30EEEA
:103F2000200A80ED0E0A51E780F800C062E7042401
:103F300004700620087082F894336BE789F800302B
:103F40006EE70000D03E0020F40000200C4300206B
:103F5000F4420020B4000020C8000020F800002037
:103F6000A43F0020AC0000200AD7233C0000000042
:103F70004701002070B5124B4FF000014FF00102D5
:103F8000988A84050F480CD50F4C25680F4C26687D
:103F9000AE1BB6F5AF7F04D92560447A012C04D05E
:103FA00042729B7C012B02D004E04172F9E7437A14
:103FB000012B02D080F8381070BD80F8382070BD19
:103FC000F4420020A43F0020C8000020F800002098
:103FD00008B5FDF79FFF40F2DC50FDF79DFEFFF7AF
:103FE00039F8FEF7E1FDFEF7C1FDFEF729FEFEF709
:103FF00037FDFEF779FDFEF749FEFEF77BFEFEF783
:104000009FFEFCF7DDFFFCF7D5FBFEF7B5FF1520A3
:104010000090054B054A04210548FEF7C3FEFCF756
:10402000B7FD00F027F8FEE7744C002004100140B3
:10403000B864024001460020842900D0C81C7047A3
:10404000044890ED010A80ED110A90ED020A80ED1E
:10405000100A7047D03E002010B500B9012001F0D1
:1040600065F8002010BD10B501B9012101F084F8F8
:10407000002010BD10B501F053F9002010BD10B59F
:10408000FFF7B1FD18B1BDE8104001F0C3BDBDE8B8
:10409000104001F0B9BD0000FEB5064600200D46F7
:1040A00002900190FFF79FFD4FF0004498B102A8E5
:1040B000009001AB01222946304601F01FFD012886
:1040C00011D1029888B10A49E0080860BFF34F8F08
:1040D000BFF36F8F09E001AB01222946304601F0A2
:1040E000A7FC012801D02046FEBD0198FEBD0000BE
:1040F00004ED00E0FEB5002506460F462C4601956E
:10410000501C06D002B11446FFF76DFD20B182208D
:1041100015E04FF0FF34F7E723463946002001AAA7
:1041200001F0E4FD012804D00CB1402007E0009527
:1041300006E00198002801DA862000E008200090BF
:104140009DE8070086E80700FEBD10B501F04EFDB2
:10415000012803D0BDE8104001F0C0B910BD3EB544
:1041600004460D46B0F90800FFF764FF02A9CDE947
:104170000001208A2B4682B2D4E9001001F02CFC09
:10418000012801D000203EBD02983EBD08B5006860
:104190000090012907D0002013460246012103A008
:1041A00001F0D2FE08BD0120F6E70000000000008B
:1041B0002DE9FC41002507462E4601950C0000D153
:1041C0000124FFF710FD009690B101AB22460921B2
:1041D000384601F005FF012812D1019888B10A493B
:1041E0004FF080500860BFF34F8FBFF36F8F08E030
:1041F000002322460421384601F0F2FE012800D0B7
:10420000FF252846BDE8FC8104ED00E000B580ED07
:10421000040A30EEC00A0146C0ED030A80ED070A29
:10422000006BD1ED060A01F12C02032802D004280C
:1042300027D053E091ED001A01F1240021EE001A7D
:1042400081ED081A91ED091AD1ED011A01EE801ADB
:1042500030EE600A81ED091AD1ED020A20EE200A43
:1042600081ED0A0A91ED0E0AB8EE400AFFF744FA12
:1042700091ED080AD1ED090A30EE200AD1ED0A0AC3
:1042800021E030EE601AD1ED001AB0EE002A21EEE6
:10429000211A81ED081AD1ED011A61EE801A00EEA3
:1042A000C20AC1ED091AD1ED050A30EE200AD1ED9E
:1042B000020A20EE200A71EE210A81ED0A0A30EE90
:1042C000800AD1ED0B0A104630EE200A81ED0B0A70
:1042D00091ED0D0AB8EE400AFFF70EFA91ED060ACD
:1042E00081ED050A91ED070A81ED060A91ED0B0AB1
:1042F00000BD00F1300C8CE80E0080EC030A704722
:1043000080EC030A9FED050A80ED080A80ED090A9A
:1043100080ED0A0A80ED0B0A7047000000000000E3
:104320002DE9F041184C0F460546E6682068001D4F
:1043300000F0E6FD38B9206890F82C100120884084
:10434000216981432161681C07D137B12168BDE82B
:10435000F0410E48091D00F00BBE20683544B542FF
:104360004560216805D2A06BBDE8F041091D00F051
:10437000E7BD606B091D00F0E3FDA06A854200D235
:10438000A562BDE8F081000030000020803E0020E2
:104390002DE9F041054600F0F7FD2E4CA068401CC9
:1043A000A06020682C4F10B1606940B32DE02560FB
:1043B000A068012829D1002606EB860007EB8000C3
:1043C00000F0B0FD761C072EF6D323488C3000F0A9
:1043D000A9FD2148A03000F0A5FD1F48B43000F031
:1043E000A1FD1D48C83000F09DFD1B48DC3000F0E9
:1043F00099FD19488C3060631430A06305E0206893
:10440000E96AC06A884200D82560606A401C606220
:104410006864E96A0120226988401043206101EB49
:10442000810007EB8000291D00F0A2FD00F0CCFD0B
:10443000606900280CD02068E96AC06A884207D207
:1044400006494FF080500860BFF34F8FBFF36F8F66
:10445000BDE8F08130000020A43D002004ED00E024
:1044600010B500F091FD0E4C2068A0B90D4800F089
:1044700059FD0C48143000F055FD0A48E060143036
:10448000206100220C210A2001F03EF8206010B1CA
:1044900005A100F015FEBDE8104000F095BD00003C
:1044A0006C000020943E0020546D7251000000000A
:1044B00070B5114E114C17E000F06AFF3068B8B1CA
:1044C00001F0E0FC00F060FDF068C568281D00F018
:1044D00017FDA068401EA0606068401E606000F08C
:1044E00073FD284600F055F860680028E4D170BDDF
:1044F00001F0C8FCF8E700006C3E0020300000200E
:1045000030B4026C0B46002A0BD0C1681144C16064
:104510004468A14201D30168C16030BC1846FBF772
:10452000DEBE30BC70472DE9F041856B174604466E
:104530000026026C82B1C7B1E068FBF7D0FEE168EB
:10454000206C091AE1602268914202D26168081A5F
:10455000E060022F16D017E02068A8B9606801F06B
:104560000BFC0646002060600EE0A068FBF7B7FE7B
:10457000216CA0680844A0606168884204D3206868
:10458000A06001E005B16D1E6D1CA5633046BDE85D
:10459000F08110B50446006B00F02AFD2046BDE80E
:1045A000104000F025BD000010484FF47051420744
:1045B00006D0C01D0D4920F00700411AC1F5705109
:1045C0000B4A00230144C2E900030839103A21F0E4
:1045D000070111604B600B600B1AC0E90013936078
:1045E0004FF000405360D06070470000640100202D
:1045F0001C000020074C4FF08056074DFFF758FF76
:1046000020680128FAD92E60BFF34F8FBFF36F8F58
:10461000F4E70000A43D002004ED00E02DE9F047A0
:104620000E46DDE909841746824691009946089DA9
:10463000A522206BFBF765FE6FF00301206B01EBF9
:104640008701084420F00707780707D0502080F33F
:104650001188BFF34F8FBFF36F8FFEE72218315CD5
:1046600082F83410315C11B1401C1028F6D30026BA
:1046700084F84360072D00D30625E562C4E913568C
:10468000201D00F05AFC04F1180000F056FC2461D3
:10469000C5F107006462A061666584F858604A4607
:1046A0005146384600F03CFA2060B8F1000F01D0C6
:1046B000C8F80040BDE8F08730B5114900E0114668
:1046C0000A688242FBD34B685C18844203D140687D
:1046D00018444860084643681C18944209D1084CA5
:1046E000103C2468A24209D052681A4442600A6809
:1046F00012680260814200D0086030BD0460F9E7B2
:104700001C00002070B5002441600B4D00619142F7
:1047100006D8D11A8269914206D2011D286907E0A4
:104720009A4203D2994201D3012403E0011DE868B3
:1047300000F006FC204670BD6C00002010B5044659
:1047400000F022FCA06B28B15FF0000400F03CFCFC
:10475000204610BD0124F9E730B587B02B4D4BE062
:104760000498002848DB069C606910B1201D00F009
:10477000C7FB02A800F0B6F8024604980A283BD20C
:10478000DFE800F00505053A263705053A260598C5
:10479000A169034601442046FFF7B4FF00B3616AF4
:1047A00020468847E069012826D10020009005981E
:1047B000A169002342181946204601F011FC78B97E
:1047C000502080F31188BFF34F8FBFF36F8FFEE748
:1047D0000598A06128B1811813462046FFF792FF83
:1047E0000AE0502080F31188BFF34F8FBFF36F8F23
:1047F000FEE7204600F0FCFB00231A4604A92868C7
:1048000000F0ACFE0028ABD107B030BD6C0000203A
:104810002DE9FC410F46054600F0BAFD01A800F065
:1048200061F80446019818B101F02CFBBDE8FC8149
:10483000224EAFB130690068A8B30027291B3A4661
:10484000306800F051FC01F01DFB0028EED11C493E
:104850004FF080500860BFF34F8FBFF36F8FE5E7D5
:10486000A542EBD801F00EFBF0682746C068C4688B
:10487000201D00F045FBE069012810D1A0692B46FE
:1048800041193A462046FFF73DFF40B1002003465C
:10489000014600902A46204601F0A2FB20B1616A41
:1048A00020468847C2E707E0502080F31188BFF315
:1048B0004F8FBFF36F8FFEE70127BFE76C0000202B
:1048C00004ED00E00648416B096829B1416BC968F5
:1048D000C9684968816270474FF0FF31FAE700000C
:1048E0003000002070B5054601F08EF9064E0446F2
:1048F000B068844203D200F009F8012000E00020F3
:1049000028602046B46070BD6C000020F8B5194DD9
:104910001FE0C068C4680668201D00F0F1FA616AF3
:1049200020468847E069012813D1A0693044B0428D
:1049300006D924616060211DE86800F001FB08E0F1
:1049400000200346014600903246204601F048FB15
:1049500038B1E86801680029DBD12969C5E903108D
:10496000F8BD502080F31188BFF34F8FBFF36F8FD6
:10497000FEE700006C00002008484068401C4FF033
:10498000500080F3118804D0BFF34F8FBFF36F8FB7
:10499000FEE7BFF34F8FBFF36F8FFEE724000020C9
:1049A000074CE068016841B1C0680021D0F8000000
:1049B000FFF72EFFFFF7D0FEF3E701210020F7E716
:1049C0006C0000202DE9F041044600F0DDFA94F976
:1049D000455004F1240609E0606A48B1304601F010
:1049E00017FA08B100F00EFC6D1E6DB2002DF3DC5D
:1049F0004FF0FF3684F8456000F0E6FA00F0C4FAA4
:104A000094F9445004F1100709E0206948B1384690
:104A100001F0FEF908B100F0F5FB6D1E6DB2002D3E
:104A2000F3DC84F84460BDE8F04100F0CDBA00004A
:104A30002DE9F0410546002700F0AAFC314E306810
:104A400008B9FFF7B1FDF06805424BD1C5B3083591
:104A500068070ED005F00700C0F10800054468079C
:104A600007D0502080F31188BFF34F8FBFF36F8FB3
:104A7000FEE72DB37068854234D8224810300146D5
:104A80000C6801E020460C466168A94202D2216808
:104A90000029F7D131688C4224D007682168016071
:104AA00060680837411B10290FD96019420708D0E8
:104AB000502080F31188BFF34F8FBFF36F8FFEE755
:104AC00010E041606560FFF7F7FD61687068401AAB
:104AD0007060B268904200D2B060F068014300207C
:104AE000C4E9000101F0CEF9780707D0502080F327
:104AF0001188BFF34F8FBFF36F8FFEE73846BDE8D5
:104B0000F08100000C0000200449086818B1086812
:104B1000026D521C026508687047000030000020DA
:104B200010B5031F4FF080741C601B1F21F00101A2
:104B30001960191F044B0B6014390A60091F6FF0CC
:104B4000020244380A6010BD794900084168002912
:104B500002DC9FED0B0A70470268531C03608A4217
:104B600000DB016090ED000AF8EEC00A00EE101ABA
:104B7000B8EEC01A80EE810A80ED020A704700008C
:104B8000000000000022C0E90021704770B52748EE
:104B90002DED048B007800282CD0254800780128C2
:104BA00028D124482449254D0278B1F90200B1F9F1
:104BB0000040012A21D0FBF797FC9FED218B53EC9D
:104BC000182BFBF7B0FB9FED209B53EC192BFBF749
:104BD0001CFCFBF7ADFCE8602046FBF785FC53ECC2
:104BE000182BFBF7A0FB53EC192BFBF70EFCFBF784
:104BF0009FFC2861BDEC048B70BD00EE100AB3EE83
:104C00000E1ADFED130AB8EEC00A20EE010AC0EE5C
:104C1000201A00EE104AB8EEC00A20EE010A80EE1B
:104C2000201AC5ED031A85ED041AE3E7D03E0020F3
:104C3000B4000020C4000020F4420020383F0020CF
:104C40000000000000004E400000000000A0844072
:104C50000000254412480178002920D01149097824
:104C600001291CD1104990ED0E0A9FED101AB1F9DF
:104C7000042000EE902AF8EEE00A00EEC10A9FED53
:104C80000C1A80ED0E0AB1F9061090ED0F0A00EE35
:104C9000901AF8EEE00A00EEC10A80ED0F0A7047A4
:104CA000D03E0020B4000020F44200206F12833A6E
:104CB00017B7D13805480078012805D104480549BF
:104CC000027A4A72407A087070470000B4000020EF
:104CD000F4420020A43F00207CB5124C0025E56082
:104CE000A5604FF40075256008252561040A8DF83C
:104CF00000408DF80100080A8DF80200100A8DF8B6
:104D000004008DF80520180A8DF803108DF80600B0
:104D100004498DF8073001236A46A1F52A70FCF793
:104D20007FFA7CBD8C420020B0F9061000EE101A0C
:104D30001A49F8EEC00A91ED1A0A60EE800AFDEEFB
:104D4000E00A10EE901A0BB2B0F9041000EE901ABF
:104D5000F8EEE00A60EE800AFDEEE00A10EE901A2E
:104D60000AB2B0F90210B0F9000000EE901AF8EEA5
:104D7000E00A60EE800AFDEEE00A10EE901A00EE06
:104D8000900A09B2F8EEE00A20EE800ABDEEC00AF1
:104D900010EE100A00B2FFF79FBF0000383F00205E
:104DA00008B50B4900220123CA608A6008220A6103
:104DB00040F249120A60010A8DF8001004498DF88A
:104DC00001006A46A1F52A70FCF72AFA08BD000026
:104DD0008C4200207CB5124C002340F2FF15E360AA
:104DE0002560A36008252561040A8DF800408DF830
:104DF0000100080A8DF80200100A8DF804008DF8F1
:104E000005208DF803108DF8063005498DF8073020
:104E100001236A46A1F52A70FCF702FA7CBD000066
:104E20008C420020B0F90420B0F902100088404202
:104E300000B2FFF7CFBF000010B51E4C607A01280A
:104E400002D040F6B83008E01B48808A000402D542
:104E50004FF4965001E041F23010FFF7A1FF94F8B3
:104E60003800012801D0002014E0A178022915D0D3
:104E70006FF00500032907D06421A162B4F8071080
:104E8000C90507D4801005E0B4F80710C90501D59D
:104E90006FF00E0060620120607010BDD220A06231
:104EA000B4F80700C00502D56FF00900F2E76FF013
:104EB0000300EFE7A43F0020F442002010B50F4CA0
:104EC000607A012809D00020C4F83A006062BDE889
:104ED000104040F6B830FFF763BF54F83A0F401C5B
:104EE000206041F23010FFF75BFF54F83A09B0F54B
:104EF000967F02D96FF00500606210BDA43F0020CC
:104F0000D0E9013201699A60D0E901235A604A6808
:104F1000824201D182684A60002202610868401E14
:104F20000860704700F108014FF0FF32C0E901123C
:104F3000C16001610021016070470021016170477B
:104F400030B50B685A1C02D000F1080202E0026979
:104F500004E02246546825689D42FAD953684B60A4
:104F600099608A60516008610168491C016030BD28
:104F700042684A6093688B609368596091600861E9
:104F80000168491C01607047502080F31188BFF30D
:104F90004F8FBFF36F8F0A494868401C4860012853
:104FA0000CD10848006810F0FF0F07D0502080F3A4
:104FB0001188BFF34F8FBFF36F8FFEE7704700007C
:104FC0002400002004ED00E00849486828B1401E94
:104FD000486001D180F311887047502080F3118818
:104FE000BFF34F8FBFF36F8FFEE700002400002058
:104FF00070B5002827D0144DA0F108046168E86856
:10500000014207D1502080F31188BFF34F8FBFF3C7
:105010006F8FFEE722683AB1502080F31188BFF30A
:105020004F8FBFF36F8FFEE78143616000F0B0F9EF
:1050300060686968084468602046FFF73DFBBDE88A
:10504000704000F01FBF70BD0C00002006484FF4F8
:105050007A710068B0FBF1F14FF0E020491E416128
:1050600007210161704700008000002010B5FBF7A8
:10507000EFF8114910280ED300F1E02090F8F0036A
:105080000A78904207D2502080F31188BFF34F8FE7
:10509000BFF36F8FFEE709480068896800F4E0609D
:1050A000884207D9502080F31188BFF34F8FBFF398
:1050B0006F8FFEE710BD0000240000200CED00E023
:1050C00010B5084B002200BF53F832401CB1521CEF
:1050D000082AF9D310BD43F8321003EBC20148602F
:1050E00010BD0000643D002070B515460E46044614
:1050F000FFF74AFF94F944100020491C01D184F8BD
:10510000440094F94510491C01D184F84500FFF78B
:105110005BFFA06B28B92A46314604F1240000F059
:105120008FF82046BDE87040FFF74CBC10B5020078
:1051300014D00F48006B38B1502080F31188BFF3B2
:105140004F8FBFF36F8FFEE700F022F9002110466A
:10515000FFF7E6F800F096FE002807D105494FF06A
:1051600080500860BFF34F8FBFF36F8F10BD0000FA
:105170003000002004ED00E070B50D4604000BD0B7
:1051800095B11E4A106BB8B1502080F31188BFF35F
:105190004F8FBFF36F8FFEE7502080F31188BFF36E
:1051A0004F8FBFF36F8FFEE7502080F31188BFF35E
:1051B0004F8FBFF36F8FFEE700F0EAF8D2682368E5
:1051C0005919934204D98B420AD9914202D807E077
:1051D0008B42FAD9881A21600021FFF7A1F800E07C
:1051E000216000F04FFE002807D105494FF08050A4
:1051F0000860BFF34F8FBFF36F8F70BD300000208A
:1052000004ED00E001490120C86170473000002032
:1052100010B50C4650B1094909681831FFF790FEE6
:105220002046BDE810400121FFF77AB8502080F3F6
:105230001188BFF34F8FBFF36F8FFEE73000002060
:1052400070B514460D4668B10A4909681831FFF770
:105250008FFE0CB14FF0FF3521462846BDE8704067
:10526000FFF75EB8502080F31188BFF34F8FBFF374
:105270006F8FFEE73000002070B5040039D01D4D5F
:10528000E06A2968C96A884233D2A069002804DB31
:105290002868C06AC0F10700A061E16A164E01EB00
:1052A0008101606906EB810188421FD1201DFFF753
:1052B00027FE012150B9E06A00EB800256F8222057
:1052C00022B92A6901FA00F082432A612868C06A7B
:1052D000E0622A6981401143296100EB800006EBFE
:1052E0008000211DBDE87040FFF742BE2868C06AFB
:1052F000E06270BD30000020A43D002028B10749C5
:105300000A6A0260C96841607047502080F31188C2
:10531000BFF34F8FBFF36F8FFEE700003000002018
:105320001CB517480024CDE900402346802215A172
:10533000164800F051FB012803D100F02DFE012892
:1053400009D0401C1AD1502080F31188BFF34F8F31
:10535000BFF36F8FFEE7502080F31188BFF34F8FAC
:10536000BFF36F8F06484FF0FF312C388162012167
:105370004161C460BDE81C4000F040B81CBD0000A5
:105380005C00002049444C4500000000F545000841
:105390000248016B491C0163704700003000002087
:1053A0001448016B11B10121C16170470021C16135
:1053B0000169B1FA81F1C1F11F0101EB81020E49CE
:1053C00051F822306BB101EB820101F108034A6808
:1053D00052684A609A4201D152684A60D1680160BD
:1053E0007047502080F31188BFF34F8FBFF36F8F4A
:1053F000FEE7000030000020A43D00201CB532482C
:105400000168324A914207D1502080F31188BFF3DE
:105410004F8FBFF36F8FFEE700682C49491E88420B
:1054200007D1502080F31188BFF34F8FBFF36F8FE8
:10543000FEE7274908780190FF20087008788DF86A
:1054400000009DF800009DF8002000F0F000904260
:1054500007D0502080F31188BFF34F8FBFF36F8FB9
:10546000FEE79DF800001B4A00F050001070072076
:10547000906005E09DF800305B008DF80030401E24
:105480009DF800301B06F5D4000200F4E060906047
:10549000019808700C482030016841F470010160E7
:1054A000016841F070410160FFF7D0FD00205060BD
:1054B000FAF794FE0848016841F040410160FAF7AC
:1054C0007DFE00201CBD000000ED00E071C20F4118
:1054D00000E400E02400002034EF00E010B550208C
:1054E00080F31188BFF34F8FBFF36F8F00F09AFBEB
:1054F00018B104494FF080500860002080F31188F3
:1055000010BD000004ED00E02DE9F04117460E4605
:10551000050016D0EEB105FB06F05030FFF788FA13
:1055200004000CD004F15000AEB12060C4E90F5665
:105530002046012100F0C8F8204684F84C70BDE8F0
:10554000F081502080F31188BFF34F8FBFF36F8F2E
:10555000FEE70020E1E72460E8E700002DE9FF4FC7
:10556000002683B09B468A46040003D0BAF1000FA0
:1055700008D011E0502080F31188BFF34F8FBFF3A4
:105580006F8FFEE7206C38B1502080F31188BFF395
:105590004F8FBFF36F8FFEE700F028FBDFF8248109
:1055A0004FF000094FF0805748B9059838B15020A6
:1055B00080F31188BFF34F8FBFF36F8FFEE7FFF7C4
:1055C000E3FCA56B45B351462046E668FEF798FF1D
:1055D000BBF1000F13D0E660606A50B104F1240003
:1055E00000F016FC28B1C8F80070BFF34F8FBFF36E
:1055F0006F8FFFF7E9FC012007B0BDE8F08F6D1E4B
:10560000A563206810B9FFF77FFA60602069002861
:10561000EFD004F11000E3E7059808B11EB106E0F1
:10562000FFF7D2FC27E06846FFF768FE0126FFF788
:10563000CBFCFFF7ADFEFFF7A7FC94F94400401C3C
:1056400001D184F8449094F94500401C01D184F8BC
:105650004590FFF7B9FC05A9684600F087F90028D6
:1056600020460AD0FFF7AEF900F00CFC2046FFF709
:1056700065F80028A3D00020BEE7FFF75FF8D8B197
:10568000206830B9FFF780FC6068FFF7F5FDFFF791
:105690009BFC04F124000599FFF7BAFD2046FFF7B3
:1056A00091F900F0EFFB002889D1C8F80070BFF332
:1056B0004F8FBFF36F8F82E72046FFF783F900F02B
:1056C000E1FB7CE704ED00E070B50D46040025D059
:1056D000FFF75AFCD4E90F20216802FB001161603A
:1056E0000021A1632168A1600A46D4E90F01401E90
:1056F00000FB0121E16021464FF0FF3001F8440F2B
:10570000487004F110008DB1FFF70CFC04F1240087
:10571000FFF708FCFFF758FC012070BD502080F314
:105720001188BFF34F8FBFF36F8FFEE72169002908
:10573000F0D000F06DFB0028ECD004494FF0805011
:105740000860BFF34F8FBFF36F8FE3E704ED00E016
:105750002DE9FF4782B01D468A464FF0000804003D
:1057600003D0BAF1000F08D011E0502080F3118867
:10577000BFF34F8FBFF36F8FFEE7206C38B150201F
:1057800080F31188BFF34F8FBFF36F8FFEE7022DB9
:105790000AD1E06B012807D0502080F31188BFF3B5
:1057A0004F8FBFF36F8FFEE700F020FA3F4F4FF0AF
:1057B00000094FF0805648B9049838B1502080F362
:1057C0001188BFF34F8FBFF36F8FFEE7FFF7DCFB4E
:1057D000A06BE16B884207D3022D05D00498D0B1AD
:1057E000B8F1000F1AD01EE02A4651462046FEF7B7
:1057F0009AFE616A19B104F1240000F009FB20B19E
:105800003E60BFF34F8FBFF36F8FFFF7DDFB0120CB
:1058100006B0BDE8F087FFF7D7FB22E06846FFF748
:105820006DFD4FF00108FFF7CFFBFFF7B1FDFFF76C
:10583000ABFB94F94400401C01D184F8449094F9E6
:105840004500401C01D184F84590FFF7BDFB04A939
:10585000684600F08BF830B12046FFF7B3F800F04F
:1058600011FB0020D4E7FFF78FFBA06BE16B8842B0
:1058700013D1FFF7A9FB04F110000499FFF7C8FC4E
:105880002046FFF79FF800F0FDFA00289ED13E6009
:10589000BFF34F8FBFF36F8F98E7FFF795FB20465D
:1058A000FFF790F800F0EEFA90E7000004ED00E05A
:1058B0002DE9F0471F4690468946040003D0B9F110
:1058C000000F08D011E0502080F31188BFF34F8FF4
:1058D000BFF36F8FFEE7206C38B1502080F3118842
:1058E000BFF34F8FBFF36F8FFEE7022F0AD1E06B3C
:1058F000012807D0502080F31188BFF34F8FBFF3EA
:105900006F8FFEE7FFF7B2FB5020EFF3118680F3B5
:105910001188BFF34F8FBFF36F8FA06BE16B88428D
:1059200006D3022F04D0002086F31188BDE8F0874B
:1059300094F945503A4649462046FEF7F4FD681C66
:1059400004D06D1C84F845500120EDE7606A002802
:10595000FAD004F1240000F05BFA0028F4D0B8F18A
:10596000000FF1D00121C8F80010EDE770B50D4629
:10597000040019D005B3FFF707FB164AD168286861
:10598000431C0FD02368126A934202D062688A4295
:105990001AD96268891A814216D2401A28602046B4
:1059A000FFF7ACFC002410E0502080F31188BFF317
:1059B0004F8FBFF36F8FFEE7502080F31188BFF346
:1059C0004F8FBFF36F8FFEE70124FFF7FDFA2046EC
:1059D00070BD0000300000202DE9FF5F8346DDE947
:1059E0000E87994616468A469000FFF721F8050073
:1059F0001AD05C20FFF71CF8040012D025630021A8
:105A0000CDE90241CDE900874B4632465146584622
:105A1000FEF704FE2046FEF7BBFC012004B0BDE803
:105A2000F09F2846FFF7E4FA4FF0FF30F6E700005A
:105A30002DE9F0411F4690460D46012690B10446DF
:105A4000FFF7A2FA0FB1606D386094F85800022198
:105A500084F85810B8F1050F16D2DFE808F0150BDE
:105A60000E141200502080F31188BFF34F8FBFF344
:105A70006F8FFEE7616D294301E0616D491C61652F
:105A800002E0022803D06565012802D02AE0002642
:105A900028E0201DFFF734FA154DE06A01212A693C
:105AA000814011432961134900EB800001EB800024
:105AB000211DFFF75DFAA06A38B1502080F31188EC
:105AC000BFF34F8FBFF36F8FFEE7E06A2968C96AA3
:105AD000884207D908494FF080500860BFF34F8FC4
