:020000040800F2
:10000000C8520020590200088D2E00080D28000853
:10001000E12D00084B0700084936000800000000E9
:100020000000000000000000000000009D0100082A
:10003000B10B000800000000F1010008F52F0008D6
:1000400073020008730200087302000873020008BC
:1000500073020008730200087302000873020008AC
:10006000730200087302000873020008730200089C
:10007000730200087302000873020008730200088C
:10008000010B0008730200087302000859070008FA
:100090004D0700087302000873020008730200088D
:1000A000730200087302000873020008730200085C
:1000B000730200087302000873020008730200084C
:1000C000730200087302000873020008730200083C
:1000D000730200087302000865340008E934000860
:1000E000730200087302000873020008730200081C
:1000F000730200087302000873020008730200080C
:1001000073020008730200087302000873020008FB
:1001100073020008730200087302000873020008EB
:1001200073020008730200087302000873020008DB
:1001300073020008730200087302000871070008C8
:1001400065070008730200087302000873020008C4
:100150007302000873020008730200085535000896
:10016000730200087302000873020008730200089B
:100170007302000873020008730200080000000008
:100180007302000873020008DFF80CD000F0A0FA38
:1001900000480047E53E0008C85200202B4B196874
:1001A0000868B0E8F04F80F30988BFF36F8F4FF015
:1001B000000080F3118870470000000006480068C6
:1001C000006880F3088862B661B6BFF34F8FBFF353
:1001D0006F8F00DF00BF00BF08ED00E0DFF80C000C
:1001E000016841F470010160704700BF88ED00E0D4
:1001F000EFF30980BFF36F8F144B1A681EF0100FD6
:1002000008BF20ED108A20E9F04F106008B44FF0CD
:10021000500080F31188BFF34F8FBFF36F8F05F04D
:1002200017F84FF0000080F3118808BC19680868BF
:10023000B0E8F04F1EF0100F08BFB0EC108A80F34A
:100240000988BFF36F8F704700BF00BF30000020E8
:10025000EFF30580704700000648804706480047D6
:10026000FEE7FEE7FEE7FEE7FEE7FEE7FEE7FEE766
:10027000FEE7FEE7A5300008890100082DE9F05FE0
:100280000546002092469B46884606468146402405
:100290001BE0284641464746224600F074F9534683
:1002A0005A46C01A914110D311461846224600F012
:1002B0005BF92D1A67EB01084F4622460120002109
:1002C00000F052F917EB00094E41201EA4F1010481
:1002D000DFDC484631462A464346BDE8F09F40EA07
:1002E00001039B0703D009E008C9121F08C0042AB4
:1002F000FAD203E011F8013B00F8013B521EF9D29B
:100300007047D2B201E000F8012B491EFBD27047C2
:100310000022F6E710B513460A4604461946FFF7D1
:10032000F0FF204610BD2DE9FE4F81EA030404F0E2
:10033000004421F0004100944FF0000B23F00043F3
:1003400050EA01045ED052EA03045BD0C3F30A54BE
:10035000C1F30A552C44A4F2F3340194A0FB0254D7
:10036000C1F3130141F48011C3F3130343F4801369
:1003700001FB024400FB034E840A970A44EA8154BD
:1003800047EA8357A4FB076802958D0A05FB07859A
:100390004FEA932C04FB0C542705029D4FEA0658A4
:1003A00047EA1637B5EB08056EEB070C870E920E81
:1003B00047EA811742EA8312A7FB0201B6EB0B0161
:1003C00064EB00042B0D43EA0C335E1844EB1C5025
:1003D000DA465146E7FB0201C5F313044FEA0B333B
:1003E00043EA14534FEA0432019C43EA0603A4F1A2
:1003F0000C040294009CCDE900B400F01AF903B09B
:10040000BDE8F08F00200146F9E72DE9F04D81EAC3
:10041000030404F0004B21F0004514464FF0000A9D
:1004200023F0004150EA050220D054EA01021DD019
:10043000C5F30A570246C5F31303C1F31300C1F312
:100440000A5640F4801543F48013A7EB0608101BEE
:10045000D64608F2FD3873EB050002D308F1010817
:1004600001E092185B41B8F1000F03DA0020014669
:10047000BDE8F08D00204FF48011064684460EE062
:10048000171B73EB050705D3121B63EB050306432C
:100490004CEA010C49084FEA300092185B4150EADF
:1004A0000107EDD152EA030012D082EA040083EA88
:1004B0000501084305D0101BAB4106D201220023E1
:1004C00006E000224FF0004302E06FF001025310FB
:1004D0001AEB06004CEB085110EB0A0041EB0B0144
:1004E000BDE8F04D00F096B80EB5C10F80EAE0709F
:1004F0000844CA07002140F233438DE80E000A4643
:100500000B4600F096F803B000BD00F0004230F05A
:1005100000400AD0C10D01F56071C0F3160042EA37
:100520000151C2084007114370470020014670473F
:1005300001F0004330B421F0004150EA010206D03E
:100540000A0DA2F56072C1F31301002A02DC30BC6F
:1005500000207047440F44EAC104C100E01830BCD9
:1005600000EBC25000F01FB8202A04DB203A00FA4A
:1005700002F1002070479140C2F1200320FA03F3FA
:10058000194390407047202A04DB203A21FA02F0F8
:100590000021704721FA02F3D040C2F120029140BD
:1005A0000843194670470029A8BF7047401C4900FE
:1005B00008BF20F00100704710B4B0FA80FC00FAC8
:1005C0000CF050EA010404BF10BC704749B1CCF1F3
:1005D000200421FA04F411FA0CF118BF012121437F
:1005E0000843A3EB0C01CB1D4FEA00614FEA10203A
:1005F00042BF002010BC704700EBC35010440029DC
:10060000A4BF10BC7047401C490008BF20F0010087
:1006100010BC704710B5141E73F1000408DA401CBA
:1006200041F1000192185B411A4301D120F0010011
:1006300010BD2DE9F04D92469B4611B1B1FA81F201
:1006400002E0B0FA80F220329046FFF78DFF0446B8
:100650000F4640EA0A0041EA0B0153465A46084356
:1006600013D0114653EA010019D0C8F14002504698
:10067000FFF789FF05460E46504659464246FFF7AA
:1006800073FF084305D0012004E020463946BDE849
:10069000F08D0020054346EAE0762C4337430A9864
:1006A0006305E40AA0EB08000022FD0A44EA47546F
:1006B0000A3002D500200146E9E701051019694119
:1006C000DDE9084500196941BDE8F04DA2E70000E9
:1006D000064C074D06E0E06840F0010394E807008F
:1006E00098471034AC42F6D3FFF752FDF46B000884
:1006F000146C000870B58C1810F8015B15F0070336
:1007000001D110F8013B2A1106D110F8012B03E0AA
:1007100010F8016B01F8016B5B1EF9D12B0705D4B2
:100720000023521E0DD401F8013BFAE710F8013BFB
:10073000CB1A921C03E013F8015B01F8015B521E17
:10074000F9D5A142D8D3002070BDFEE7014800F0E2
:10075000A7BE000034400020014800F0A1BE000008
:1007600034400020014800F09BBE00005C400020A7
:10077000014800F095BE00005C4000200EB50C4C16
:100780004FF0FF352A46D021684603F03DFCDDE9F5
:1007900000010828F6D1080604D50548083804F0F9
:1007A0004DFAEFE74806EDD5204604F093FAE9E765
:1007B000D43E002070B56C212DED028B2F48FFF741
:1007C000A7FD2E48BFEE000A642180ED070A2C48E1
:1007D00004F062F92A486421143804F05DF99FEDB1
:1007E000298ADFED290A9FED290AB0EE481A002375
:1007F00021220321264802F05BFB264DDFED268AED
:10080000002442F2107600BFF0EE480A04EB041018
:1008100005EB8000B0EE601AB0EE680A00233246A5
:10082000032102F045FB641C042CEDDB1B4D9FED06
:100830001C8A0024C4EBC40005EB8000B0EE481A0B
:10084000F7EE000AB7EE000A02F0AFF8641C042CC1
:10085000F0DB0A4D00249FED138ADFED138A6C351F
:1008600005EB0410F0EE480AB0EE680A03F087F8D2
:10087000641C042CF4DBBDEC028B70BD483F0020EF
:100880001C010020000000000AD7A33CCDCC0C4086
:10089000A44A0020E84A002000001644DC4C002056
:1008A00000002042CDCCCC3D6F12033B2DE9F04738
:1008B000804E2DED028B3078DFED7F8A7F4C38B192
:1008C0002146012891ED060A05D002281AD009E038
:1008D000C4ED028A06E0F0EE680A794803F020FCD5
:1008E00084ED020A94ED060A764DB5EEC00AF1EEEB
:1008F00010FA04D310EE100A7349884237DC85EDF4
:10090000000A3EE0D4ED031AF7EE000ABFEE001A2B
:10091000F5EEC01AF1EE10FA0FD1D4ED041AF5EE8F
:10092000C01AF1EE10FA08D110EE100A6749884299
:1009300008DC10EE100A66490AE010EE100A65495C
:10094000884202DDC4ED070A06E010EE100A624993
:10095000884201D984ED071A94ED070AF3EE0E0AD6
:1009600060EE200A9FED5D1A80EE810AB3E710EE7B
:10097000100A5B49884204DCDFED5A0A30EEC00AF7
:10098000BDE72868FFF7C1FD9FED571B53EC112B06
:10099000FFF73BFDFFF7CCFD00EE100A85ED000AE6
:1009A00002F098FED4ED030A20EE208A95ED000AAD
:1009B00002F0CCFED4ED040A00EEC08A84ED008A79
:1009C00095ED000A02F0C2FED4ED030A20EE208A63
:1009D00095ED000A02F07EFED4ED040A00EE808A56
:1009E00084ED018A94ED000AD4ED020A38EE401A33
:1009F00031EE201A84ED141A30EE081A31EE201A66
:100A000084ED151AB1EE401A30EE480A31EE481A5C
:100A100030EE200A31EE201A84ED161A84ED170A02
:100A200096F85C00012808D15FF0000004EB80011B
:100A3000401CC1ED148A0428F8DBDFF88080DFF861
:100A4000B090002508F16C0804EB850708EB05164B
:100A500097ED140A304602F06BFF706805EB051144
:100A600000EE900A09EB8100C7ED140A97ED100A19
:100A700002F0AEFEBDEEC00A04EB45016D1C10EEA7
:100A8000100A042DA1F86000DEDB1A48216E016017
:100A9000616E416018488021006803F087FA1748AA
:100AA0004FF400710068BDEC028BBDE8F04703F025
:100AB0007DBA0000E03E002000000000483F00201A
:100AC000A44A0020040100200000344300004842F2
:100AD000000048C20000C8410000C8C16666A63FC9
:100AE0000000B4430000B443F6285C8FC2A54CC09C
:100AF000E84A0020CC3E002088000020940000201E
:100B0000014800F045BF0000744800200168182328
:100B1000CAB2103AB2FBF3F2054B6FF30901032A94
:100B20009B5CC36500D9091D8165084670470000BC
:100B3000F05F000810B5014600208B698A6A4FF00B
:100B4000C07453B1B3F5005F15D072B1012A0CD057
:100B5000022A0AD0032A09D104E01AB1012A06D0D8
:100B6000022A03D1C96AC90100D5012010BDC96A92
:100B7000A142FAD010BD002AF7D0012AF2D0022AF1
:100B8000F3D0032AF3D010BD30B50468256825F4EE
:100B900080252560046863608368402B036803D068
:100BA00099600068C26030BD9A600068C16030BD65
:100BB0007047000030B5A1B004F03EF92F4D00227F
:100BC000012128681E901EA803F06AFA2C4C00220E
:100BD0000121A06168681F901FA803F061FAE0611D
:100BE000A86820900022012120A803F059FA206271
:100BF000142205F10C016846FFF771FB00216846DD
:100C000003F037FA2060142205F1200105A8FFF750
:100C100066FB002105A803F02CFA6060142205F1A0
:100C200034010AA8FFF75BFB00210AA803F021FAB0
:100C3000A060142205F148010FA8FFF750FB002126
:100C40000FA803F016FAE060142205F15C0114A865
:100C5000FFF745FB002114A803F00BFA20611422D2
:100C600005F1700119A8FFF73AFB002119A803F05C
:100C700000FA606104F000F921B030BD1060000896
:100C80008400002010B558B1084C491E0BD310F851
:100C9000013B5340DBB234F8133083EA1222F4E70D
:100CA0004FF6FF7010BD104610BD00009869000897
:100CB0002DED048B84B04FF0FF3A2F4DDFF8BC9040
:100CC0004FF4007B52465946684603F09DF901985F
:100CD0008005F7D504F0B0F829482A4F9FED2A8BFC
:100CE00090ED040A9FED2A9BDFF8AC8085ED060AA3
:100CF000002400BF04EB041007EB8000B0F90400EF
:100D0000FFF7F2FB53EC182BFFF70DFB53EC192BFD
:100D1000FFF77BFBFFF70CFC00EE100A05EB8406E7
:100D2000C4EBC40186ED100A08EB810001F01EFE41
:100D3000641CE4B286ED100A042CDBD399ED020AA0
:100D4000164A10EE101A4846914204DCB5EEC00A6D
:100D5000F1EE10FA03D29FED120A80ED020ADFEDE8
:100D6000110A80EE201A85ED1A1A02F0EBFE03F04C
:100D700097FE04F081F8A5E7483F00208C4E002044
:100D800080410020C4410020E5B33C0FEECEBA3FC5
:100D90000000000000003340DC4C002000007042E6
:100DA00000000000000070420EB54FF0FF342246F4
:100DB0000821684603F028F901980007F7D504F0E8
:100DC0003BF802F0E7FD04F057F8F0E770B5284A69
:100DD00013685B1C13600A88C2F30A05A5F58065D9
:100DE00005804A788B78D20842EA4312C2F30A049B
:100DF000A4F5806444808A78CB78920942EA830221
:100E00000B790A3542EA8322C2F30A03A3F5806311
:100E100083800A794E79520842EAC612C2F30A0266
:100E2000A2F580620026C280142D00D806800A3404
:100E3000142C00D846800A33142B00D886800A323E
:100E4000142A00D8C6804A79920902724A79C2F3FC
:100E500001124272CA8842810A8982814A89C2810A
:100E60000A7B82744A7BC274C989818270BD00008A
:100E7000B80000200EB54FF0FF344FF480752246C5
:100E80002946684603F0C0F8DDE900030828F6D1DA
:100E9000D805F4D503F0D0FF0D48B0F90400FFF7F2
:100EA00023FB9FED0C1B53EC112BFFF73CFA9FED3E
:100EB0000B1B53EC112BFFF7A8FAFFF739FB09497D
:100EC000086303F081FE02F0DFFF03F0D5FFD6E7F1
:100ED000D4420020E5B33C0FEECEBA3F0000000044
:100EE00000004240F43F00202048214ADFED210A63
:100EF00003782148B3EE0E0A012BC16B07D0022BF9
:100F00000DD011F1795F12D3FBEE080A14E0914283
:100F100012D21A4A914211D8F9EE040A0CE0914219
:100F20000AD2174A914209DB80ED0F0A06E0154A02
:100F3000914203DBF3EE080AC0ED0F0A90ED021AAE
:100F4000D0ED0E1A71EE400AF4EEE01AF1EE10FA4E
:100F500002D8C0ED0E0A704731EE000AF4EEC01A56
:100F6000F1EE10FAF7DB80ED0E0A7047C4000020A6
:100F7000000048C2000048C2E03E00200000A0C0BF
:100F80000000F0410000C04170B5434D00242DED3C
:100F9000028B00BFC4EBC40005EB8000B3EE041A63
:100FA000F7EE000AB7EE000A01F0FFFC641C022C09
:100FB000F0DBB1EE041AF7EE000AB7EE000A37488C
:100FC00001F0F3FC3548B2EE041AF7EE000AB7EE72
:100FD000000A1C3001F0E9FC3048B1EE041AF7EECB
:100FE000000AB7EE000A383001F0DFFC2B48B0EE03
:100FF000081AF7EE000AB7EE000A543001F0D5FCEB
:1010000068212748FFF784F92549002008704870B7
:10101000C821244803F040FD22484FF47A76314637
:10102000143003F039FD9FED208A3346B3EE070AF2
:10103000B0EE481AF0EE480A1A4603211B4801F0A8
:1010400037FF740041F27075B0EE481AF0EE480AAE
:10105000B3EE090A23462A460321154801F028FF6A
:101060003346B0EE481AF0EE480AB2EE040A1A46C9
:101070000321104801F01CFFB0EE481AF0EE480AB8
:10108000BDEC028B23462A46BDE870409FED0A0A5C
:1010900003210A4801F00CBF4C4D0020844D002074
:1010A000E03E0020CC00002000000000D8490020D5
:1010B000604A002094490020000048421C4A002059
:1010C0002F4810B501682F4C491C0160207820B1D1
:1010D000012805D0022805D102E002F015FD01E04B
:1010E00002F038FFD4ED0E0A94ED100A264803F002
:1010F00017F894ED0F0A2548F1EE400A94ED110A15
:1011000003F00EF82048D0ED0B0A2048C4ED120A77
:1011100090ED0B0A1E4884ED130A90ED0A0A84ED47
:10112000140A90ED091A1B4884ED151A02F0F8FF15
:1011300094ED150AD4ED130A1748B1EE400A02F0F7
:10114000EFFF144890ED0B0A1448BDEEC00A10EEF4
:10115000101A0181104991ED0B0ABDEEC00A10EE84
:10116000101A4181418A81810D480821006802F0EE
:101170001DFF0C4840210068BDE8104002F016BF7A
:10118000C8000020E03E002094490020D8490020FB
:10119000184300201C4A0020604A0020CC3E00205A
:1011A000900000208800002090F82020012A09D01B
:1011B00090F82020022A05D0416A41F48021416242
:1011C00001207047006842690A434261002070476D
:1011D000F0B590F82040012C07D090F82040022C68
:1011E00003D0416A41F4802153E00468A5686D0191
:1011F00005D4A5682D0102D4A568ED0046D5A468E4
:101200000125C4F30164A5401D608D684FF4C073CF
:101210009DB1CE6835434E6845EAC605066803EBC6
:101220000417F5514FF4C275076805EB04150E69F4
:101230007E51097D012905D009E00E88CD6845EA77
:101240004655EBE701684E5946F480764E511179C8
:10125000D2F805504FF4C67641EA0521056806EB41
:101260000416A9511178D2F801204FF4C47541EA4F
:101270000221026805EB04155151006803EB0411CB
:10128000425842F0010242500020F0BD416A41F450
:10129000001141620120F0BD10B590F82020012A14
:1012A00009D090F82020022A05D0416A41F480211B
:1012B0004162012010BD3A48D0F8002242F00102FC
:1012C000C0F80022D0F8002222F47C52C0F800229C
:1012D000D0F800224B6A42EA0322C0F800220B7DBC
:1012E00001229A40D0F81C329343C0F81C32CB69DB
:1012F000B3B9D0F80C329343C0F80C328C894B68E8
:1013000064F31F434C6900EBC404C4F840320C89F9
:101310000B6864F31F434C6900EBC404C4F8443207
:10132000CB69012B16D1D0F80C321343C0F80C3224
:101330000C884B6864F31F434C6900EBC404C4F889
:1013400040320C89CB6864F31F434C6900EBC40442
:10135000C4F844328B69002BD0F804320ED013430A
:10136000C0F804320B69002BD0F8143208D01343B4
:10137000C0F81432096A012904D008E09343EFE76A
:101380009343F5E7D0F81C121143C0F81C12D0F8B3
:10139000001221F00101C0F80012002010BD000071
:1013A00000640040704730B590F82040012C07D011
:1013B00090F82040022C03D0416A41F4802109E0DA
:1013C00011B1012909D00CE00468E46807E0416A22
:1013D00041F400114162012030BD04682469A40772
:1013E000F5D04FF4D874056804EB01142D5915F0AD
:1013F0000405956005682D5942D0ED0855600568D3
:101400002C59C4F34004D4604FF4DA74056804EB3B
:1014100001142D5905F00F05156105682D59C5F307
:101420000725956105682C59240C54614FF4DC7232
:10143000046802EB0112A4581C700468A458240A22
:101440005C700468A458240C9C700468A258120EA6
:10145000DA704FF4DE72046802EB0112A4581C71BA
:101460000468A458240A5C710468A458240C9C7174
:101470000468A258120EDA7129B1012909D00DE0D1
:101480006D0D1560BBE70068C16841F02001C160C7
:1014900004E00068016941F020010161002030BDD5
:1014A0002DE9F05F0546006800244669D0F80490F5
:1014B0008768D0F80CB0D0F810A0D0F81880F107E9
:1014C00048D0F90714D001218160B80703D5284618
:1014D00000F057FA0CE0780702D54FF4006407E0FB
:1014E000380702D54FF4805402E0284600F048FA4D
:1014F000F80516D529684FF480708860B80503D5C3
:10150000284600F040FA0CE0780502D544F4005477
:1015100007E0380502D544F4804402E0284600F094
:1015200031FAF80316D529684FF480308860B80383
:1015300003D5284600F029FA0CE0780302D544F4DC
:10154000004407E0380302D544F4803402E0284622
:1015500000F01AFA300707D55FEACB6004D5296896
:10156000102044F40074C86070074FF0080707D5D6
:101570005FEA0B7004D52868C760284600F07CF944
:10158000B00706D52868C068800702D0284600F05A
:1015900075F9700607D55FEACA6004D5296810207E
:1015A00044F480640861B00607D55FEA0A7004D588
:1015B00028680761284600F0B3F9F00606D52868C8
:1015C0000069800702D0284600F0ABF9B00308D5C7
:1015D0005FEAC96005D5296810204860284600F0F8
:1015E000A1F9F00307D55FEA097004D528684760C0
:1015F000284600F0CBF9300446D55FEA497040D563
:10160000F00504D55FEAC87001D044F00104B005CC
:1016100004D55FEA887001D544F00204700504D552
:101620005FEA487001D544F00404300529D518F06C
:10163000700F26D008F07000402815D006DC102866
:1016400009D020280AD0302816D10AE050280ED020
:10165000602811D10EE044F008040DE044F01004BD
:101660000AE044F0200407E044F0400404E044F0C1
:10167000800401E044F480742868816921F07001DD
:101680008161296804204860002C05D0686A2043E5
:1016900068622846FFF786FEBDE8F09F70B504003B
:1016A00003D094F8200010B104E0012070BD204662
:1016B00000F082F82068016821F00201016000F06A
:1016C000CDFB0546052604E000F0C8FB401B0A28B8
:1016D00011D8206840688007F6D42068016841F07E
:1016E0000101016000F0BAFB05460BE000F0B6FB1B
:1016F000401B0A2806D9606A40F40030606284F812
:101700002060D2E720684068C007EFD0207E012823
:10171000206801683DD021F080010160607E0128D1
:101720002068016838D021F040010160A07E0128C6
:101730002068016833D021F020010160E07E01289B
:10174000206801682ED041F010010160207F01283F
:101750002068016829D021F008010160607F01281C
:101760002068016824D021F004010160D4E902015D
:101770000843D4E90412114308436168491E084331
:101780002168C86100206062012084F820000020E8
:1017900070BD41F08001C0E741F04001C5E741F074
:1017A0002001CAE721F01001CFE741F00801D4E79A
:1017B00041F00401D9E70000F0B52A4B0768DFF8D3
:1017C000A0C0186803220224092527490026401CCE
:1017D00087B0674519D11860012807D1086840F023
:1017E00000700860086800F0007005908DE85400F3
:1017F000CDE9032569461D4800F052FA0022114642
:10180000142000F0C1FB142026E0DFF864C0674517
:1018100024D10F6847F080670F600F68012807F038
:1018200080670597186007D1086840F0007008606D
:10183000086800F0007005904FF482508DE8510068
:10184000CDE9032569460B4800F02AFA002211462B
:10185000402000F099FB402000F08AFB07B0F0BD6B
:1018600000640040A800002040380240000C024004
:10187000006800400004024070470000244910B591
:1018800088422ED101F1B802224B00212048FFF7F7
:101890008AFD1F481F49B8300068A0F201200728C0
:1018A0001ED2DFE800F0040404040E121900194AE5
:1018B000C0B2121F1070184A00EB001002EB80003B
:1018C0000BE015481349443802E0134811498838A1
:1018D000BDE8104001F0FCBF1048498849BA81803A
:1018E00010BD0D4A0B4BA43A08330021A2F1C400ED
:1018F000FFF759FD0848A43800686528F0D105496C
:1019000006480831BDE81040443004F0F1BA000048
:101910003440002034010020C4410020D442002083
:10192000704770477047000070B5044690F820007B
:10193000012804D0606A40F40020606218E00220B0
:1019400084F820002068016821F00101016000F0A6
:1019500085FA05460EE000BF00F080FA401B0A2819
:1019600008D9606A40F400306062052084F82000E5
:10197000012070BD20684068C007EDD1606270BD75
:101980007047704770477047704770477047000056
:101990002DE9F84304464FF00009CDF80090634864
:1019A0004FF41651A56D0068B0FBF1F72E6894F85E
:1019B0005C10082000FA01F131420FD021680A685A
:1019C00052070BD50A6822F004020A6094F85C10F2
:1019D0008840A860606D40F00100606594F85C107C
:1019E0004FF0010808FA01F0304208D02168496937
:1019F000090604D5A860606D40F00200606594F8A7
:101A00005C1004208840304208D0216809688907AA
:101A100004D5A860606D40F00400606594F85C1027
:101A200010208840304218D021680968090714D571
:101A3000A86020680168490304D50068000308D540
:101A4000A16C07E00168C90503D4016821F0080111
:101A50000160216C09B12046884794F85C10202071
:101A60008840304231D021680968C9062DD5A86068
:101A700094F8350005282068016806D0490347D549
:101A8000006800031DD4616C1CE021F016010160A8
:101A90002068416921F080014161206C08B9A06C87
:101AA00020B12068016821F00801016094F85C1001
:101AB0003F208840A86084F8349084F83580216DF8
:101AC0001FE0E16B09B120468847606D00282BD0EC
:101AD000606DC00714D0052084F8350020680168C7
:101AE00021F0010101600098401C0090B84203D829
:101AF00020680068C007F6D184F8349084F83580F7
:101B0000E16C002910D001B02046BDE8F043084741
:101B10000168C905D5D4016821F01001016084F87D
:101B2000349084F83580CCE7BDE8F883800000204D
:101B30002DE9F041044600F091F906465CB100251C
:101B400084F83450022084F835002068016821F0C0
:101B5000010101600DE00120BDE8F08100F07EF997
:101B6000801B052805D920206065032084F83500F6
:101B7000F2E720680068C007F0D1226811682048A9
:101B80000140D4E901031843D4E903363343184331
:101B900063691843A3691843E3691843236A184328
:101BA0000843616A042903D1D4E90B13194308439C
:101BB000106020684069666A20F0070130460E43D5
:101BC000012704280CD1A06A0643E06A40B12046F0
:101BD000FEF7B0FF20B14020606584F83570BAE7A9
:101BE000206846612046FEF791FF94F85C203F2173
:101BF00091408160656584F835700020ACE7000095
:101C00003F8010F02DE9F0410446866D90F83400D5
:101C1000002501280DD0012084F8340094F8357097
:101C20000020012F07D084F8340002252846BDE8A3
:101C3000F0810220FBE7022784F8357060652046BA
:101C4000FEF7A2FF94F85C103F208840B060206847
:101C5000016841F0160101602068416941F080018E
:101C60004161206C20B12068016841F008010160E9
:101C70002068016841F001010160D7E770B50446B2
:101C800000F0ECF80546601C02D0044800780444DB
:101C900000F0E4F8401BA042FAD370BD0000002021
:101CA0002DE9F84FDFF87CB100224FF001084FF02A
:101CB000030A4FF00F090BF1040E00BF0B6808FA7E
:101CC00002F42340A3426ED14D68022D01D0122DA3
:101CD0000ED1D50800EB850CDCF820505607F70E26
:101CE00009FA07F6B5430E69BE402E43CCF82060D2
:101CF000066855000F790AFA05FC07F0030726EA83
:101D00000C06AF40374307604E68012E05D0022E07
:101D100003D0112E01D0122E0ED18668CF6826EA8C
:101D20000C06AF40374387604668A6430C79C4F37E
:101D30000014944034434460C6688C6826EA0C065C
:101D4000AC403443C4604C68E40065D5364C25682B
:101D500045F480452560246822F0030504F480449E
:101D60000094324C2E19D6F8084895072F0F09FA1F
:101D700007F5AC432E4DA84201D1002524E02D4D9E
:101D8000A84201D101251FE02B4DA84201D1022517
:101D90001AE02A4DA84201D1032515E0284DA8429A
:101DA00002D1042510E037E0264DA84201D10525D7
:101DB0000AE0254DA84201D1062505E0234DA842A1
:101DC00001D1072500E00825BD402543C6F8085885
:101DD000DBF800405D464E689C43F60300D51C438B
:101DE0002C60DEF8004075464E689C43B60300D573
:101DF0001C432C600B4D08352C684E689C43F60242
:101E000000D51C432C60074D0C352C684E689C4354
:101E1000B60200D51C432C60521C102AFFF44EAFB2
:101E2000BDE8F88F003C01404438024000300140DA
:101E3000000002400004024000080240000C024082
:101E4000001002400014024000180240001C024032
:101E50000AB1816170470904FBE70000014880680E
:101E60007047000000000020024881680278114499
:101E700081607047000000200B4810B5016841F4F4
:101E800000710160016841F480610160016841F402
:101E900080710160032000F097F80F2000F006F831
:101EA00000F024F8002010BD003C024070B50D4D3C
:101EB00004464FF47A712878B1FBF0F00A490968BA
:101EC000B1FBF0F000F01AFB48B9102C07D2002249
:101ED0002146501E00F058F800206C6070BD0120B3
:101EE00070BD000000000020800000201F4808B5E1
:101EF000016841F480410160006800F48040009076
:101F00001A48001F016841F080510160006800F02C
:101F100080500090032000F057F8002211466FF027
:101F20000B0000F031F8002211466FF00A0000F0BB
:101F30002BF8002211466FF0090000F025F800226E
:101F40001146501F00F020F800221146101F00F02B
:101F50001BF800220F21901E00F016F800220F211E
:101F6000BDE80840501E00F00FB8000044380240A1
:101F700000F01F02012191404009800000F1E020A3
:101F8000C0F8001170470000F0B40E4B1B680C46FF
:101F9000C3F30223C3F10705042D00D90425191D3D
:101FA000072901D2002300E0DB1E012606FA05F115
:101FB000491E214099409E40761E16403143F0BC98
:101FC00000F065BF0CED00E0064900F0070208686C
:101FD0004FF6FF03184040EA0220034A104308600E
:101FE000704700000CED00E00000FA052DE9F04715
:101FF0000E46050065D0DFF81481D8F80000F7B26E
:1020000000F00F00B04207D288F80070D8F8000046
:1020100000F00F00B04254D128683D4C810712D522
:10202000400703D5206840F4E0502060287800077E
:1020300003D5206840F4604020602068A96820F043
:10204000F000084320602878C0072DD03049686828
:102050000839012812D0022813D0032811D00968AA
:10206000890700292DDA216821F00301014321604D
:10207000FFF7F4FE814641F2883A0EE009688903D1
:10208000EFE709688901ECE7FFF7E8FEA0EB09013B
:10209000514502D90320BDE8F0872068696800F047
:1020A0000C00B0EB810FEFD1D8F80010404601F0E2
:1020B0000F01B14207D90770006800F00F00B0426D
:1020C00001D00120E7E72878400705D52068E968B6
:1020D00020F4E050084320602878000706D52068E7
:1020E000296920F4604040EAC100206000F03CF81B
:1020F0002168084AC1F30311515CC84006490860D1
:102100000F20FFF7D3FE0020C5E70000003C02408F
:1021100008380240F85F000880000020014800688D
:1021200070470000800000200448054900680968E5
:10213000044AC1F38221515CC840704780000020EE
:10214000083802400860000804480549006809682A
:10215000044AC1F34231515CC840704780000020FE
:102160000838024008600008154810B5006810F0F3
:102170000C02144813D04110042A0FD0082A0ED1A3
:102180000F4C241F2268236802F03F025B0207D530
:102190002068C0F38810A0FB010106E0084610BDCE
:1021A0002168C1F38811A1FB00010023FEF766F846
:1021B0002168C1F30141491C4900B0FBF1F010BD99
:1021C000083802400024F4002DE9F84F050076D0CD
:1021D0002878DFF8F8B2BE4CC00749D0DBF8001011
:1021E0005846C1F38101012908D00068C0F381007D
:1021F00002280AD1201D0068400206D5206880030D
:1022000036D568680028E2D032E06868B0F5803FD3
:1022100010D0B0F5A02F206810D020F480302060BE
:10222000206820F4802020606868A0B1FFF716FEC7
:1022300006460CE0206840F48030F4E740F480204B
:102240002060F7E7FFF70AFE801B642873D8206838
:102250008003F7D50CE0FFF701FE064605E000BF5E
:10226000FFF7FCFD801B6428F0D820688003F7D4BA
:102270002878DFF8608280074FF000093ED5DBF850
:102280000010584611F00C0F09D00068C0F381000F
:1022900002280BD18D48001F0068400206D4206838
:1022A000800715D5E868012809D111E0E868B8B1C0
:1022B0000120C8F80000FFF7D1FD064605E002E165
:1022C000FFF7CCFD801B0228C0D820688007F7D517
:1022D0002068296920F0F80040EAC10020600DE084
:1022E000C8F80090FFF7BAFD064604E0FFF7B6FD18
:1022F000801B02281FD820688007F7D428780007A1
:1023000022D5724E744869696C3671B10121016041
:10231000FFF7A4FD074604E0FFF7A0FDC01B02285D
:1023200009D830688007F7D50EE0C0F80090FFF7B5
:1023300095FD074605E083E0FFF790FDC01B0228EE
:102340007ED830688007F7D42878400768D5DFF852
:102350007CA100270AF1380ADAF80000C0000BD48B
:10236000DAF8001041F08051CAF80010DAF80000E5
:10237000012700F080500090584E3068C00510D4FE
:10238000306840F480703060FFF768FD009005E031
:10239000FFF764FD0099401A022851D83068C00543
:1023A000F6D54A4EA868683601280FD0052830684F
:1023B00010D020F001003060306820F00400306060
:1023C000A868B8B1FFF74AFD00900FE0306840F010
:1023D0000100F4E740F004003060F7E7FFF73EFD4E
:1023E0000099411A41F28830814264D830688007F0
:1023F000F4D50EE0FFF732FD009007E0FFF72EFD69
:102400000099411A41F28830814254D830688007DF
:10241000F4D42FB1DAF8001021F08051CAF800107E
:10242000A869C0B3DBF80010C1F3810102294AD0CA
:102430000228484607D0C8F86000FFF70FFD00E00B
:1024400039E005463AE04746C8F86000FFF706FD68
:10245000064604E0FFF702FD801B02282BD8206807
:102460008001F7D4D5E907010843A96A1C4A490845
:1024700002EB01416A6A41EA8211084395F82C1087
:1024800040EA01611148001F016001203866FFF732
:10249000E5FC054605E014E0FFF7E0FC401B0228E0
:1024A00009D820688001F7D50BE000BFFFF7D6FC04
:1024B000401B022802D90320BDE8F88F2068800164
:1024C000F4D40020F8E70120F6E7000008380240C5
:1024D0000038024000004742800E47420070004032
:1024E0000000FFFF4FF0E0210428086903D020F02E
:1024F00004000861704740F00400FAE710B5401E80
:10250000B0F1807F01D3012010BD4FF0E024606165
:102510000F21601700F0BBFC0020A06107202061A4
:10252000002010BD704770B5040004D094F8390045
:10253000002510B106E0012070BD84F83850204617
:1025400000F022F8242084F839002068C16821F4C2
:102550000051C160204600F02FFE2068016921F47F
:10256000904101612068416921F02A0141612068A0
:10257000C16841F40051C160E563202084F839004E
:1025800084F83A00002070BD2DE9F04F054603683D
:1025900063480024DFF88CA102210122032787B0C1
:1025A0004FF0070C834214D1DAF8003043F01003E7
:1025B000CAF80030DAF8000000F010000590780248
:1025C0008DE8871069465848FFF76AFB07B0BDE8F9
:1025D000F08F5448DFF85481001FDFF854E10615EE
:1025E0004FF0006B4FF4807943452CD1036843F4DE
:1025F00000330360006800F40030059060208DE82F
:10260000871069467046FFF74BFB4B4F49483860CF
:10261000C7E901B4C7E903467C61C7E906493C62E2
:1026200038467C62FFF784FA20B140F21F1143A0C4
:1026300001F02AF86F63002205212620BD63FFF711
:10264000A3FC262037E0DFF81081434536D103682C
:1026500043F480230360006800F480200590314833
:102660001438036843F400130360006800F400109A
:1026700005904FF440708DE80700CDE9031C6946D2
:102680007046FFF70DFB2B48344F60383860C7E9C0
:1026900001B4C7E903467C61C7E906493C62384694
:1026A0007C62FFF745FA6F63002205212720BD6396
:1026B000FFF76AFC2720FFF75BFC87E72848834287
:1026C00084D1DAF8003043F02003CAF80030DAF899
:1026D000000000F020000590C0208DE88700082051
:1026E000049069461F48FFF7DBFA204F1E48386008
:1026F0008005C7E90104C7E903467C61C7E90649CB
:102700003C6238467C62FFF713FA6F634720BD6373
:10271000FFF72EFC002205214720FFF735FC55E787
:1027200000100140443802400000024000440040D4
:10273000000C024088600240744800202E2E2F5367
:1027400072632F73746D3332663478785F68616CAE
:102750005F6D73702E630000004800403449002014
:10276000001401400008024028640240D4480020C0
:10277000F8B5044690F83A0020283CD1C1B3BAB36A
:1027800094F83800012836D0012084F83800A1627E
:10279000A2850025E563222084F83A00636B174880
:1027A000D863636B16481864636B1648D864606B13
:1027B000134605650846666B216802463046091DCA
:1027C000FFF720FA206801684168009184F83850CA
:1027D000C16841F48071C1602068416941F0010124
:1027E00041612068416941F0400141610020F8BD2C
:1027F000FFE70120FBE70220F9E700004331000872
:102800007F310008F930000870477047FEE700008C
:102810002DE9F041534E0546DFF84C8196F837001C
:1028200008280FD196F83B0001280BD1B5F83D10D0
:10283000A8F8001095F8401088F80310B5F841107A
:10284000A8F80410474FB837D7F80200C7F80600B9
:102850007079032817D10F21424800F0F7FE0128B4
:1028600011D1E8793870287A7870287B60F31F647A
:10287000E87A60F31744A87A60F30F24687A60F36B
:102880000704C7F802407079042843D11D21354858
:1028900000F0DCFE01283DD1A87A60F31F64687A5D
:1028A00060F31744287A60F30F24E87960F3070493
:1028B0002C4800EE104A983080ED000AA97B61F3A5
:1028C0001F64697B61F31744297B61F30F24E97A64
:1028D00061F3070400EE904AC0ED010AA97D20EEE5
:1028E000800A61F31F64697D61F31744297D61F3F8
:1028F0000F24E97C61F307048460B5F817100183A5
:1029000090ED041A80ED031A80ED040A30EE410ABE
:1029100080ED050A7079072809D10B21114800F0D4
:1029200095FE012803D1B5F80710A8F806107079B4
:10293000082814D119210B4800F088FE01280ED177
:10294000A87D60F31F64687D60F31744287D60F301
:102950000F24E87C60F307040248C230C460BDE87D
:10296000F0810000F44D00206C010020F0EE401AD0
:10297000D0ED030A90ED060AB7EE002A30EE800A89
:1029800080EE801A80ED041A90ED020A71EEC01AF2
:1029900001EE210A32EE411A80ED020AD0ED051A4D
:1029A00041EE201AC0ED031A7047F7EE001AC0ED91
:1029B000001AC0ED011A80ED030AC0ED050A80ED92
:1029C000061A704710B51C481A49002401600321FB
:1029D000C0E901144FF40021C0E903414FF4401154
:1029E0004161047644768476C47604774477FEF7B2
:1029F00055FE18B1272111A000F046FE0E48012116
:102A00005030046044608460C46004614461C0E983
:102A1000064101620E21416201465038FEF73CFC3E
:102A20000548FEF781FFBDE8104002210248FEF78D
:102A3000BBBB000000640040344000202E2E5C53DD
:102A400072635C43616E2E630000000010B51B488A
:102A50001949002401600321C0E901144FF4302119
:102A6000C0E903414461047644768476C4760477F1
:102A70004477FEF713FE18B14A2111A000F004FEBE
:102A80000E480E2150300122046044608460C4600E
:102A9000C0E90441C0E90642C0E9082101465038B6
:102AA000FEF7FAFB0548FEF73FFFBDE810400221A4
:102AB0000248FEF779BB0000006800405C4000203F
:102AC0002E2E5C5372635C43616E2E630000000027
:102AD0000D4808B5016841F400110160016801F476
:102AE00000110091016841F480010160006800223A
:102AF00000F48000009005211020FFF745FABDE8A2
:102B000008401020FFF734BA3038024030B523486F
:102B100087B0016841F004010160016801F004011F
:102B20000591016841F010010160016801F0100198
:102B30000591016841F080010160016801F08001A8
:102B40000591016841F002010160016801F0020194
:102B50000591016841F001010160016801F0010186
:102B60000591016841F00801016000684FF40044DC
:102B700000F0080005900120CDE9004002900320FC
:102B8000074D039069462846FFF78AF8012221463F
:102B90002846FFF75DF907B030BD0000303802402D
:102BA000000002400D4810B50B4901604FF4E131BF
:102BB0004160002181600C22C160C0E90412816182
:102BC000C161FFF7B0FC002805D0BDE810404221EC
:102BD00003A000F059BD10BD001001407447002053
:102BE0002E2E5C5372635C55736172742E63000009
:102BF00010B5134C11484FF480612060114860609B
:102C00000020A060C4E903010421C4E90510E061CB
:102C10002046FFF788FC18B154210BA000F034FDCA
:102C20002068C16841F01001C16005498022BDE8FB
:102C30001040C0390248FFF79BBD0000004400402F
:102C4000B4470020A08601002E2E5C5372635C55B1
:102C5000736172742E63000010B5104C0E480C2185
:102C600020604FF4E13060600020A060E060C4E9C3
:102C70000401A061E0612046FFF755FC2068C168AF
:102C800041F01001C1602046BDE810404FF4806261
:102C90000349FFF76DBD000000480040F4470020E5
:102CA000F44D002010B5124C10480C2120604FF458
:102CB000E13060600020A060E060C4E90401A06130
:102CC000E0612046FFF72FFC18B1782109A000F041
:102CD000DBFC2068C16841F01001C160BDE8104014
:102CE000802208490248FFF743BD0000001401405C
:102CF000344800202E2E5C5372635C5573617274ED
:102D00002E63000057010020F0B5324C324D059F74
:102D1000A04203D92E6846F4800603E02F4C2E68AB
:102D200046F400162E600568ED07FCD1051B182639
:102D3000103DB5FBF6F5EDB23D26062D08D3D4F8CF
:102D40000CC005EB45054FF0EC0E0EEB450507E01A
:102D5000042D0BD3D4F80CC02D1F05EB45056D00D9
:102D6000AE404CEA060CC4F80CC010E0D4F808C021
:102D7000022D05EB450504D34FF0040E0EEB45057F
:102D800000E06D00AE404CEA060CC4F808C082605A
:102D9000C360476000220260026842F040020260A5
:102DA0000268026002680260026842F480620260A7
:102DB0000268026002680260026842F480320260C7
:102DC0000268026002680260026842EA41610160D2
:102DD000F0BD000000640240303802400060024054
:102DE000FEE7000008B540F2DC5001F0BFF81E49D4
:102DF00040F6A20008831D494FF4E16008831C4897
:102E00000221006801F05EF91A480121006801F012
:102E100059F919480321006801F054F901F0B9F893
:102E2000164C174D174E184F4FF400784FF4807919
:102E30000090E068401CE06001F0FEFF00F028FE1A
:102E400002F01AF84146286801F0B0F849463068A7
:102E500001F0ACF80821386801F0A8F805216846AF
:102E600001F08BF8E5E70000804100203C410020A4
:102E70009C000020A0000020A4000020B40000203E
:102E8000940000209800002090000020704709075F
:102E9000090E002806DA00F00F0000F1E02080F8AB
:102EA000141D704700F1E02080F800147047000006
:102EB00010B504462DED048BB0EE418AF0EE608A29
:102EC0000A48E0630A482064B0EE409A204601F0C8
:102ED0009AF9216CB0EE481AF0EE680AB0EE490A91
:102EE000BDEC048B2046BDE81040084707420008AF
:102EF0001542000870B51A4964202DED028BB6EE1C
:102F0000000A9FED188A88624FF4FA63B0EE481AFF
:102F1000F0EE480A1E2203211348FFF7C9FFDFED38
:102F2000138A41F288346500B0EE481AF0EE000AC8
:102F3000B0EE680A23462A4603210D48FFF7B8FF82
:102F4000B0EE481AB0EE680ABDEC028B23462A4662
:102F5000BDE87040F0EE000A03210648FFF7A8BF65
:102F6000F43F002000000000F84B00200000C842A1
:102F70003C4C0020804C0020164810B500780028FA
:102F800026D015480078012802D0032805D102E098
:102F900001F0ECFE01E001F0A7FE1048416A006B71
:102FA000494200EE101AF8EEC00A00EE100A0C4872
:102FB00000F00EFCBDEEC00A0A4910EE100A48826D
:102FC00009484FF480710068BDE8104000F0EEBF82
:102FD00010BD0000E03E0020B4000020F43F0020BF
:102FE0003C4C0020CC3E002098000020012000F046
:102FF000BDFFFBE710B5FEF737FFBDE8104001F05D
:103000002EB8000030B5254893B00025016841F086
:1030100080510160006800F08050119020480168E4
:1030200041F4804101600068022400F48040119066
:10303000012000904FF4A02001906005CDE90640EA
:1030400008AA0420A82182E813000B906846FFF725
:10305000BBF800B1FEE70CA90F2081E831004FF466
:10306000A0500F904FF48050109005210CA8FEF74F
:10307000BDFF00B1FEE7FFF751F84FF47A71B0FBE6
:10308000F1F0FFF73BFA0420FFF72CFA00220F21A2
:10309000501EFEF779FF13B030BD000040380240EB
:1030A000007000401048016841F4700101600F4851
:1030B000016841F0010101600C4A002108321160F1
:1030C00002680B4B1A400260031D0A4A1A6002682C
:1030D00022F48022026005480C3001600249580643
:1030E000803908607047000088ED00E00038024039
:1030F000FFFFF6FE1030002470B5846B2068406935
:1031000094F83910C0F3C0100025212904D118B15A
:10311000E584204600F046F82068406994F83A10AB
:10312000C0F38010222904D118B1E585204600F0B3
:103130002BF8E06B40F01000E0632046FFF7F2F957
:1031400070BD10B50146806B09680968C90513D4C4
:103150000021C1850168CA6822F48072CA600168D2
:103160004A6922F001024A6101684A6922F040027C
:103170004A61202180F83A10FFF746FB10BD10B5D8
:10318000806BFFF742FB10BD0168CA6822F49072A1
:10319000CA6001684A6922F001024A61202180F870
:1031A0003A1070470168CA6822F0C002CA60202144
:1031B00080F83910704700002DE9F041044600689E
:1031C000016921F44052E168114301612168C86836
:1031D00049F20C6290432369A268E5691A43636966
:1031E0002B431A430243CA602168486920F44072A5
:1031F000A06910434861E1696425B1F5004F974823
:10320000974A21684FF032083FD0914201D0814265
:103210007CD1FEF799FF00EBC00101EB0010616863
:103220008900B0FBF1F6FEF78FFF00EBC00101EB68
:10323000001061688900B0FBF1F0B0FBF5F06FF0B1
:103240001801484306EB800108EB0110B0FBF5F0D4
:1032500000F0F006FEF778FF00EBC00101EB001074
:1032600061688900B0FBF1F0B0FBF5F006EB0016E9
:10327000FEF76AFF00EBC00101EB001061688900F6
:10328000B0FBF1F7FEF760FFD2E0914201D081423E
:103290003DD1FEF759FF00EBC00101EB0010616862
:1032A0004900B0FBF1F0B0FBF5F00601FEF74CFF72
:1032B00000EBC00101EB001061684900B0FBF1F7C1
:1032C000FEF742FF00EBC00101EB0010616849000E
:1032D000B0FBF1F0B0FBF5F06FF01801484307EBDD
:1032E000800108EBC100B0FBF5F000F0F80006EB40
:1032F0004006FEF729FF00EBC00101EB00106168FA
:103300004900B0FBF1F7FEF71FFF3CE055E0FEF788
:103310000BFF00EBC00101EB001061684900B0FB3E
:10332000F1F0B0FBF5F00601FEF7FEFE00EBC00188
:1033300001EB001061684900B0FBF1F7FEF7F4FE05
:1033400000EBC00101EB001061684900B0FBF1F037
:10335000B0FBF5F06FF01801484307EB800108EB74
:10336000C100B0FBF5F000F0F80006EB4006FEF7F8
:10337000DBFE00EBC00101EB001061684900B0FB0F
:10338000F1F7FEF7D1FE00EBC00101EB0010616820
:103390004900B0FBF1F0B0FBF5F06FF018014843C5
:1033A00007EB800108EBC100B0FBF5F000F007006F
:1033B000216830448860BDE8F081FEF7B5FE00EB7F
:1033C000C00101EB001061688900B0FBF1F6FEF767
:1033D000ABFE00EBC00101EB001061688900B0FB9F
:1033E000F1F0B0FBF5F06FF01801484306EB8001F7
:1033F00008EB0110B0FBF5F000F0F006FEF794FECC
:1034000000EBC00101EB001061688900B0FBF1F036
:10341000B0FBF5F006EB0016FEF786FE00EBC001F0
:1034200001EB001061688900B0FBF1F7FEF77CFE4C
:1034300000EBC00101EB001061688900B0FBF1F006
:10344000B0FBF5F06FF01801484307EB800108EB83
:103450000110B0FBF5F000F00F00A9E700140140E7
:103460000010014010B51D4C20680168C90634D514
:10347000C168C90631D541680168016821F01001B1
:103480000160606B0068016821F001010160606B00
:1034900000684068124980B26E28088005D1A4F106
:1034A000C001A1F56C70FDF791FC0C498022C03978
:1034B0000A48FFF75DF92068C16841F01001C1605A
:1034C00008493D20C860616B802009684860606BD6
:1034D0000068016841F00101016010BDB44700209F
:1034E000440100200060024010B5164C20680168BD
:1034F000C90618D5C168C90615D541680068606B52
:103500000068016821F001010160606B006840689B
:103510000D4980B20880A0F2FF304042DD2802D879
:103520000A48FFF775F90A493D2088600815616B64
:1035300009684860606B0068016841F00101016042
:1035400010BD0000F447002044010020F44D00208D
:103550000060024070B5374D28680168C90667D51C
:10356000C168C90664D541680068686B0068016875
:1035700021F001010160686B006840682E4E80B246
:103580007928308046D106F113000178AA2941D16B
:103590008179BB293ED130F9011FDFED280A00EE09
:1035A000101AA5F59B64B8EEC00A6180B0F902203C
:1035B000228080EE201A00EE102A84ED041AB8EE64
:1035C000C01A81EE200A84ED030AA18AE182007903
:1035D000A0821B48FFF7CAF9194886ED010A94ED4D
:1035E000040A1C30FFF7C2F986ED020A94ED170AAF
:1035F00084ED160A00F0CDFC00EE100AB8EE400A89
:1036000084ED170A94ED040A84ED090A94ED030A87
:1036100084ED080A0B494FF474600860696B8020E0
:1036200009684860686B0068016841F00101016049
:1036300070BD000034480020440100200000C84252
:103640004C4D002008640240FEE7000030B50C46F7
:10365000050014D0022C12D90A48A11E028828465F
:10366000FDF710FB2919C2B211F8023C9A4206D1AB
:1036700011F8011CB1EB102F01D1012030BD002049
:1036800030BD000060010020FEE702E008C8121F04
:1036900008C1002AFAD170477047002001E001C13B
:1036A000121F002AFBD17047D0ED000AF4EEC00AC9
:1036B000F1EE10FA01DD80ED000AD0ED000AB1EE66
:1036C000400AF4EEC00AF1EE10FA01D280ED000AD1
:1036D000704700009FED1A1AF5EE000A40EE010A4D
:1036E000BDEEE00AF5EEC00A10EE100AF1EE10FA97
:1036F00000D2401E00EE100A1349F7EE001AB8EE91
:10370000C00A30EEC00ADFED0F0A20EE200AFCEE00
:10371000C00A10EE900AC0F3080000EE900A01EB18
:103720008000F8EE600A90ED011A70EE600A90EDEC
:10373000000A71EEE01A21EE800A00EE810A70475D
:1037400083F9223E0000004494600008DFED1D0A6A
:10375000B5EEC00A60EE200ABDEEE01A11EE100AC6
:10376000F1EE10FA00D2401E00EE100AB8EEC00AC8
:1037700030EEC00ADFED140A20EE200A10EE100A27
:10378000B0F1884F01DB30EE600A1049F7EE001A05
:10379000FCEEC00A10EE900AC0F3080000EE900A9A
:1037A00001EB8000F8EE600A90ED011A70EE600AFD
:1037B00090ED000A71EEE01A21EE800A00EE810A17
:1037C0007047000083F9223E000000449460000826
:1037D00000B580ED040A30EEC00AC0ED030A0146D0
:1037E00080ED070AF0EEE00A10EE900AB0F17E5F7D
:1037F00003DADFED360AC1ED090A086BD1ED060ADE
:1038000001F12C02032802D0042827D053E091EDC7
:10381000001A01F1240021EE001A81ED081A91ED41
:10382000091AD1ED011A01EE801A30EE600A81ED1D
:10383000091AD1ED020A20EE200A81ED0A0A91ED63
:103840000E0AB8EE400AFFF72FFF91ED080AD1EDFE
:10385000090A30EE200AD1ED0A0A21E030EE601AA2
:10386000D1ED001AB0EE002A21EE211A81ED081ADE
:10387000D1ED011A61EE801A00EEC20AC1ED091AFB
:10388000D1ED050A30EE200AD1ED020A20EE200A21
:1038900071EE210A81ED0A0A30EE800AD1ED0B0AA1
:1038A000104630EE200A81ED0B0A91ED0D0AB8EEBC
:1038B000400AFFF7F9FE91ED060A81ED050A91ED48
:1038C000070A81ED060A91ED0B0A00BD0000000019
:1038D00010B502884280098841F664144BBA03800F
:1038E000991A8268A14204DD521EA1F5005182603E
:1038F00007E041F66414E14203DA521C01F500517D
:103900008260016203EB4231028BDFED080A891A03
:10391000C16090ED040A80ED050A00EE101AB8EEC1
:10392000C00A80EE201A80ED041A10BD610BB6416A
:1039300010B510EE103A03608168C26800EE101AEC
:1039400000EE902A446830EE201A00EE101AC0EE05
:10395000010A00EE104A20EE801A00EE101A00EE66
:10396000902A70EE201A00EE102AC0EE210A00EE16
:10397000103A00EE801A11EE101A416010BD10EEE0
:10398000101AC16010EE901A816000210160416040
:103990007047000070B5364C364894ED0A0AFEF7C1
:1039A000E5FF344884ED0A0A94ED030A1C30FEF763
:1039B000DDFF304884ED030A94ED090A3830FEF744
:1039C000D5FF2C4884ED090A94ED020A5430FEF725
:1039D000CDFF294D84ED020A287820B1012827D097
:1039E000022825D03BE0254E254996ED040A10EE2D
:1039F000100A884205DDDFED230A30EE600A86ED0D
:103A0000040A214801F02CF8D6ED040A1F4820EEE4
:103A1000200A85ED020A01F023F8D4ED020A20EE17
:103A2000200A85ED010A94ED030A85ED070A16E0E8
:103A3000D4ED030A95ED071AC821144870EEC10AA7
:103A4000C5ED020AD5ED060A30EE600A85ED010AE1
:103A500001F022F84FF47A710B4801F01DF801F0E3
:103A600083F800F029F9BDE87040FDF73DBA000089
:103A700018430020844D0020E03E002080410020BB
:103A800000007A430000B443E0000020CC00002096
:103A900070B51748012290F909101648012904D081
:103AA000022902D0032902D003E0027001E00321C1
:103AB0000170C168C823B1FBF3F403FB14143CB9D3
:103AC000D0E901560C4CB54200D0002284F85C20AD
:103AD0006422B1FBF2F402FB1412002A07D1B1FBFD
:103AE000F3F203FB1211002901D04168816070BD1F
:103AF00044430020B4000020E03E0020EFF30580A6
:103B0000002800D0012070470B480D4990ED010AB4
:103B100080ED110A90ED020A80ED100A9FED070A70
:103B200080ED0F0A80ED0E0A0968B1F57A6F01D9B0
:103B30000121017070470000E03E002000000000FD
:103B4000C80000202DE9F0414F4D2DED028B297862
:103B500000296FD04D48007803286BD14C484D4F59
:103B60004D4C0278B88AB3EE0E8A012A0AD0C206FA
:103B70009FED4A0A09D5DFED4A0AC4ED020A84ED39
:103B8000030A06E084ED028A01E084ED020A84ED76
:103B9000038A444EC107DFED448A05D0434800F054
:103BA0005FFFD4ED020A08E080070BD53F4800F024
:103BB00057FFD4ED020AF1EE600A20EE200A86EDEE
:103BC000030A05E0C6ED038A6421384800F064FF6B
:103BD000B88A410707D5364800F042FFD4ED030A02
:103BE000F1EE600A06E0000709D5314800F038FF21
:103BF000D4ED030A20EE200A86ED040A05E0C6EDA6
:103C0000048A64212A4800F047FFB88AB0EE080A07
:103C1000410610D5217801290DD02978032904D037
:103C2000D5ED0E0A30EE800A11E0BBEE0E0A86EDED
:103C3000050A14E022E001060FD5217801290CD0F5
:103C40002978032906D0D5ED0E0A30EEC00A85ED9D
:103C50000E0A04E086ED058A01E0C6ED058A8006BD
:103C60000CD5144861680068411AB1F5AF7F05D9D9
:103C700060602878012805D001202870BDEC028BF7
:103C8000BDE8F0810220F8E7E03E0020B40000200B
:103C9000C400002044430020F40000200000204223
:103CA00000007042483F0020000000000801002092
:103CB0001C010020C80000202DE9F04F664869492A
:103CC000DFF898910578664A8C8A4FF000081DB19C
:103CD000654B1B78032B2FD0A1F80A80A1F80C802C
:103CE0008B466249624E270509684FF4AF7A4FF060
:103CF000030C4FF0010307D53768CF1B574503D995
:103D00003160012D75D00370E4050DD534680C1BAE
:103D1000544509D9316004785649012C6AD00370A2
:103D200081F800C082F894839BF81300012871D0B9
:103D300089F80080BDE8F08FB1F90A306FF07F0696
:103D4000B34201DC4E8103E0802B01DB80234B81F9
:103D5000B1F90C306FF01106B34201DC8E8103E043
:103D6000202B01DB20238B81434B5E68761C32279E
:103D7000B6FBF7FC07FB1C6C5E6002EB8C0C90ED55
:103D8000022A8CED1B2AB6FBF7FC07FB1C6602EB34
:103D90008606D0ED011AC6ED801A99F800609FEDF5
:103DA000370A9FED371A012E03D1364E7679012E50
:103DB00021D0294B032DD3ED0F0A0DD0042D8FD028
:103DC00082ED1A1AB1F90A3090ED0E1A01EE903A0E
:103DD000F8EEE11A01EEC01A80ED0E1AB1F90C30BE
:103DE00001EE103AB8EEC11A41EE000AC0ED0F0A1A
:103DF00076E723E025E0204F6606D7ED000A02D5DE
:103E000030EE800A03E0260605D530EEC00A83EDC9
:103E1000000A02E01CE083ED001A92ED040A31EE84
:103E2000800A80ED0F0A92ED030AD3ED000A32EE0C
:103E3000000A30EE200A80ED0E0A51E780F800C03B
:103E400062E7042404700620087082F894336BE75C
:103E500089F800306EE70000E03E0020F40000200A
:103E60005C43002044430020B4000020C800002030
:103E7000F8000020F43F0020AC0000200AD7233CCB
:103E8000000000005701002070B5124B4FF00001F8
:103E90004FF00102988A84050F480CD50F4C256815
:103EA0000F4C2668AE1BB6F5AF7F04D92560447A67
:103EB000012C04D042729B7C012B02D004E04172A1
:103EC000F9E7437A012B02D080F8381070BD80F8F2
:103ED000382070BD44430020F43F0020C80000207B
:103EE000F800002008B5FDF7C7FF40F2DC50FDF7F1
:103EF000C5FEFFF787F8FEF709FEFEF7E9FDFEF7BE
:103F000051FEFEF75FFDFEF7A1FDFEF771FEFEF725
:103F1000A3FEFEF7C7FEFDF737F8FCF74BFCFEF7F4
:103F2000E9FF15200090054B054A04210548FEF7DE
:103F3000EBFEFCF73FFE00F027F8FEE7C44C002044
:103F400004100140B864024001460020842900D0DA
:103F5000C81C7047044890ED010A80ED110A90EDED
:103F6000020A80ED100A7047E03E002010B500B94B
:103F7000012001F033F8002010BD10B501B9012176
:103F800001F052F8002010BD10B501F021F9002019
:103F900010BD10B5FFF7B2FD18B1BDE8104001F03B
:103FA00091BDBDE8104001F087BD0000FEB506469A
:103FB00000200D4602900190FFF7A0FD4FF0004455
:103FC00098B102A8009001AB01222946304601F0C9
:103FD000EDFC012811D1029888B10A49E008086077
:103FE000BFF34F8FBFF36F8F09E001AB012229466A
:103FF000304601F075FC012801D02046FEBD019835
:10400000FEBD000004ED00E0FEB5002506460F46AB
:104010002C460195501C06D002B11446FFF76EFDE8
:1040200020B1822015E04FF0FF34F7E723463946F0
:10403000002001AA01F0B2FD012804D00CB14020FB
:1040400007E0009506E00198002801DA862000E0EC
:10405000082000909DE8070086E80700FEBD10B527
:1040600001F01CFD012803D0BDE8104001F08EB91D
:1040700010BD3EB504460D46B0F90800FFF764FFD9
:1040800002A9CDE90001208A2B4682B2D4E90010B2
:1040900001F0FAFB012801D000203EBD02983EBD90
:1040A00008B500680090012907D000201346024699
:1040B000012103A001F0A0FE08BD0120F6E70000E9
:1040C000000000002DE9FC41002507462E46019521
:1040D0000C0000D10124FFF711FD009690B101AB57
:1040E00022460921384601F0D3FE012812D1019859
:1040F00088B10A494FF080500860BFF34F8FBFF37B
:104100006F8F08E0002322460421384601F0C0FEEC
:10411000012800D0FF252846BDE8FC8104ED00E021
:1041200000B580ED040A30EEC00A0146C0ED030A76
:1041300080ED070A006BD1ED060A01F12C0203287D
:1041400002D0042827D053E091ED001A01F1240099
:1041500021EE001A81ED081A91ED091AD1ED011A2C
:1041600001EE801A30EE600A81ED091AD1ED020AE3
:1041700020EE200A81ED0A0A91ED0E0AB8EE400AFF
:10418000FFF792FA91ED080AD1ED090A30EE200A04
:10419000D1ED0A0A21E030EE601AD1ED001AB0EE3E
:1041A000002A21EE211A81ED081AD1ED011A61EEE3
:1041B000801A00EEC20AC1ED091AD1ED050A30EEEF
:1041C000200AD1ED020A20EE200A71EE210A81EDCB
:1041D0000A0A30EE800AD1ED0B0A104630EE200AB2
:1041E00081ED0B0A91ED0D0AB8EE400AFFF75CFA7B
:1041F00091ED060A81ED050A91ED070A81ED060AA7
:1042000091ED0B0A00BD00F1300C8CE80E0080EC43
:10421000030A704780EC030A9FED050A80ED080A47
:1042200080ED090A80ED0A0A80ED0B0A7047000054
:10423000000000002DE9F041184C0F460546E668E5
:104240002068001D00F0B4FD38B9206890F82C10EB
:1042500001208840216981432161681C07D137B161
:104260002168BDE8F0410E48091D00F0D9BD206865
:104270003544B5424560216805D2A06BBDE8F041E8
:10428000091D00F0B5BD606B091D00F0B1FDA06A0D
:10429000854200D2A562BDE8F08100003000002018
:1042A000903E00202DE9F041054600F0C5FD2E4C62
:1042B000A068401CA06020682C4F10B1606940B31A
:1042C0002DE02560A068012829D1002606EB860094
:1042D00007EB800000F07EFD761C072EF6D3234806
:1042E0008C3000F077FD2148A03000F073FD1F48AE
:1042F000B43000F06FFD1D48C83000F06BFD1B4866
:10430000DC3000F067FD19488C3060631430A06326
:1043100005E02068E96AC06A884200D82560606AC2
:10432000401C60626864E96A012022698840104389
:10433000206101EB810007EB8000291D00F070FD7A
:1043400000F09AFD606900280CD02068E96AC06A14
:10435000884207D206494FF080500860BFF34F8F64
:10436000BFF36F8FBDE8F08130000020B43D002026
:1043700004ED00E010B500F05FFD0E4C2068A0B920
:104380000D4800F027FD0C48143000F023FD0A48CA
:10439000E0601430206100220C210A2001F00CF8AA
:1043A000206010B105A100F0E3FDBDE8104000F071
:1043B00063BD00006C000020A43E0020546D7251CB
:1043C0000000000070B5114E114C17E000F038FFEE
:1043D0003068B8B101F0AEFC00F02EFDF068C568A1
:1043E000281D00F0E5FCA068401EA0606068401E2B
:1043F000606000F041FD284600F055F86068002834
:10440000E4D170BD01F096FCF8E700007C3E00208E
:104410003000002030B4026C0B46002A0BD0C1687B
:104420001144C1604468A14201D30168C16030BC3D
:104430001846FBF754BF30BC70472DE9F041856B3F
:10444000174604460026026C82B1C7B1E068FBF74C
:1044500046FFE168206C091AE1602268914202D2AD
:104460006168081AE060022F16D017E02068A8B92A
:10447000606801F0D9FB0646002060600EE0A0688D
:10448000FBF72DFF216CA0680844A060616888429A
:1044900004D32068A06001E005B16D1E6D1CA5630A
:1044A0003046BDE8F08110B50446006B00F0F8FC22
:1044B0002046BDE8104000F0F3BC000010484FF467
:1044C0007051420706D0C01D0D4920F00700411A67
:1044D000C1F570510B4A00230144C2E900030839B9
:1044E000103A21F0070111604B600B600B1AC0E914
:1044F000001393604FF000405360D060704700009D
:10450000740100201C000020074C4FF08056074D1E
:10451000FFF758FF20680128FAD92E60BFF34F8FAC
:10452000BFF36F8FF4E70000B43D002004ED00E01E
:104530002DE9F0470E46DDE90984174682469100D1
:104540009946089DA522206BFBF7DBFE6FF0030167
:10455000206B01EB8701084420F00707780707D09C
:10456000502080F31188BFF34F8FBFF36F8FFEE7AA
:104570002218315C82F83410315C11B1401C1028D3
:10458000F6D3002684F84360072D00D30625E562A4
:10459000C4E91356201D00F028FC04F1180000F0B7
:1045A00024FC2461C5F107006462A061666584F89B
:1045B00058604A465146384600F03CFA2060B8F14F
:1045C000000F01D0C8F80040BDE8F08730B51149B0
:1045D00000E011460A688242FBD34B685C188442B3
:1045E00003D1406818444860084643681C18944248
:1045F00009D1084C103C2468A24209D052681A44E0
:1046000042600A6812680260814200D0086030BDD2
:104610000460F9E71C00002070B5002441600B4DD8
:104620000061914206D8D11A8269914206D2011DD9
:10463000286907E09A4203D2994201D3012403E09A
:10464000011DE86800F0D4FB204670BD6C0000201E
:1046500010B5044600F0F0FBA06B28B15FF0000439
:1046600000F00AFC204610BD0124F9E730B587B000
:104670002B4D4BE00498002848DB069C606910B184
:10468000201D00F095FB02A800F0B6F80246049841
:104690000A283BD2DFE800F00505053A2637050574
:1046A0003A260598A169034601442046FFF7B4FF66
:1046B00000B3616A20468847E069012826D10020BE
:1046C00000900598A169002342181946204601F080
:1046D000DFFB78B9502080F31188BFF34F8FBFF311
:1046E0006F8FFEE70598A06128B181181346204618
:1046F000FFF792FF0AE0502080F31188BFF34F8F3D
:10470000BFF36F8FFEE7204600F0CAFB00231A4676
:1047100004A9286800F07AFE0028ABD107B030BDAC
:104720006C0000202DE9FC410F46054600F088FD95
:1047300001A800F061F80446019818B101F0FAFAF6
:10474000BDE8FC81224EAFB130690068A8B30027F4
:10475000291B3A46306800F01FFC01F0EBFA0028F4
:10476000EED11C494FF080500860BFF34F8FBFF36C
:104770006F8FE5E7A542EBD801F0DCFAF068274639
:10478000C068C468201D00F013FBE069012810D147
:10479000A0692B4641193A462046FFF73DFF40B13C
:1047A00000200346014600902A46204601F070FB97
:1047B00020B1616A20468847C2E707E0502080F3B5
:1047C0001188BFF34F8FBFF36F8FFEE70127BFE75D
:1047D0006C00002004ED00E00648416B096829B137
:1047E000416BC968C9684968816270474FF0FF3101
:1047F000FAE700003000002070B5054601F05CF9D2
:10480000064E0446B068844203D200F009F8012045
:1048100000E0002028602046B46070BD6C000020DD
:10482000F8B5194D1FE0C068C4680668201D00F087
:10483000BFFA616A20468847E069012813D1A06960
:104840003044B04206D924616060211DE86800F060
:10485000CFFA08E000200346014600903246204689
:1048600001F016FB38B1E86801680029DBD129693D
:10487000C5E90310F8BD502080F31188BFF34F8FB6
:10488000BFF36F8FFEE700006C000020084840680F
:10489000401C4FF0500080F3118804D0BFF34F8FBD
:1048A000BFF36F8FFEE7BFF34F8FBFF36F8FFEE74E
:1048B00024000020074CE068016841B1C068002175
:1048C000D0F80000FFF72EFFFFF7D0FEF3E701213D
:1048D0000020F7E76C0000202DE9F041044600F0CD
:1048E000ABFA94F9455004F1240609E0606A48B136
:1048F000304601F0E5F908B100F0DCFB6D1E6DB249
:10490000002DF3DC4FF0FF3684F8456000F0B4FA78
:1049100000F092FA94F9445004F1100709E020697C
:1049200048B1384601F0CCF908B100F0C3FB6D1E68
:104930006DB2002DF3DC84F84460BDE8F04100F076
:104940009BBA00002DE9F0410546002700F078FCF5
:10495000314E306808B9FFF7B1FDF06805424BD120
:10496000C5B3083568070ED005F00700C0F1080090
:104970000544680707D0502080F31188BFF34F8F9C
:10498000BFF36F8FFEE72DB37068854234D822489D
:10499000103001460C6801E020460C466168A942CF
:1049A00002D221680029F7D131688C4224D00768EF
:1049B0002168016060680837411B10290FD9601910
:1049C000420708D0502080F31188BFF34F8FBFF308
:1049D0006F8FFEE710E041606560FFF7F7FD6168EB
:1049E0007068401A7060B268904200D2B060F0689F
:1049F00001430020C4E9000101F09CF9780707D0C9
:104A0000502080F31188BFF34F8FBFF36F8FFEE705
:104A10003846BDE8F08100000C0000200449086819
:104A200018B10868026D521C0265086870470000E2
:104A30003000002010B5031F4FF080741C601B1F56
:104A400021F001011960191F044B0B6014390A6031
:104A5000091F6FF0020244380A6010BD8D4800083B
:104A60004168002902DC9FED0B0A70470268531C65
:104A700003608A4200DB016090ED000AF8EEC00A94
:104A800000EE101AB8EEC01A80EE810A80ED020A1C
:104A900070470000000000000022C0E900217047BC
:104AA00070B527482DED048B007800282CD02548C0
:104AB0000078012828D124482449254D0278B1F9ED
:104AC0000200B1F90040012A21D0FBF70DFD9FED56
:104AD000218B53EC182BFBF726FC9FED209B53EC0E
:104AE000192BFBF792FCFBF723FDE8602046FBF750
:104AF000FBFC53EC182BFBF716FC53EC192BFBF7C4
:104B000084FCFBF715FD2861BDEC048B70BD00EE45
:104B1000100AB3EE0E1ADFED130AB8EEC00A20EE4B
:104B2000010AC0EE201A00EE104AB8EEC00A20EECC
:104B3000010A80EE201AC5ED031A85ED041AE3E799
:104B4000E03E0020B4000020C400002044430020C8
:104B5000483F00200000000000004E400000000020
:104B600000A084400000254412480178002920D08C
:104B70001149097801291CD1104990ED0E0A9FEDC9
:104B8000101AB1F9042000EE902AF8EEE00A00EEC7
:104B9000C10A9FED0C1A80ED0E0AB1F9061090EDD6
:104BA0000F0A00EE901AF8EEE00A00EEC10A80ED5E
:104BB0000F0A7047E03E0020B4000020444300206C
:104BC0006F12833A17B7D13805480078012805D10C
:104BD00004480549027A4A72407A0870704700001A
:104BE000B400002044430020F43F00207CB5124C68
:104BF0000025E560A5604FF4007525600825256156
:104C0000040A8DF800408DF80100080A8DF80200B2
:104C1000100A8DF804008DF80520180A8DF803108D
:104C20008DF8060004498DF8073001236A46A1F18A
:104C3000A000FCF7CDFA7CBDD4400020B0F90630CE
:104C4000B0F90420B0F90210B0F90000FFF7CEBFB0
:104C500008B50B4900220123CA608A6008220A6154
:104C600040F249120A60010A8DF8001004498DF8DB
:104C700001006A46A1F1A000FCF7AAFA08BD0000F5
:104C8000D44000207CB5124C002340F2FF15E360B5
:104C90002560A36008252561040A8DF800408DF881
:104CA0000100080A8DF80200100A8DF804008DF842
:104CB00005208DF803108DF8063005498DF8073072
:104CC00001236A46A1F1A000FCF782FA7CBD000036
:104CD000D4400020B0F90420B0F90210008840420E
:104CE00000B2FFF7CFBF000010B51E4C607A01285C
:104CF00002D040F6B83008E01B48808A000402D594
:104D00004FF4965001E041F23010FFF7A1FF94F804
:104D10003800012801D0002014E0A178022915D024
:104D20006FF00500032907D06421A162B4F80710D1
:104D3000C90507D4801005E0B4F80710C90501D5EE
:104D40006FF00E0060620120607010BDD220A06282
:104D5000B4F80700C00502D56FF00900F2E76FF064
:104D60000300EFE7F43F00204443002010B50F4C50
:104D7000607A012809D00020C4F83A006062BDE8DA
:104D8000104040F6B830FFF763BF54F83A0F401CAC
:104D9000206041F23010FFF75BFF54F83A09B0F59C
:104DA000487F02D96FF00B00606210BDF43F002015
:104DB000D0E9013201699A60D0E901235A604A685A
:104DC000824201D182684A60002202610868401E66
:104DD0000860704700F108014FF0FF32C0E901128E
:104DE000C1600161002101607047002101617047CD
:104DF00030B50B685A1C02D000F1080202E00269CB
:104E000004E02246546825689D42FAD953684B60F5
:104E100099608A60516008610168491C016030BD79
:104E200042684A6093688B6093685960916008613A
:104E30000168491C01607047502080F31188BFF35E
:104E40004F8FBFF36F8F0A494868401C48600128A4
:104E50000CD10848006810F0FF0F07D0502080F3F5
:104E60001188BFF34F8FBFF36F8FFEE770470000CD
:104E70002400002004ED00E00849486828B1401EE5
:104E8000486001D180F311887047502080F3118869
:104E9000BFF34F8FBFF36F8FFEE7000024000020A9
:104EA00070B5002827D0144DA0F108046168E868A7
:104EB000014207D1502080F31188BFF34F8FBFF319
:104EC0006F8FFEE722683AB1502080F31188BFF35C
:104ED0004F8FBFF36F8FFEE78143616000F0B0F941
:104EE00060686968084468602046FFF76FFBBDE8AA
:104EF000704000F01FBF70BD0C00002006484FF44A
:104F00007A710068B0FBF1F14FF0E020491E416179
:104F100007210161704700008000002010B5FBF7F9
:104F200097F9114910280ED300F1E02090F8F00312
:104F30000A78904207D2502080F31188BFF34F8F38
:104F4000BFF36F8FFEE709480068896800F4E060EE
:104F5000884207D9502080F31188BFF34F8FBFF3E9
:104F60006F8FFEE710BD0000240000200CED00E074
:104F700010B5084B002200BF53F832401CB1521C40
:104F8000082AF9D310BD43F8321003EBC201486080
:104F900010BD0000743D002070B515460E46044655
:104FA000FFF74AFF94F944100020491C01D184F80E
:104FB000440094F94510491C01D184F84500FFF7DD
:104FC0005BFFA06B28B92A46314604F1240000F0AB
:104FD0008FF82046BDE87040FFF77EBC10B5020098
:104FE00014D00F48006B38B1502080F31188BFF304
:104FF0004F8FBFF36F8FFEE700F022F900211046BC
:10500000FFF718F900F096FE002807D105494FF088
:1050100080500860BFF34F8FBFF36F8F10BD00004B
:105020003000002004ED00E070B50D4604000BD008
:1050300095B11E4A106BB8B1502080F31188BFF3B0
:105040004F8FBFF36F8FFEE7502080F31188BFF3BF
:105050004F8FBFF36F8FFEE7502080F31188BFF3AF
:105060004F8FBFF36F8FFEE700F0EAF8D268236836
:105070005919934204D98B420AD9914202D807E0C8
:105080008B42FAD9881A21600021FFF7D3F800E09B
:10509000216000F04FFE002807D105494FF08050F5
:1050A0000860BFF34F8FBFF36F8F70BD30000020DB
:1050B00004ED00E001490120C86170473000002084
:1050C00010B50C4650B1094909681831FFF790FE38
:1050D0002046BDE810400121FFF7ACB8502080F316
:1050E0001188BFF34F8FBFF36F8FFEE730000020B2
:1050F00070B514460D4668B10A4909681831FFF7C2
:105100008FFE0CB14FF0FF3521462846BDE87040B8
:10511000FFF790B8502080F31188BFF34F8FBFF393
:105120006F8FFEE73000002070B5040039D01D4DB0
:10513000E06A2968C96A884233D2A069002804DB82
:105140002868C06AC0F10700A061E16A164E01EB51
:105150008101606906EB810188421FD1201DFFF7A4
:1051600027FE012150B9E06A00EB800256F82220A8
:1051700022B92A6901FA00F082432A612868C06ACC
:10518000E0622A6981401143296100EB800006EB4F
:105190008000211DBDE87040FFF742BE2868C06A4C
:1051A000E06270BD30000020B43D002028B1074906
:1051B0000A6A0260C96841607047502080F3118814
:1051C000BFF34F8FBFF36F8FFEE70000300000206A
:1051D0001CB517480024CDE900402346802215A1C4
:1051E000164800F051FB012803D100F02DFE0128E4
:1051F00009D0401C1AD1502080F31188BFF34F8F83
:10520000BFF36F8FFEE7502080F31188BFF34F8FFD
:10521000BFF36F8F06484FF0FF312C3881620121B8
:105220004161C460BDE81C4000F040B81CBD0000F6
:105230005C00002049444C4500000000094500087E
:105240000248016B491C01637047000030000020D8
:105250001448016B11B10121C16170470021C16186
:105260000169B1FA81F1C1F11F0101EB81020E491F
:1052700051F822306BB101EB820101F108034A6859
:1052800052684A609A4201D152684A60D16801600E
:105290007047502080F31188BFF34F8FBFF36F8F9B
:1052A000FEE7000030000020B43D00201CB532486D
:1052B0000168324A914207D1502080F31188BFF330
:1052C0004F8FBFF36F8FFEE700682C49491E88425D
:1052D00007D1502080F31188BFF34F8FBFF36F8F3A
:1052E000FEE7274908780190FF20087008788DF8BC
:1052F00000009DF800009DF8002000F0F0009042B2
:1053000007D0502080F31188BFF34F8FBFF36F8F0A
:10531000FEE79DF800001B4A00F0500010700720C7
:10532000906005E09DF800305B008DF80030401E75
:105330009DF800301B06F5D4000200F4E060906098
:10534000019808700C482030016841F47001016038
:10535000016841F070410160FFF7D0FD002050600E
:10536000FAF73CFF0848016841F040410160FAF754
:1053700025FF00201CBD000000ED00E071C20F41C0
:1053800000E400E02400002034EF00E010B55020DD
:1053900080F31188BFF34F8FBFF36F8F00F09AFB3C
:1053A00018B104494FF080500860002080F3118844
:1053B00010BD000004ED00E02DE9F04117460E4657
:1053C000050016D0EEB105FB06F05030FFF7BAFA33
:1053D00004000CD004F15000AEB12060C4E90F56B7
:1053E0002046012100F0C8F8204684F84C70BDE842
:1053F000F081502080F31188BFF34F8FBFF36F8F80
:10540000FEE70020E1E72460E8E700002DE9FF4F18
:10541000002683B09B468A46040003D0BAF1000FF1
:1054200008D011E0502080F31188BFF34F8FBFF3F5
:105430006F8FFEE7206C38B1502080F31188BFF3E6
:105440004F8FBFF36F8FFEE700F028FBDFF824815A
:105450004FF000094FF0805748B9059838B15020F7
:1054600080F31188BFF34F8FBFF36F8FFEE7FFF715
:10547000E3FCA56B45B351462046E668FEF7CAFF3C
:10548000BBF1000F13D0E660606A50B104F1240054
:1054900000F016FC28B1C8F80070BFF34F8FBFF3BF
:1054A0006F8FFFF7E9FC012007B0BDE8F08F6D1E9C
:1054B000A563206810B9FFF7B1FA60602069002881
:1054C000EFD004F11000E3E7059808B11EB106E043
:1054D000FFF7D2FC27E06846FFF768FE0126FFF7DA
:1054E000CBFCFFF7ADFEFFF7A7FC94F94400401C8E
:1054F00001D184F8449094F94500401C01D184F80E
:105500004590FFF7B9FC05A9684600F087F9002827
:1055100020460AD0FFF7E0F900F00CFC2046FFF728
:1055200097F80028A3D00020BEE7FFF791F8D8B184
:10553000206830B9FFF780FC6068FFF7F5FDFFF7E2
:105540009BFC04F124000599FFF7BAFD2046FFF704
:10555000C3F900F0EFFB002889D1C8F80070BFF351
:105560004F8FBFF36F8F82E72046FFF7B5F900F04A
:10557000E1FB7CE704ED00E070B50D46040025D0AA
:10558000FFF75AFCD4E90F20216802FB001161608B
:105590000021A1632168A1600A46D4E90F01401EE1
:1055A00000FB0121E16021464FF0FF3001F8440F7C
:1055B000487004F110008DB1FFF70CFC04F12400D9
:1055C000FFF708FCFFF758FC012070BD502080F366
:1055D0001188BFF34F8FBFF36F8FFEE7216900295A
:1055E000F0D000F06DFB0028ECD004494FF0805063
:1055F0000860BFF34F8FBFF36F8FE3E704ED00E068
:105600002DE9FF4782B01D468A464FF0000804008E
:1056100003D0BAF1000F08D011E0502080F31188B8
:10562000BFF34F8FBFF36F8FFEE7206C38B1502070
:1056300080F31188BFF34F8FBFF36F8FFEE7022D0A
:105640000AD1E06B012807D0502080F31188BFF306
:105650004F8FBFF36F8FFEE700F020FA3F4F4FF000
:1056600000094FF0805648B9049838B1502080F3B3
:105670001188BFF34F8FBFF36F8FFEE7FFF7DCFB9F
:10568000A06BE16B884207D3022D05D00498D0B1FE
:10569000B8F1000F1AD01EE02A4651462046FEF708
:1056A000CCFE616A19B104F1240000F009FB20B1BD
:1056B0003E60BFF34F8FBFF36F8FFFF7DDFB01201D
:1056C00006B0BDE8F087FFF7D7FB22E06846FFF79A
:1056D0006DFD4FF00108FFF7CFFBFFF7B1FDFFF7BE
:1056E000ABFB94F94400401C01D184F8449094F938
:1056F0004500401C01D184F84590FFF7BDFB04A98B
:10570000684600F08BF830B12046FFF7E5F800F06E
:1057100011FB0020D4E7FFF78FFBA06BE16B884201
:1057200013D1FFF7A9FB04F110000499FFF7C8FC9F
:105730002046FFF7D1F800F0FDFA00289ED13E6028
:10574000BFF34F8FBFF36F8F98E7FFF795FB2046AE
:10575000FFF7C2F800F0EEFA90E7000004ED00E079
:105760002DE9F0471F4690468946040003D0B9F161
:10577000000F08D011E0502080F31188BFF34F8F45
:10578000BFF36F8FFEE7206C38B1502080F3118893
:10579000BFF34F8FBFF36F8FFEE7022F0AD1E06B8D
:1057A000012807D0502080F31188BFF34F8FBFF33B
:1057B0006F8FFEE7FFF7B2FB5020EFF3118680F307
:1057C0001188BFF34F8FBFF36F8FA06BE16B8842DF
:1057D00006D3022F04D0002086F31188BDE8F0879D
:1057E00094F945503A4649462046FEF726FE681C85
:1057F00004D06D1C84F845500120EDE7606A002854
:10580000FAD004F1240000F05BFA0028F4D0B8F1DB
:10581000000FF1D00121C8F80010EDE770B50D467A
:10582000040019D005B3FFF707FB164AD1682868B2
:10583000431C0FD02368126A934202D062688A42E6
:105840001AD96268891A814216D2401A2860204605
:10585000FFF7ACFC002410E0502080F31188BFF368
:105860004F8FBFF36F8FFEE7502080F31188BFF397
:105870004F8FBFF36F8FFEE70124FFF7FDFA20463D
:1058800070BD0000300000202DE9FF5F8346DDE998
:105890000E87994616468A469000FFF753F8050092
:1058A0001AD05C20FFF74EF8040012D025630021C7
:1058B000CDE90241CDE900874B4632465146584674
:1058C000FEF736FE2046FEF7EDFC012004B0BDE8F1
:1058D000F09F2846FFF7E4FA4FF0FF30F6E70000AC
:1058E0002DE9F0411F4690460D46012690B1044631
:1058F000FFF7A2FA0FB1606D386094F858000221EA
:1059000084F85810B8F1050F16D2DFE808F0150B2F
:105910000E141200502080F31188BFF34F8FBFF395
:105920006F8FFEE7616D294301E0616D491C616580
:1059300002E0022803D06565012802D02AE0002693
:1059400028E0201DFFF734FA154DE06A01212A698D
:10595000814011432961134900EB800001EB800075
:10596000211DFFF75DFAA06A38B1502080F311883D
:10597000BFF34F8FBFF36F8FFEE7E06A2968C96AF4
:10598000884207D908494FF080500860BFF34F8F15
:10599000BFF36F8FFFF770FA3046BDE8F08100006B
:1059A00030000020B43D002004ED00E02DE9F04778
:1059B0001F46DDF8209092460D4604004FF0010886
:1059C0001AD0FFF7ABFA5020EFF3118680F311885D
:1059D000BFF34F8FBFF36F8F0FB1606D386094F8D6
:1059E0005800022184F85810BAF1050F16D2DFE8EA
:1059F0000AF0150B0E141200502080F31188BFF32B
:105A00004F8FBFF36F8FFEE7616D294301E0616D3A
:105A1000491C616502E0022803D06565012803D0B6
:105A200033E04FF0000830E0A06A38B1502080F336
:105A30001188BFF34F8FBFF36F8FFEE7154D286BB3
:105A4000012780B1144804F1180100BFFFF7E8F9FD
:105A5000E06A2968C96A884217D9B9F1000F13D0E2
:105A6000C9F8007011E0201DFFF7A2F9E16A2A6968
:105A700007FA01F01043286101EB81000649B439AF
:105A800001EB8000211DE1E7EF6186F311884046BC
:105A9000BDE8F08730000020683E002005484169DD
:105AA00019B1006B18B10020704701207047022027
:105AB00070470000300000200148C06870470000B7
:105AC0003000002010B5FFF729FA0148C06810BD6A
:105AD000300000202DE9F0412E4C0027206B40B112
